:020000040800F2
:1000000000C000203D4100081D2F00081F2F0008E0
:10001000212F0008232F0008252F000800000000D2
:10002000000000000000000000000000272F000872
:10003000292F0008000000002B2F00082D2F00089A
:100040008541000885410008854100088541000878
:100050008541000885410008854100088541000868
:1000600085410008854100086D2F00088541000882
:100070008541000885410008854100088541000848
:100080008541000885410008854100088541000838
:10009000854100088541000885410008772F000848
:1000A0008541000885410008854100088541000818
:1000B0008541000885410008854100088541000808
:1000C00085410008854100088541000885410008F8
:1000D00085410008854100088D2F00089D2F0008EC
:1000E00085410008854100088541000885410008D8
:1000F00085410008854100088541000885410008C8
:100100008541000885410008AD2F000885410008A1
:10011000C12F0008D12F0008E12F0008F52F00089B
:100120008541000885410008854100088541000897
:1001300000000000000000000000000000000000BF
:1001400000000000000000000000000000000000AF
:10015000000000000000000000000000000000009F
:10016000000000000000000000000000000000008F
:10017000000000000000000000000000000000007F
:10018000000000000000000000000000000000006F
:10019000000000000000000000000000000000005F
:1001A000000000000000000000000000000000004F
:1001B000000000000000000000000000000000003F
:1001C000000000000000000000000000000000002F
:1001D000000000000000000000000000000000001F
:0401E0005FF8E0F1F3
:1001E80010B5054C237833B9044B13B10448AFF369
:1001F80000800123237010BDD809002000000000F2
:10020800E4D5000808B5034B1BB103490348AFF315
:10021800008008BD00000000DC090020E4D50008CB
:1002280081F0004102E000BF83F0004330B54FEA9F
:1002380041044FEA430594EA050F08BF90EA020F0C
:100248001FBF54EA000C55EA020C7FEA645C7FEA9F
:10025800655C00F0E2804FEA5454D4EB5555B8BFC2
:100268006D420CDD2C4480EA020281EA030382EA33
:10027800000083EA010180EA020281EA0303362DC5
:1002880088BF30BD11F0004F4FEA01314FF4801C98
:100298004CEA113102D0404261EB410113F0004FAA
:1002A8004FEA03334CEA133302D0524263EB430361
:1002B80094EA050F00F0A780A4F10104D5F1200EFF
:1002C8000DDB02FA0EFC22FA05F2801841F100015A
:1002D80003FA0EF2801843FA05F359410EE0A5F12E
:1002E80020050EF1200E012A03FA0EFC28BF4CF05F
:1002F800020C43FA05F3C01851EBE37101F0004515
:1003080007D54FF0000EDCF1000C7EEB00006EEB21
:100318000101B1F5801F1BD3B1F5001F0CD34908AB
:100328005FEA30004FEA3C0C04F101044FEA445202
:1003380012F5800F80F09A80BCF1004F08BF5FEA89
:10034800500C50F1000041EB045141EA050130BD69
:100358005FEA4C0C404141EB0101013C28BFB1F57B
:10036800801FE9D291F0000F04BF01460020B1FAC6
:1003780081F308BF2033A3F10B03B3F120020CDA99
:100388000C3208DD02F1140CC2F10C0201FA0CF077
:1003980021FA02F10CE002F11402D8BFC2F1200CDC
:1003A80001FA02F120FA0CFCDCBF41EA0C01904092
:1003B800E41AA2BF01EB0451294330BD6FEA0404DB
:1003C8001F3C1CDA0C340EDC04F11404C4F12002C6
:1003D80020FA04F001FA02F340EA030021FA04F3D8
:1003E80045EA030130BDC4F10C04C4F1200220FA2F
:1003F80002F001FA04F340EA0300294630BD21FA6D
:1004080004F0294630BD94F0000F83F4801306BF32
:1004180081F480110134013D4EE77FEA645C18BF26
:100428007FEA655C29D094EA050F08BF90EA020FBD
:1004380005D054EA000C04BF1946104630BD91EAB5
:10044800030F1EBF0021002030BD5FEA545C05D1B8
:100458004000494128BF41F0004130BD14F58004F7
:100468003CBF01F5801130BD01F0004545F0FE416B
:1004780041F470014FF0000030BD7FEA645C1ABFA0
:10048800194610467FEA655C1CBF0B46024650EAD7
:10049800013406BF52EA033591EA030F41F4002103
:1004A80030BD00BF90F0000F04BF0021704730B589
:1004B8004FF4806404F132044FF000054FF000015E
:1004C80050E700BF90F0000F04BF0021704730B51F
:1004D8004FF4806404F1320410F0004548BF4042F4
:1004E8004FF000013EE700BF42004FEAE2014FEA49
:1004F80031014FEA02701FBF12F07F4393F07F4F24
:1005080081F06051704732F07F4208BF704793F026
:100518007F4F04BF41F40021704730B54FF4607439
:1005280001F0004521F000411CE700BF50EA01023C
:1005380008BF704730B54FF000050AE050EA0102E5
:1005480008BF704730B511F0004502D5404261EB55
:1005580041014FF4806404F132045FEA915C3FF496
:10056800D8AE4FF003025FEADC0C18BF03325FEA33
:10057800DC0C18BF033202EBDC02C2F1200300FAE4
:1005880003FC20FA02F001FA03FE40EA0E0021FA09
:1005980002F11444BDE600BF4FEA410212F5001211
:1005A80015D211D56FF47873B3EB625212D94FEAB2
:1005B800C12343F0004343EA505311F0004F23FA9C
:1005C80002F018BF404270474FF00000704750EAF1
:1005D800013005D111F0004008BF6FF000407047AE
:1005E8004FF00000704700BF80F0004002E000BFFD
:1005F80081F0004142001FBF5FEA410392EA030F06
:100608007FEA226C7FEA236C6AD04FEA1262D2EB4F
:100618001363C1BFD218414048404140B8BF5B4254
:10062800192B88BF704710F0004F40F4000020F0ED
:100638007F4018BF404211F0004F41F4000121F003
:100648007F4118BF494292EA030F3FD0A2F101024D
:1006580041FA03FC10EB0C00C3F1200301FA03F18B
:1006680000F0004302D5494260EB4000B0F5000FAE
:1006780013D3B0F1807F06D340084FEA310102F16D
:100688000102FE2A51D2B1F1004F40EBC25008BF1F
:1006980020F0010040EA03007047490040EB0000E9
:1006A800013A28BFB0F5000FEDD2B0FA80FCACF1EA
:1006B800080CB2EB0C0200FA0CF0AABF00EBC25017
:1006C80052421843BCBFD0401843704792F0000F05
:1006D80081F4000106BF80F400000132013BB5E758
:1006E8004FEA41037FEA226C18BF7FEA236C21D0CE
:1006F80092EA030F04D092F0000F08BF0846704733
:1007080090EA010F1CBF0020704712F07F4F04D100
:10071800400028BF40F00040704712F100723CBF13
:1007280000F50000704700F0004343F0FE4040F43D
:10073800000070477FEA226216BF08467FEA2363FB
:100748000146420206BF5FEA412390EA010F40F4E6
:10075800800070474FF0000304E000BF10F0004332
:1007680048BF40425FEA000C08BF704743F0964319
:1007780001464FF000001CE050EA010208BF704734
:100788004FF000030AE000BF50EA010208BF7047BB
:1007980011F0004302D5404261EB41015FEA010CD0
:1007A80002BF84460146002043F0B64308BFA3F1C8
:1007B8008053A3F50003BCFA8CF2083AA3EBC253AA
:1007C80010DB01FA02FC634400FA02FCC2F12002C9
:1007D800BCF1004F20FA02F243EB020008BF20F000
:1007E8000100704702F1200201FA02FCC2F1200266
:1007F80050EA4C0021FA02F243EB020008BF20EA5B
:10080800DC7070474FF0FF0C1CEAD0521EBF1CEA88
:10081800D15392EA0C0F93EA0C0F6FD01A4480EA76
:10082800010C400218BF5FEA41211ED04FF000635F
:1008380043EA501043EA5111A0FB01310CF000408B
:10084800B1F5000F3EBF490041EAD3715B0040EAB1
:10085800010062F17F02FD2A1DD8B3F1004F40EB81
:10086800C25008BF20F00100704790F0000F0CF054
:10087800004C08BF49024CEA502040EA51207F3A18
:10088800C2BFD2F1FF0340EAC250704740F40000F3
:100898004FF00003013A5DDC12F1190FDCBF00F0E4
:1008A80000407047C2F10002410021FA02F1C2F192
:1008B800200200FA02FC5FEA310040F1000053EA2E
:1008C8004C0308BF20EADC70704792F0000F00F07C
:1008D800004C02BF400010F4000F013AF9D040EA82
:1008E8000C0093F0000F01F0004C02BF490011F416
:1008F800000F013BF9D041EA0C018FE70CEAD15314
:1009080092EA0C0F18BF93EA0C0F0AD030F0004C93
:1009180018BF31F0004CD8D180EA010000F0004047
:10092800704790F0000F17BF90F0004F084691F005
:10093800000F91F0004F14D092EA0C0F01D142023F
:100948000FD193EA0C0F03D14B0218BF084608D108
:1009580080EA010000F0004040F0FE4040F4000052
:10096800704740F0FE4040F4400070474FF0FF0CE5
:100978001CEAD0521EBF1CEAD15392EA0C0F93EA2C
:100988000C0F69D0A2EB030280EA010C49024FEA7E
:10099800402037D04FF0805343EA111143EA101337
:1009A8000CF000408B4238BF5B0042F17D024FF4EF
:1009B800000C8B4224BF5B1A40EA0C00B3EB510FCA
:1009C80024BFA3EB510340EA5C00B3EB910F24BFB3
:1009D800A3EB910340EA9C00B3EBD10F24BFA3EB38
:1009E800D10340EADC001B0118BF5FEA1C1CE0D100
:1009F800FD2A3FF650AF8B4240EBC25008BF20F0B3
:100A0800010070470CF0004C4CEA50207F32C2BF06
:100A1800D2F1FF0340EAC250704740F400004FF0A3
:100A28000003013A37E792F0000F00F0004C02BFD4
:100A3800400010F4000F013AF9D040EA0C0093F09E
:100A4800000F01F0004C02BF490011F4000F013BF8
:100A5800F9D041EA0C0195E70CEAD15392EA0C0F60
:100A680008D142027FF47DAF93EA0C0F7FF470AF98
:100A7800084676E793EA0C0F04D14B023FF44CAFDB
:100A880008466EE730F0004C18BF31F0004CCAD170
:100A980030F000427FF45CAF31F000437FF43CAFAC
:100AA8005FE700BF4FF0FF3C06E000BF4FF0010CCE
:100AB80002E000BF4FF0010C4DF804CD4FEA4002B0
:100AC8004FEA41037FEA226C18BF7FEA236C11D0FA
:100AD80001B052EA530C18BF90EA010F58BFB2EBAD
:100AE800030088BFC81738BF6FEAE17018BF40F02D
:100AF800010070477FEA226C02D15FEA402C05D1E1
:100B08007FEA236CE4D15FEA412CE1D05DF8040B65
:100B1800704700BF844608466146FFE70FB5FFF7F8
:100B2800C9FF002848BF10F1000F0FBD4DF808EDB0
:100B3800FFF7F4FF0CBF012000205DF808FB00BFA1
:100B48004DF808EDFFF7EAFF34BF012000205DF8FB
:100B580008FB00BF4DF808EDFFF7E0FF94BF012048
:100B680000205DF808FB00BF4DF808EDFFF7D2FF45
:100B780094BF012000205DF808FB00BF4DF808ED88
:100B8800FFF7C8FF34BF012000205DF808FB00BF55
:100B98004FEA4002B2F1FE4F0FD34FF09E03B3EB82
:100BA80012620DD94FEA002343F0004310F0004FC2
:100BB80023FA02F018BF404270474FF00000704718
:100BC80012F1610F01D1420205D110F0004008BFB7
:100BD8006FF0004070474FF0000070477BB972B962
:100BE8000029BEBF00204FF0004106E008BF0028E2
:100BF8001CBF6FF000414FF0FF3000F0A9B9ADF114
:100C0800080C6DE904CE002909DB002B1ADB00F083
:100C180035F8DDF804E0DDE9022304B0704740420E
:100C280061EB4101002B1BDB00F028F8DDF804E044
:100C3800DDE9022304B0404261EB4101524263EB1B
:100C480043037047524263EB430300F017F8DDF8A3
:100C580004E0DDE9022304B0404261EB4101704742
:100C6800524263EB430300F009F8DDF804E0DDE9E4
:100C7800022304B0524263EB430370472DE9F04767
:100C8800089E0D4604468846002B4DD18A4294465C
:100C980068D9B2FA82F252B101FA02F3C2F1200124
:100CA80020FA01F10CFA02FC41EA030894404FEAE9
:100CB8001C41B8FBF1F71FFA8CFE01FB178807FBF4
:100CC8000EF0230C43EA084398420AD91CEB0303AD
:100CD80007F1FF3580F01E81984240F21B81023FE8
:100CE80063441B1AB3FBF1F001FB103300FB0EFE4B
:100CF800A4B244EA0344A6450AD91CEB040400F153
:100D0800FF3380F00981A64540F206816444023829
:100D18000021A4EB0E0440EA07401EB10023D44092
:100D2800C6E90043BDE8F0878B4208D9002E00F0E1
:100D3800EE800021C6E900050846BDE8F087B3FA51
:100D480083F100294AD1AB4202D3824200F2FC80EF
:100D5800841A65EB030301209846002EE2D0C6E909
:100D68000048DFE702B9FFDEB2FA82F2002A40F05B
:100D78009180A1EB0C0001214FEA1C471FFA8CFE61
:100D8800B0FBF7F307FB1300250C45EA00450EFB03
:100D980003F0A84208D91CEB050503F1FF3802D27D
:100DA800A84200F2CE8043462D1AB5FBF7F007FBA8
:100DB80010550EFB00FEA4B244EA0544A64508D926
:100DC8001CEB040400F1FF3502D2A64500F2B68000
:100DD8002846A4EB0E0440EA03409EE7C1F1200731
:100DE8008B4022FA07FC4CEA030C25FA07FA4FEA73
:100DF8001C49BAFBF9F820FA07F309FB18AA8D4039
:100E08001FFA8CFE1D4300FA01F308FB0EF02C0CB0
:100E180044EA0A44A04202FA01F20BD91CEB04048A
:100E280008F1FF3A80F08880A04240F28580A8F15E
:100E380002086444241AB4FBF9F009FB104400FBCF
:100E48000EFEADB245EA0444A64508D91CEB0404DD
:100E580000F1FF356CD2A6456AD90238644440EAED
:100E68000840A0FB0295A4EB0E04AC42C846AE466F
:100E780056D353D0002E69D0B3EB080264EB0E04AE
:100E880022FA01F304FA07F71F43CC40C6E90074BD
:100E9800002147E70CFA02FCC2F1200125FA01F310
:100EA8004FEA1C4720FA01F195400D43B3FBF7F1D7
:100EB80007FB11331FFA8CFE280C40EA034001FBA4
:100EC8000EF3834204FA02F408D91CEB000001F186
:100ED800FF382FD283422DD902396044C01AB0FBA3
:100EE800F7F307FB1300ADB245EA004503FB0EF02C
:100EF800A84208D91CEB050503F1FF3816D2A84211
:100F080014D9023B6544281A43EA014138E73146BF
:100F1800304607E72F46E4E61846F9E64B45A9D2DE
:100F2800B9EB020865EB0C0E0138A3E74346EAE784
:100F3800284694E74146D1E7D0467BE76444023827
:100F480047E7023B65442FE7084606E73146E9E6EE
:100F5800704700BF844641EA000313F0030349D1F8
:100F6800403A23D30B6803604B6843608B68836007
:100F7800CB68C3600B6903614B6943618B6983610B
:100F8800CB69C3610B6A03624B6A43628B6A8362F3
:100F9800CB6AC3620B6B03634B6B43638B6B8363DB
:100FA800CB6BC36340304031403ADBD230320BD395
:100FB8000B6803604B6843608B688360CB68C360D1
:100FC80010301031103AF3D20C3205D351F8043BEB
:100FD80040F8043B043AF9D2043208D0D2071CBFC7
:100FE80011F8013B00F8013B01D30B8803806046F0
:100FF800704700BF082A13D38B07B1D010F0030342
:10100800AED0C3F10403D21ADB071CBF11F8013BB1
:1010180000F8013BA4D331F8023B20F8023B9FE7DC
:10102800043AD9D3013A11F8013B00F8013BF9D24F
:101038000B7803704B7843708B78837060467047E9
:1010480070B54FF0FF0C4CF4E06C1CEA11541DBF56
:101058001CEA135594EA0C0F95EA0C0F00F0DEF821
:101068002C4481EA030621EA4C5123EA4C5350EA06
:10107800013518BF52EA033541F4801143F4801357
:1010880038D0A0FB02CE4FF00005E1FB02E506F0E8
:101098000042E0FB03E54FF00006E1FB03569CF03D
:1010A800000F18BF4EF0010EA4F1FF04B6F5007F43
:1010B80064F5407404D25FEA4E0E6D4146EB0606B5
:1010C80042EAC62141EA55514FEAC52040EA5E503E
:1010D8004FEACE2EB4F1FD0C88BFBCF5E06F1ED8E8
:1010E800BEF1004F08BF5FEA500E50F1000041EB1F
:1010F800045170BD06F0004646EA010140EA0200CC
:1011080081EA0301B4EB5C04C2BFD4EB0C0541EAED
:10111800045170BD41F480114FF0000E013C00F302
:10112800AB8014F1360FDEBF002001F0004170BD26
:10113800C4F10004203C35DA0C341BDC04F114043F
:10114800C4F1200500FA05F320FA04F001FA05F2CB
:1011580040EA020001F0004221F0004110EBD37098
:1011680021FA04F642EB06015EEA430E08BF20EAC4
:10117800D37070BDC4F10C04C4F1200500FA04F367
:1011880020FA05F001FA04F240EA020001F00041F9
:1011980010EBD37041F100015EEA430E08BF20EA6C
:1011A800D37070BDC4F1200500FA05F24EEA020EB4
:1011B80020FA04F301FA05F243EA020321FA04F0E3
:1011C80001F0004121FA04F220EA020000EBD3709A
:1011D8005EEA430E08BF20EAD37070BD94F0000F9A
:1011E8000FD101F00046400041EB010111F4801FCE
:1011F80008BF013CF7D041EA060195F0000F18BF7F
:10120800704703F00046520043EB030313F4801FBA
:1012180008BF013DF7D043EA0603704794EA0C0F74
:101228000CEA135518BF95EA0C0F0CD050EA41068A
:1012380018BF52EA4306D1D181EA030101F0004107
:101248004FF0000070BD50EA410606BF104619462F
:1012580052EA430619D094EA0C0F02D150EA01363B
:1012680013D195EA0C0F05D152EA03361CBF10467C
:1012780019460AD181EA030101F0004141F0FE411B
:1012880041F470014FF0000070BD41F0FE4141F49F
:10129800780170BD70B54FF0FF0C4CF4E06C1CEA9F
:1012A80011541DBF1CEA135594EA0C0F95EA0C0F54
:1012B80000F0A7F8A4EB050481EA030E52EA03350F
:1012C8004FEA013100F088804FEA03334FF0805530
:1012D80045EA131343EA12634FEA022245EA11155D
:1012E80045EA10654FEA00260EF000419D4208BF0E
:1012F800964244F1FD0404F5407402D25B084FEABB
:101308003202B61A65EB03055B084FEA32024FF466
:1013180080104FF4002CB6EB020E75EB030E22BFC3
:10132800B61A754640EA0C005B084FEA3202B6EB83
:10133800020E75EB030E22BFB61A754640EA5C0032
:101348005B084FEA3202B6EB020E75EB030E22BFC2
:10135800B61A754640EA9C005B084FEA3202B6EBC3
:10136800020E75EB030E22BFB61A754640EADC0082
:1013780055EA060E18D04FEA051545EA16754FEAE4
:1013880006164FEAC30343EA52734FEAC2025FEA02
:101398001C1CC0D111F4801F0BD141EA00014FF091
:1013A80000004FF0004CB6E711F4801F04BF014362
:1013B8000020B4F1FD0C88BFBCF5E06F3FF6AFAE7E
:1013C800B5EB030C04BFB6EB020C5FEA500C50F10E
:1013D800000041EB045170BD0EF0004E4EEA113191
:1013E80014EB5C04C2BFD4EB0C0541EA045170BD98
:1013F80041F480114FF0000E013C90E645EA060EDC
:101408008DE60CEA135594EA0C0F08BF95EA0C0F09
:101418003FF43BAF94EA0C0F0AD150EA01347FF451
:1014280034AF95EA0C0F7FF425AF104619462CE728
:1014380095EA0C0F06D152EA03353FF4FDAE10468B
:10144800194622E750EA410618BF52EA43067FF4DC
:10145800C5AE50EA41047FF40DAF52EA43057FF46C
:10146800EBAE12E74FF0FF3C06E000BF4FF0010C77
:1014780002E000BF4FF0010C4DF804CD4FEA410CDB
:101488007FEA6C5C4FEA430C18BF7FEA6C5C1BD0A8
:1014980001B050EA410C0CBF52EA430C91EA030F29
:1014A80002BF90EA020F0020704710F1000F91EA86
:1014B800030F58BF994208BF90422CBFD8176FEA54
:1014C800E37040F0010070474FEA410C7FEA6C5C22
:1014D80002D150EA013C07D14FEA430C7FEA6C5C29
:1014E800D6D152EA033CD3D05DF8040B704700BF55
:1014F8008446104662468C461946634600E000BFA3
:1015080001B5FFF7B7FF002848BF10F1000F01BD74
:101518004DF808EDFFF7F4FF0CBF012000205DF83F
:1015280008FB00BF4DF808EDFFF7EAFF34BF0120C4
:1015380000205DF808FB00BF4DF808EDFFF7E0FF5D
:1015480094BF012000205DF808FB00BF4DF808EDAE
:10155800FFF7CEFF94BF012000205DF808FB00BF15
:101568004DF808EDFFF7C4FF34BF012000205DF8F7
:1015780008FB00BF4FEA410C7FEA6C5C02D150EADD
:10158800013C0AD14FEA430C7FEA6C5C02D152EA73
:10159800033C02D14FF0000070474FF00100704744
:1015A80053B94AB9002908BF00281CBF4FF0FF31C2
:1015B8004FF0FF30FFF7CCBCADF1080C6DE904CE5D
:1015C800FFF75CFBDDF804E0DDE9022304B07047B7
:1015D80008B50821014804F013FB08BD4C1200208F
:1015E80008B50821014804F00BFB08BD4C12002087
:1015F80010B50C46A0B10D4BB3FBF0F30C480268D4
:10160800591ED162C1605B08D3630123536108216D
:1016180004F07CFA204602F0FDFDFFF7E1FF10BD63
:101628000821034804F0ECFAF4E700BF40420F0039
:101638004C12002001281BD870B50E4B53F82050CF
:101648000D4B33F8106000240FE005EB8403997804
:1016580001EB810301EBC30301EB430189B235F8C8
:101668002400FFF7C5FF0134A4B2B442EDD370BD26
:10167800704700BF04D6000800D600082DE9F041E5
:1016880088B000240494059406940794314B9A6911
:1016980042F020029A619A6902F020020092009AB0
:1016A8009A6942F004029A619A6902F0040201926E
:1016B800019A9A6942F008029A619A6902F008024E
:1016C8000292029A9A6942F010029A619B6903F0A9
:1016D80010030393039BDFF8808022460C214046C9
:1016E80003F012F81D4D22464FF40041284603F03E
:1016F8000BF8F02304931A4B05930126069604A9C8
:10170800284602F0E1FE0C2304930596069402276E
:10171800079704A9404602F0D7FE4FF4004304930C
:1017280005960694079704A9284602F0CDFE22469E
:101738000B210A2002F094FD0A2002F0C9FD22467E
:101748000B21172002F08CFD172002F0C1FD08B014
:10175800BDE8F08100100240000C01400008014083
:101768000000111008B50B480B4B03600B4B43608E
:1017780000238360C3604FF4804202614361836148
:10178800C361036203F066F900B908BD00F088FB85
:10179800FBE700BFF809002000540040801A06004B
:1017A80010B586B00023029303930493059302684F
:1017B800154B9A4201D006B010BD144CA36943F0F2
:1017C8000803A361A36903F008030093009B4FF487
:1017D80040730293122303930323059302A90C4831
:1017E80002F072FE0B4A536843F0E06343F00203D1
:1017F8005360E36943F40013E361E36903F40013FE
:101808000193019BD7E700BF00540040001002403D
:10181800000C01400000014010B500F1010E90F8E5
:1018280001C01CF0F00100D001219EF8012013092D
:10183800C3EB431403EB8403DB009BB20CF00F0CE7
:10184800CCEB4C140CEB840C0CEB8C0C03EB0C1356
:101858009BB29EF802C04FEA1C1E0EEB8E0E02F0E1
:101868000F0202EB820202EB8202920002EB4E02AE
:1018780013449BB20CF00F0C63449BB201B15B4262
:10188800002BC0F211818E4A136000F1040E90F80B
:1018980004C01CF0F00100D001219EF801201309BA
:1018A800C3EB431403EB8403DB009BB20CF00F0C77
:1018B800CCEB4C140CEB840C0CEB8C0C03EB0C13E6
:1018C8009BB29EF802C04FEA1C1E0EEB8E0E02F071
:1018D8000F0202EB820202EB8202920002EB4E023E
:1018E80013449BB20CF00F0C63449BB201B15B42F2
:1018F800002BC0F2DD80734A136000F1070E90F8E8
:1019080007C01CF0F00100D001219EF80120130946
:10191800C3EB431403EB8403DB009BB20CF00F0C06
:10192800CCEB4C140CEB840C0CEB8C0C03EB0C1375
:101938009BB29EF802C04FEA1C1E0EEB8E0E02F000
:101948000F0202EB820202EB8202920002EB4E02CD
:1019580013449BB20CF00F0C63449BB201B15B4281
:10196800002BC0F2A980584A136000F1130E90F8BA
:1019780013C01CF0F00100D001219EF801201309CA
:10198800C3EB431403EB8403DB009BB20CF00F0C96
:10199800CCEB4C140CEB840C0CEB8C0C03EB0C1305
:1019A8009BB29EF802C04FEA1C1E0EEB8E0E02F090
:1019B8000F0202EB820202EB8202920002EB4E025D
:1019C80013449BB20CF00F0C63449BB201B15B4211
:1019D8003E4A136000F1160E90F816C01CF0F00194
:1019E80000D001219EF801201309C3EB431403EB37
:1019F8008403DB009BB20CF00F0CCCEB4C140CEB0B
:101A0800840C0CEB8C0C03EB0C139BB29EF802C0FD
:101A18004FEA1C1E0EEB8E0E02F00F0202EB820242
:101A280002EB8202920002EB4E0213449BB20CF0CE
:101A38000F0C63449BB201B15B42254A136000F16D
:101A4800190C407E10F0F00100D001219CF8012013
:101A58001309C3EB431E03EB8E03DB009BB200F0BC
:101A68000F00C0EB401E00EB8E0000EB800003EB84
:101A780000139BB29CF802004FEA101C0CEB8C0C74
:101A880002F00F0202EB820202EB8202920002EBEA
:101A98004C0213449BB200F00F0003449BB201B107
:101AA8005B420C4A136010BD03F50C43A033EAE611
:101AB80003F50C43A0331EE703F50C43A03352E7AC
:101AC800600A00205C0A0020640A0020500A0020F6
:101AD800540A0020580A002008B501220249034888
:101AE80004F0C7FC08BD00BF4C0A00207413002096
:101AF80008B50F4B1A781AB90E4B1B78842B09D1ED
:101B0800531CDBB20A490B700A4908780A49885401
:101B18001C2B05D801220749084804F0AAFC08BD77
:101B28000846FFF779FE024B00221A70F2E700BF61
:101B3800850A00204C0A0020680A0020741300203F
:101B480008B54FF0FF3305220249034804F025FA8F
:101B580008BD00BF9CD600087413002008B50023F8
:101B680009E000220D49CA540D49CA540D4941F8EB
:101B780023200133DBB2032BF3D9002205210A20ED
:101B880002F06EFB0A2002F0A3FB002205211720B9
:101B980002F066FB172002F09BFB08BD9C0A0020A0
:101BA800880A00208C0A00200346032807D8054A23
:101BB800105C003818BF01200021D1547047002064
:101BC800704700BF880A002010B5044602F01CFBCD
:101BD8000023032B16D819460B4A32F81320A242C9
:101BE80002D00133DBB2F4E7084B53F82130C31AB3
:101BF800092B07D9054B43F821000123044A535404
:101C0800044A535410BD00BFA4D600088C0A002013
:101C18009C0A0020880A00200023114A1380114AD8
:101C2800137001E00133DBB2072B0FD80E4AD25CE8
:101C3800002AF7D00D4AD25692B2094908880244C0
:101C48000A8008490A7801320A70EBE7054B93F9D4
:101C58000030062B02DD064B01221A70704700BFC8
:101C6800B20A0020B10A0020BC0A0020ACD6000845
:101C7800B00A0020184BB3F90030184A92F9002036
:101C880093FBF2F31BB2D900154802681A440260AC
:101C980042F21070824201DD114A1060104A106849
:101CA800104A904202DA0E4A0E4810600E4A11603D
:101CB800B1F5004F02DB47F6FF7111600A4A12685E
:101CC80012F5004F02DA084A08491160084A1380E1
:101CD800054B1868704700BFB20A0020B10A0020FF
:101CE800A40A0020F0D8FFFFAC0A00200080FFFF04
:101CF800A80A002010B50446FFF78EFFFFF7BAFFC9
:101D0800034B1A6810441860214602F091F910BD7F
:101D1800B40A0020014B1878704700BFB00A0020B1
:101D2800014B00221A707047B00A002010B5084B0A
:101D38001A68084B1A600124074B1C7023460022BE
:101D48001146402002F026F9044B1C7010BD00BF5C
:101D5800640A0020B40A0020A00A002034140020DD
:101D680010B50024094B1C70012322462146204649
:101D780002F010F94FF4967002F04CFA234622460E
:101D88002146204602F006F910BD00BFA00A002037
:101D980038B50378242B22D14378442B1FD12C212A
:101DA80004F070FC0024072C16DCA8B13A2104F0DA
:101DB80069FC054680B1013004F06EFBC3B2013BFB
:101DC800002BB8BF5B42DBB2054A13552C212846CD
:101DD80004F058FC0134E6E7024B01221A7038BDC2
:101DE800BC0A0020C40A002010B582B00A4C0122A7
:101DF8000A49204604F03DFB094BEC4693E80300F2
:101E08008CE803004FF0FF3307226146204604F0B8
:101E1800C4F802B010BD00BFBC130020B90A0020EE
:101E2800B4D6000808B5114B1B78242B10D0104AE3
:101E380012883F2A04D8501C0D4908800D498B543C
:101E4800232B09D0012209490B4804F012FB08BDD5
:101E5800074A00211180EAE7054B1B88054A002143
:101E6800D154064B01221A70ECE700BFB90A0020D2
:101E7800080B0020C80A0020BC130020B80A002064
:101E880008B5054B1B7803B908BD034B00221A702F
:101E98000248FFF77DFFF7E7B80A0020C80A0020CC
:101EA80072B6FEE700B591B02822002106A804F01A
:101EB80055FB002301930293039304930593012296
:101EC80006924FF4803307930A9202220D920E93E2
:101ED8004FF4E0130F9306A802F06CFF80B90F23AC
:101EE800019302210291002303934FF4806204922C
:101EF800059301A803F090F920B911B05DF804FB2F
:101F0800FFF7CEFFFFF7CCFF08B502F05FF9FFF748
:101F1800C9FFFFF7B3FBFFF725FC01F0D1FA01F089
:101F28003FF901F065F901F01DFC01F0F5FC01F045
:101F38000DFD01F025FD01F03DFD01F055FD01F01D
:101F4800C1FB01F063FB01F01FFB01F0F1F800F0A9
:101F580041FC00F071FC00F08FFD00F0CBFD00F0BB
:101F6800D7FDFEE738B500240A4B1C700A4B1C70DD
:101F78002A252A462146094804F0F0FA2A4621462D
:101F8800074804F0EBFA01220649074804F071FA01
:101F980038BD00BF920B0020360B0020680B0020D4
:101FA8000C0B0020370B0020E412002038B5164B2C
:101FB8001A781AB9154B1B78232B10D1531CDBB296
:101FC80011490B701149087811498854292B06D9F1
:101FD80091F82930212B08D00B4B00221A700122CE
:101FE8000A490C4804F045FA38BD0B4C0D460FCD94
:101FF8000FC40FCD0FC495E8070003C42280074B18
:1020080001221A70E8E700BF920B0020370B00206E
:10201800680B0020E41200200C0B0020360B002077
:102028000023254A05E032F8020B244921F8130061
:102038000133032BF7DD0020032831DC10B408E05E
:10204800033313E09B101E490B6004320130032850
:102058001ADC1C49136841F820304B685B420C6855
:102068001B1B8C682344C9685B18E9D49B1016496C
:102078000B6014490B684C681B1B8C682344C968A7
:102088005B1ADFD50333DDE7002305E052F8040BC4
:102098000E4941F823000133032BF7DD10BC7047CC
:1020A800002305E052F8040B084941F823000133E6
:1020B800032BF7DD704700BF0D0B0020600B0020DD
:1020C8005C0B0020380B0020580B0020480B002028
:1020D800274B1B7803B970472DE9F041254B186849
:1020E800FEF73CFB2449FEF78DFB0646234BD3F84D
:1020F80000800AF041FB04464046FEF72FFB2146CC
:10210800FEF780FB07461E4B1868FEF727FB0546BF
:1021180030460AF069FB064601462846FEF772FB80
:1021280001463846FEF766FA0746C8F10000FEF792
:1021380015FB3146FEF766FB064629462046FEF7A4
:1021480061FB01463046FEF755FA05463846FEF76C
:102158001FFD04462846FEF71BFD0146094B1B7868
:10216800094A1268204601F015FFBDE8F08100BF5A
:10217800930B0020640A0020D2023739080000209F
:10218800940B0020000000200400002010B4074C2D
:1021980020600748016007490A60074A13709DF8E4
:1021A8000420064B1A7010BC704700BF08000020BE
:1021B800940B00200400002000000020930B002056
:1021C80000B583B002460B464FF0FF3100917821ED
:1021D800024802F01DFD03B05DF804FBF809002079
:1021E80008B5034B587002211846FFF7E9FF08BDF0
:1021F8001C10002008B54FF480620021014804F04B
:10220800ADF908BD980B002038B5104B40221A7064
:10221800002418E0A4F15000C0B2FFF7E1FF00204D
:10222800FFF7DEFF1020FFF7DBFF084D802208498B
:1022380001EBC411681CFEF78DFE81212846FFF7CB
:10224800BFFF0134E4B2072CE4D938BD980F002051
:10225800980B002008B5AE20FFF7C2FF2020FFF73B
:10226800BFFF1020FFF7BCFFB020FFF7B9FFC82061
:10227800FFF7B6FF0020FFF7B3FF1020FFF7B0FF0E
:102288004020FFF7ADFF8120FFF7AAFFF020FFF7FE
:10229800A7FFA120FFF7A4FFA620FFF7A1FFA82012
:1022A800FFF79EFF3F20FFF79BFFA420FFF798FF53
:1022B800D320FFF795FF0020FFF792FFD520FFF707
:1022C8008FFFF020FFF78CFFD920FFF789FF22202E
:1022D800FFF786FFDA20FFF783FF1220FFF780FF62
:1022E800DB20FFF77DFF2020FFF77AFF8D20FFF727
:1022F80077FF1420FFF774FFFFF77CFFFFF784FFD9
:10230800AF20FFF76DFF08BD10F0800F1CD13F29EB
:102318001AD862B94FEAD10C01F0070101228A40AC
:102328000A4B03EBCC13195C1143195470474FEA5D
:10233800D10C01F0070101228A40044B03EBCC13B6
:10234800195C21EA02011954704700BF980B00205C
:1023580030B59DF8104007282AD811F0800F27D1F2
:102368000CB1D243D2B29DF80CE00EF1010EFF245D
:1023780004FA0EFE4FFA8EFE4FFA82FC4EEA0C0269
:10238800C3F1080344FA03F35CB242EA0403DBB284
:10239800084D2B70084A02EBC010425C13404354AE
:1023A8002CEA0E0222EA0402D2B22A7013434354E2
:1023B80030BD00BF1F100020980B00202DE9F0430E
:1023C80083B0064690461C469DF82890CF0801F039
:1023D80007052B44082B1EDDAA40CDF804900723DF
:1023E80000932B46D2B201463846FFF7B1FFC5F13C
:1023F800080248FA02F22C44E4B2CDF80490093CF1
:10240800E4B200940023D2B23146781CFFF7A0FF53
:1024180003B0BDE8F083AA402C44E4B2CDF80490A0
:10242800013CE4B200942B46D2B201463846FFF78D
:102438008FFFEDE72DE9F04182B006461546984634
:10244800CF0801F00704A240019307230093234615
:10245800D2B201463846FFF77BFF14B902B0BDE897
:10246800F081C4F1080245FA02F2CDF80480013C7B
:10247800E4B200940023D2B23146781CFFF768FF1B
:10248800ECE72DE9F04F85B08046894692461E4616
:102498009DF8383003939DF83CB0DF0803F007033C
:1024A8000293002512E006FB045209EBC40105EB78
:1024B80008005B461AF80220C9B2C0B2FFF7BAFF9B
:1024C8000134E4B2BC42EED30135EDB2B54201D2DB
:1024D8000024F7E7029BBBB106FB07F70024039D26
:1024E80010E03A1925F00701494404EB0800CDF83B
:1024F80000B0029B1AF80220C9B2C0B2FFF75EFF13
:102508000134E4B2B442ECD305B0BDE8F08F00006A
:102518002DE9F04F85B005460C461E469DF83870EB
:10252800904231D09046994241D0A2EB00090FFA6F
:1025380089F9A3EB010AB9F1000F49DD01230193E1
:10254800BAF1000F48DD012302932DB224B2B9F18C
:10255800000FB8BFC9F100091FFA89F303930FFAF6
:1025680089F9BAF1000FB8BFCAF1000A1FFA8AFB4D
:102578000FFA8AFAD14549DC4FF000089946CDF8A0
:102588000CB0DDF808B047E099420BD92E4B197012
:1025980034460E4606E03A4621462846FFF7B4FE82
:1025A8000134E4B2A642F6D205B0BDE8F08F9042FD
:1025B8000BD9254B18701546804606E03A46214649
:1025C8002846FFF7A1FE0135EDB2A845F6D2EBE7A4
:1025D8004FF0FF330193B3E74FF0FF330293B4E7B3
:1025E80055442DB24545DFD03A46E1B2E8B2FFF78F
:1025F8008BFE5E44B3B236B2B9EB460FF0DC029AFA
:10260800144424B2039A9B1A1EB2E9E70026DDF8A7
:1026180004A0E7E75C4424B2B442C5D03A46E1B22C
:10262800E8B2FFF771FEC8441FFA88F30FFA88F87A
:10263800BAEB480FEEDC019A15442DB2039A9B1AA7
:102648000FFA83F8E6E700BF1E10002070B582B0CD
:102658005D68203A1C7804F1070C4FEAEC0C5B78B3
:1026680003FB0CFC9DF81860019600940CFB0252C9
:10267800FFF707FF02B070BD2DE9F04182B00546B3
:102688000F4614461E469DF820800AE0CDF80080CB
:10269800334639462846FFF7D9FF70782844C5B233
:1026A80001342278002AF1D102B0BDE8F081037824
:1026B80090F90020002A0DDA03F0E002C02A0BD0BE
:1026C80003F0F002E02A09D003F0F803F02B07D05A
:1026D8000020704701207047022070470320704790
:1026E800042070472DE9F04F87B00390049193467A
:1026F8001E469DF84030059333780733DB1096F873
:10270800019003FB09F95FFA89F909F104095FFAF5
:1027180089F94FF0000A15E0059B0193337800937F
:1027280073782A1D0499039C2046FFF7AAFE737844
:102738002344DBB20393C2441FFA8AFA012300E060
:102748000023E3B10BEB0A071BF80A30002B3ED03D
:102758003846FFF7ACFF8046002838D00024337A8B
:10276800A342EDD9756809FB045542462946384607
:1027780003F0C0FE0028CFD00134E4B2EFE7B8F18F
:10278800010F11D0059B0093F36820220499039C44
:102798002046FFF75BFFF3685B782344DBB20393C3
:1027A800C2441FFA8AFACDE7059B0093F3681BF829
:1027B8000A200499039C2046FFF748FFF3685B78DA
:1027C8002344DBB20393C2441FFA8AFABAE707B07C
:1027D800BDE8F08F08B5154802F0BCFE144802F0B9
:1027E800B9FE144802F0B6FEC82001F013FDFFF749
:1027F80031FD01F01FF8FEF7EBFE00F033FBFFF7A9
:10280800B1FBFFF7ABF9FFF767F9FFF7EDFA01F056
:102818002BFA01F0AFFA012001F0DEFA002001F0F6
:10282800FFFA0120FEF706FF08BD00BFBC1100201B
:1028380004120020741100202DE9F04182B03221E9
:10284800002000F01DFBE121042000F019FB14E03A
:10285800714B01221A700120FFF7A6F9002840F0F9
:10286800D0800220FFF7A0F9002840F0CD80032097
:10287800FFF79AF9002840F0CB80FFF7BBFC674DC3
:10288800012600962B46664A00210420FFF72AFFFE
:10289800002400940E23802219462046FFF738FEB4
:1028A800604F00943B46604A10212046FFF7E4FE43
:1028B80000943B465D4A1C212046FFF7DDFE00944C
:1028C8003B465B4A28212046FFF7D6FE00943B464C
:1028D800584A34212046FFF7CFFE00942B46564A2B
:1028E80010211820FFF7FEFE00942B46534A1C21A6
:1028F8001820FFF7F7FE00942B46514A282118208C
:10290800FFF7F0FE00962B464E4A34211820FFF7B9
:10291800E9FE00942B464C4A10214020FFF7E2FEC6
:102928004A4B1B68DFF828814A4E42462821304628
:1029380003F066FE00943B46324610216420FFF700
:102948009BFE00942B46444A1C214020FFF7CAFEF8
:10295800424B1868FDF702FF4149FEF707F8FDF7FB
:10296800C3FDCDE900013F4A2821304603F048FE67
:1029780000943B4632461C215820FFF77DFE009408
:102988002B46394A28214020FFF7ACFE374B93F9F4
:10299800013042462821304603F032FE00943B467F
:1029A800324628215820FFF767FE00942B46304A0C
:1029B80034214020FFF796FE2E4A117853781944A7
:1029C80093780B44D1780B441179194453791944FD
:1029D80093790B44D279134442462821304603F0B8
:1029E8000FFE00943B46324634216420FFF744FE34
:1029F800FFF70AFC2046FFF7D7F800283FF42BAF73
:102A080026E7FFF79DF82CE70220FEF713FE2EE7D6
:102A180002B0BDE8F08100BF3414002030E10008A6
:102A2800D0E70008BCD60008F0E70008F8E700087F
:102A380000E8000808E8000810E800081CE800089A
:102A480020EC000828E8000830E80008580B0020AF
:102A580038E80008201000203CE80008640A00203C
:102A68000000C84244E800084CE80008941200201E
:102A780054E80008BC0A002030B583B0012144F2B4
:102A8800506001F0D5FA00240BE0012500950023E1
:102A98001A4619466042FFF779FB284601F0BAFB4F
:102AA8002C443F2CF1DD01F03FFB0028FBD1002432
:102AB80000940123224621462046FFF767FB234660
:102AC80022462146402001F065FAFFF72FF9084B0E
:102AD8001A6842F6DF639A42F9DDFFF721F9FFF73A
:102AE80019F90028FBD0FFF73BF903B030BD00BF50
:102AF800580B002008B5012142F2283001F098FA5D
:102B08004FF4FA7001F086FB0020FEF793FD08BD34
:102B180010B582B0D24B1B68013B052B4AD8DFE8C1
:102B280013F006004B008F00D30017015B01012151
:102B3800002001F07DFA002408E00123009300231F
:102B48001A4619466042FFF721FB01343F2CF4DD99
:102B580040F6C41001F05EFB002400942346224690
:102B680021462046FFF712FB0123224621466FF03B
:102B78003F0001F00FFA40F2DC5001F04BFB01235B
:102B880022462146204601F005FA4FF4FA7001F07A
:102B980041FB012322466FF06301204601F0FAF958
:102BA8004FF4966001F036FB012322462146204669
:102BB80001F0F0F902B010BD0121002001F038FA4F
:102BC800002408E00123009300231A4619466042B6
:102BD800FFF7DCFA01343F2CF4DD40F6C41001F0B5
:102BE80019FB002400942346224621462046FFF77D
:102BF800CDFA0123224621466FF03F0001F0CAF9C1
:102C080040F2DC5001F006FB012322462146204613
:102C180001F0C0F94FF4FA7001F0FCFA01232246E2
:102C28006FF06301204601F0B5F940F6485001F015
:102C3800F1FA012322462146204601F0ABF9B9E713
:102C48000121002001F0F4F9002408E00123009399
:102C580000231A4619466042FFF798FA01343F2CC0
:102C6800F4DD40F6C41001F0D5FA002400942346A0
:102C7800224621462046FFF789FA012322462146AB
:102C88006FF03F0001F086F940F2DC5001F0C2FA23
:102C9800012322462146204601F07CF94FF4FA70C0
:102CA80001F0B8FA012322466FF06301204601F0D3
:102CB80071F94FF4AF5001F0ADFA012322462146D5
:102CC800204601F067F975E7012144F2506001F0F0
:102CD800AFF9002408E00123009300231A4619469F
:102CE8006042FFF753FA01343F2CF4DD40F6C4107C
:102CF80001F090FA002400942346224621462046FB
:102D0800FFF744FA0123224621466FF03F0001F005
:102D180041F94FF42F7001F07DFA01232246214634
:102D2800204601F037F94FF4FA7001F073FA0123E5
:102D380022466421204601F02DF94FF4966001F0F7
:102D480069FA012322462146204601F023F931E79A
:102D5800012144F2506001F06BF9002408E00123DE
:102D6800009300231A4619466042FFF70FFA013410
:102D78003F2CF4DD40F6C41001F04CFA0024009416
:102D88002346224621462046FFF700FA0123224621
:102D980021466FF03F0001F0FDF84FF42F7001F06D
:102DA80039FA012322462146204601F0F3F84FF470
:102DB800FA7001F02FFA012322466421204601F01F
:102DC800E9F840F6485001F025FA01232246214649
:102DD800204601F0DFF8EDE6012144F2506001F0F1
:102DE80027F9002408E00123009300231A46194616
:102DF8006042FFF7CBF901343F2CF4DD40F6C410F4
:102E080001F008FA00240094234622462146204671
:102E1800FFF7BCF90123224621466FF03F0001F07D
:102E2800B9F84FF42F7001F0F5F901232246214635
:102E3800204601F0AFF84FF4FA7001F0EBF90123E6
:102E480022466421204601F0A5F84FF4AF5001F066
:102E5800E1F9012322462146204601F09BF8A9E624
:102E68000C00002010B5054C0021204602F04EFE53
:102E78000421204602F04AFE10BD00BF2C1100209C
:102E8800B1F5877F01D94FF487714FF4FA6303FBDB
:102E980001F10D4BA3FB0131090A01F5FA7118B9CB
:102EA8000A4B1B6859637047042805D0082807D0C7
:102EB800064B1B6819647047044B1B68996370477D
:102EC800024B1B68D963704749D6B9F22C11002010
:102ED80082B00E4B9A6942F001029A619A6902F037
:102EE80001020092009ADA6942F08052DA61DB69E5
:102EF80003F080530193019B054A536823F0E06374
:102F080043F00073536002B0704700BF00100240E6
:102F180000000140FEE7FEE7FEE7FEE7FEE7704738
:102F28007047704708B501F063F90C4A136801331C
:102F38001360132B06DC0A4A136801331360132B42
:102F480006DC08BDFFF76CF8044B00221A60F2E7B4
:102F5800FEF796FF024B00221A60F2E748100020A5
:102F68004C10002008B5102001F0D4FB08BD08B5AE
:102F7800202001F0CFFB402001F0CCFB802001F0A5
:102F8800C9FB08BD08B5024803F014F908BD00BF25
:102F9800E412002008B5024803F00CF908BD00BF90
:102FA8002C13002008B5FFF793F8024802F013FB32
:102FB80008BD00BF7411002008B5024803F0FAF8F4
:102FC80008BD00BF7413002008B5024803F0F2F8EA
:102FD80008BD00BFBC13002008B500F083FC024800
:102FE80002F0F9FA08BD00BFBC11002008B5094B72
:102FF8001B7833B9084B1B783BB9084802F0EBFA49
:1030080008BD0020FEF776FEF4E701F045F800F071
:1030180023FFF2E7A00A0020341400200412002045
:1030280008B500F053FC08BD08B503680C4A934284
:1030380009D00C4A934209D00B4A934209D00B4A53
:10304800934209D008BDFEF7B1FFFBE7FEF7EAFEA1
:10305800F8E7FEF74DFDF5E700F04EFEF2E700BF9A
:103068000044004000500040004C00400048004030
:103078000120704708B503F013FA162303604FF0D8
:10308800FF3008BD08B54FF0FF31FFF7F3FFFEE74B
:1030980070B50C461646002506E0AFF300802146C1
:1030A80001F8010B01350C46B542F6DB304670BD20
:1030B80070B50C461646002504E014F8010BAFF372
:1030C80000800135B542F8DB304670BD4FF0FF3067
:1030D80070474FF400534B60002070470120704741
:1030E8000020704710B503460C4A0D490D4800688A
:1030F80040B10C4800680344521A934206D8094A62
:10310800136010BD0748084C0460F2E703F0C8F9E3
:103118000C2303604FF0FF30F3E700BF00C000202E
:103128000004000050100020901400207047000098
:1031380000B587B00023029303930493059300938B
:1031480001931548154A026040F2CF22426083601D
:1031580040F2F312C2600361836102F03FFB90B951
:103168004FF48053029302A90B4802F041FC68B95E
:103178000023009301936946074802F087FD40B990
:1031880007B05DF804FBFEF78BFEE9E7FEF788FE63
:10319800EEE7FEF785FEF3E774110020000C00400F
:1031A80000B583B00023009301930F480F4A0260D3
:1031B80047224260836042F20F73C36080238361B9
:1031C80002F00CFB50B900230093019369460648AE
:1031D80002F05CFD28B903B05DF804FBFEF760FE61
:1031E800F1E7FEF75DFEF6E7BC1100200010004095
:1031F80000B583B00023009301930F480F4A026083
:1032080047224260836044F61F63C3608023836162
:1032180002F0E4FA50B90023009301936946064886
:1032280002F034FD28B903B05DF804FBFEF738FE60
:10323800F1E7FEF735FEF6E704120020001400401F
:1032480086B00368234A934216D0B3F1804F1FD04B
:10325800214A934228D0214A934230D0204A9342AF
:1032680014D1204B9A6942F400529A619B6903F485
:1032780000530593059B09E01A4B9A6942F40062D2
:103288009A619B6903F400630193019B06B0704740
:1032980003F50433DA6942F00102DA61DB6903F00D
:1032A80001030293029BF1E70E4BDA6942F0020236
:1032B800DA61DB6903F002030393039BE6E7094B3A
:1032C800DA6942F00402DA61DB6903F0040304936B
:1032D800049BDBE7002C014000040040000800408C
:1032E800003401400010024000B585B00368224A4E
:1032F800934208D0214A934218D0214A934228D0B9
:1033080005B05DF804FB1F4BDA6942F00802DA6188
:10331800DB6903F008030193019B0022012132209D
:1033280000F09EFF322000F0D3FFE9E7154BDA6981
:1033380042F01002DA61DB6903F010030293029B8A
:1033480000220121362000F08BFF362000F0C0FF5C
:10335800D6E70C4BDA6942F02002DA61DB6903F048
:1033680020030393039B00220221372000F078FFFB
:10337800372000F0ADFFC3E7000C0040001000400C
:10338800001400400010024000B58BB000230693E3
:103398000793089309930368404A93420ED0B3F108
:1033A800804F20D03E4A934231D03E4A93424BD080
:1033B8003D4A93425CD00BB05DF804FB3B4B9A69E5
:1033C80042F004029A619B6903F004030193019B94
:1033D8004FF41063069302230793099306A9344810
:1033E80001F072F8E7E703F504339A6942F0040242
:1033F8009A619B6903F004030293029B02230693DC
:103408000793099306A92A4801F05EF8D3E7274BEA
:103418009A6942F008029A619B6903F008030393D2
:10342800039B3323069302230793099306A9214894
:1034380001F04AF8204A536823F4406343F0E063FC
:1034480043F400635360B6E7184B9A6942F00802E8
:103458009A619B6903F008030493049BC0230693B5
:1034680002230793099306A9124801F02DF8A2E751
:103478000E4B9A6942F010029A619B6903F010039F
:103488000593059B4FF44073069302230793099312
:1034980006A90A4801F018F88DE700BF002C014082
:1034A80000040040000800400034014000100240C1
:1034B80000080140000C01400000014000100140DC
:1034C80010B592B000241094119409940A940B94A6
:1034D8000C940D940E940F942022214601A803F019
:1034E8003DF82748274B0360446084604FF6FF731C
:1034F800C36004614461846102F09CF9002830D102
:1035080000231093119310A91D4802F0BFFB002857
:103518002AD16023099300220A920B920C920D92F1
:103528000E920F9209A9164802F0E8F9F8B90C2290
:1035380009A9134802F0E2F9E0B9002301930293C4
:103548000393049305934FF400520692089301A93C
:103558000B4802F0D9FB80B90948FFF715FF12B0F4
:1035680010BDFEF79DFCCBE7FEF79AFCD1E7FEF70E
:1035780097FCDCE7FEF794FCDFE7FEF791FCEBE74E
:1035880054100020002C014000B58BB00023089394
:103598000993019302930393049305930693079366
:1035A80019484FF0804202600222426083604FF463
:1035B8007A72C2600361836102F03CF9D0B90023DA
:1035C8000893099308A9104802F060FBA8B9602382
:1035D8000193002302930393059304220DEB020148
:1035E800094802F08BF958B90748FFF7CDFE0BB030
:1035F8005DF804FBFEF754FCE1E7FEF751FCE6E753
:10360800FEF74EFCF0E700BF9C10002000B58BB021
:10361800002308930993019302930393049305935A
:10362800069307932548264A0260436083604FF655
:10363800FF72C2600361836102F0FCF858BB00238B
:103648000893099308A91D4802F020FB30BB6023AA
:103658000193002202920392059201A9174802F0F1
:103668004DF9F0B904220DEB0201144802F046F9B5
:10367800D0B9082201A9114802F040F9B8B90C22C2
:1036880001A90E4802F03AF9A0B90C48FFF77CFEF0
:103698000BB05DF804FBFEF703FCD0E7FEF700FC77
:1036A800D5E7FEF7FDFBDDE7FEF7FAFBE1E7FEF7FE
:1036B800F7FBE4E7FEF7F4FBE7E700BFE4100020C0
:1036C8000004004000B58BB00023089309930193D0
:1036D8000293039304930593069307931F48204A84
:1036E800026047224260836044F61F62C260036141
:1036F800836102F09FF820BB00230893099308A96F
:10370800164802F0C3FAF8B96023019340F2663311
:10371800029300220392059201A9104802F0EEF8E4
:10372800A8B940F67703029304220DEB02010B4877
:1037380002F0E4F870B90948FFF726FE0BB05DF80F
:1037480004FBFEF7ADFBD7E7FEF7AAFBDCE7FEF7C5
:10375800A7FBE6E7FEF7A4FBEDE700BF2C1100206E
:103768000008004010B592B00024109411940994F8
:103778000A940B940C940D940E940F9420222146D5
:1037880001A802F0EBFE2948294B03604723436058
:10379800846040F2E733C36004614461802383613D
:1037A80002F048F8002831D100231093119310A992
:1037B8001E4802F06BFA00282BD1602309930023DE
:1037C8000A930B930C930D930E930F93082209A958
:1037D800164802F093F8F8B90C2209A9134802F028
:1037E8008DF8E0B9002301930293039304930593A2
:1037F8004FF400520692089301A90C4802F084FA8B
:1038080080B90A48FFF7C0FD12B010BDFEF748FBAB
:10381800CAE7FEF745FBD0E7FEF742FBDCE7FEF719
:103828003FFBDFE7FEF73CFBEBE700BF4C12002055
:1038380000340140014B00221A7070479812002092
:1038480030B49DF80850C0F1000C0C4C84F801C04D
:10385800C1F1000C84F802C0E27023715DB14FF031
:10386800010C064C84F805C0054C20706170A270EC
:10387800E37030BC70474FF0000CF2E714000020F2
:103888009412002008B5074B1B7843B9054B012259
:103898001A700B220449054802F0E5FB08BD022016
:1038A800FCE700BF9812002014000020E41200205A
:1038B80010B54042044CA0714942E1712272637212
:1038C800FFF7E0FF10BD00BF14000020034B834248
:1038D80000D07047024B00221A70FAE7E412002069
:1038E8009812002008B50023032B09DC084A32F897
:1038F800132012B20749C9568A4204D10133F3E7AB
:10390800012313B108BD0023FBE7FFF7BBFFF9E76D
:10391800600B00209412002008B50A480A4B036087
:103928004FF4E133436000238360C36003610C22DA
:1039380042618361C36102F000FB00B908BDFEF774
:10394800AFFAFBE774130020004C004008B50A48A2
:103958000A4B03604FF4E133436000238360C36084
:1039680003610C2242618361C36102F0E6FA00B987
:1039780008BDFEF795FAFBE7BC1300200050004095
:1039880008B50A480A4B03604FF4E133436000234B
:103998008360C36003610C2242618361C36102F0EA
:1039A800CCFA00B908BDFEF77BFAFBE79C120020B1
:1039B8000038014008B50A480A4B03604FF4E13368
:1039C800436000238360C36003610C22426183610A
:1039D800C36102F0B2FA00B908BDFEF761FAFBE76D
:1039E800E41200200044004008B50A480A4B03606E
:1039F8004FF4E133436000238360C36003610C220A
:103A080042618361C36102F098FA00B908BDFEF70C
:103A180047FAFBE72C1300200048004030B591B06E
:103A280000230C930D930E930F930368844A9342DB
:103A38000FD0844A93423ED0834A934274D0834A3B
:103A4800934200F09B80824A934200F0C78011B0F5
:103A580030BD804BDA6942F40022DA61DA6902F497
:103A680000220192019A9A6942F010029A619B69B8
:103A780003F010030293029B4FF480630C9302231C
:103A88000D9303230F93744D0CA9284600F01CFDD9
:103A98004FF400630C9300240D940E940CA928464F
:103AA80000F012FD22462146342000F0D9FB3420D4
:103AB80000F00EFCCBE7674BDA6942F48012DA615A
:103AC800DA6902F480120392039A9A6942F01002AA
:103AD8009A619A6902F010020492049A9A6942F073
:103AE80020029A619B6903F020030593059B4FF41C
:103AF80080530C9302230D9303230F930CA956486C
:103B080000F0E2FC04230C9300240D940E940CA9FD
:103B1800524800F0D9FC22462146352000F0A0FB8F
:103B2800352000F0D5FB92E74A4B9A6942F480426F
:103B38009A619A6902F480420692069A9A6942F05A
:103B480004029A619B6903F004030793079B4FF4EF
:103B580000730C9302230D9303230F93404C0CA97D
:103B6800204600F0B1FC4FF480630C9300230D93C2
:103B78000E930CA9204600F0A7FC68E7354BDA69DC
:103B880042F40032DA61DA6902F400320892089AE3
:103B98009A6942F004029A619B6903F0040309934D
:103BA800099B04230C9302230D9303230F932C4D9D
:103BB8000CA9284600F088FC08230C9300240D94D7
:103BC8000E940CA9284600F07FFC224621462620A8
:103BD80000F046FB262000F07BFB38E71D4BDA6936
:103BE80042F48022DA61DA6902F480220A920A9A9F
:103BF8009A6942F008029A619B6903F008030B93E3
:103C08000B9B4FF480630C9302230D9303230F93B4
:103C1800144D0CA9284600F057FC4FF400630C9390
:103C280000240D940E940CA9284600F04DFC224661
:103C38000121272000F014FB272000F049FB06E7AC
:103C4800004C004000500040003801400044004053
:103C580000480040001002400010014000140140DC
:103C680000080140000C014008B501220249034840
:103C780002F0FFFB08BD00BF181400202C13002021
:103C8800184B1B7853B1174B00221A70164B1B7830
:103C9800212B03D1144B1B7B232B00D0704700B57D
:103CA80085B01249104AB2F80100D37808808B70A9
:103CB8000023CB7002938DF80C3000938DF80430FC
:103CC800536802939368009302A802F0E5FB084B3F
:103CD8001880684602F0E0FB064B188005B05DF8D6
:103CE80004FB00BF12140020041400201414002048
:103CF8001A1400201C14002008B5184A1368013350
:103D08001360174B1B78212B14D0164A11784A1EC2
:103D1800D2B20B2A15D84A1CD2B2124802701248E5
:103D280043540D2A0DD1037B232B10D00D4B0022B9
:103D38001A7006E00B4A00211170012111700A4A1D
:103D4800137001220649094802F093FB08BD084B8D
:103D580001221A70FFF794FFE8E700BFF40900207A
:103D68001814002011140020041400202C13002023
:103D78001214002000B583B0134A536823F0E0639F
:103D880043F000735360114B996941F00101996147
:103D98009B6903F001030193019B536823F0E063DF
:103DA80043F00073536000224FF44041084800F08C
:103DB800ABFC0848036800229A63042101F0A6FEC0
:103DC80003B05DF804FB00BF000001400010024092
:103DD800000801409C10002010B510B101280ED039
:103DE80010BD0E4C01224FF40041204600F08CFC1F
:103DF80000224FF48041204600F086FCF0E7074C93
:103E080000224FF40041204600F07EFC01224FF4CE
:103E18008041204600F078FCE2E700BF000801403E
:103E2800B0F57A7F01D94FF47A70024B1B6898631A
:103E3800704700BF9C10002008B5431AA3EB020C82
:103E48000844811A104413445BB242B249B24FFA93
:103E58008CF0FFF72DFD08BD70B5454B1C68454B30
:103E68001B68E41A02E0A4F50C44A03C44F2506339
:103E78009C42F8DC02E004F50C44A0343E4B9C4222
:103E8800F9DBE21726463D4803684168E31841EB31
:103E9800E4710360416042F21170834271F10003E2
:103EA80005DB364B42F210700021C3E90001334BA9
:103EB80018685968324B98424FF0FF3371EB03038F
:103EC80005DA2E4B2E484FF0FF31C3E900012D4B88
:103ED8001D68651B910041EA9671B300981942EB81
:103EE8000103DB0043EA5073C000801B63EB02034D
:103EF8001B0143EA10730001801942EB0302D20050
:103F080042EA5072C0001D4B19685E684FEA860C81
:103F18004CEA917C8B005B1846EB0C06DB1876416B
:103F2800C01842EB0602642605FB06F6851942EB2B
:103F3800E676154A4FF0FF3328463146FCF74EFE29
:103F48000246124B9D424FF0FF3376EB030307DB2B
:103F58000F4B9D4276F1000303DB6FF07E0200E019
:103F68007F22084B1C6000210846FFF765FF70BDE3
:103F78002C140020640A0020B0B9FFFF2014002090
:103F8800F0D8FFFF281400206079FEFF01B03CFF45
:103F98000050C30000B583B0A0EB010CACEB020EDF
:103FA8000844811A10446244009353B242B249B2A1
:103FB8004FFA8EF0FFF744FC03B05DF804FB0000F5
:103FC80002E0A0F50C40A03844F250639842F8DCB7
:103FD80002E000F50C40A030014B9842F9DB704735
:103FE800B0B9FFFF38B504464FF07C51FCF7A8FD87
:103FF80038B121462046FCF7FDFA2146FCF702FCC1
:1040080038BD4FF040412046FCF7FCFB2146FCF749
:10401800F9FB05464FF081412046FCF7F3FB0146CA
:104028002846FCF7E7FA4FF07E51FCF7E1FAE7E79C
:1040380008B5124B1B781BB1114B1B68834211D07A
:104048000F4B186079B10F4B1B680F4A1360C01AE9
:10405800FFF7B6FF0D4B18600D4B00221A80074B77
:1040680001221A7008BD054B00221A70094B1A88E4
:10407800074B1A80034B1860F4E700BF3514002083
:10408800301400202C1400203C1400203814002088
:104098004014002020000020F8B51D4B1B78002B91
:1040A80035D01C4B1C882046FCF754FB05461A4BA0
:1040B8001E883046FCF74EFB01462846FCF756FCA6
:1040C80005464FF07E51FCF759FD08B14FF07E557B
:1040D8002846FFF787FF0546104B1F683846FCF750
:1040E8003DFB2946FCF78EFBFCF752FD0C4B1B6889
:1040F80018440C4A10600134A4B2064A1480A6423F
:1041080005D8034A002111701F44064B1F60F8BDF3
:10411800351400204014002020000020381400200E
:104128003C1400202C140020014B1878704700BF65
:1041380035140020FEF7FAFF0B480C490C4A0023FF
:1041480002E0D458C4500433C4188C42F9D3094A45
:10415800094C002301E013600432A242FBD302F0B1
:10416800A5F9FDF7D1FE704700000020D80900200E
:1041780068F00008D809002090140020FEE700002D
:1041880010B504460E4B18784FF47A73B3FBF0F36E
:104198000C4A1068B0FBF3F000F0A8F868B90F2CCF
:1041A80001D901200AE0002221464FF0FF3000F03B
:1041B80057F8054B1C60002000E0012010BD00BF2F
:1041C80022000020100000202400002008B5074A23
:1041D800136843F010031360032000F02FF80F203A
:1041E800FFF7CEFFFEF774FE002008BD0020024056
:1041F800034A1168034B1B780B441360704700BFD8
:104208004414002022000020014B1868704700BFAA
:104218004414002038B50446FFF7F6FF0546B4F10C
:10422800FF3F02D0044B1B781C44FFF7EDFF401BF7
:10423800A042FAD338BD00BF22000020074AD36845
:1042480023F4E0631B041B0C000200F4E06003434A
:1042580043F0BF6343F40033D360704700ED00E0E0
:1042680000B5194BDB68C3F30223C3F1070CBCF19B
:10427800040F28BF4FF0040C03F1040EBEF1060F23
:1042880018D9033B4FF0FF3E0EFA0CFC21EA0C0153
:1042980099400EFA03F322EA0303194300280BDBC3
:1042A8000901C9B200F1604000F5614080F80013CF
:1042B8005DF804FB0023E5E700F00F000901C9B22F
:1042C800024B1954F4E700BF00ED00E014ED00E0E4
:1042D800002807DB00F01F02400901239340024A2F
:1042E80042F82030704700BF00E100E00138B0F12B
:1042F800807F0BD24FF0E0235861054AF02182F805
:1043080023100020986107221A6170470120704726
:1043180000ED00E090F82130DBB2022B06D0042338
:104328008363002380F820300120704702681368F7
:1043380023F00E0313600268136823F0010313606F
:10434800036CC16B012202FA03F34B6080F8212051
:10435800002380F8203018467047000008B590F810
:104368002130DBB2022B03D004238363012008BD74
:104378000268136823F00E0313600268136823F0C1
:104388000103136003684C4A93424ED9783A93422A
:1043980024D01432934230D0143293422FD01432A6
:1043A80093422FD0143293422FD0143293422FD0FD
:1043B800143293422FD002F5627293422ED01432F7
:1043C80093422DD0143293422CD01432934202D00F
:1043D8004FF4803203E04FF4805200E00122374B63
:1043E8005A60012380F82130002380F82030436B85
:1043F800002B5ED098470020B9E71022EFE74FF472
:104408008072ECE74FF48052E9E74FF48032E6E738
:104418004FF48012E3E74FF08072E0E70122DEE715
:104428001022DCE74FF48072D9E7254A934224D062
:104438001432934225D01432934224D0143293423A
:1044480024D01432934224D01432934224D014320C
:10445800934224D002F56272934223D014329342DD
:1044680022D01432934221D01432934202D04FF416
:10447800803203E04FF4805200E00122114B5A6071
:10448800AFE71022FAE74FF48072F7E74FF4805253
:10449800F4E74FF48032F1E74FF48012EEE74FF083
:1044A8008072EBE70122E9E71022E7E74FF4807218
:1044B800E4E700205BE700BF800002400004024000
:1044C800080002400000024070B582B00024A446F3
:1044D800B0E0874DAA4210D007D9864DAA420CD029
:1044E80005F58035AA4208D013E0A5F58015AA4243
:1044F80003D005F57025AA4207D18A68002A62D040
:10450800012A5BD04361082403E0A5F58015AA427F
:10451800F3D0BEF1FF0F58D80646BEF1FF0F56D8AC
:104528004FEA8C0233680F25954023EA050304FA05
:1045380002F2134333604B6813F0805F78D06E4B00
:104548009A6942F001029A619B6903F001030193A1
:10455800019B4FEA9C02951C684B53F825600CF0B0
:1045680003039D000F23AB4026EA0306644B9842E1
:1045780033D003F58063984200F0988003F5806398
:10458800984200F0958003F58063984200F092808D
:1045980003F58063984200F08F8003F580639842AA
:1045A80019D006231AE0CC68B3E7CC680434B0E726
:1045B800CC680834ADE7CC680C34AAE7036108245A
:1045C800A7E70024A5E70424A3E7061DA5E7ACF1A7
:1045D80008029200A6E7052300E00023AB4033431E
:1045E8000232464D45F822304B6813F4801F65D0DF
:1045F800444A936843EA0E0393604B6813F4001F20
:1046080062D0404AD36843EA0E03D3604B6813F480
:10461800003F5FD03B4A536843EA0E0353604B6840
:1046280013F4803F5CD0374A136843EA0E031360E3
:104638000CF1010C0A6832FA0CF357D0012303FA83
:104648000CF302EA030E33EA0202F1D14A68122A95
:104658003FF63FAF122A3FF65CAF01A555F822F0AE
:1046680003450008AF450008B9450008CB450008D8
:104678001B4500081B4500081B4500081B45000892
:104688001B4500081B4500081B4500081B45000882
:104698001B4500081B4500081B4500081B45000872
:1046A8001B450008B3450008BF450008012395E7EE
:1046B800022393E7032391E704238FE7114A9368C2
:1046C80023EA0E03936098E70E4AD36823EA0E03A1
:1046D800D3609BE70B4A536823EA0E0353609EE7B7
:1046E800084A136823EA0E031360A1E702B070BDFD
:1046F80000002210000031100010024000000140AC
:1047080000080140000401400AB101617047090432
:104718000161704708B5054B5B69034200D108BDCC
:10472800024B5861FDF750FAF9E700BF0004014059
:1047380003685A6912F4806F01D1002070476FF442
:1047480080625A6100230363202280F83D2080F8AC
:104758003E30026C42F00402026480F83C300120D2
:1047680070472DE9F04106460C46174698463BE04F
:10477800FFF74AFD069BC01A404502D8B8F1000F62
:1047880032D1012D18D033689B6924EA03039BB208
:10479800B3FA83F35B099F4226D1002333632022B7
:1047A80086F83D2086F83E30326C42F020023264B2
:1047B80086F83C30012027E033685B6924EA03036C
:1047C8009BB2B3FA83F35B09E5E733685B6924EAD4
:1047D800030C1FFA8CFCBCFA8CFC4FEA5C1C674586
:1047E80011D1B8F1FF3FC3D1C4F30745012DECD077
:1047F80033689B6924EA030C1FFA8CFCBCFA8CFC16
:104808004FEA5C1CEBE70020BDE8F0812DE9F84396
:1048180005460E469046994653E01A6842F40072DF
:104828001A602B686FF480625A6100232B63202280
:1048380085F83D2085F83E302A6C42F004022A644F
:1048480085F83C3001204AE0FFF7DEFCA0EB0900C8
:10485800404502D8B8F1000F33D1012F17D02B688B
:104868009B6926EA03039BB2003B18BF012343B3AD
:1048780000232B63202285F83D2085F83E302A6CE2
:1048880042F020022A6485F83C30012027E02B689A
:104898005B6926EA03039BB2003B18BF0123E6E7E6
:1048A8002B689C6926EA0404A4B2003C18BF0124C2
:1048B800A4B12B685A6912F4806FAED1B8F1FF3FEA
:1048C800C2D1C6F30747012FEAD12B685C6926EAF3
:1048D8000404A4B2003C18BF0124E9E70020BDE8A5
:1048E800F8830000F0B583B004460D4616461F460F
:1048F800C36A082B0DD0012B0BD013F5803F08D0CD
:10490800036B122B0AD10268136843F48073136097
:1049180004E02268136843F48073136000973346F9
:1049280000224FF001112046FFF71BFF80B92369D1
:10493800B3F5804F16D1236805F0FE051D613B468F
:10494800324613492046FFF761FFF8B903B0F0BDBE
:1049580023681B6813F4807F02D04FF4007323642C
:104968000320F3E7EB11226803F0060343F0F0039A
:1049780013613B46324607492046FFF747FF18B9FF
:104988002368EDB21D61DAE70120DFE70120DDE7EA
:10499800020001000800010070B504460D461646E5
:1049A80023685B6913F0800F21D12046FFF7C0FE12
:1049B800F8B9B5F1FF3FF3D0FFF726FC801BA842FA
:1049C80001D8002DECD123685B6913F0800FE7D183
:1049D80000232363202284F83D2084F83E30226C93
:1049E80042F02002226484F83C30012000E00020DC
:1049F80070BD0120FCE770B504460D4616462368D5
:104A08005B6913F0040F21D12046FFF791FEF8B936
:104A1800B5F1FF3FF3D0FFF7F7FB801BA84201D8A1
:104A2800002DECD123685B6913F0040FE7D1002354
:104A38002363202284F83D2084F83E30226C42F023
:104A48002002226484F83C30012000E0002070BD80
:104A58000120FCE7002800F0CC8070B5044690F8EF
:104A68003D30002B77D0242384F83D30226813682A
:104A780023F0010313602268136843F400431360B2
:104A88002268136823F40043136000F081FC626815
:104A98005A4B9A4264D85A4B98428CBF0023012340
:104AA800002B40F0A8805749A1FB00318B0C2568EA
:104AB8006A6822F03F0242EA91426A6021680A6A03
:104AC80022F03F0266684D4DAE424FD80133134382
:104AD8000B622168CA6922F44F4222F0FF0266681D
:104AE800464B9E424CD8431E7600B3FBF6F3013387
:104AF80040F6FC70034278D0C3F30B031343CB6139
:104B080021680B6823F0C003E269206A024313435B
:104B18000B6021688B6823F4034323F0FF032269A9
:104B2800E068024313438B602168CB6823F0FF03DE
:104B38006269A06902431343CB602268136843F09B
:104B48000103136000202064202384F83D30206393
:104B580084F83E0070BD80F83C30FCF721FE82E707
:104B6800294B98428CBF0023012399E74FF496758F
:104B780005FB03F3254DA5FB03539B090133A6E76A
:104B8800A368BBB9451E06EB460CB5FBFCF5013521
:104B9800C5F30B05B5FA85F56D0945BBC3B90138F1
:104BA80006EB4603B0FBF3F30133C3F30B0343F403
:104BB8000043A3E7451E06EB860C0CEB8C0CB5FBFB
:104BC800FCF50135C5F30B05B5FA85F56D09E4E784
:104BD800013806EB860303EB8303B0FBF3F30133E1
:104BE800C3F30B0343F4404388E7042386E7012318
:104BF80084E7012070470120ACE700BFA0860100D0
:104C08007F841E0083DE1B43FF083D00D34D6210E6
:104C18002DE9F04385B004460F46914698460C9E10
:104C2800FFF7F2FA054694F83D00C0B2202804D0F8
:104C38000227384605B0BDE8F08300951923012204
:104C48004F492046FFF78DFD002840F0928094F8E8
:104C58003C30012B00F08F80012384F83C3023681E
:104C68001A6812F0010F03D11A6842F001021A60A3
:104C78002268136823F400631360212384F83D300D
:104C8800102384F83E3000232364C4F82490A4F849
:104C98002A80638D23853B4BE3622B463246394697
:104CA8002046FFF71FFE0746002866D1002303931E
:104CB80023685A6903929B690393039B11E0236C51
:104CC800042B01D00127B4E72268136843F400736A
:104CD8001360F7E72A4631462046FFF78CFE002886
:104CE8002ED1238D002B36D02A4631462046FFF799
:104CF80053FE0028E3D1626A236812781A61606A59
:104D0800431C6362618D89B2013989B26185238D43
:104D1800013B9BB223852268516911F0040FD9D059
:104D2800002BD7D043781361636A01336362638DC4
:104D38009BB2013B9BB26385238D013B2385C9E769
:104D4800236C042B01D0012773E72268136843F40E
:104D580000731360F7E72268136843F40073136065
:104D6800202384F83D30002384F83E3084F83C301A
:104D78005FE702275DE702275BE7012759E700BFE6
:104D8800020010000000FFFF82B0084B1B68084AB1
:104D9800A2FB03235B0A00FB03F3019300BF019B03
:104DA8005A1E0192002BF9D102B070471000002062
:104DB800D34D6210002800F0F18170B582B004462E
:104DC800036813F0010F2CD0994B5B6803F00C03B8
:104DD800042B1DD0964B5B6803F00C03082B12D0F4
:104DE8006368B3F5803F41D0002B55D103F1804370
:104DF80003F504331A6822F480321A601A6822F420
:104E080080221A6037E08A4B5B6813F4803FE7D052
:104E1800874B1B6813F4003F03D06368002B00F036
:104E2800BF81236813F0020F75D0814B5B6813F0C4
:104E38000C0F5FD07E4B5B6803F00C03082B54D03B
:104E48002369002B00F08A807A4B01221A60FFF751
:104E5800DBF90546764B1B6813F0020F75D1FFF797
:104E6800D3F9401B0228F5D903209EE1704A136844
:104E780043F480331360636843B3FFF7C5F905460D
:104E88006B4B1B6813F4003FCBD1FFF7BDF9401BF8
:104E98006428F5D9032088E1B3F5A02F09D0644B25
:104EA8001A6822F480321A601A6822F480221A6082
:104EB800E1E703F18043A3F53C331A6842F480220A
:104EC8001A601A6842F480321A60D4E7FFF79CF936
:104ED8000546574B1B6813F4003FA2D0FFF794F91F
:104EE800401B6428F5D903205FE1514B5B6813F43C
:104EF800803FA5D14E4B1B6813F0020F03D02369E6
:104F0800012B40F04F814A4A136823F0F803616986
:104F180043EAC1031360236813F0080F33D0A36971
:104F2800002B5CD0434B0122C3F88024FFF76CF9B7
:104F380005463F4B5B6A13F0020F21D1FFF764F976
:104F4800401B0228F5D903202FE1394A136823F0C2
:104F5800F803616943EAC1031360DCE7354B0022BB
:104F68001A60FFF751F90546314B1B6813F0020F21
:104F7800D1D0FFF749F9401B0228F5D9032014E1E5
:104F88000120FFF701FF236813F0040F00F096805B
:104F9800274BDB6913F0805F34D1254BDA6942F087
:104FA8008052DA61DB6903F080530193019B01258C
:104FB800214B1B6813F4807F26D0E368012B3DD07A
:104FC800002B53D103F1804303F504331A6A22F00E
:104FD80001021A621A6A22F004021A6233E0154BBF
:104FE8000022C3F88024FFF70FF90546104B5B6ACF
:104FF80013F0020FC7D0FFF707F9401B0228F5D9B5
:105008000320D2E00025D3E70B4A136843F48073EA
:105018001360FFF7F9F80646074B1B6813F4807F07
:10502800CBD1FFF7F1F8801B6428F5D90320BCE049
:105038000010024000004242007000405F4A136ABC
:1050480043F001031362E36833B3FFF7DDF8064664
:105058005A4B1B6A13F0020F2FD1FFF7D5F8801BAC
:1050680041F288339842F3D903209EE0052B09D0FA
:10507800524B1A6A22F001021A621A6A22F00402DA
:105088001A62E0E74D4B1A6A42F004021A621A6A81
:1050980042F001021A62D6E7FFF7B6F80646474B18
:1050A8001B6A13F0020F08D0FFF7AEF8801B41F21D
:1050B80088339842F3D9032077E0E5B9E369002BF8
:1050C80072D03E4A526802F00C02082A56D0022BCF
:1050D80017D03B4B00221A66FFF796F80446374B69
:1050E8001B6813F0007F47D0FFF78EF8001B0228DB
:1050F800F5D9032059E0314AD36923F08053D361AD
:10510800DCE72F4B00221A66FFF77EF805462B4B8B
:105118001B6813F0007F06D0FFF776F8401B0228C3
:10512800F5D9032041E0236AB3F5803F1AD023491B
:105138004B6823F47413226A606A024313434B607A
:105148001F4B01221A66FFF75FF804461B4B1B68CA
:1051580013F0007F0ED1FFF757F8001B0228F5D98E
:10516800032022E0154A536823F40033A1680B4357
:105178005360DCE7002018E0002016E0012B16D071
:105188000E4B5B6803F48031226A914211D103F41B
:105198007013626A93420ED1002006E00120704726
:1051A800012002E0012000E0002002B070BD0120D3
:1051B800FBE70120F9E70120F7E700BF00100240F4
:1051C800000042420F4B5B6803F00C02082A01D032
:1051D8000D487047C3F383420C49885C13F4803F41
:1051E8000BD0084B5B68C3F34043094AD35C064ABB
:1051F80002FB00F0B0FBF3F07047064B03FB00F036
:10520800704700BF0010024000127A0074E80008DE
:1052180084E8000800093D00002800F0A08070B56F
:105228000D460446524B1B6803F007038B420BD212
:105238004F4A136823F007030B431360136803F006
:1052480007038B4240F08D80236813F0020F17D0BC
:1052580013F0040F04D0474A536843F4E0635360E3
:10526800236813F0080F04D0424A536843F460538C
:105278005360404A536823F0F003A1680B4353601E
:10528800236813F0010F31D06368012B20D0022B63
:1052980025D0384A126812F0020F64D035494A689E
:1052A80022F0030213434B60FEF7AEFF0646314B74
:1052B8005B6803F00C036268B3EB820F16D0FEF74D
:1052C800A3FF801B41F288339842F0D9032045E0C0
:1052D800284A126812F4003FE0D101203EE0254A36
:1052E800126812F0007FD9D1012037E0204B1B68EB
:1052F80003F00703AB420AD91D4A136823F00703DA
:105308002B431360136803F00703AB422DD12368C6
:1053180013F0040F06D0174A536823F4E063E168DA
:105328000B435360236813F0080F07D0114A5368E2
:1053380023F46053216943EAC1035360FFF742FF36
:105348000C4B5B68C3F303130B4AD35CD8400B4B7D
:1053580018600B4B1868FEF713FF002070BD012082
:1053680070470120FAE70120F8E70120F6E700BFBF
:1053780000200240001002405CE8000810000020F5
:1053880024000020014B1868704700BF100000205F
:1053980008B5FFF7F7FF044B5B68C3F30223034A22
:1053A800D35CD84008BD00BF001002406CE800087C
:1053B80008B5FFF7E7FF044B5B68C3F3C223034A52
:1053C800D35CD84008BD00BF001002406CE800085C
:1053D80030B4036A026A22F00102026242688469F8
:1053E80024F073040D682C4323F0020C8B6843EA05
:1053F8000C03104DA84203D005F50065A84205D15D
:1054080023F00803CD682B4323F00403094DA84279
:1054180003D005F50065A84205D122F440724D6914
:105428002A438D692A43426084614A684263036261
:1054380030BC7047002C014030B4036A026A22F481
:10544800807202624268C46924F0730C0C6844EAF2
:105458000C0523F400738C6843EA0423114CA04222
:1054680003D004F50064A04206D123F40063CC689D
:1054780043EA042323F480630A4CA04203D004F5D2
:105488000064A04207D122F440524C6942EA041257
:105498008C6942EA04124260C5614A68C2630362C9
:1054A80030BC7047002C014030B4036A026A22F411
:1054B800805202624468C26922F4E6420D6842EAF8
:1054C800052223F400538D6843EA0533094DA842A9
:1054D80003D005F50065A84204D124F480444D6941
:1054E80044EA85144460C2614A680264036230BCBD
:1054F800704700BF002C014010B4036A046A24F00E
:1055080001040462846924F0F00C4CEA021223F0CE
:105518000A030B438261036210BC704710B4036A2C
:10552800046A24F010040462846924F4704C4CEA80
:10553800023223F0A00343EA01138261036210BC24
:105548007047836823F070030B4343F007038360BD
:105558007047000090F83D30DBB2012B2FD10223B9
:1055680080F83D300268D36843F00103D3600368D4
:10557800154A934218D002F50062934214D0B3F151
:10558800804F11D0A2F5983293420DD002F5806277
:10559800934209D002F58062934205D01A6842F01E
:1055A80001021A60002070479A6802F00702062A72
:1055B80007D01A6842F001021A60002070470120E3
:1055C80070470020704700BF002C014070477047AB
:1055D80070477047704770B504460368DE681D69F8
:1055E80015F0020F10D016F0020F0DD06FF0020266
:1055F8001A610123037703689B6913F0030F5ED0D8
:10560800FFF7E6FF0023237715F0040F12D016F0FA
:10561800040F0FD023686FF004021A610223237766
:1056280023689B6913F4407F4FD02046FFF7D0FFD3
:105638000023237715F0080F12D016F0080F0FD0AB
:1056480023686FF008021A61042323772368DB6953
:1056580013F0030F40D02046FFF7BAFF002323774B
:1056680015F0100F12D016F0100F0FD023686FF03E
:1056780010021A61082323772368DB6913F4407F3B
:1056880031D02046FFF7A4FF0023237715F0010F40
:1056980002D016F0010F2DD115F0800F02D016F0B0
:1056A800800F2FD115F0400F02D016F0400F31D1E6
:1056B80015F0200F02D016F0200F33D170BDFFF780
:1056C80086FF2046FFF785FF9CE72046FFF77FFF10
:1056D8002046FFF77EFFABE72046FFF778FF20461E
:1056E800FFF777FFBAE72046FFF771FF2046FFF77D
:1056F80070FFC9E723686FF001021A612046FFF7BF
:1057080065FFC9E723686FF080021A61204600F040
:1057180025FBC7E723686FF040021A612046FFF7B0
:1057280059FFC5E723686FF020021A61204600F090
:1057380014FBC3E70368284A904212D002F50062BE
:1057480090420ED0B0F1804F0BD0A2F59832904223
:1057580007D002F58062904203D002F58062904241
:1057680003D123F070034A6813431B4A904212D0B6
:1057780002F5006290420ED0B0F1804F0BD0A2F536
:105788009832904207D002F58062904203D002F529
:105798008062904203D123F44073CA68134323F014
:1057A80080034A69134303608B68C3620B68836292
:1057B800094B984203D003F50063984201D10B6965
:1057C800036301234361036913F0010F03D00369E5
:1057D80023F0010303617047002C014040B310B56A
:1057E800044690F83D30F3B1022384F83D30214659
:1057F80051F8040BFFF79EFF012384F8463084F824
:105808003E3084F83F3084F8403084F8413084F8E2
:10581800423084F8433084F8443084F8453084F8C2
:105828003D30002010BD80F83C30FDF75DFDDBE722
:105838000120704740B310B5044690F83D30F3B1ED
:10584800022384F83D30214651F8040BFFF772FF1C
:10585800012384F8463084F83E3084F83F3084F8D9
:10586800403084F8413084F8423084F8433084F87A
:10587800443084F8453084F83D30002010BD80F86D
:105888003C30FDF7DDFCDBE70120704730B4036AEC
:10589800026A22F0100202624468826922F4E64237
:1058A8000D6842EA052223F020038D6843EA0513B8
:1058B800114DA84203D005F50065A84206D123F092
:1058C8008003CD6843EA051323F040030A4DA8423C
:1058D80003D005F50065A84207D124F440644D695A
:1058E80044EA85048D6944EA8504446082614A6813
:1058F8008263036230BC7047002C014038B590F8D1
:105908003C30012B66D004460D46012380F83C301C
:105918000C2A5AD8DFE802F0075959591B59595926
:105928003059595944000068FFF752FD22689369BD
:1059380043F0080393612268936923F00403936199
:105948002268936929690B43936100203EE000684F
:10595800FFF79CFF2268936943F400639361226810
:10596800936923F48063936122689369296943EA00
:1059780001239361002029E00068FFF75DFD22689C
:10598800D36943F00803D3612268D36923F0040381
:10599800D3612268D36929690B43D361002015E0DC
:1059A8000068FFF781FD2268D36943F40063D3617F
:1059B8002268D36923F48063D3612268D369296993
:1059C80043EA0123D361002000E00120002384F88A
:1059D8003C3038BD0220FCE710B4846824F47F4CC6
:1059E80042EA03220A4342EA0C02826010BC704772
:1059F80090F83C30012B78D010B50446012380F88C
:105A08003C30022380F83D300268936823F47F43DA
:105A180023F0770393600B68602B4CD029D8402B78
:105A280054D00CD9502B22D1CA6849680068FFF7B6
:105A380063FD50212068FFF784FD002005E0202B3E
:105A48000DD009D9302B0AD00120012384F83D302C
:105A5800002384F83C3010BD0BB1102B05D119463A
:105A68002068FFF76EFD0020EFE70120EDE7012039
:105A7800EBE7B3F5805F34D0B3F5005F0CD1CB68AA
:105A88004A6889680068FFF7A7FF2268936843F4AB
:105A9800804393600020D8E7702B24D1CB684A68F4
:105AA80089680068FFF798FF2268936843F07703D6
:105AB80093600020C9E7CA6849680068FFF72EFDAF
:105AC80060212068FFF73DFD0020BEE7CA684968ED
