:020000040800F2
:1000000000C00020052B0008AD190008AF1900083A
:10001000B1190008B3190008B51900080000000064
:10002000000000000000000000000000B7190008F8
:10003000B919000800000000BB190008BD1900082C
:100040004D2B00084D2B00084D2B00084D2B0008B0
:100050004D2B00084D2B00084D2B00084D2B0008A0
:100060004D2B00084D2B0008FD1900084D2B0008F2
:100070004D2B00084D2B00084D2B00084D2B000880
:100080004D2B00084D2B00084D2B00084D2B000870
:100090004D2B00084D2B00084D2B0008071A0008B7
:1000A0004D2B00084D2B00084D2B00084D2B000850
:1000B0004D2B00084D2B00084D2B00084D2B000840
:1000C0004D2B00084D2B00084D2B00084D2B000830
:1000D0004D2B00084D2B00081D1A00082D1A000892
:1000E0004D2B00084D2B00084D2B00084D2B000810
:1000F0004D2B00084D2B00084D2B00084D2B000800
:100100004D2B00084D2B00083D1A00084D2B000810
:10011000511A0008611A0008711A0008851A0008AF
:100120004D2B00084D2B00084D2B00084D2B0008CF
:1001300000000000000000000000000000000000BF
:1001400000000000000000000000000000000000AF
:10015000000000000000000000000000000000009F
:10016000000000000000000000000000000000008F
:10017000000000000000000000000000000000007F
:10018000000000000000000000000000000000006F
:10019000000000000000000000000000000000005F
:1001A000000000000000000000000000000000004F
:1001B000000000000000000000000000000000003F
:1001C000000000000000000000000000000000002F
:1001D000000000000000000000000000000000001F
:0401E0005FF8E0F1F3
:1001E40010B5054C237833B9044B13B10448AFF36D
:1001F40000800123237010BD58040020000000007B
:10020400C460000808B5034B1BB103490348AFF3AE
:10021400008008BD000000005C040020C4600008E9
:1002240080F0004002E000BF81F0004142001FBFA7
:100234005FEA410392EA030F7FEA226C7FEA236CB0
:100244006AD04FEA1262D2EB1363C1BFD2184140A5
:1002540048404140B8BF5B42192B88BF704710F03B
:10026400004F40F4000020F07F4018BF404211F0DE
:10027400004F41F4000121F07F4118BF494292EA46
:10028400030F3FD0A2F1010241FA03FC10EB0C0072
:10029400C3F1200301FA03F100F0004302D54942FF
:1002A40060EB4000B0F5000F13D3B0F1807F06D3AC
:1002B40040084FEA310102F10102FE2A51D2B1F1A4
:1002C400004F40EBC25008BF20F0010040EA030099
:1002D4007047490040EB0000013A28BFB0F5000F19
:1002E400EDD2B0FA80FCACF1080CB2EB0C0200FACF
:1002F4000CF0AABF00EBC25052421843BCBFD0401E
:100304001843704792F0000F81F4000106BF80F497
:1003140000000132013BB5E74FEA41037FEA226C5A
:1003240018BF7FEA236C21D092EA030F04D092F025
:10033400000F08BF0846704790EA010F1CBF002059
:10034400704712F07F4F04D1400028BF40F00040B6
:10035400704712F100723CBF00F50000704700F0D6
:10036400004343F0FE4040F4000070477FEA2262FD
:1003740016BF08467FEA23630146420206BF5FEACE
:10038400412390EA010F40F4800070474FF00003CE
:1003940004E000BF10F0004348BF40425FEA000C95
:1003A40008BF704743F0964301464FF000001CE03D
:1003B40050EA010208BF70474FF000030AE000BF93
:1003C40050EA010208BF704711F0004302D54042D1
:1003D40061EB41015FEA010C02BF84460146002043
:1003E40043F0B64308BFA3F18053A3F50003BCFA5E
:1003F4008CF2083AA3EBC25310DB01FA02FC63440B
:1004040000FA02FCC2F12002BCF1004F20FA02F211
:1004140043EB020008BF20F00100704702F1200204
:1004240001FA02FCC2F1200250EA4C0021FA02F265
:1004340043EB020008BF20EADC7070474FF0FF0C6A
:100444001CEAD0521EBF1CEAD15392EA0C0F93EA65
:100454000C0F6FD01A4480EA010C400218BF5FEA07
:1004640041211ED04FF0006343EA501043EA51117A
:10047400A0FB01310CF00040B1F5000F3EBF490074
:1004840041EAD3715B0040EA010062F17F02FD2A78
:100494001DD8B3F1004F40EBC25008BF20F001005B
:1004A400704790F0000F0CF0004C08BF49024CEA72
:1004B400502040EA51207F3AC2BFD2F1FF0340EA04
:1004C400C250704740F400004FF00003013A5DDC75
:1004D40012F1190FDCBF00F000407047C2F10002B6
:1004E400410021FA02F1C2F1200200FA02FC5FEAA3
:1004F400310040F1000053EA4C0308BF20EADC70ED
:10050400704792F0000F00F0004C02BF400010F45E
:10051400000F013AF9D040EA0C0093F0000F01F00B
:10052400004C02BF490011F4000F013BF9D041EA2D
:100534000C018FE70CEAD15392EA0C0F18BF93EA2F
:100544000C0F0AD030F0004C18BF31F0004CD8D159
:1005540080EA010000F00040704790F0000F17BFE0
:1005640090F0004F084691F0000F91F0004F14D026
:1005740092EA0C0F01D142020FD193EA0C0F03D17E
:100584004B0218BF084608D180EA010000F0004081
:1005940040F0FE4040F40000704740F0FE4040F45C
:1005A400400070474FF0FF0C1CEAD0521EBF1CEAFB
:1005B400D15392EA0C0F93EA0C0F69D0A2EB030219
:1005C40080EA010C49024FEA402037D04FF08053B3
:1005D40043EA111143EA10130CF000408B4238BF78
:1005E4005B0042F17D024FF4000C8B4224BF5B1A86
:1005F40040EA0C00B3EB510F24BFA3EB510340EAD4
:100604005C00B3EB910F24BFA3EB910340EA9C0081
:10061400B3EBD10F24BFA3EBD10340EADC001B01F1
:1006240018BF5FEA1C1CE0D1FD2A3FF650AF8B4295
:1006340040EBC25008BF20F0010070470CF0004CA2
:100644004CEA50207F32C2BFD2F1FF0340EAC250CD
:10065400704740F400004FF00003013A37E792F08E
:10066400000F00F0004C02BF400010F4000F013AEC
:10067400F9D040EA0C0093F0000F01F0004C02BFE7
:10068400490011F4000F013BF9D041EA0C0195E750
:100694000CEAD15392EA0C0F08D142027FF47DAFE9
:1006A40093EA0C0F7FF470AF084676E793EA0C0FD9
:1006B40004D14B023FF44CAF08466EE730F0004CD7
:1006C40018BF31F0004CCAD130F000427FF45CAF67
:1006D40031F000437FF43CAF5FE700BF4FF0FF3CD5
:1006E40006E000BF4FF0010C02E000BF4FF0010C28
:1006F4004DF804CD4FEA40024FEA41037FEA226CF1
:1007040018BF7FEA236C11D001B052EA530C18BF12
:1007140090EA010F58BFB2EB030088BFC81738BF77
:100724006FEAE17018BF40F0010070477FEA226C65
:1007340002D15FEA402C05D17FEA236CE4D15FEA61
:10074400412CE1D05DF8040B704700BF8446084695
:100754006146FFE70FB5FFF7C9FF002848BF10F156
:10076400000F0FBD4DF808EDFFF7F4FF0CBF01209B
:1007740000205DF808FB00BF4DF808EDFFF7EAFF25
:1007840034BF012000205DF808FB00BF4DF808EDE0
:10079400FFF7E0FF94BF012000205DF808FB00BFD5
:1007A4004DF808EDFFF7D2FF94BF012000205DF85B
:1007B40008FB00BF4DF808EDFFF7C8FF34BF012068
:1007C40000205DF808FB00BF4FEA4002B2F1FE4F83
:1007D4000FD34FF09E03B3EB12620DD94FEA0023FF
:1007E40043F0004310F0004F23FA02F018BF4042D8
:1007F40070474FF00000704712F1610F01D14202BF
:1008040005D110F0004008BF6FF0004070474FF072
:10081400000070477BB972B90029BEBF00204FF0B9
:10082400004106E008BF00281CBF6FF000414FF0F4
:10083400FF3000F0A9B9ADF1080C6DE904CE002930
:1008440009DB002B1ADB00F035F8DDF804E0DDE904
:10085400022304B07047404261EB4101002B1BDBD3
:1008640000F028F8DDF804E0DDE9022304B040429A
:1008740061EB4101524263EB43037047524263EB25
:10088400430300F017F8DDF804E0DDE9022304B0C7
:10089400404261EB41017047524263EB430300F075
:1008A40009F8DDF804E0DDE9022304B0524263EB09
:1008B400430370472DE9F047089E0D4604468846D9
:1008C400002B4DD18A42944668D9B2FA82F252B1D1
:1008D40001FA02F3C2F1200120FA01F10CFA02FC40
:1008E40041EA030894404FEA1C41B8FBF1F71FFAB0
:1008F4008CFE01FB178807FB0EF0230C43EA084328
:1009040098420AD91CEB030307F1FF3580F01E81DE
:10091400984240F21B81023F63441B1AB3FBF1F07F
:1009240001FB103300FB0EFEA4B244EA0344A645C7
:100934000AD91CEB040400F1FF3380F00981A645B9
:1009440040F20681644402380021A4EB0E0440EA1C
:1009540007401EB10023D440C6E90043BDE8F08738
:100964008B4208D9002E00F0EE800021C6E9000574
:100974000846BDE8F087B3FA83F100294AD1AB42B7
:1009840002D3824200F2FC80841A65EB0303012047
:100994009846002EE2D0C6E90048DFE702B9FFDE40
:1009A400B2FA82F2002A40F09180A1EB0C000121FE
:1009B4004FEA1C471FFA8CFEB0FBF7F307FB13004A
:1009C400250C45EA00450EFB03F0A84208D91CEBB0
:1009D400050503F1FF3802D2A84200F2CE80434657
:1009E4002D1AB5FBF7F007FB10550EFB00FEA4B261
:1009F40044EA0544A64508D91CEB040400F1FF357C
:100A040002D2A64500F2B6802846A4EB0E0440EAC2
:100A140003409EE7C1F120078B4022FA07FC4CEA11
:100A2400030C25FA07FA4FEA1C49BAFBF9F820FA35
:100A340007F309FB18AA8D401FFA8CFE1D4300FA28
:100A440001F308FB0EF02C0C44EA0A44A04202FA1B
:100A540001F20BD91CEB040408F1FF3A80F0888002
:100A6400A04240F28580A8F102086444241AB4FB31
:100A7400F9F009FB104400FB0EFEADB245EA044454
:100A8400A64508D91CEB040400F1FF356CD2A64539
:100A94006AD90238644440EA0840A0FB0295A4EBFA
:100AA4000E04AC42C846AE4656D353D0002E69D08D
:100AB400B3EB080264EB0E0422FA01F304FA07F71D
:100AC4001F43CC40C6E90074002147E70CFA02FC3E
:100AD400C2F1200125FA01F34FEA1C4720FA01F183
:100AE40095400D43B3FBF7F107FB11331FFA8CFE5E
:100AF400280C40EA034001FB0EF3834204FA02F49B
:100B040008D91CEB000001F1FF382FD283422DD904
:100B140002396044C01AB0FBF7F307FB1300ADB20F
:100B240045EA004503FB0EF0A84208D91CEB050575
:100B340003F1FF3816D2A84214D9023B6544281A9F
:100B440043EA014138E73146304607E72F46E4E6F9
:100B54001846F9E64B45A9D2B9EB020865EB0C0E31
:100B64000138A3E74346EAE7284694E74146D1E73C
:100B7400D0467BE76444023847E7023B65442FE7ED
:100B8400084606E73146E9E6704700BF844641EA75
:100B9400000313F0030349D1403A23D30B680360E5
:100BA4004B6843608B688360CB68C3600B690361E7
:100BB4004B6943618B698361CB69C3610B6A0362CF
:100BC4004B6A43628B6A8362CB6AC3620B6B0363B7
:100BD4004B6B43638B6B8363CB6BC363403040319C
:100BE400403ADBD230320BD30B6803604B6843606E
:100BF4008B688360CB68C36010301031103AF3D235
:100C04000C3205D351F8043B40F8043B043AF9D2C2
:100C1400043208D0D2071CBF11F8013B00F8013B95
:100C240001D30B8803806046704700BF082A13D3A2
:100C34008B07B1D010F00303AED0C3F10403D21A72
:100C4400DB071CBF11F8013B00F8013BA4D331F8CA
:100C5400023B20F8023B9FE7043AD9D3013A11F84A
:100C6400013B00F8013BF9D20B7803704B784370D9
:100C74008B7883706046704708B50821014803F0FB
:100C8400A5FC08BDA00C002008B50821014803F00C
:100C94009DFC08BDA00C002010B50C46A0B10D4B66
:100CA400B3FBF0F30C480268591ED162C1605B08C3
:100CB400D36301235361082103F00EFC204601F0A5
:100CC4008FFFFFF7E1FF10BD0821034803F07EFC0E
:100CD400F4E700BF40420F00A00C002001281BD8FD
:100CE40070B50E4B53F820500D4B33F810600024B0
:100CF4000FE005EB8403997801EB810301EBC30357
:100D040001EB430189B235F82400FFF7C5FF013434
:100D1400A4B2B442EDD370BD704700BFE0600008D8
:100D2400DC6000082DE9F04188B0002404940594A7
:100D340006940794314B9A6942F020029A619A69A9
:100D440002F020020092009A9A6942F004029A6129
:100D54009A6902F004020192019A9A6942F0080227
:100D64009A619A6902F008020292029A9A6942F020
:100D740010029A619B6903F010030393039BDFF84D
:100D8400808022460C21404602F0A4F91D4D2246E3
:100D94004FF40041284602F09DF9F02304931A4BC6
:100DA40005930126069604A9284602F073F80C233D
:100DB4000493059606940227079704A9404602F077
:100DC40069F84FF40043049305960694079704A921
:100DD400284602F05FF822460B210A2001F026FF84
:100DE4000A2001F05BFF22460B21172001F01EFFB1
:100DF400172001F053FF08B0BDE8F0810010024055
:100E0400000C0140000801400000111008B50B4817
:100E14000B4B03600B4B436000238360C3604FF4B0
:100E24008042026143618361C361036202F0F8FAA4
:100E340000B908BD00F02CFBFBE700BF78040020DC
:100E440000540040801A060010B586B000230293B7
:100E54000393049305930268154B9A4201D006B09C
:100E640010BD144CA36943F00803A361A36903F004
:100E740008030093009B4FF44073029312230393DF
:100E84000323059302A90C4802F004F80B4A5368A3
:100E940043F0E06343F002035360E36943F4001357
:100EA400E361E36903F400130193019BD7E700BFF7
:100EB4000054004000100240000C014000000140BA
:100EC40010B500F1010E90F801C01CF0F00100D043
:100ED40001219EF801201309C3EB431403EB84039F
:100EE400DB009BB20CF00F0CCCEB4C140CEB840C21
:100EF4000CEB8C0C03EB0C139BB29EF802C04FEA74
:100F04001C1E0EEB8E0E02F00F0202EB820202EBAD
:100F14008202920002EB4E0213449BB20CF00F0CBF
:100F240063449BB201B15B42002BC0F211818E4A33
:100F3400136000F1040E90F804C01CF0F00100D01E
:100F440001219EF801201309C3EB431403EB84032E
:100F5400DB009BB20CF00F0CCCEB4C140CEB840CB0
:100F64000CEB8C0C03EB0C139BB29EF802C04FEA03
:100F74001C1E0EEB8E0E02F00F0202EB820202EB3D
:100F84008202920002EB4E0213449BB20CF00F0C4F
:100F940063449BB201B15B42002BC0F2DD80734A13
:100FA400136000F1070E90F807C01CF0F00100D0A8
:100FB40001219EF801201309C3EB431403EB8403BE
:100FC400DB009BB20CF00F0CCCEB4C140CEB840C40
:100FD4000CEB8C0C03EB0C139BB29EF802C04FEA93
:100FE4001C1E0EEB8E0E02F00F0202EB820202EBCD
:100FF4008202920002EB4E0213449BB20CF00F0CDF
:1010040063449BB201B15B42002BC0F2A980584AF1
:10101400136000F1130E90F813C01CF0F00100D01F
:1010240001219EF801201309C3EB431403EB84034D
:10103400DB009BB20CF00F0CCCEB4C140CEB840CCF
:101044000CEB8C0C03EB0C139BB29EF802C04FEA22
:101054001C1E0EEB8E0E02F00F0202EB820202EB5C
:101064008202920002EB4E0213449BB20CF00F0C6E
:1010740063449BB201B15B423E4A136000F1160E19
:1010840090F816C01CF0F00100D001219EF8012058
:101094001309C3EB431403EB8403DB009BB20CF092
:1010A4000F0CCCEB4C140CEB840C0CEB8C0C03EB06
:1010B4000C139BB29EF802C04FEA1C1E0EEB8E0E60
:1010C40002F00F0202EB820202EB8202920002EBB8
:1010D4004E0213449BB20CF00F0C63449BB201B15B
:1010E4005B42254A136000F1190C407E10F0F001B8
:1010F40000D001219CF801201309C3EB431E03EB2C
:101104008E03DB009BB200F00F00C0EB401E00EB2F
:101114008E0000EB800003EB00139BB29CF80200EE
:101124004FEA101C0CEB8C0C02F00F0202EB820253
:1011340002EB8202920002EB4C0213449BB200F0D9
:101144000F0003449BB201B15B420C4A136010BD13
:1011540003F50C43A033EAE603F50C43A0331EE782
:1011640003F50C43A03352E7E0040020DC04002024
:10117400E4040020D0040020D4040020D80400207B
:1011840008B501220249034803F059FE08BD00BF17
:10119400CC040020C80D002008B50F4B1A781AB9EA
:1011A4000E4B1B78842B09D1531CDBB20A490B70FC
:1011B4000A4908780A4988541C2B05D80122074992
:1011C400084803F03CFE08BD0846FFF779FE024BD1
:1011D40000221A70F2E700BF05050020CC040020AD
:1011E400E8040020C80D002008B5002309E000220F
:1011F4000D49CA540D49CA540D4941F823200133FD
:10120400DBB2032BF3D9002205210A2001F00EFDE5
:101214000A2001F043FD00220521172001F006FDFC
:10122400172001F03BFD08BD1C0500200805002027
:101234000C05002010B5044601F0CCFC0023032B60
:1012440016D819460B4A32F81320A24202D00133B1
:10125400DBB2F4E7084B53F82130C31A092B07D942
:10126400054B43F821000123044A5354044A5354C0
:1012740010BD00BF786100080C0500201C0500208B
:10128400080500200023114A1380114A137001E05D
:101294000133DBB2072B0FD80E4AD25C002AF7D0F9
:1012A4000D4AD25692B20949088802440A80084974
:1012B4000A7801320A70EBE7054B93F90030062BEC
:1012C40002DD064B01221A70704700BF3205002070
:1012D400310500203C050020806100083005002015
:1012E400184BB3F90030184A92F9002093FBF2F33B
:1012F4001BB2D900154802681A44026042F2107009
:10130400824201DD114A1060104A1068104A90426E
:1013140002DA0E4A0E4810600E4A1160B1F5004F11
:1013240002DB47F6FF7111600A4A126812F5004F9A
:1013340002DA084A08491160084A1380054B186804
:10134400704700BF3205002031050020240500202D
:10135400F0D8FFFF2C0500200080FFFF28050020A7
:1013640010B50446FFF78EFFFFF7BAFF034B1A6868
:1013740010441860214601F047FB10BD34050020DD
:1013840038B50378242B22D14378442B1FD12C2148
:1013940003F0E8FD0024072C16DCA8B13A2103F081
:1013A400E1FD054680B1013003F05CFDC3B2013BB1
:1013B400002BB8BF5B42DBB2054A13552C212846EB
:1013C40003F0D0FD0134E6E7024B01221A7038BD68
:1013D4003C0500204405002010B582B00A4C0122CF
:1013E4000A49204603F02BFD094BEC4693E8030021
:1013F4008CE803004FF0FF3307226146204603F0D8
:10140400B2FA02B010BD00BF100E00203905002052
:101414008861000808B5114B1B78242B10D0104AA2
:1014240012883F2A04D8501C0D4908800D498B545A
:10143400232B09D0012209490B4803F000FD08BD04
:10144400074A00211180EAE7054B1B88054A002161
:10145400D154064B01221A70ECE700BF3905002075
:101464008805002048050020100E002038050020C3
:1014740008B5054B1B7803B908BD034B00221A704D
:101484000248FFF77DFFF7E73805002048050020F4
:1014940072B6FEE700B591B02822002106A803F039
:1014A4000FFD0023019302930393049305930122F8
:1014B40006924FF4803307930A9202220D920E9300
:1014C4004FF4E0130F9306A802F05AF980B90F23E2
:1014D400019302210291002303934FF4806204924A
:1014E400059301A802F07EFB20B911B05DF804FB5E
:1014F400FFF7CEFFFFF7CCFF08B501F04DFBFFF778
:10150400C9FFFFF70FFCFFF781FC00F0C5FC00F0FA
:1015140033FB00F059FB00F011FE00F0E9FE00F08F
:1015240001FF00F019FF00F031FF00F049FF00F067
:10153400B5FD00F057FD00F013FD00F0E5FA00F0F2
:10154400D1F9002001F058F9084B1888A0F5A070D3
:10155400FEF720FF0649FEF771FFFFF735F9014654
:1015640000231A46184601F001FAEDE76E0E00203A
:10157400CDCC4CBE38B500240A4B1C700A4B1C70F1
:101584002A252A462146094803F09AFC2A46214680
:10159400074803F095FC01220649074803F04FFC75
:1015A40038BD00BF12060020B6050020E805002063
:1015B4008C050020B7050020380D002038B5164BE7
:1015C4001A781AB9154B1B78232B10D1531CDBB294
:1015D40011490B701149087811498854292B06D9EF
:1015E40091F82930212B08D00B4B00221A700122CC
:1015F4000A490C4803F023FC38BD0B4C0D460FCDB3
:101604000FC40FCD0FC495E8070003C42280074B15
:1016140001221A70E8E700BF12060020B705002077
:10162400E8050020380D00208C050020B6050020B8
:101634000023254A05E032F8020B244921F813005F
:101644000133032BF7DD0020032831DC10B408E05C
:10165400033313E09B101E490B600432013003284E
:101664001ADC1C49136841F820304B685B420C6853
:101674001B1B8C682344C9685B18E9D49B1016496A
:101684000B6014490B684C681B1B8C682344C968A5
:101694005B1ADFD50333DDE7002305E052F8040BC2
:1016A4000E4941F823000133032BF7DD10BC7047CA
:1016B400002305E052F8040B084941F823000133E4
:1016C400032BF7DD704700BF8D050020E0050020E7
:1016D400DC050020B8050020D8050020C80500203E
:1016E400274B1B7803B970472DE9F041254B186847
:1016F400FEF750FE2449FEF7A1FE0646234BD3F81D
:10170400008003F0ABFD04464046FEF743FE21464D
:10171400FEF794FE07461E4B1868FEF73BFE05468F
:10172400304603F0D3FD064601462846FEF786FE02
:1017340001463846FEF77AFD0746C8F10000FEF779
:1017440029FE3146FEF77AFE064629462046FEF774
:1017540075FE01463046FEF769FD05463846FFF73B
:1017640033F804462846FFF72FF80146094B1B7847
:10177400094A1268204601F0F9F8BDE8F08100BF7B
:1017840013060020E4040020D202373908000020A8
:1017940014060020000000200400002000B583B0DF
:1017A40002460B464FF0FF3100917821024801F0C8
:1017B40015FF03B05DF804FB7804002008B5034B63
:1017C400587002211846FFF7E9FF08BD9C0A002063
:1017D40008B54FF480620021014803F071FB08BD95
:1017E4001806002038B5104B40221A70002418E067
:1017F400A4F15000C0B2FFF7E1FF0020FFF7DEFFC5
:101804001020FFF7DBFF084D8022084901EBC411CB
:10181400681CFFF7BBF981212846FFF7BFFF01349D
:10182400E4B2072CE4D938BD180A002018060020B9
:1018340008B5AE20FFF7C2FF2020FFF7BFFF10203E
:10184400FFF7BCFFB020FFF7B9FFC820FFF7B6FFD2
:101854000020FFF7B3FF1020FFF7B0FF4020FFF791
:10186400ADFF8120FFF7AAFFF020FFF7A7FFA1201B
:10187400FFF7A4FFA620FFF7A1FFA820FFF79EFF14
:101884003F20FFF79BFFA420FFF798FFD320FFF72B
:1018940095FF0020FFF792FFD520FFF78FFFF02080
:1018A400FFF78CFFD920FFF789FF2220FFF786FF7F
:1018B400DA20FFF783FF1220FFF780FFDB20FFF71A
:1018C4007DFF2020FFF77AFF8D20FFF777FF14209C
:1018D400FFF774FFFFF77CFFFFF784FFAF20FFF7EC
:1018E4006DFF08BD08B5154802F01AFB144802F054
:1018F40017FB144802F014FBC82001F071F9FFF73C
:1019040097FF00F083FCFFF7B7F900F01DF8FFF72D
:1019140031FEFFF769FCFFF733FCFFF75DFD00F0D4
:101924008FFE00F013FF012000F042FF002000F0C2
:1019340063FF0120FFF7D2F908BD00BF100C00209F
:10194400580C0020C80B002010B5054C002120467F
:1019540002F0C2FD0421204602F0BEFD10BD00BF0E
:10196400800B002082B00E4B9A6942F001029A610A
:101974009A6902F001020092009ADA6942F08052F8
:10198400DA61DB6903F080530193019B054A5368D4
:1019940023F0E06343F00073536002B0704700BF6C
:1019A4000010024000000140FEE7FEE7FEE7FEE70C
:1019B400FEE770477047704708B501F0FFF80C4A1E
:1019C400136801331360132B06DC0A4A13680133CE
:1019D4001360132B06DC08BDFFF72AFE044B00221C
:1019E4001A60F2E7FFF744FD024B00221A60F2E7A7
:1019F400A00A0020A40A002008B5102001F070FB02
:101A040008BD08B5202001F06BFB402001F068FB05
:101A1400802001F065FB08BD08B5024803F0B0F86A
:101A240008BD00BF380D002008B5024803F0A8F82F
:101A340008BD00BF800D002008B5FFF751FE024825
:101A440002F0AFFA08BD00BFC80B002008B5024879
:101A540003F096F808BD00BFC80D002008B5024881
:101A640003F08EF808BD00BF100E002008B500F08A
:101A740025FC024802F095FA08BD00BF100C0020B6
:101A840008B5094B1B7833B9084B1B783BB9084898
:101A940002F087FA08BD0020FFF762FCF4E700F0CB
:101AA400E7FF00F0C5FEF2E7200500208C0E0020C1
:101AB400580C002008B500F0F5FB08BD08B5036814
:101AC4000C4A934209D00C4A934209D00B4A9342E0
:101AD40009D00B4A934209D008BDFFF76FFDFBE71D
:101AE400FFF798FCF8E7FFF757FBF5E700F0F0FD88
:101AF400F2E700BF0044004000500040004C0040AA
:101B0400004800407047000000B587B000230293EE
:101B1400039304930593009301931548154A0260B7
:101B240040F2CF224260836040F2F312C26003614C
:101B3400836102F039FB90B94FF48053029302A9F8
:101B44000B4802F03BFC68B90023009301936946FB
:101B5400074802F081FD40B907B05DF804FBFFF7C8
:101B640097FCE9E7FFF794FCEEE7FFF791FCF3E756
:101B7400C80B0020000C004000B583B00023009384
:101B840001930F480F4A026047224260836042F289
:101B94000F73C3608023836102F006FB50B90023F6
:101BA400009301936946064802F056FD28B903B034
:101BB4005DF804FBFFF76CFCF1E7FFF769FCF6E75F
:101BC400100C00200010004000B583B000230093E7
:101BD40001930F480F4A026047224260836044F633
:101BE4001F63C3608023836102F0DEFA50B90023CF
:101BF400009301936946064802F02EFD28B903B00C
:101C04005DF804FBFFF744FCF1E7FFF741FCF6E75E
:101C1400580C00200014004086B00368234A934205
:101C240016D0B3F1804F1FD0214A934228D0214AC5
:101C3400934230D0204A934214D1204B9A6942F403
:101C440000529A619B6903F400530593059B09E0D4
:101C54001A4B9A6942F400629A619B6903F4006327
:101C64000193019B06B0704703F50433DA6942F02F
:101C74000102DA61DB6903F001030293029BF1E7DD
:101C84000E4BDA6942F00202DA61DB6903F0020307
:101C94000393039BE6E7094BDA6942F00402DA6135
:101CA400DB6903F004030493049BDBE7002C01408D
:101CB40000040040000800400034014000100240CD
:101CC40000B585B00368224A934208D0214A934262
:101CD40018D0214A934228D005B05DF804FB1F4B6D
:101CE400DA6942F00802DA61DB6903F00803019360
:101CF400019B00220121322000F098FF322000F0E5
:101D0400CDFFE9E7154BDA6942F01002DA61DB69CD
:101D140003F010030293029B00220121362000F0FD
:101D240085FF362000F0BAFFD6E70C4BDA6942F0A3
:101D34002002DA61DB6903F020030393039B002292
:101D44000221372000F072FF372000F0A7FFC3E71D
:101D5400000C00400010004000140040001002403D
:101D640000B58BB000230693079308930993036887
:101D7400404A93420ED0B3F1804F20D03E4A934262
:101D840031D03E4A93424BD03D4A93425CD00BB093
:101D94005DF804FB3B4B9A6942F004029A619B692B
:101DA40003F004030193019B4FF410630693022391
:101DB4000793099306A9344801F06CF8E7E703F5A3
:101DC40004339A6942F004029A619B6903F00403A4
:101DD4000293029B022306930793099306A92A48B8
:101DE40001F058F8D3E7274B9A6942F008029A6148
:101DF4009B6903F008030393039B33230693022395
:101E04000793099306A9214801F044F8204A53682E
:101E140023F4406343F0E06343F400635360B6E7A4
:101E2400184B9A6942F008029A619B6903F008030F
:101E34000493049BC023069302230793099306A9E2
:101E4400124801F027F8A2E70E4B9A6942F01002FB
:101E54009A619B6903F010030593059B4FF440734B
:101E6400069302230793099306A90A4801F012F87E
:101E74008DE700BF002C0140000400400008004032
:101E8400003401400010024000080140000C0140F1
:101E9400000001400010014010B592B000241094DD
:101EA400119409940A940B940C940D940E940F9429
:101EB4002022214601A803F003F82748274B03609A
:101EC400446084604FF6FF73C360046144618461BD
:101ED40002F096F9002830D100231093119310A931
:101EE4001D4802F0B9FB00282AD16023099300227F
:101EF4000A920B920C920D920E920F9209A9164817
:101F040002F0E2F9F8B90C2209A9134802F0DCF94D
:101F1400E0B90023019302930393049305934FF4D0
:101F240000520692089301A90B4802F0D3FB80B932
:101F34000948FFF715FF12B010BDFFF7A9FACBE768
:101F4400FFF7A6FAD1E7FFF7A3FADCE7FFF7A0FA59
:101F5400DFE7FFF79DFAEBE7A80A0020002C014019
:101F640000B58BB000230893099301930293039364
:101F7400049305930693079319484FF08042026037
:101F84000222426083604FF47A72C260036183610B
:101F940002F036F9D0B900230893099308A9104830
:101FA40002F05AFBA8B96023019300230293039320
:101FB400059304220DEB0201094802F085F958B992
:101FC4000748FFF7CDFE0BB05DF804FBFFF760FA9E
:101FD400E1E7FFF75DFAE6E7FFF75AFAF0E700BF3B
:101FE400F00A002000B58BB00023089309930193F5
:101FF4000293039304930593069307932548264A73
:102004000260436083604FF6FF72C26003618361C4
:1020140002F0F6F858BB00230893099308A91D4859
:1020240002F01AFB30BB6023019300220292039258
:10203400059201A9174802F047F9F0B904220DEB03
:102044000201144802F040F9D0B9082201A911484C
:1020540002F03AF9B8B90C2201A90E4802F034F999
:10206400A0B90C48FFF77CFE0BB05DF804FBFFF74A
:102074000FFAD0E7FFF70CFAD5E7FFF709FADDE727
:10208400FFF706FAE1E7FFF703FAE4E7FFF700FAE0
:10209400E7E700BF380B00200004004000B58BB018
:1020A40000230893099301930293039304930593E4
:1020B400069307931F48204A0260472242608360C8
:1020C40044F61F62C2600361836102F099F820BB89
:1020D40000230893099308A9164802F0BDFAF8B939
:1020E4006023019340F26633029300220392059227
:1020F40001A9104802F0E8F8A8B940F67703029362
:1021040004220DEB02010B4802F0DEF870B9094815
:10211400FFF726FE0BB05DF804FBFFF7B9F9D7E72C
:10212400FFF7B6F9DCE7FFF7B3F9E6E7FFF7B0F935
:10213400EDE700BF800B00200008004010B592B00E
:1021440000241094119409940A940B940C940D9403
:102154000E940F942022214601A802F0B1FE2948D2
:10216400294B036047234360846040F2E733C36034
:10217400046144618023836102F042F8002831D174
:1021840000231093119310A91E4802F065FA002849
:102194002BD16023099300230A930B930C930D9383
:1021A4000E930F93082209A9164802F08DF8F8B986
:1021B4000C2209A9134802F087F8E0B9002301931F
:1021C40002930393049305934FF4005206920893E9
:1021D40001A90C4802F07EFA80B90A48FFF7C0FD55
:1021E40012B010BDFFF754F9CAE7FFF751F9D0E771
:1021F400FFF74EF9DCE7FFF74BF9DFE7FFF748F9A4
:10220400EBE700BFA00C002000340140014B00228A
:102214001A707047EC0C002030B49DF80850C0F1DF
:10222400000C0C4C84F801C0C1F1000C84F802C00D
:10223400E27023715DB14FF0010C064C84F805C0C7
:10224400054C20706170A270E37030BC70474FF091
:10225400000CF2E710000020E80C002008B5074B42
:102264001B7843B9054B01221A700B220449054817
:1022740002F0DFFB08BD0220FCE700BFEC0C0020ED
:1022840010000020380D002010B54042044CA0710D
:102294004942E17122726372FFF7E0FF10BD00BF93
:1022A40010000020034B834200D07047024B0022F1
:1022B4001A70FAE7380D0020EC0C002008B5002352
:1022C400032B09DC084A32F8132012B20749C95615
:1022D4008A4204D10133F3E7012313B108BD00237B
:1022E400FBE7FFF7BBFFF9E7E0050020E80C00205F
:1022F40008B50A480A4B03604FF4E13343600023F6
:102304008360C36003610C2242618361C36102F094
:10231400FAFA00B908BDFFF7BBF8FBE7C80D0020C7
:10232400004C004008B50A480A4B03604FF4E133FF
:10233400436000238360C36003610C2242618361B4
:10234400C36102F0E0FA00B908BDFFF7A1F8FBE7AA
:10235400100E00200050004008B50A480A4B0360E4
:102364004FF4E133436000238360C36003610C22B4
:1023740042618361C36102F0C6FA00B908BDFFF788
:1023840087F8FBE7F00C00200038014008B50A4844
:102394000A4B03604FF4E133436000238360C3605E
:1023A40003610C2242618361C36102F0ACFA00B99B
:1023B40008BDFFF76DF8FBE7380D0020004400402E
:1023C40008B50A480A4B03604FF4E1334360002325
:1023D4008360C36003610C2242618361C36102F0C4
:1023E40092FA00B908BDFFF753F8FBE7800D00200F
:1023F4000048004030B591B000230C930D930E9328
:102404000F930368844A93420FD0844A93423ED088
:10241400834A934274D0834A934200F09B80824A59
:10242400934200F0C78011B030BD804BDA6942F4AA
:102434000022DA61DA6902F400220192019A9A69AF
:1024440042F010029A619B6903F010030293029B0D
:102454004FF480630C9302230D9303230F93744D65
:102464000CA9284600F016FD4FF400630C930024D9
:102474000D940E940CA9284600F00CFD224621462A
:10248400342000F0D3FB342000F008FCCBE7674B8A
:10249400DA6942F48012DA61DA6902F48012039292
:1024A400039A9A6942F010029A619A6902F0100242
:1024B4000492049A9A6942F020029A619B6903F09B
:1024C40020030593059B4FF480530C9302230D9333
:1024D40003230F930CA9564800F0DCFC04230C934F
:1024E40000240D940E940CA9524800F0D3FC22460B
:1024F4002146352000F09AFB352000F0CFFB92E70F
:102504004A4B9A6942F480429A619A6902F4804281
:102514000692069A9A6942F004029A619B6903F052
:1025240004030793079B4FF400730C9302230D934A
:1025340003230F93404C0CA9204600F0ABFC4FF44E
:1025440080630C9300230D930E930CA9204600F096
:10255400A1FC68E7354BDA6942F40032DA61DA69E2
:1025640002F400320892089A9A6942F004029A61CD
:102574009B6903F004030993099B04230C9302232E
:102584000D9303230F932C4D0CA9284600F082FCD5
:1025940008230C9300240D940E940CA9284600F0F3
:1025A40079FC22462146262000F040FB262000F03C
:1025B40075FB38E71D4BDA6942F48022DA61DA6987
:1025C40002F480220A920A9A9A6942F008029A61F5
:1025D4009B6903F008030B930B9B4FF480630C93EC
:1025E40002230D9303230F93144D0CA9284600F0E6
:1025F40051FC4FF400630C9300240D940E940CA929
:10260400284600F047FC22460121272000F00EFB5B
:10261400272000F043FB06E7004C00400050004038
:1026240000380140004400400048004000100240CF
:10263400001001400014014000080140000C01405A
:1026440008B501220249034802F0F9FB08BD00BFA6
:102654006C0E0020800D0020184B1B7853B1174BD3
:1026640000221A70164B1B78212B03D1144B1B7BB1
:10267400232B00D0704700B585B01249104AB2F838
:102684000100D37808808B700023CB7002938DF8FF
:102694000C3000938DF804305368029393680093D0
:1026A40002A802F0DFFB084B1880684602F0DAFB50
:1026B400064B188005B05DF804FB00BF660E0020D1
:1026C400580E0020680E00206E0E0020700E0020B0
:1026D40008B5184A136801331360174B1B78212B74
:1026E40014D0164A11784A1ED2B20B2A15D84A1CA5
:1026F400D2B212480270124843540D2A0DD1037B02
:10270400232B10D00D4B00221A7006E00B4A002137
:102714001170012111700A4A1370012206490948F7
:1027240002F08DFB08BD084B01221A70FFF794FFDD
:10273400E8E700BF740400206C0E0020650E002042
:10274400580E0020800D0020660E002000B583B0D6
:10275400134A536823F0E06343F000735360114B52
:10276400996941F0010199619B6903F001030193A7
:10277400019B536823F0E06343F00073536000222D
:102784004FF44041084800F0A5FC084803680022C3
:102794009A63042101F0A0FE03B05DF804FB00BFBE
:1027A400000001400010024000080140F00A00202F
:1027B40010B510B101280ED010BD0E4C01224FF4FB
:1027C4000041204600F086FC00224FF48041204660
:1027D40000F080FCF0E7074C00224FF40041204653
:1027E40000F078FC01224FF48041204600F072FC96
:1027F400E2E700BF00080140B0F57A7F01D94FF449
:102804007A70024B1B689863704700BFF00A00207F
:1028140008B5431AA3EB020C0844811A104413446C
:102824005BB242B249B24FFA8CF0FFF72DFD08BDFE
:1028340070B5454B1C68454B1B68E41A02E0A4F5CF
:102844000C44A03C44F250639C42F8DC02E004F5E2
:102854000C44A0343E4B9C42F9DBE21726463D482B
:1028640003684168E31841EBE4710360416042F29C
:102874001170834271F1000305DB364B42F2107094
:102884000021C3E90001334B18685968324B984260
:102894004FF0FF3371EB030305DA2E4B2E484FF054
:1028A400FF31C3E900012D4B1D68651B910041EA0E
:1028B4009671B300981942EB0103DB0043EA5073AD
:1028C400C000801B63EB02031B0143EA1073000189
:1028D400801942EB0302D20042EA5072C0001D4B41
:1028E40019685E684FEA860C4CEA917C8B005B1891
:1028F40046EB0C06DB187641C01842EB0602642650
:1029040005FB06F6851942EBE676154A4FF0FF33D0
:1029140028463146FDF77EFF0246124B9D424FF09A
:10292400FF3376EB030307DB0F4B9D4276F1000385
:1029340003DB6FF07E0200E07F22084B1C60002165
:102944000846FFF765FF70BD840E0020E4040020F4
:10295400B0B9FFFF780E0020F0D8FFFF800E0020F2
:102964006079FEFF01B03CFF0050C30000B583B0A6
:10297400A0EB010CACEB020E0844811A1044624433
:10298400009353B242B249B24FFA8EF0FFF744FCBF
:1029940003B05DF804FB000002E0A0F50C40A03891
:1029A40044F250639842F8DC02E000F50C40A03099
:1029B400014B9842F9DB7047B0B9FFFF38B50446C4
:1029C4004FF07C51FDF7D8FE38B121462046FDF783
:1029D4002DFC2146FDF732FD38BD4FF04041204625
:1029E400FDF72CFD2146FDF729FD05464FF08141F9
:1029F4002046FDF723FD01462846FDF717FC4FF05E
:102A04007E51FDF711FCE7E708B5124B1B781BB1AB
:102A1400114B1B68834211D00F4B186079B10F4BD7
:102A24001B680F4A1360C01AFFF7B6FF0D4B1860FE
:102A34000D4B00221A80074B01221A7008BD054B6A
:102A440000221A70094B1A88074B1A80034B18602E
:102A5400F4E700BF8D0E0020880E0020840E0020B5
:102A6400940E0020900E0020980E00201C000020E0
:102A7400F8B51D4B1B78002B35D01C4B1C88204609
:102A8400FDF784FC05461A4B1E883046FDF77EFC94
:102A940001462846FDF786FD05464FF07E51FDF7B9
:102AA40089FE08B14FF07E552846FFF787FF05469B
:102AB400104B1F683846FDF76DFC2946FDF7BEFC38
:102AC400FDF782FE0C4B1B6818440C4A106001345D
:102AD400A4B2064A1480A64205D8034A0021117004
:102AE4001F44064B1F60F8BD8D0E0020980E002079
:102AF4001C000020900E0020940E0020840E002064
:102B0400FFF700F80B480C490C4A002302E0D458A4
:102B1400C4500433C4188C42F9D3094A094C002325
:102B240001E013600432A242FBD302F0A5F9FEF7E0
:102B3400E3FC70470000002054040020A86600084D
:102B440058040020A40E0020FEE7000010B504463F
:102B54000E4B18784FF47A73B3FBF0F30C4A1068F9
:102B6400B0FBF3F000F0A8F868B90F2C01D90120EC
:102B74000AE0002221464FF0FF3000F057F8054BE1
:102B84001C60002000E0012010BD00BF1E000020DA
:102B94000C0000202000002008B5074A136843F009
:102BA40010031360032000F02FF80F20FFF7CEFF6F
:102BB400FEF7D8FE002008BD00200240034A116839
:102BC400034B1B780B441360704700BF9C0E00201E
:102BD4001E000020014B1868704700BF9C0E0020A7
:102BE40038B50446FFF7F6FF0546B4F1FF3F02D0BF
:102BF400044B1B781C44FFF7EDFF401BA042FAD3A3
:102C040038BD00BF1E000020074AD36823F4E063E8
:102C14001B041B0C000200F4E060034343F0BF6399
:102C240043F40033D360704700ED00E000B5194B66
:102C3400DB68C3F30223C3F1070CBCF1040F28BF04
:102C44004FF0040C03F1040EBEF1060F18D9033B38
:102C54004FF0FF3E0EFA0CFC21EA0C0199400EFAEB
:102C640003F322EA0303194300280BDB0901C9B269
:102C740000F1604000F5614080F800135DF804FB4A
:102C84000023E5E700F00F000901C9B2024B195413
:102C9400F4E700BF00ED00E014ED00E0002807DBDE
:102CA40000F01F02400901239340024A42F82030F9
:102CB400704700BF00E100E00138B0F1807F0BD223
:102CC4004FF0E0235861054AF02182F823100020D8
:102CD400986107221A6170470120704700ED00E0F7
:102CE40090F82130DBB2022B06D004238363002347
:102CF40080F82030012070470268136823F00E0327
:102D040013600268136823F001031360036CC16B42
:102D1400012202FA03F34B6080F82120002380F89B
:102D2400203018467047000008B590F82130DBB217
:102D3400022B03D004238363012008BD02681368B7
:102D440023F00E0313600268136823F00103136079
:102D540003684C4A93424ED9783A934224D01432B1
:102D6400934230D0143293422FD0143293422FD056
:102D7400143293422FD0143293422FD01432934200
:102D84002FD002F5627293422ED0143293422DD08A
:102D9400143293422CD01432934202D04FF4803236
:102DA40003E04FF4805200E00122374B5A600123C4
:102DB40080F82130002380F82030436B002B5ED054
:102DC40098470020B9E71022EFE74FF48072ECE750
:102DD4004FF48052E9E74FF48032E6E74FF4801273
:102DE400E3E74FF08072E0E70122DEE71022DCE740
:102DF4004FF48072D9E7254A934224D01432934287
:102E040025D01432934224D01432934224D0143265
:102E1400934224D01432934224D01432934224D0C7
:102E240002F56272934223D01432934222D01432B8
:102E3400934221D01432934202D04FF4803203E003
:102E44004FF4805200E00122114B5A60AFE7102288
:102E5400FAE74FF48072F7E74FF48052F4E74FF447
:102E64008032F1E74FF48012EEE74FF08072EBE727
:102E74000122E9E71022E7E74FF48072E4E700203B
:102E84005BE700BF800002400004024008000240EB
:102E94000000024070B582B00024A446B0E0874D23
:102EA400AA4210D007D9864DAA420CD005F5803528
:102EB400AA4208D013E0A5F58015AA4203D005F56F
:102EC4007025AA4207D18A68002A62D0012A5BD001
:102ED4004361082403E0A5F58015AA42F3D0BEF1AE
:102EE400FF0F58D80646BEF1FF0F56D84FEA8C02A2
:102EF40033680F25954023EA050304FA02F21343CD
:102F040033604B6813F0805F78D06E4B9A6942F05F
:102F140001029A619B6903F001030193019B4FEA4B
:102F24009C02951C684B53F825600CF003039D002C
:102F34000F23AB4026EA0306644B984233D003F5D3
:102F44008063984200F0988003F58063984200F013
:102F5400958003F58063984200F0928003F58063C6
:102F6400984200F08F8003F58063984219D00623BD
:102F74001AE0CC68B3E7CC680434B0E7CC68083412
:102F8400ADE7CC680C34AAE703610824A7E7002462
:102F9400A5E70424A3E7061DA5E7ACF10802920007
:102FA400A6E7052300E00023AB4033430232464D3D
:102FB40045F822304B6813F4801F65D0444A936867
:102FC40043EA0E0393604B6813F4001F62D0404A37
:102FD400D36843EA0E03D3604B6813F4003F5FD019
:102FE4003B4A536843EA0E0353604B6813F4803F33
:102FF4005CD0374A136843EA0E0313600CF1010CEA
:103004000A6832FA0CF357D0012303FA0CF302EAEC
:10301400030E33EA0202F1D14A68122A3FF63FAFA7
:10302400122A3FF65CAF01A555F822F0CB2E00081A
:10303400772F0008812F0008932F0008E32E000843
:10304400E32E0008E32E0008E32E0008E32E000818
:10305400E32E0008E32E0008E32E0008E32E000808
:10306400E32E0008E32E0008E32E0008E32E0008F8
:103074007B2F0008872F0008012395E7022393E79D
:10308400032391E704238FE7114A936823EA0E038D
:10309400936098E70E4AD36823EA0E03D3609BE754
:1030A4000B4A536823EA0E0353609EE7084A1368E9
:1030B40023EA0E031360A1E702B070BD00002210E2
:1030C40000003110001002400000014000080140DF
:1030D400000401400AB101617047090401617047AD
:1030E40008B5054B5B69034200D108BD024B58612A
:1030F400FEF7A0F8F9E700BF0004014003685A692D
:1031040012F4806F01D1002070476FF480625A611D
:1031140000230363202280F83D2080F83E30026CB7
:1031240042F00402026480F83C30012070472DE92B
:10313400F04106460C46174698463BE0FFF74AFD29
:10314400069BC01A404502D8B8F1000F32D1012DB8
:1031540018D033689B6924EA03039BB2B3FA83F360
:103164005B099F4226D100233363202286F83D2049
:1031740086F83E30326C42F02002326486F83C30ED
:10318400012027E033685B6924EA03039BB2B3FAA6
:1031940083F35B09E5E733685B6924EA030C1FFAF0
:1031A4008CFCBCFA8CFC4FEA5C1C674511D1B8F16D
:1031B400FF3FC3D1C4F30745012DECD033689B69AD
:1031C40024EA030C1FFA8CFCBCFA8CFC4FEA5C1C4E
:1031D400EBE70020BDE8F0812DE9F84305460E46F3
:1031E4009046994653E01A6842F400721A602B68BC
:1031F4006FF480625A6100232B63202285F83D20FE
:1032040085F83E302A6C42F004022A6485F83C308A
:1032140001204AE0FFF7DEFCA0EB0900404502D89C
:10322400B8F1000F33D1012F17D02B689B6926EA20
:1032340003039BB2003B18BF012343B300232B635A
:10324400202285F83D2085F83E302A6C42F0200289
:103254002A6485F83C30012027E02B685B6926EA64
:1032640003039BB2003B18BF0123E6E72B689C696C
:1032740026EA0404A4B2003C18BF0124A4B12B68BC
:103284005A6912F4806FAED1B8F1FF3FC2D1C6F3D0
:103294000747012FEAD12B685C6926EA0404A4B22B
:1032A400003C18BF0124E9E70020BDE8F8830000D2
:1032B400F0B583B004460D4616461F46C36A082B74
:1032C4000DD0012B0BD013F5803F08D0036B122BCC
:1032D4000AD10268136843F48073136004E022681F
:1032E400136843F4807313600097334600224FF051
:1032F40001112046FFF71BFF80B92369B3F5804F06
:1033040016D1236805F0FE051D613B46324613497C
:103314002046FFF761FFF8B903B0F0BD23681B68CE
:1033240013F4807F02D04FF4007323640320F3E787
:10333400EB11226803F0060343F0F00313613B46EC
:10334400324607492046FFF747FF18B92368EDB214
:103354001D61DAE70120DFE70120DDE7020001005B
:103364000800010070B504460D46164623685B69E3
:1033740013F0800F21D12046FFF7C0FEF8B9B5F154
:10338400FF3FF3D0FFF726FC801BA84201D8002D95
:10339400ECD123685B6913F0800FE7D1002323632A
:1033A400202284F83D2084F83E30226C42F0200232
:1033B400226484F83C30012000E0002070BD01202C
:1033C400FCE770B504460D46164623685B6913F0A6
:1033D400040F21D12046FFF791FEF8B9B5F1FF3F64
:1033E400F3D0FFF7F7FB801BA84201D8002DECD1E6
:1033F40023685B6913F0040FE7D1002323632022C1
:1034040084F83D2084F83E30226C42F0200222648D
:1034140084F83C30012000E0002070BD0120FCE76E
:10342400002800F0CC8070B5044690F83D30002BA5
:1034340077D0242384F83D302268136823F00103F5
:1034440013602268136843F400431360226813680E
:1034540023F40043136000F081FC62685A4B9A42E3
:1034640064D85A4B98428CBF00230123002B40F0B0
:10347400A8805749A1FB00318B0C25686A6822F0AB
:103484003F0242EA91426A6021680A6A22F03F02DE
:1034940066684D4DAE424FD8013313430B62216829
:1034A400CA6922F44F4222F0FF026668464B9E42EC
:1034B4004CD8431E7600B3FBF6F3013340F6FC70A0
:1034C400034278D0C3F30B031343CB6121680B6829
:1034D40023F0C003E269206A024313430B602168AE
:1034E4008B6823F4034323F0FF032269E06802435B
:1034F40013438B602168CB6823F0FF036269A069E2
:1035040002431343CB602268136843F00103136042
:1035140000202064202384F83D30206384F83E009A
:1035240070BD80F83C30FDF78FFC82E7294B984250
:103534008CBF0023012399E74FF4967505FB03F331
:10354400254DA5FB03539B090133A6E7A368BBB92B
:10355400451E06EB460CB5FBFCF50135C5F30B0522
:10356400B5FA85F56D0945BBC3B9013806EB4603C9
:10357400B0FBF3F30133C3F30B0343F40043A3E7BA
:10358400451E06EB860C0CEB8C0CB5FBFCF50135EB
:10359400C5F30B05B5FA85F56D09E4E7013806EBCB
:1035A400860303EB8303B0FBF3F30133C3F30B0391
:1035B40043F4404388E7042386E7012384E701209A
:1035C40070470120ACE700BFA08601007F841E0085
:1035D40083DE1B43FF083D00D34D62102DE9F04309
:1035E40085B004460F46914698460C9EFFF7F2FAC2
:1035F400054694F83D00C0B2202804D0022738467E
:1036040005B0BDE8F0830095192301224F492046F7
:10361400FFF78DFD002840F0928094F83C30012B98
:1036240000F08F80012384F83C3023681A6812F07C
:10363400010F03D11A6842F001021A60226813686C
:1036440023F400631360212384F83D30102384F8AD
:103654003E3000232364C4F82490A4F82A80638DA8
:1036640023853B4BE3622B46324639462046FFF71F
:103674001FFE0746002866D10023039323685A6976
:1036840003929B690393039B11E0236C042B01D0E9
:103694000127B4E72268136843F400731360F7E763
:1036A4002A4631462046FFF78CFE00282ED1238D72
:1036B400002B36D02A4631462046FFF753FE002819
:1036C400E3D1626A236812781A61606A431C6362F8
:1036D400618D89B2013989B26185238D013B9BB229
:1036E40023852268516911F0040FD9D0002BD7D05B
:1036F40043781361636A01336362638D9BB2013B58
:103704009BB26385238D013B2385C9E7236C042B7E
:1037140001D0012773E72268136843F40073136030
:10372400F7E72268136843F400731360202384F8D6
:103734003D30002384F83E3084F83C305FE70227B4
:103744005DE702275BE7012759E700BF020010008D
:103754000000FFFF82B0084B1B68084AA2FB03234A
:103764005B0A00FB03F3019300BF019B5A1E019205
:10377400002BF9D102B070470C000020D34D621029
:10378400002800F0F18170B582B00446036813F09C
:10379400010F2CD0994B5B6803F00C03042B1DD054
:1037A400964B5B6803F00C03082B12D06368B3F5E7
:1037B400803F41D0002B55D103F1804303F50433FE
:1037C4001A6822F480321A601A6822F480221A607D
:1037D40037E08A4B5B6813F4803FE7D0874B1B6864
:1037E40013F4003F03D06368002B00F0BF8123680B
:1037F40013F0020F75D0814B5B6813F00C0F5FD090
:103804007E4B5B6803F00C03082B54D02369002B18
:1038140000F08A807A4B01221A60FFF7DBF9054633
:10382400764B1B6813F0020F75D1FFF7D3F9401BD9
:103834000228F5D903209EE1704A136843F48033CB
:103844001360636843B3FFF7C5F905466B4B1B6808
:1038540013F4003FCBD1FFF7BDF9401B6428F5D921
:10386400032088E1B3F5A02F09D0644B1A6822F431
:1038740080321A601A6822F480221A60E1E703F1A8
:103884008043A3F53C331A6842F480221A601A6814
:1038940042F480321A60D4E7FFF79CF90546574B8F
:1038A4001B6813F4003FA2D0FFF794F9401B64286F
:1038B400F5D903205FE1514B5B6813F4803FA5D138
:1038C4004E4B1B6813F0020F03D02369012B40F009
:1038D4004F814A4A136823F0F803616943EAC1033C
:1038E4001360236813F0080F33D0A369002B5CD056
:1038F400434B0122C3F88024FFF76CF905463F4B84
:103904005B6A13F0020F21D1FFF764F9401B022810
:10391400F5D903202FE1394A136823F0F8036169CC
:1039240043EAC1031360DCE7354B00221A60FFF75A
:1039340051F90546314B1B6813F0020FD1D0FFF744
:1039440049F9401B0228F5D9032014E10120FFF7AF
:1039540001FF236813F0040F00F09680274BDB6906
:1039640013F0805F34D1254BDA6942F08052DA617A
:10397400DB6903F080530193019B0125214B1B68F4
:1039840013F4807F26D0E368012B3DD0002B53D164
:1039940003F1804303F504331A6A22F001021A6228
:1039A4001A6A22F004021A6233E0154B0022C3F8AB
:1039B4008024FFF70FF90546104B5B6A13F0020FE2
:1039C400C7D0FFF707F9401B0228F5D90320D2E03E
:1039D4000025D3E70B4A136843F480731360FFF7A1
:1039E400F9F80646074B1B6813F4807FCBD1FFF729
:1039F400F1F8801B6428F5D90320BCE000100240D4
:103A040000004242007000405F4A136A43F0010321
:103A14001362E36833B3FFF7DDF806465A4B1B6ABB
:103A240013F0020F2FD1FFF7D5F8801B41F2883332
:103A34009842F3D903209EE0052B09D0524B1A6A11
:103A440022F001021A621A6A22F004021A62E0E702
:103A54004D4B1A6A42F004021A621A6A42F00102D9
:103A64001A62D6E7FFF7B6F80646474B1B6A13F00F
:103A7400020F08D0FFF7AEF8801B41F2883398425A
:103A8400F3D9032077E0E5B9E369002B72D03E4A0D
:103A9400526802F00C02082A56D0022B17D03B4B76
:103AA40000221A66FFF796F80446374B1B6813F09A
:103AB400007F47D0FFF78EF8001B0228F5D90320BA
:103AC40059E0314AD36923F08053D361DCE72F4BAB
:103AD40000221A66FFF77EF805462B4B1B6813F08D
:103AE400007F06D0FFF776F8401B0228F5D90320A3
:103AF40041E0236AB3F5803F1AD023494B6823F48D
:103B04007413226A606A024313434B601F4B012201
:103B14001A66FFF75FF804461B4B1B6813F0007F1F
:103B24000ED1FFF757F8001B0228F5D9032022E035
:103B3400154A536823F40033A1680B435360DCE750
:103B4400002018E0002016E0012B16D00E4B5B6815
:103B540003F48031226A914211D103F47013626A32
:103B640093420ED1002006E001207047012002E0BC
:103B7400012000E0002002B070BD0120FBE701201D
:103B8400F9E70120F7E700BF0010024000004242BD
:103B94000F4B5B6803F00C02082A01D00D487047F4
:103BA400C3F383420C49885C13F4803F0BD0084B69
:103BB4005B68C3F34043094AD35C064A02FB00F046
:103BC400B0FBF3F07047064B03FB00F0704700BFF7
:103BD4000010024000127A00A8610008B8610008D1
:103BE40000093D00002800F0A08070B50D46044691
:103BF400524B1B6803F007038B420BD24F4A1368E6
:103C040023F007030B431360136803F007038B428D
:103C140040F08D80236813F0020F17D013F0040FC7
:103C240004D0474A536843F4E0635360236813F0B5
:103C3400080F04D0424A536843F460535360404A27
:103C4400536823F0F003A1680B435360236813F017
:103C5400010F31D06368012B20D0022B25D0384AC4
:103C6400126812F0020F64D035494A6822F0030248
:103C740013434B60FEF7AEFF0646314B5B6803F01F
:103C84000C036268B3EB820F16D0FEF7A3FF801B10
:103C940041F288339842F0D9032045E0284A12685B
:103CA40012F4003FE0D101203EE0254A126812F0F0
:103CB400007FD9D1012037E0204B1B6803F00703B4
:103CC400AB420AD91D4A136823F007032B43136040
:103CD400136803F00703AB422DD1236813F0040FDC
:103CE40006D0174A536823F4E063E1680B4353603A
:103CF400236813F0080F07D0114A536823F4605364
:103D0400216943EAC1035360FFF742FF0C4B5B6830
:103D1400C3F303130B4AD35CD8400B4B18600B4B13
:103D24001868FEF713FF002070BD012070470120C2
:103D3400FAE70120F8E70120F6E700BF002002407F
:103D440000100240906100080C00002020000020B8
:103D5400014B1868704700BF0C00002008B5FFF73E
:103D6400F7FF044B5B68C3F30223034AD35CD840D8
:103D740008BD00BF00100240A061000808B5FFF7AD
:103D8400E7FF044B5B68C3F3C223034AD35CD84008
:103D940008BD00BF00100240A061000830B4036AEF
:103DA400026A22F0010202624268846924F0730408
:103DB4000D682C4323F0020C8B6843EA0C03104D6E
:103DC400A84203D005F50065A84205D123F00803F5
:103DD400CD682B4323F00403094DA84203D005F515
:103DE4000065A84205D122F440724D692A438D69C9
:103DF4002A43426084614A684263036230BC70476C
:103E0400002C014030B4036A026A22F48072026218
:103E14004268C46924F0730C0C6844EA0C0523F46A
:103E240000738C6843EA0423114CA04203D004F5C8
:103E34000064A04206D123F40063CC6843EA04235F
:103E440023F480630A4CA04203D004F50064A0422A
:103E540007D122F440524C6942EA04128C6942EAC6
:103E640004124260C5614A68C263036230BC704791
:103E7400002C014030B4036A026A22F480520262C8
:103E84004468C26922F4E6420D6842EA052223F43A
:103E940000538D6843EA0533094DA84203D005F564
:103EA4000065A84204D124F480444D6944EA851491
:103EB4004460C2614A680264036230BC704700BF58
:103EC400002C014010B4036A046A24F00104046263
:103ED400846924F0F00C4CEA021223F00A030B4329
:103EE4008261036210BC704710B4036A046A24F050
:103EF40010040462846924F4704C4CEA023223F006
:103F0400A00343EA01138261036210BC7047836813
:103F140023F070030B4343F00703836070470000F2
:103F240090F83D30DBB2012B2FD1022380F83D30D5
:103F34000268D36843F00103D3600368154A9342CF
:103F440018D002F50062934214D0B3F1804F11D01F
:103F5400A2F5983293420DD002F58062934209D0C3
:103F640002F58062934205D01A6842F001021A6099
:103F7400002070479A6802F00702062A07D01A68E0
:103F840042F001021A6000207047012070470020AF
:103F9400704700BF002C014070477047704770475E
:103FA400704770B504460368DE681D6915F0020F9A
:103FB40010D016F0020F0DD06FF002021A61012327
:103FC400037703689B6913F0030F5ED0FFF7E6FFE6
:103FD4000023237715F0040F12D016F0040F0FD02E
:103FE40023686FF004021A610223237723689B6914
:103FF40013F4407F4FD02046FFF7D0FF00232377F0
:1040040015F0080F12D016F0080F0FD023686FF0C8
:1040140008021A61042323772368DB6913F0030F72
:1040240040D02046FFF7BAFF0023237715F0100F86
:1040340012D016F0100F0FD023686FF010021A611F
:10404400082323772368DB6913F4407F31D02046AB
:10405400FFF7A4FF0023237715F0010F02D016F019
:10406400010F2DD115F0800F02D016F0800F2FD143
:1040740015F0400F02D016F0400F31D115F0200F8B
:1040840002D016F0200F33D170BDFFF786FF204613
:10409400FFF785FF9CE72046FFF77FFF2046FFF7E9
:1040A4007EFFABE72046FFF778FF2046FFF777FF58
:1040B400BAE72046FFF771FF2046FFF770FFC9E714
:1040C40023686FF001021A612046FFF765FFC9E714
:1040D40023686FF080021A61204600F025FBC7E7D1
:1040E40023686FF040021A612046FFF759FFC5E7C5
:1040F40023686FF020021A61204600F014FBC3E726
:104104000368284A904212D002F5006290420ED011
:10411400B0F1804F0BD0A2F59832904207D002F54F
:104124008062904203D002F58062904203D123F072
:1041340070034A6813431B4A904212D002F500628E
:1041440090420ED0B0F1804F0BD0A2F5983290423D
:1041540007D002F58062904203D002F5806290425B
:1041640003D123F44073CA68134323F080034A69DC
:10417400134303608B68C3620B688362094B9842E4
:1041840003D003F50063984201D10B690363012353
:104194004361036913F0010F03D0036923F00103A2
:1041A40003617047002C014040B310B5044690F8F9
:1041B4003D30F3B1022384F83D30214651F8040B1D
:1041C400FFF79EFF012384F8463084F83E3084F8DC
:1041D4003F3084F8403084F8413084F8423084F829
:1041E400433084F8443084F8453084F83D3000206E
:1041F40010BD80F83C30FDF763FDDBE7012070471C
:1042040040B310B5044690F83D30F3B1022384F86E
:104214003D30214651F8040BFFF772FF012384F867
:10422400463084F83E3084F83F3084F8403084F8D7
:10423400413084F8423084F8433084F8443084F8C0
:10424400453084F83D30002010BD80F83C30FDF747
:10425400E3FCDBE70120704730B4036A026A22F012
:10426400100202624468826922F4E6420D6842EA5E
:10427400052223F020038D6843EA0513114DA8425B
:1042840003D005F50065A84206D123F08003CD686C
:1042940043EA051323F040030A4DA84203D005F571
:1042A4000065A84207D124F440644D6944EA8504BA
:1042B4008D6944EA8504446082614A6882630362CA
:1042C40030BC7047002C014038B590F83C30012BCD
:1042D40066D004460D46012380F83C300C2A5AD897
:1042E400DFE802F0075959591B595959305959599E
:1042F40044000068FFF752FD2268936943F0080305
:1043040093612268936923F004039361226893699B
:1043140029690B43936100203EE00068FFF79CFF8E
:104324002268936943F4006393612268936923F4D8
:104334008063936122689369296943EA0123936145
:10434400002029E00068FFF75DFD2268D36943F08F
:104354000803D3612268D36923F00403D36122687C
:10436400D36929690B43D361002015E00068FFF786
:1043740081FD2268D36943F40063D3612268D36961
:1043840023F48063D3612268D369296943EA012352
:10439400D361002000E00120002384F83C3038BDC4
:1043A4000220FCE710B4846824F47F4C42EA032220
:1043B4000A4342EA0C02826010BC704790F83C3019
:1043C400012B78D010B50446012380F83C30022339
:1043D40080F83D300268936823F47F4323F0770329
:1043E40093600B68602B4CD029D8402B54D00CD947
:1043F400502B22D1CA6849680068FFF763FD502139
:104404002068FFF784FD002005E0202B0DD009D99A
:10441400302B0AD00120012384F83D30002384F896
:104424003C3010BD0BB1102B05D119462068FFF7A5
:104434006EFD0020EFE70120EDE70120EBE7B3F587
:10444400805F34D0B3F5005F0CD1CB684A688968CB
:104454000068FFF7A7FF2268936843F480439360E2
:104464000020D8E7702B24D1CB684A68896800689B
:10447400FFF798FF2268936843F077039360002066
:10448400C9E7CA6849680068FFF72EFD6021206803
:10449400FFF73DFD0020BEE7CA6849680068FFF7E2
:1044A40011FD40212068FFF732FD0020B3E7002012
:1044B400B1E70120AFE70220704701F01F0101239B
:1044C40003FA01FC036A23EA0C030362036A02FA97
:1044D40001F10B430362704710B5044608460029F6
:1044E4003AD194F83E30DBB2013B18BF0123002BD4
:1044F40066D1002849D1022384F83E3001220146C6
:104504002068FFF7DAFF23682F4A934203D002F5AD
:104514000062934203D15A6C42F400425A64236805
:10452400294A934241D002F5006293423DD0B3F14F
:10453400804F3AD0A2F59832934236D002F5806289
:10454400934232D002F5806293422ED01A6842F030
:1045540001021A60002032E0042908D008290DD095
:1045640094F84130DBB2013B18BF0123BFE794F854
:104574003F30DBB2013B18BF0123B8E794F8403069
:10458400DBB2013B18BF0123B1E7042805D008289A
:1045940007D0022384F84130B0E7022384F83F3087
:1045A400ACE7022384F84030A8E79A6802F00702D7
:1045B400062A07D01A6842F001021A60002010BDD2
:1045C4000120FCE70020FAE7002C014038B504463E
:1045D4000D4600220068FFF770FF23681D4A9342CE
:1045E40018D002F50062934214D02368196A41F28C
:1045F4001112114208D1196A40F24442114203D106
:104604001A6822F001021A609DB9012384F83E3031
:10461400002038BD196A41F211121142E5D1196A1C
:1046240040F244421142E0D15A6C22F400425A64EE
:10463400DBE7042D05D0082D07D0012384F8413091
:10464400E6E7012384F83F30E2E7012384F84030B1
:10465400DEE700BF002C014090F83C30012B34D041
:1046640010B4012380F83C30022380F83D30036805
:104674005A689C6822F0700C0A6842EA0C025A607C
:104684000368134A934212D002F5006293420ED09B
:10469400B3F1804F0BD0A2F59832934207D002F5C4
:1046A4008062934203D002F58062934204D124F0E5
:1046B40080044A6814439C60012380F83D30002341
:1046C40080F83C30184610BC70470220704700BF89
:1046D400002C014090F83C30012B22D0012380F8BB
:1046E4003C30CB6823F440738A68134323F480631B
:1046F4004A68134323F400630A68134323F4805382
:104704000A69134323F400534A69134323F480438F
:10471400CA69134302685364002380F83C30184686
:1047240070470220704770477047026802F10C031B
:1047340053E8003F23F490730C3242E8003100291F
:10474400F3D1026802F1140353E8003F23F001039C
:10475400143242E800310029F3D1036B012B05D058
:10476400202380F84230002303637047026802F17B
:104774000C0353E8003F23F010030C3242E80031ED
:104784000029F3D1ECE790F84130DBB2212B01D0C2
:10479400022070478368B3F5805F17D0036A5A1C00
:1047A40002621A7803685A60C38C9BB2013B9BB2C5
:1047B400C3844BB90268D36823F08003D3600268D2
:1047C400D36843F04003D360002070470369002B93
:1047D400E4D1036A1B880268C3F308035360036AC5
:1047E40002330362E0E7000010B50446026813696F
:1047F40023F44053C1680B43136183680269134374
:1048040042691A430168CB6823F4B05323F00C03C4
:104814001343CB600268536923F4407381690B43EB
:1048240053610268134B9A4220D0FFF797FA02466D
:1048340002EB820202EB820263689B00B2FBF3F29A
:104844000D48A0FB02314909642303FB11231B011A
:104854003233A0FB03235B0903F0F00202EB0112E5
:1048640003F00F03216813448B6010BDFFF786FA31
:104874000246DDE7003801401F85EB512DE9F04386
:1048840083B005460E4617469946DDF828802C6805
:10489400246836EA04030CBF4FF0010C4FF0000CFF
:1048A400BC4528D1B8F1FF3FF1D0FEF793F9A0EB56
:1048B4000900404523D8B8F1000F22D02B68DA68EC
:1048C40012F0040FE3D0802EE1D0402EDFD01A681E
:1048D40012F0080FDBD0002401941A6801925B687F
:1048E4000193019B2846FFF720FF08236B6485F89A
:1048F4004040012000E0002003B0BDE8F083032025
:10490400FAE70320F8E760B310B5044690F84130A5
:1049140013B3242384F841302268D36823F400536A
:10492400D3602046FFF760FF2268136923F49043A5
:1049340013612268536923F02A0353612268D36800
:1049440043F40053D36000206064202384F8413092
:1049540084F84230606310BD80F84030FDF74AFDB2
:10496400D7E7012070472DE9F04182B01E4690F848
:104974004130DBB2202B56D104460D469046002927
:1049840055D00AB901204FE000234364212380F865
:104994004130FEF71FF90746A4F82480A4F82680C6
:1049A400A368B3F5805F02D04FF0000814E02369D8
:1049B4002BB34FF000080FE0202384F8413003208C
:1049C40032E038F8023B2268C3F308035360E28CF8
:1049D40092B2013A92B2E284E38C9BB293B1009614
:1049E4003B46002280212046FFF748FF0028E3D100
:1049F400002DE6D015F8012B23685A60E7E7A84696
:104A04000025E9E700963B46002240212046FFF7B7
:104A140035FF18B9202384F8413005E0202384F8B9
:104A24004130032000E0022002B0BDE8F081012003
:104A3400FAE790F84130DBB2202B10D189B192B162
:104A440001628284C28400234364212280F84120CD
:104A54000168CA6842F08002CA60184670470220A2
:104A64007047012070470120704708B50168CA6883
:104A740022F04002CA60202280F84120FDF71AF893
:104A8400002008BD704708B5406A0023C385C3846D
:104A9400FFF7F8FF08BD704790F84230DBB2222BD5
:104AA40069D18368B3F5805F4FD0826AB3F5805FC4
:104AB40004D0002B56D10369002B53D103685B68E3
:104AC4001370836A01338362C38D9BB2013B9BB233
:104AD400C385002B51D100B583B00268D36823F09D
:104AE4002003D3600268D36823F48073D360026820
:104AF400536923F001035361202380F842300023DB
:104B04004363036B012B33D100230363026802F177
:104B14000C0353E8003F23F010030C3242E8003149
:104B24000029F3D103681A6812F0100F06D000228E
:104B340001921A6801925B680193019B818DFFF7D2
:104B4400AAFF002003B05DF804FB0269002AACD17F
:104B5400826A03685B68C3F308031380836A0233C1
:104B64008362B1E703685B6803F07F031370A8E70F
:104B7400FCF7A4FFE5E7022070470020704700001F
:104B840030B583B0044602681368D068516913F0E5
:104B94000F0505D113F0200F02D010F0200F19D10A
:104BA4002DB111F0010119D110F4907F16D1216BB0
:104BB40001297DD013F0800F03D010F0800F40F056
:104BC400188113F0400F03D010F0400F40F015810E
:104BD40003B030BD2046FFF75FFFF9E713F0010F84
:104BE40006D010F4807F03D0626C42F0010262644C
:104BF40013F0040F04D019B1626C42F00202626433
:104C040013F0020F04D019B1626C42F00402626422
:104C140013F0080F07D010F0200F00D119B1626C07
:104C240042F008026264626C002AD1D013F0200FB3
:104C340002D010F0200F29D123685B6903F04003F0
:104C4400626C12F0080F00D163B32046FFF76DFDCC
:104C540023685B6913F0400F20D0226802F114032B
:104C640053E8003F23F04003143242E800310029A6
:104C7400F3D1E36B73B1634A5A63E06BFEF754F804
:104C84000028A5D0E06B436B9847A1E72046FFF7C7
:104C940003FFD1E72046FFF7F5FE99E72046FFF72B
:104CA400F1FE95E72046FFF7EDFE002363648FE7EE
:104CB40013F0100F3FF47EAF10F0100F3FF47AAFF3
:104CC400002301931368019353680193019B536973
:104CD40013F0400F51D0E26B13685B689BB2002B5A
:104CE4003FF476AFA18D99427FF672AFE385936965
:104CF400202B37D0226802F10C0353E8003F23F441
:104D040080730C3242E800310029F3D1226802F1A9
:104D1400140353E8003F23F00103143242E8003146
:104D24000029F3D1226802F1140353E8003F23F071
:104D34004003143242E800310029F3D1202384F8DF
:104D4400423000232363226802F10C0353E8003F3E
:104D540023F010030C3242E800310029F3D1E06B58
:104D6400FDF7BEFF02236363A18DE38D9BB2C91AD5
:104D740089B22046FFF78FFE2AE7A18DE38D9BB20F
:104D8400C91A89B2E38D9BB2002B3FF421AF0029ED
:104D94003FF41EAF226802F10C0353E8003F23F4F2
:104DA40090730C3242E800300028F3D1226802F1FB
:104DB400140353E8003F23F00103143242E80030A7
:104DC4000028F3D1202384F842300023236322688F
:104DD40002F10C0353E8003F23F010030C3242E8C5
:104DE40000300028F3D1022363632046FFF753FE0B
:104DF400EEE62046FFF7C7FCEAE62046FFF735FE5D
:104E0400E6E600BF8B4A000881628285C2850023E2
:104E14004364222380F84230036923B10268D368D3
:104E240043F48073D3600268536943F00103536110
:104E34000268D36843F02003D3600020704708B5AC
:104E440090F84230DBB2202B08D149B10AB90120D5
:104E540008BD00230363FFF7D7FFF9E70220F7E754
:104E64000120F5E70A22002100F072B9014B18680D
:104E7400704700BF2400002070B50D4E0D4D761B09
:104E8400B61006D0002455F8043B01349847A642D6
:104E9400F9D1094E094D01F013F9761BB61006D06D
:104EA400002455F8043B01349847A642F9D170BD5B
:104EB4009C6600089C660008A46600089C660008BE
:104EC400830730B548D0541E002A3FD00346CAB2E7
:104ED40001E0013C3AD303F8012B9D07F9D1032CDF
:104EE4002DD9CDB245EA05250F2C45EA054536D91D
:104EF400A4F1100222F00F0C03F1200EE6444FEA55
:104F0400121C03F1100242E9045542E90255103221
:104F14007245F8D10CF1010214F00C0F03EB0212EC
:104F240004F00F0C13D0ACF1040323F00303043397
:104F3400134442F8045B9342FBD10CF003042CB1FC
:104F4400CAB21C4403F8012B9C42FBD130BD644619
:104F54001346002CF4D1F9E703461446BFE71A467A
:104F6400A446E0E711F0FF01034644D0820732D1A2
:104F740010B5046841EA012E4EEA0E4E8EEA040290
:104F8400A2F1013323EA0203A4F1013222EA04026A
:104F9400134313F0803F0FD150F8044F84EA0E0CF2
:104FA400A4F10133ACF1013223EA040322EA0C0236
:104FB400134313F0803FEFD0037823B936E010F8A1
:104FC400013F002B32D09942F9D110BD8A4211D051
:104FD4009A071846CCD0184613F8012B002AF5D1AD
:104FE400104670479907184607D0184602780133CF
:104FF400002AF7D170478207F7D10268A2F1013382
:1050040023EA020313F0803F08D150F8042FA2F1E1
:10501400013323EA020313F0803FF6D00378002B18
:10502400E8D010F8013F002BFBD17047184610BDA3
:105034002DE9F04F81468E46444D70461EF801CB53
:1050440015F80C4014F00804F7D1BCF12D0FE34619
:1050540053D06FF00048BCF12B0F04BF9EF800B092
:1050640000F1020E1BB1102B4FD01F4604E0BBF120
:10507400300F55D00A231F460025B8FBF7F6284603
:1050840007FB168A07E0864215D329D0012507FBC2
:1050940000C01EF801BBABF1300CBCF1090F06D9FE
:1050A400ABF1410CBCF1190F08D8ABF1370C6345D7
:1050B4000DDD002DE7DA4FF0FF35EAE7ABF1610CC7
:1050C400BCF1190F03D8ABF1570C6345F1DC002D8B
:1050D4000BDB04B140420AB195BB1160BDE8F08F0F
:1050E400E245D3DA4FF0FF35D3E72223C9F8003085
:1050F4001AB340460EF1FF31EFE79EF800B04FF0CF
:105104000048012400F1020EACE7BBF1300FACD132
:105114009EF8000000F0DF00582807D01F46ABE7D8
:105124009EF8003003F0DF03582B0BD110279EF8B4
:1051340001B03B460EF1020E9EE74046BDE8F08FFB
:105144008046D6E708231F4696E700BFC1610008E2
:10515400012A10B50AD0242A08D8074C13460A4657
:1051640001462068BDE81040FFF762BFFFF77EFEEE
:1051740016230360002010BD24000020024B13B14D
:10518400024800F005B8704700000000A151000873
:10519400002301461A46184600F01AB838B5084BE1
:1051A400084D5B1B9C1007D0043B1D44013C55F883
:1051B40004399847002CF9D1BDE8384000F086BF87
:1051C400A8660008A4660008704700BF704700BFC7
:1051D4002DE9F047DFF87CA00646DAF8000098468F
:1051E4000F469146FFF7F0FF1B4B1B68D3F848416D
:1051F40024B365681F2D26DC5EB96B1C0235DAF812
:105204000000636044F82570FFF7E0FF0020BDE86C
:10521400F087012304EB8501C1F88890D4F8882134
:10522400AB401A43022EC4F88821C1F80881E4D1A6
:10523400D4F88C211343C4F88C31DEE703F5A6744B
:10524400C3F84841D5E7DAF80000FFF7BFFF4FF095
:10525400FF30DCE750040020BC6100081A4A20F04B
:10526400004393421ADD00B5B3F1FF4F83B005DB71
:105274000146FAF7D9FF03B05DF804FB694600F074
:105284005FF800F00302012A0BD0022A15D07AB18C
:1052940001220199009800F0FDFDECE7002100F0E7
:1052A400C1B90199009800F0F5FD00F10040E2E772
:1052B4000199009800F0B6F9DDE70199009800F033
:1052C400B1F900F10040D6E7D80F493F1B4A20F05E
:1052D400004393421BDD00B5B3F1FF4F83B005DB00
:1052E4000146FAF7A1FF03B05DF804FB694600F03C
:1052F40027F800F0030001280DD0022816D078B159
:105304000199009800F08EF900F10040EBE70022CB
:10531400002100F0BFBD0199009800F083F9E2E795
:1053240001220199009800F0B5FDDCE70122019902
:10533400009800F0AFFD00F10040D4E7D80F493FDA
:105344002DE9F04FAA4A20F0004494420D4689B05A
:105354006CDDA84A074694421CDC0028A64940F3A9
:105364001D81FAF761FFA54B24F00F049C42064609
:105374006BD0A349FAF758FF014630462960FAF783
:1053840053FF9F49FAF750FF01266860304609B081
:10539400BDE8F08F9B4A94426CDDB4F1FF4F4DDAC7
:1053A400E615863EA4EBC6542046FBF70DFAFAF741
:1053B400F1FF014620460591FAF736FF4FF0874189
:1053C400FBF73CF88046FBF7FFF9FAF7E3FF0446E6
:1053D400404621460694FAF727FF4FF08741FBF732
:1053E4002DF800210790FBF7BDF9002800F0B780E5
:1053F40020460021FBF7B6F9002814BF012302233D
:10540400022481493246019105A82946009400F0FE
:10541400CFF9002F0646B9DAD5E9002302F100429C
:1054240003F100432A606B604642AFE70026286020
:10543400002230464A6009B0BDE8F08F0146FAF711
:10544400F3FE002668602860A0E77049FAF7ECFED6
:105454006F490446FAF7E8FE014620462960FAF748
:10546400E3FE6B49FAF7E0FE01266860304609B0B6
:10547400BDE8F08F00F082FD66498046FAF7DEFF52
:105484004FF07C51FAF7D2FEFBF79EF90646FAF785
:1054940081FF59498346FAF7D1FF01464046FAF79E
:1054A400C3FE574982465846FAF7C8FF1F2E814665
:1054B4000146504620DC584B721E53F8223024F02B
:1054C400FF029A4218D0FAF7AFFE8046C5F8008072
:1054D40041465046FAF7A8FE4946FAF7A5FE002FC2
:1054E4006860BFF653AF08F1004800F10040C5F80A
:1054F40000806860764249E7FAF796FEC0F3C75227
:10550400E315C2EBD454082C8046DFDD3F495846EE
:105514000393FAF793FF804650464146FAF784FE18
:10552400044650462146FAF77FFE4146FAF77CFED0
:10553400804637495846FAF781FF4146FAF774FE28
:10554400814620464946FAF76FFE039BC0F3C752D3
:105554009B1A192B804604DCA2462860B8E7032373
:105564004EE72E495846FAF769FF804620464146E1
:10557400FAF75AFE824620465146FAF755FE41464E
:10558400FAF752FE044626495846FAF757FF2146D1
:10559400FAF74AFE81465046494694E7FAF746FE32
:1055A400164B24F00F049C4206460ED01449FAF719
:1055B4003DFE014630462960FAF736FE1049FAF7F7
:1055C40035FE4FF0FF366860E0E61049FAF72EFE2C
:1055D4000F490446FAF72AFE014620462960FAF7E5
:1055E40023FE0B49FAF722FE4FF0FF366860CDE642
:1055F400D80F493FE3CB1640800FC93FD00FC93FB6
:1056040043443537800F4943446300080044353729
:1056140008A3852E84F9223FC462000800A3852EC6
:1056240032318D242DE9F84320F00045B5F1485F6F
:10563400064688464ADAFBF7C7F8002800F09F8040
:1056440031463046FAF7FAFE04464F49FAF7F6FEB9
:105654004E49FAF7EBFD2146FAF7F0FE4C49FAF70A
:10566400E3FD2146FAF7EAFE4A49FAF7DFFD21464F
:10567400FAF7E4FE4849FAF7D7FD2146FAF7DEFEC9
:105684004649FAF7D3FD2146FAF7D8FE07464FF00C
:105694007C512046FAF7D2FE0346394620461C4682
:1056A400FAF7CCFE414605463046FAF7C7FE0146F6
:1056B4002846FAF7B9FD01462046FAF7B5FD01463A
:1056C4004FF07E50FAF7B0FDBDE8F8830146FAF7D3
:1056D400B5FE04462C49FAF7B1FE2C49FAF7A6FDAB
:1056E4002146FAF7ABFE2A49FAF79EFD2146FAF75E
:1056F400A5FE2849FAF79AFD2146FAF79FFE2649A6
:10570400FAF792FD2146FAF799FE2449FAF78EFD3D
:105714002146FAF793FE224B07469D42B7DD214B03
:105724009D4228DC05F17F4529464FF07E50FAF76B
:105734007BFD814620464FF07C51FAF77FFE2946D7
:10574400FAF772FD0346394620461C46FAF776FE00
:10575400414605463046FAF771FE01462846FAF7F7
:1057640063FD01462046FAF75FFD01464846FAF715
:105774005BFDBDE8F883DFF830900C4DDAE74FF0BD
:105784007E50BDE8F88300BF4ED747ADF6740F31A5
:105794007CF29334010DD037610BB63AABAA2A3DA3
:1057A4009999993E0000483F0000383F0000903E20
:1057B4002DE9F04FDDB0669DA74C069354F82540C3
:1057C4000991013B111D054603940B920193C0F20C
:1057D400F182D31E48BF131DDB1005930133DB0098
:1057E4000A93DDE90A239B1A0493059A019BD61AAE
:1057F400039A12EB030818D408F101080024DDF819
:105804009C91B04420AF08E059F82600FAF7C2FD95
:105814000136464547F8040B07D0002EF4DA20463B
:105824000136464547F8040BF7D1039B002BC0F221
:105834001583069B20AA02EB83079A000092039A21
:10584400291F019E02910DF5907802EB030901EBEB
:105854008305019B002BB8BF002410DBBB4600244A
:10586400DDF808A05BF8041D5AF8040FFAF7E6FD0A
:1058740001462046FAF7DAFCAA450446F2D101367D
:105884004E4548F8044B07F10407E2D1029B009D02
:105894000BAA1D44039B02EB830208920CAA9946AF
:1058A40002EB8303083B07935CAB03EB8903B9F179
:1058B400000F53F850AC4FEA890821DD48AF0CAE15
:1058C40007EB89044FF06E515046FAF7B7FDFAF72B
:1058D4007BFFFAF75FFD4FF087418346FAF7AEFD91
:1058E40001465046FAF7A0FCFAF76EFF54F8041D7F
:1058F40046F8040B5846FAF799FCBC428246E1D1BB
:10590400049E5046314600F07DFB4FF0785104462A
:10591400FAF794FD00F036FB4FF08241FAF78EFD62
:1059240001462046FAF780FC0446FAF74DFF82460A
:10593400FAF730FD01462046FAF776FC002E0446BD
:10594400334640F38B80184609F1FF320CA951F815
:105954002260C3F1080346FA03F101FA03F3F61ACD
:105964000CAB43F82260C0F107031E41002E8A44A9
:105974007EDC00212046FAF7F5FE002800F0CF80F7
:10598400039B09F1FF34A34210DC002209F1804398
:10599400013B0CA9089801EB830353F804198342D3
:1059A40042EA0102F9D1002A40F01181039B0CAABA
:1059B400013B52F82330002B40F003810127079B61
:1059C40053F804290137002AFAD009F1010AD04614
:1059D40009EB07030093069B679A03EB0906059BF3
:1059E400534403F18043013B02EB830920AB03EBF7
:1059F400860648AB03EB8A0A59F8040FFAF7CAFC87
:105A0400019B3446002B06F1040646F8040C1ADB0D
:105A14000027DDF808B0043C01E054F804095BF801
:105A2400041FFAF70BFD01463846FAF7FFFBAB45B6
:105A34000746F2D1009B08F1010898454AF8047B17
:105A4400DADD994630E70027009B08F10108984504
:105A54004AF8047BD0DDF4E78866000840F09980BA
:105A640009F1FF330CAA52F82360F611002E80DDF1
:105A7400B9F1000F0AF1010A40F3A1810C9F002F34
:105A84007FD1B9F1010F1BD001220CAB53F8047F75
:105A9400002F79D0531CC7F580770CA9994541F89C
:105AA40022700CDD51F82320884401EB830300E0CD
:105AB4001A68C2F1FF0243F8042B4345F8D10127C9
:105AC400049B002B0EDD012B00F06981022B09D110
