:020000040800F2
:1000000000C00020313A00084D2A00084F2A00089D
:10001000512A0008532A0008552A00080000000051
:10002000000000000000000000000000572A000847
:10003000592A0008000000005B2A00085D2A000819
:10004000793A0008793A0008793A0008793A0008C4
:10005000793A0008793A0008793A0008793A0008B4
:10006000793A0008793A00089D2A0008793A000890
:10007000793A0008793A0008793A0008793A000894
:10008000793A0008793A0008793A0008793A000884
:10009000793A0008793A0008793A0008A72A000856
:1000A000793A0008793A0008793A0008793A000864
:1000B000793A0008793A0008793A0008793A000854
:1000C000793A0008793A0008793A0008793A000844
:1000D000793A0008793A0008BD2A0008793A000800
:1000E000793A0008793A0008793A0008793A000824
:1000F000793A0008793A0008793A0008793A000814
:10010000793A0008793A0008793A0008793A000803
:10011000CD2A0008DD2A0008ED2A0008012B00087E
:10012000793A0008793A0008793A0008793A0008E3
:1001300000000000000000000000000000000000BF
:1001400000000000000000000000000000000000AF
:10015000000000000000000000000000000000009F
:10016000000000000000000000000000000000008F
:10017000000000000000000000000000000000007F
:10018000000000000000000000000000000000006F
:10019000000000000000000000000000000000005F
:1001A000000000000000000000000000000000004F
:1001B000000000000000000000000000000000003F
:1001C000000000000000000000000000000000002F
:1001D000000000000000000000000000000000001F
:0401E0005FF8E0F1F3
:1001E80010B5054C237833B9044B13B10448AFF369
:1001F80000800123237010BDC80900200000000002
:1002080000BF000808B5034B1BB103490348AFF30F
:10021800008008BD00000000CC09002000BF0008D5
:1002280081F0004102E000BF83F0004330B54FEA9F
:1002380041044FEA430594EA050F08BF90EA020F0C
:100248001FBF54EA000C55EA020C7FEA645C7FEA9F
:10025800655C00F0E2804FEA5454D4EB5555B8BFC2
:100268006D420CDD2C4480EA020281EA030382EA33
:10027800000083EA010180EA020281EA0303362DC5
:1002880088BF30BD11F0004F4FEA01314FF4801C98
:100298004CEA113102D0404261EB410113F0004FAA
:1002A8004FEA03334CEA133302D0524263EB430361
:1002B80094EA050F00F0A780A4F10104D5F1200EFF
:1002C8000DDB02FA0EFC22FA05F2801841F100015A
:1002D80003FA0EF2801843FA05F359410EE0A5F12E
:1002E80020050EF1200E012A03FA0EFC28BF4CF05F
:1002F800020C43FA05F3C01851EBE37101F0004515
:1003080007D54FF0000EDCF1000C7EEB00006EEB21
:100318000101B1F5801F1BD3B1F5001F0CD34908AB
:100328005FEA30004FEA3C0C04F101044FEA445202
:1003380012F5800F80F09A80BCF1004F08BF5FEA89
:10034800500C50F1000041EB045141EA050130BD69
:100358005FEA4C0C404141EB0101013C28BFB1F57B
:10036800801FE9D291F0000F04BF01460020B1FAC6
:1003780081F308BF2033A3F10B03B3F120020CDA99
:100388000C3208DD02F1140CC2F10C0201FA0CF077
:1003980021FA02F10CE002F11402D8BFC2F1200CDC
:1003A80001FA02F120FA0CFCDCBF41EA0C01904092
:1003B800E41AA2BF01EB0451294330BD6FEA0404DB
:1003C8001F3C1CDA0C340EDC04F11404C4F12002C6
:1003D80020FA04F001FA02F340EA030021FA04F3D8
:1003E80045EA030130BDC4F10C04C4F1200220FA2F
:1003F80002F001FA04F340EA0300294630BD21FA6D
:1004080004F0294630BD94F0000F83F4801306BF32
:1004180081F480110134013D4EE77FEA645C18BF26
:100428007FEA655C29D094EA050F08BF90EA020FBD
:1004380005D054EA000C04BF1946104630BD91EAB5
:10044800030F1EBF0021002030BD5FEA545C05D1B8
:100458004000494128BF41F0004130BD14F58004F7
:100468003CBF01F5801130BD01F0004545F0FE416B
:1004780041F470014FF0000030BD7FEA645C1ABFA0
:10048800194610467FEA655C1CBF0B46024650EAD7
:10049800013406BF52EA033591EA030F41F4002103
:1004A80030BD00BF90F0000F04BF0021704730B589
:1004B8004FF4806404F132044FF000054FF000015E
:1004C80050E700BF90F0000F04BF0021704730B51F
:1004D8004FF4806404F1320410F0004548BF4042F4
:1004E8004FF000013EE700BF42004FEAE2014FEA49
:1004F80031014FEA02701FBF12F07F4393F07F4F24
:1005080081F06051704732F07F4208BF704793F026
:100518007F4F04BF41F40021704730B54FF4607439
:1005280001F0004521F000411CE700BF50EA01023C
:1005380008BF704730B54FF000050AE050EA0102E5
:1005480008BF704730B511F0004502D5404261EB55
:1005580041014FF4806404F132045FEA915C3FF496
:10056800D8AE4FF003025FEADC0C18BF03325FEA33
:10057800DC0C18BF033202EBDC02C2F1200300FAE4
:1005880003FC20FA02F001FA03FE40EA0E0021FA09
:1005980002F11444BDE600BF4FEA410212F5001211
:1005A80015D211D56FF47873B3EB625212D94FEAB2
:1005B800C12343F0004343EA505311F0004F23FA9C
:1005C80002F018BF404270474FF00000704750EAF1
:1005D800013005D111F0004008BF6FF000407047AE
:1005E8004FF00000704700BF80F0004002E000BFFD
:1005F80081F0004142001FBF5FEA410392EA030F06
:100608007FEA226C7FEA236C6AD04FEA1262D2EB4F
:100618001363C1BFD218414048404140B8BF5B4254
:10062800192B88BF704710F0004F40F4000020F0ED
:100638007F4018BF404211F0004F41F4000121F003
:100648007F4118BF494292EA030F3FD0A2F101024D
:1006580041FA03FC10EB0C00C3F1200301FA03F18B
:1006680000F0004302D5494260EB4000B0F5000FAE
:1006780013D3B0F1807F06D340084FEA310102F16D
:100688000102FE2A51D2B1F1004F40EBC25008BF1F
:1006980020F0010040EA03007047490040EB0000E9
:1006A800013A28BFB0F5000FEDD2B0FA80FCACF1EA
:1006B800080CB2EB0C0200FA0CF0AABF00EBC25017
:1006C80052421843BCBFD0401843704792F0000F05
:1006D80081F4000106BF80F400000132013BB5E758
:1006E8004FEA41037FEA226C18BF7FEA236C21D0CE
:1006F80092EA030F04D092F0000F08BF0846704733
:1007080090EA010F1CBF0020704712F07F4F04D100
:10071800400028BF40F00040704712F100723CBF13
:1007280000F50000704700F0004343F0FE4040F43D
:10073800000070477FEA226216BF08467FEA2363FB
:100748000146420206BF5FEA412390EA010F40F4E6
:10075800800070474FF0000304E000BF10F0004332
:1007680048BF40425FEA000C08BF704743F0964319
:1007780001464FF000001CE050EA010208BF704734
:100788004FF000030AE000BF50EA010208BF7047BB
:1007980011F0004302D5404261EB41015FEA010CD0
:1007A80002BF84460146002043F0B64308BFA3F1C8
:1007B8008053A3F50003BCFA8CF2083AA3EBC253AA
:1007C80010DB01FA02FC634400FA02FCC2F12002C9
:1007D800BCF1004F20FA02F243EB020008BF20F000
:1007E8000100704702F1200201FA02FCC2F1200266
:1007F80050EA4C0021FA02F243EB020008BF20EA5B
:10080800DC7070474FF0FF0C1CEAD0521EBF1CEA88
:10081800D15392EA0C0F93EA0C0F6FD01A4480EA76
:10082800010C400218BF5FEA41211ED04FF000635F
:1008380043EA501043EA5111A0FB01310CF000408B
:10084800B1F5000F3EBF490041EAD3715B0040EAB1
:10085800010062F17F02FD2A1DD8B3F1004F40EB81
:10086800C25008BF20F00100704790F0000F0CF054
:10087800004C08BF49024CEA502040EA51207F3A18
:10088800C2BFD2F1FF0340EAC250704740F40000F3
:100898004FF00003013A5DDC12F1190FDCBF00F0E4
:1008A80000407047C2F10002410021FA02F1C2F192
:1008B800200200FA02FC5FEA310040F1000053EA2E
:1008C8004C0308BF20EADC70704792F0000F00F07C
:1008D800004C02BF400010F4000F013AF9D040EA82
:1008E8000C0093F0000F01F0004C02BF490011F416
:1008F800000F013BF9D041EA0C018FE70CEAD15314
:1009080092EA0C0F18BF93EA0C0F0AD030F0004C93
:1009180018BF31F0004CD8D180EA010000F0004047
:10092800704790F0000F17BF90F0004F084691F005
:10093800000F91F0004F14D092EA0C0F01D142023F
:100948000FD193EA0C0F03D14B0218BF084608D108
:1009580080EA010000F0004040F0FE4040F4000052
:10096800704740F0FE4040F4400070474FF0FF0CE5
:100978001CEAD0521EBF1CEAD15392EA0C0F93EA2C
:100988000C0F69D0A2EB030280EA010C49024FEA7E
:10099800402037D04FF0805343EA111143EA101337
:1009A8000CF000408B4238BF5B0042F17D024FF4EF
:1009B800000C8B4224BF5B1A40EA0C00B3EB510FCA
:1009C80024BFA3EB510340EA5C00B3EB910F24BFB3
:1009D800A3EB910340EA9C00B3EBD10F24BFA3EB38
:1009E800D10340EADC001B0118BF5FEA1C1CE0D100
:1009F800FD2A3FF650AF8B4240EBC25008BF20F0B3
:100A0800010070470CF0004C4CEA50207F32C2BF06
:100A1800D2F1FF0340EAC250704740F400004FF0A3
:100A28000003013A37E792F0000F00F0004C02BFD4
:100A3800400010F4000F013AF9D040EA0C0093F09E
:100A4800000F01F0004C02BF490011F4000F013BF8
:100A5800F9D041EA0C0195E70CEAD15392EA0C0F60
:100A680008D142027FF47DAF93EA0C0F7FF470AF98
:100A7800084676E793EA0C0F04D14B023FF44CAFDB
:100A880008466EE730F0004C18BF31F0004CCAD170
:100A980030F000427FF45CAF31F000437FF43CAFAC
:100AA8005FE700BF4FF0FF3C06E000BF4FF0010CCE
:100AB80002E000BF4FF0010C4DF804CD4FEA4002B0
:100AC8004FEA41037FEA226C18BF7FEA236C11D0FA
:100AD80001B052EA530C18BF90EA010F58BFB2EBAD
:100AE800030088BFC81738BF6FEAE17018BF40F02D
:100AF800010070477FEA226C02D15FEA402C05D1E1
:100B08007FEA236CE4D15FEA412CE1D05DF8040B65
:100B1800704700BF844608466146FFE70FB5FFF7F8
:100B2800C9FF002848BF10F1000F0FBD4DF808EDB0
:100B3800FFF7F4FF0CBF012000205DF808FB00BFA1
:100B48004DF808EDFFF7EAFF34BF012000205DF8FB
:100B580008FB00BF4DF808EDFFF7E0FF94BF012048
:100B680000205DF808FB00BF4DF808EDFFF7D2FF45
:100B780094BF012000205DF808FB00BF4DF808ED88
:100B8800FFF7C8FF34BF012000205DF808FB00BF55
:100B98004FEA4002B2F1FE4F0FD34FF09E03B3EB82
:100BA80012620DD94FEA002343F0004310F0004FC2
:100BB80023FA02F018BF404270474FF00000704718
:100BC80012F1610F01D1420205D110F0004008BFB7
:100BD8006FF0004070474FF0000070477BB972B962
:100BE8000029BEBF00204FF0004106E008BF0028E2
:100BF8001CBF6FF000414FF0FF3000F0A9B9ADF114
:100C0800080C6DE904CE002909DB002B1ADB00F083
:100C180035F8DDF804E0DDE9022304B0704740420E
:100C280061EB4101002B1BDB00F028F8DDF804E044
:100C3800DDE9022304B0404261EB4101524263EB1B
:100C480043037047524263EB430300F017F8DDF8A3
:100C580004E0DDE9022304B0404261EB4101704742
:100C6800524263EB430300F009F8DDF804E0DDE9E4
:100C7800022304B0524263EB430370472DE9F04767
:100C8800089E0D4604468846002B4DD18A4294465C
:100C980068D9B2FA82F252B101FA02F3C2F1200124
:100CA80020FA01F10CFA02FC41EA030894404FEAE9
:100CB8001C41B8FBF1F71FFA8CFE01FB178807FBF4
:100CC8000EF0230C43EA084398420AD91CEB0303AD
:100CD80007F1FF3580F01E81984240F21B81023FE8
:100CE80063441B1AB3FBF1F001FB103300FB0EFE4B
:100CF800A4B244EA0344A6450AD91CEB040400F153
:100D0800FF3380F00981A64540F206816444023829
:100D18000021A4EB0E0440EA07401EB10023D44092
:100D2800C6E90043BDE8F0878B4208D9002E00F0E1
:100D3800EE800021C6E900050846BDE8F087B3FA51
:100D480083F100294AD1AB4202D3824200F2FC80EF
:100D5800841A65EB030301209846002EE2D0C6E909
:100D68000048DFE702B9FFDEB2FA82F2002A40F05B
:100D78009180A1EB0C0001214FEA1C471FFA8CFE61
:100D8800B0FBF7F307FB1300250C45EA00450EFB03
:100D980003F0A84208D91CEB050503F1FF3802D27D
:100DA800A84200F2CE8043462D1AB5FBF7F007FBA8
:100DB80010550EFB00FEA4B244EA0544A64508D926
:100DC8001CEB040400F1FF3502D2A64500F2B68000
:100DD8002846A4EB0E0440EA03409EE7C1F1200731
:100DE8008B4022FA07FC4CEA030C25FA07FA4FEA73
:100DF8001C49BAFBF9F820FA07F309FB18AA8D4039
:100E08001FFA8CFE1D4300FA01F308FB0EF02C0CB0
:100E180044EA0A44A04202FA01F20BD91CEB04048A
:100E280008F1FF3A80F08880A04240F28580A8F15E
:100E380002086444241AB4FBF9F009FB104400FBCF
:100E48000EFEADB245EA0444A64508D91CEB0404DD
:100E580000F1FF356CD2A6456AD90238644440EAED
:100E68000840A0FB0295A4EB0E04AC42C846AE466F
:100E780056D353D0002E69D0B3EB080264EB0E04AE
:100E880022FA01F304FA07F71F43CC40C6E90074BD
:100E9800002147E70CFA02FCC2F1200125FA01F310
:100EA8004FEA1C4720FA01F195400D43B3FBF7F1D7
:100EB80007FB11331FFA8CFE280C40EA034001FBA4
:100EC8000EF3834204FA02F408D91CEB000001F186
:100ED800FF382FD283422DD902396044C01AB0FBA3
:100EE800F7F307FB1300ADB245EA004503FB0EF02C
:100EF800A84208D91CEB050503F1FF3816D2A84211
:100F080014D9023B6544281A43EA014138E73146BF
:100F1800304607E72F46E4E61846F9E64B45A9D2DE
:100F2800B9EB020865EB0C0E0138A3E74346EAE784
:100F3800284694E74146D1E7D0467BE76444023827
:100F480047E7023B65442FE7084606E73146E9E6EE
:100F5800704700BF844641EA000313F0030349D1F8
:100F6800403A23D30B6803604B6843608B68836007
:100F7800CB68C3600B6903614B6943618B6983610B
:100F8800CB69C3610B6A03624B6A43628B6A8362F3
:100F9800CB6AC3620B6B03634B6B43638B6B8363DB
:100FA800CB6BC36340304031403ADBD230320BD395
:100FB8000B6803604B6843608B688360CB68C360D1
:100FC80010301031103AF3D20C3205D351F8043BEB
:100FD80040F8043B043AF9D2043208D0D2071CBFC7
:100FE80011F8013B00F8013B01D30B8803806046F0
:100FF800704700BF082A13D38B07B1D010F0030342
:10100800AED0C3F10403D21ADB071CBF11F8013BB1
:1010180000F8013BA4D331F8023B20F8023B9FE7DC
:10102800043AD9D3013A11F8013B00F8013BF9D24F
:101038000B7803704B7843708B78837060467047E9
:1010480070B54FF0FF0C4CF4E06C1CEA11541DBF56
:101058001CEA135594EA0C0F95EA0C0F00F0DEF821
:101068002C4481EA030621EA4C5123EA4C5350EA06
:10107800013518BF52EA033541F4801143F4801357
:1010880038D0A0FB02CE4FF00005E1FB02E506F0E8
:101098000042E0FB03E54FF00006E1FB03569CF03D
:1010A800000F18BF4EF0010EA4F1FF04B6F5007F43
:1010B80064F5407404D25FEA4E0E6D4146EB0606B5
:1010C80042EAC62141EA55514FEAC52040EA5E503E
:1010D8004FEACE2EB4F1FD0C88BFBCF5E06F1ED8E8
:1010E800BEF1004F08BF5FEA500E50F1000041EB1F
:1010F800045170BD06F0004646EA010140EA0200CC
:1011080081EA0301B4EB5C04C2BFD4EB0C0541EAED
:10111800045170BD41F480114FF0000E013C00F302
:10112800AB8014F1360FDEBF002001F0004170BD26
:10113800C4F10004203C35DA0C341BDC04F114043F
:10114800C4F1200500FA05F320FA04F001FA05F2CB
:1011580040EA020001F0004221F0004110EBD37098
:1011680021FA04F642EB06015EEA430E08BF20EAC4
:10117800D37070BDC4F10C04C4F1200500FA04F367
:1011880020FA05F001FA04F240EA020001F00041F9
:1011980010EBD37041F100015EEA430E08BF20EA6C
:1011A800D37070BDC4F1200500FA05F24EEA020EB4
:1011B80020FA04F301FA05F243EA020321FA04F0E3
:1011C80001F0004121FA04F220EA020000EBD3709A
:1011D8005EEA430E08BF20EAD37070BD94F0000F9A
:1011E8000FD101F00046400041EB010111F4801FCE
:1011F80008BF013CF7D041EA060195F0000F18BF7F
:10120800704703F00046520043EB030313F4801FBA
:1012180008BF013DF7D043EA0603704794EA0C0F74
:101228000CEA135518BF95EA0C0F0CD050EA41068A
:1012380018BF52EA4306D1D181EA030101F0004107
:101248004FF0000070BD50EA410606BF104619462F
:1012580052EA430619D094EA0C0F02D150EA01363B
:1012680013D195EA0C0F05D152EA03361CBF10467C
:1012780019460AD181EA030101F0004141F0FE411B
:1012880041F470014FF0000070BD41F0FE4141F49F
:10129800780170BD70B54FF0FF0C4CF4E06C1CEA9F
:1012A80011541DBF1CEA135594EA0C0F95EA0C0F54
:1012B80000F0A7F8A4EB050481EA030E52EA03350F
:1012C8004FEA013100F088804FEA03334FF0805530
:1012D80045EA131343EA12634FEA022245EA11155D
:1012E80045EA10654FEA00260EF000419D4208BF0E
:1012F800964244F1FD0404F5407402D25B084FEABB
:101308003202B61A65EB03055B084FEA32024FF466
:1013180080104FF4002CB6EB020E75EB030E22BFC3
:10132800B61A754640EA0C005B084FEA3202B6EB83
:10133800020E75EB030E22BFB61A754640EA5C0032
:101348005B084FEA3202B6EB020E75EB030E22BFC2
:10135800B61A754640EA9C005B084FEA3202B6EBC3
:10136800020E75EB030E22BFB61A754640EADC0082
:1013780055EA060E18D04FEA051545EA16754FEAE4
:1013880006164FEAC30343EA52734FEAC2025FEA02
:101398001C1CC0D111F4801F0BD141EA00014FF091
:1013A80000004FF0004CB6E711F4801F04BF014362
:1013B8000020B4F1FD0C88BFBCF5E06F3FF6AFAE7E
:1013C800B5EB030C04BFB6EB020C5FEA500C50F10E
:1013D800000041EB045170BD0EF0004E4EEA113191
:1013E80014EB5C04C2BFD4EB0C0541EA045170BD98
:1013F80041F480114FF0000E013C90E645EA060EDC
:101408008DE60CEA135594EA0C0F08BF95EA0C0F09
:101418003FF43BAF94EA0C0F0AD150EA01347FF451
:1014280034AF95EA0C0F7FF425AF104619462CE728
:1014380095EA0C0F06D152EA03353FF4FDAE10468B
:10144800194622E750EA410618BF52EA43067FF4DC
:10145800C5AE50EA41047FF40DAF52EA43057FF46C
:10146800EBAE12E74FF0FF3C06E000BF4FF0010C77
:1014780002E000BF4FF0010C4DF804CD4FEA410CDB
:101488007FEA6C5C4FEA430C18BF7FEA6C5C1BD0A8
:1014980001B050EA410C0CBF52EA430C91EA030F29
:1014A80002BF90EA020F0020704710F1000F91EA86
:1014B800030F58BF994208BF90422CBFD8176FEA54
:1014C800E37040F0010070474FEA410C7FEA6C5C22
:1014D80002D150EA013C07D14FEA430C7FEA6C5C29
:1014E800D6D152EA033CD3D05DF8040B704700BF55
:1014F8008446104662468C461946634600E000BFA3
:1015080001B5FFF7B7FF002848BF10F1000F01BD74
:101518004DF808EDFFF7F4FF0CBF012000205DF83F
:1015280008FB00BF4DF808EDFFF7EAFF34BF0120C4
:1015380000205DF808FB00BF4DF808EDFFF7E0FF5D
:1015480094BF012000205DF808FB00BF4DF808EDAE
:10155800FFF7CEFF94BF012000205DF808FB00BF15
:101568004DF808EDFFF7C4FF34BF012000205DF8F7
:1015780008FB00BF4FEA410C7FEA6C5C02D150EADD
:10158800013C0AD14FEA430C7FEA6C5C02D152EA73
:10159800033C02D14FF0000070474FF00100704744
:1015A80053B94AB9002908BF00281CBF4FF0FF31C2
:1015B8004FF0FF30FFF7CCBCADF1080C6DE904CE5D
:1015C800FFF75CFBDDF804E0DDE9022304B07047B7
:1015D80008B50821014803F0D5FE08BDEC1100202C
:1015E80008B50821014803F0CDFE08BDEC11002024
:1015F80010B50C46A0B10D4BB3FBF0F30C480268D4
:10160800591ED162C1605B08D3630123536108216D
:1016180003F03EFE204602F077FAFFF7E1FF10BD27
:101628000821034803F0AEFEF4E700BF40420F0074
:10163800EC11002001281BD870B50E4B53F8205030
:101648000D4B33F8106000240FE005EB8403997804
:1016580001EB810301EBC30301EB430189B235F8C8
:101668002400FFF7C5FF0134A4B2B442EDD370BD26
:10167800704700BF1CBF000818BF00082DE9F041E3
:1016880088B000240494059406940794314B9A6911
:1016980042F020029A619A6902F020020092009AB0
:1016A8009A6942F004029A619A6902F0040201926E
:1016B800019A9A6942F008029A619A6902F008024E
:1016C8000292029A9A6942F010029A619B6903F0A9
:1016D80010030393039BDFF8808022460C214046C9
:1016E80002F08CFC1D4D22464FF44041284602F082
:1016F80085FCF02304931A4B05930126069604A94A
:10170800284602F05BFB0C230493059606940227F7
:10171800079704A9404602F051FB4FF44043049355
:1017280005960694079704A9284602F047FB224627
:101738000B210A2002F00EFA0A2002F043FA224690
:101748000B21172002F006FA172002F03BFA08B026
:10175800BDE8F08100100240000C01400008014083
:101768000000111008B50B480B4B03600B4B43608E
:1017780000238360C3604FF4804202614361836148
:10178800C361036202F0E0FD00B908BD00F076FB1A
:10179800FBE700BFE409002000540040801A06005F
:1017A80010B586B00023029303930493059302684F
:1017B800154B9A4201D006B010BD144CA36943F0F2
:1017C8000803A361A36903F008030093009B4FF487
:1017D80040730293122303930323059302A90C4831
:1017E80002F0ECFA0B4A536843F0E06343F002035B
:1017F8005360E36943F40013E361E36903F40013FE
:101808000193019BD7E700BF00540040001002403D
:10181800000C01400000014010B500F1010E90F8E5
:1018280001C01CF0F00100D001219EF8012013092D
:10183800C3EB431403EB8403DB009BB20CF00F0CE7
:10184800CCEB4C140CEB840C0CEB8C0C03EB0C1356
:101858009BB29EF802C04FEA1C1E0EEB8E0E02F0E1
:101868000F0202EB820202EB8202920002EB4E02AE
:1018780013449BB20CF00F0C63449BB201B15B4262
:10188800002BC0F211818E4A136000F1040E90F80B
:1018980004C01CF0F00100D001219EF801201309BA
:1018A800C3EB431403EB8403DB009BB20CF00F0C77
:1018B800CCEB4C140CEB840C0CEB8C0C03EB0C13E6
:1018C8009BB29EF802C04FEA1C1E0EEB8E0E02F071
:1018D8000F0202EB820202EB8202920002EB4E023E
:1018E80013449BB20CF00F0C63449BB201B15B42F2
:1018F800002BC0F2DD80734A136000F1070E90F8E8
:1019080007C01CF0F00100D001219EF80120130946
:10191800C3EB431403EB8403DB009BB20CF00F0C06
:10192800CCEB4C140CEB840C0CEB8C0C03EB0C1375
:101938009BB29EF802C04FEA1C1E0EEB8E0E02F000
:101948000F0202EB820202EB8202920002EB4E02CD
:1019580013449BB20CF00F0C63449BB201B15B4281
:10196800002BC0F2A980584A136000F1130E90F8BA
:1019780013C01CF0F00100D001219EF801201309CA
:10198800C3EB431403EB8403DB009BB20CF00F0C96
:10199800CCEB4C140CEB840C0CEB8C0C03EB0C1305
:1019A8009BB29EF802C04FEA1C1E0EEB8E0E02F090
:1019B8000F0202EB820202EB8202920002EB4E025D
:1019C80013449BB20CF00F0C63449BB201B15B4211
:1019D8003E4A136000F1160E90F816C01CF0F00194
:1019E80000D001219EF801201309C3EB431403EB37
:1019F8008403DB009BB20CF00F0CCCEB4C140CEB0B
:101A0800840C0CEB8C0C03EB0C139BB29EF802C0FD
:101A18004FEA1C1E0EEB8E0E02F00F0202EB820242
:101A280002EB8202920002EB4E0213449BB20CF0CE
:101A38000F0C63449BB201B15B42254A136000F16D
:101A4800190C407E10F0F00100D001219CF8012013
:101A58001309C3EB431E03EB8E03DB009BB200F0BC
:101A68000F00C0EB401E00EB8E0000EB800003EB84
:101A780000139BB29CF802004FEA101C0CEB8C0C74
:101A880002F00F0202EB820202EB8202920002EBEA
:101A98004C0213449BB200F00F0003449BB201B107
:101AA8005B420C4A136010BD03F50C43A033EAE611
:101AB80003F50C43A0331EE703F50C43A03352E7AC
:101AC8004C0A0020480A0020500A00203C0A002046
:101AD800400A0020440A002008B5012202490348B0
:101AE80004F089F808BD00BF380A0020141300204C
:101AF80008B50F4B1A781AB90E4B1B78842B09D1ED
:101B0800531CDBB20A490B700A4908780A49885401
:101B18001C2B05D801220749084804F06CF808BDB9
:101B28000846FFF779FE024B00221A70F2E700BF61
:101B3800710A0020380A0020540A002014130020DB
:101B480008B54FF0FF3305220249034803F0E7FDCB
:101B580008BD00BFB4BF00081413002008B5002357
:101B680009E000220D49CA540D49CA540D4941F8EB
:101B780023200133DBB2032BF3D9002205210A20ED
:101B880001F0E8FF0A2002F01DF8002205211720C5
:101B980001F0E0FF172002F015F808BD880A0020C0
:101BA800740A0020780A00200346032807D8054A4B
:101BB800105C003818BF01200021D1547047002064
:101BC800704700BF740A002010B5044601F096FF64
:101BD8000023032B16D819460B4A32F81320A242C9
:101BE80002D00133DBB2F4E7084B53F82130C31AB3
:101BF800092B07D9054B43F821000123044A535404
:101C0800044A535410BD00BFBCBF0008780A002026
:101C1800880A0020740A00200023114A1380114A00
:101C2800137001E00133DBB2072B0FD80E4AD25CE8
:101C3800002AF7D00D4AD25692B2094908880244C0
:101C48000A8008490A7801320A70EBE7054B93F9D4
:101C58000030062B02DD064B01221A70704700BFC8
:101C68009E0A00209D0A0020A80A0020C4BF000880
:101C78009C0A0020184BB3F90030184A92F900204A
:101C880093FBF2F31BB2D900154802681A440260AC
:101C980042F21070824201DD114A1060104A106849
:101CA800104A904202DA0E4A0E4810600E4A11603D
:101CB800B1F5004F02DB47F6FF7111600A4A12685E
:101CC80012F5004F02DA084A08491160084A1380E1
:101CD800054B1868704700BF9E0A00209D0A002027
:101CE800900A0020F0D8FFFF980A00200080FFFF2C
:101CF800940A002010B50446FFF78EFFFFF7BAFFDD
:101D0800034B1A6810441860214601F00BFE10BD01
:101D1800A00A0020014B1878704700BF9C0A0020D9
:101D280010B5084B1A68084B1A600124074B1C7041
:101D3800234600221146402001F0A6FD044B1C70EA
:101D480010BD00BF500A0020A00A00208C0A002005
:101D5800BC13002008B50020034B1870012302466D
:101D6800014601F091FD08BD8C0A002038B50378C2
:101D7800242B22D14378442B1FD12C2104F044F882
:101D88000024072C16DCA8B13A2104F03DF80546DA
:101D980080B1013003F042FFC3B2013B002BB8BF52
:101DA8005B42DBB2054A13552C21284604F02CF877
:101DB8000134E6E7024B01221A7038BDA80A002058
:101DC800B00A002010B582B00A4C01220A49204608
:101DD80003F011FF094BEC4693E803008CE803007D
:101DE8004FF0FF3307226146204603F098FC02B00B
:101DF80010BD00BF5C130020A50A0020CCBF00085E
:101E080008B5114B1B78242B10D0104A12883F2A92
:101E180004D8501C0D4908800D498B54232B09D038
:101E2800012209490B4803F0E6FE08BD074A0021D4
:101E38001180EAE7054B1B88054A0021D154064B5F
:101E480001221A70ECE700BFA50A0020F40A00205E
:101E5800B40A00205C130020A40A002008B5054B32
:101E68001B7803B908BD034B00221A700248FFF71C
:101E78007DFFF7E7A40A0020B40A002072B6FEE747
:101E880000B591B02822002106A803F029FF0023FD
:101E980001930293039304930593012206924FF44E
:101EA800803307930A9202220D920E934FF4E013A7
:101EB8000F9306A802F0F8FB80B90F2301930221C3
:101EC8000291002303934FF480620492059301A8C2
:101ED80002F01CFE20B911B05DF804FBFFF7CEFF3D
:101EE800FFF7CCFF08B501F0EBFDFFF7C9FFFFF7DF
:101EF800C5FBFFF737FC01F011F800F097FE00F082
:101F0800BDFE01F059F901F031FA01F049FA01F08A
:101F180061FA01F079FA01F091FA01F001F901F0A2
:101F2800A3F801F05FF81F4802F060FF1E4802F0B6
:101F38005DFFC82001F0E8FD00F03AF901F0A4F9CE
:101F4800FFF746FB00F030FD00F032F8FFF706FE21
:101F5800FFF7C2FDFFF736FF01F0A8FB012001F0F3
:101F6800C1FB00F0E5FB00F005FD0DE00F4B012281
:101F78001A700120FFF718FE60B90220FFF714FE5F
:101F88000320FFF711FE40B90020FFF70DFE0028DF
:101F9800EFD0EBE7FFF7D4FDEFE7044B01221A700F
:101FA800002008BD5C110020A4110020BC130020F3
:101FB80038B500240A4B1C700A4B1C702A252A4687
:101FC8002146094803F08CFE2A462146074803F0BB
:101FD80087FE01220649074803F00DFE38BD00BF01
:101FE8007E0B0020220B0020540B0020F80A002052
:101FF800230B00208412002038B5164B1A781AB922
:10200800154B1B78232B10D1531CDBB211490B70D5
:102018001149087811498854292B06D991F8293093
:10202800212B08D00B4B00221A7001220A490C48B8
:1020380003F0E1FD38BD0B4C0D460FCD0FC40FCD9D
:102048000FC495E8070003C42280074B01221A70C9
:10205800E8E700BF7E0B0020230B0020540B002074
:1020680084120020F80A0020220B00200023254AB1
:1020780005E032F8020B244921F813000133032B41
:10208800F7DD0020032831DC10B408E0033313E047
:102098009B101E490B600432013003281ADC1C49CE
:1020A800136841F820304B685B420C681B1B8C6836
:1020B8002344C9685B18E9D49B1016490B6014497E
:1020C8000B684C681B1B8C682344C9685B1ADFD5F6
:1020D8000333DDE7002305E052F8040B0E4941F80D
:1020E80023000133032BF7DD10BC7047002305E004
:1020F80052F8040B084941F823000133032BF7DD9C
:10210800704700BFF90A00204C0B0020480B002044
:10211800240B0020440B0020340B002000B583B0B2
:1021280002460B464FF0FF3100917821024802F039
:10213800E9F903B05DF804FBE409002008B5034B96
:10214800587002211846FFF7E9FF08BD0410002067
:1021580008B54FF480620021014803F0C1FD08BDB5
:10216800800B002038B5104B40221A70002418E06C
:10217800A4F15000C0B2FFF7E1FF0020FFF7DEFF37
:102188001020FFF7DBFF084D8022084901EBC4113E
:10219800681CFEF7DFFE81212846FFF7BFFF0134E8
:1021A800E4B2072CE4D938BD800F0020800B002052
:1021B80008B5AE20FFF7C2FF2020FFF7BFFF1020B1
:1021C800FFF7BCFFB020FFF7B9FFC820FFF7B6FF45
:1021D8000020FFF7B3FF1020FFF7B0FF4020FFF704
:1021E800ADFF8120FFF7AAFFF020FFF7A7FFA1208E
:1021F800FFF7A4FFA620FFF7A1FFA820FFF79EFF87
:102208003F20FFF79BFFA420FFF798FFD320FFF79D
:1022180095FF0020FFF792FFD520FFF78FFFF020F2
:10222800FFF78CFFD920FFF789FF2220FFF786FFF1
:10223800DA20FFF783FF1220FFF780FFDB20FFF78C
:102248007DFF2020FFF77AFF8D20FFF777FF14200E
:10225800FFF774FFFFF77CFFFFF784FFAF20FFF75E
:102268006DFF08BD10F0800F1CD13F291AD862B944
:102278004FEAD10C01F0070101228A400A4B03EB17
:10228800CC13195C1143195470474FEAD10C01F073
:10229800070101228A40044B03EBCC13195C21EAA5
:1022A80002011954704700BF800B002030B59DF81B
:1022B800104007282AD811F0800F27D10CB1D2433B
:1022C800D2B29DF80CE00EF1010EFF2404FA0EFEC6
:1022D8004FFA8EFE4FFA82FC4EEA0C02C3F1080355
:1022E80044FA03F35CB242EA0403DBB2084D2B70F4
:1022F800084A02EBC010425C134043542CEA0E0219
:1023080022EA0402D2B22A701343435430BD00BFFC
:1023180007100020800B00202DE9F04383B006460B
:1023280090461C469DF82890CF0801F007052B44DD
:10233800082B1EDDAA40CDF80490072300932B46F6
:10234800D2B201463846FFF7B1FFC5F1080248FA94
:1023580002F22C44E4B2CDF80490093CE4B20094B3
:102368000023D2B23146781CFFF7A0FF03B0BDE8C6
:10237800F083AA402C44E4B2CDF80490013CE4B2C6
:1023880000942B46D2B201463846FFF78FFFEDE79F
:102398002DE9F04182B0064615469846CF0801F06F
:1023A8000704A2400193072300932346D2B20146B3
:1023B8003846FFF77BFF14B902B0BDE8F081C4F1DD
:1023C800080245FA02F2CDF80480013CE4B2009418
:1023D8000023D2B23146781CFFF768FFECE72DE9FD
:1023E800F04F85B08046894692461E469DF83830A3
:1023F80003939DF83CB0DF0803F007030293002520
:1024080012E006FB045209EBC40105EB08005B4629
:102418001AF80220C9B2C0B2FFF7BAFF0134E4B219
:10242800BC42EED30135EDB2B54201D20024F7E744
:10243800029BBBB106FB07F70024039D10E03A1985
:1024480025F00701494404EB0800CDF800B0029BD1
:102458001AF80220C9B2C0B2FFF75EFF0134E4B235
:10246800B442ECD305B0BDE8F08F00002DE9F04F81
:1024780085B005460C461E469DF83870904231D00E
:102488009046994241D0A2EB00090FFA89F9A3EBD3
:10249800010AB9F1000F49DD01230193BAF1000FD8
:1024A80048DD012302932DB224B2B9F1000FB8BF61
:1024B800C9F100091FFA89F303930FFA89F9BAF1F0
:1024C800000FB8BFCAF1000A1FFA8AFB0FFA8AFA8E
:1024D800D14549DC4FF000089946CDF80CB0DDF83D
:1024E80008B047E099420BD92E4B197034460E4676
:1024F80006E03A4621462846FFF7B4FE0134E4B226
:10250800A642F6D205B0BDE8F08F90420BD9254B14
:1025180018701546804606E03A4621462846FFF7D9
:10252800A1FE0135EDB2A845F6D2EBE74FF0FF3337
:102538000193B3E74FF0FF330293B4E755442DB24C
:102548004545DFD03A46E1B2E8B2FFF78BFE5E447C
:10255800B3B236B2B9EB460FF0DC029A144424B297
:10256800039A9B1A1EB2E9E70026DDF804A0E7E704
:102578005C4424B2B442C5D03A46E1B2E8B2FFF7AF
:1025880071FEC8441FFA88F30FFA88F8BAEB480FAF
:10259800EEDC019A15442DB2039A9B1A0FFA83F8C0
:1025A800E6E700BF0610002070B582B05D68203AEB
:1025B8001C7804F1070C4FEAEC0C5B7803FB0CFC6D
:1025C8009DF81860019600940CFB0252FFF707FF74
:1025D80002B070BD2DE9F04182B005460F461446A1
:1025E8001E469DF820800AE0CDF800803346394623
:1025F8002846FFF7D9FF70782844C5B201342278FD
:10260800002AF1D102B0BDE8F081037890F90020EA
:10261800002A0DDA03F0E002C02A0BD003F0F00222
:10262800E02A09D003F0F803F02B07D00020704708
:10263800012070470220704703207047042070472C
:102648002DE9F04F87B00390049193461E469DF8FC
:102658004030059333780733DB1096F8019003FB7D
:1026680009F95FFA89F909F104095FFA89F94FF064
:10267800000A15E0059B01933378009373782A1DAF
:102688000499039C2046FFF7AAFE73782344DBB223
:102698000393C2441FFA8AFA012300E00023E3B13E
:1026A8000BEB0A071BF80A30002B3ED03846FFF721
:1026B800ACFF8046002838D00024337AA342EDD9F5
:1026C800756809FB045542462946384603F0D4FA92
:1026D8000028CFD00134E4B2EFE7B8F1010F11D0F0
:1026E800059B0093F36820220499039C2046FFF77A
:1026F8005BFFF3685B782344DBB20393C2441FFAA1
:102708008AFACDE7059B0093F3681BF80A20049921
:10271800039C2046FFF748FFF3685B782344DBB24D
:102728000393C2441FFA8AFABAE707B0BDE8F08FEC
:102738002DE9F04182B00120FEF77CFF3221002014
:1027480000F040F9E121042000F03CF914E0714B5D
:1027580001221A700120FFF727FA002840F0D080E4
:102768000220FFF721FA002840F0CD800320FFF770
:102778001BFA002840F0CB80FFF7EAFC664D0126E3
:1027880000962B46654A00210420FFF759FF0024D4
:1027980000940E23802219462046FFF767FE604FFB
:1027A80000943B465F4A10212046FFF713FF009430
:1027B8003B465D4A1C212046FFF70CFF00943B4630
:1027C8005A4A28212046FFF705FF00943B46584AFD
:1027D80034212046FFF7FEFE00942B46554A10216F
:1027E8001820FFF72DFF00942B46534A1C21182070
:1027F800FFF726FF00942B46504A28211820FFF7A0
:102808001FFF00962B464E4A34211820FFF718FF69
:1028180000942B464B4A10214020FFF711FF4A4BEA
:102828001B68DFF828814A4E42462821304603F0CB
:10283800A9FA00943B46324610216420FFF7CAFEED
:1028480000942B46434A1C214020FFF7F9FE424BD7
:102858001868FDF783FF4149FEF788F8FDF744FE45
:10286800CDE900013E4A2821304603F08BFA009456
:102878003B4632461C215820FFF7ACFE00942B46FD
:10288800384A28214020FFF7DBFE374B93F9013007
:1028980042462821304603F075FA00943B463246FA
:1028A80028215820FFF796FE00942B462F4A342102
:1028B8004020FFF7C5FE2E4A1178537819449378C3
:1028C8000B44D1780B4411791944537919449379FD
:1028D8000B44D279134442462821304603F052FA79
:1028E80000943B46324634216420FFF773FEFFF71D
:1028F80039FC2046FFF758F900283FF42BAF26E7AC
:10290800FFF71EF92CE70220FEF794FE2EE702B02F
:10291800BDE8F081BC13002048CA0008E8D00008D0
:10292800D4BF000808D1000810D1000818D1000849
:1029380020D1000828D1000834D1000838D5000873
:1029480040D1000848D10008440B002050D10008AD
:102958000810002054D10008500A00200000C84286
:102968005CD1000864D10008341200206CD1000842
:10297800A80A002008B5012144F2506000F0D2FFF7
:1029880001F04CF80028FBD100231A4619464020D4
:1029980000F07AFFFFF7C4F9FFF7BCF90028FBD075
:1029A800FFF7D8F9F8E7000010B5054C00212046DC
:1029B80002F06EFC0421204602F06AFC10BD00BF44
:1029C80014110020B1F5877F01D94FF487714FF4B6
:1029D800FA6303FB01F10D4BA3FB0131090A01F571
:1029E800FA7118B90A4B1B6859637047042805D057
:1029F800082807D0064B1B6819647047044B1B68EE
:102A080099637047024B1B68D963704749D6B9F27E
:102A18001411002082B00A4B9A6942F001029A61AF
:102A28009A6902F001020092009ADA6942F0805233
:102A3800DA61DB6903F080530193019B02B07047B0
:102A480000100240FEE7FEE7FEE7FEE7FEE77047FC
:102A58007047704708B501F045F80C4A1368013310
:102A68001360132B06DC0A4A136801331360132B17
:102A780006DC08BDFFF7FAFA044B00221A60F2E7F9
:102A8800FFF7ECF9024B00221A60F2E73010002041
:102A98003410002008B5102001F0B6FA08BD08B5BA
:102AA800202001F0B1FA402001F0AEFA802001F0B8
:102AB800ABFA08BD08B5024802F03EFF08BD00BFEA
:102AC8008412002008B5024802F036FF08BD00BF96
:102AD8001413002008B5024802F02EFF08BD00BFFD
:102AE8005C13002008B500F027FC024802F0BFF98B
:102AF80008BD00BF5C11002008B5094B1B7833B92D
:102B0800084B1B783BB9084802F0B1F908BD002012
:102B1800FFF7F0F8F4E700F039FF00F017FEF2E7EE
:102B28008C0A0020BC130020A411002008B500F076
:102B3800F7FB08BD08B50368094A934206D0094A5D
:102B4800934206D0084A934206D008BDFFF754FACC
:102B5800FBE7FFF755F9F8E7FEF7CAFFF5E700BF0F
:102B68000044004000500040004C004001207047E5
:102B780008B503F057F8162303604FF0FF3008BD7F
:102B880008B54FF0FF31FFF7F3FFFEE770B50C46CD
:102B98001646002506E0AFF30080214601F8010B38
:102BA80001350C46B542F6DB304670BD70B50C46B3
:102BB8001646002504E014F8010BAFF30080013538
:102BC800B542F8DB304670BD4FF0FF3070474FF428
:102BD80000534B6000207047012070470020704769
:102BE80010B503460C4A0D490D48006840B10C4821
:102BF80000680344521A934206D8094A136010BD6C
:102C08000748084C0460F2E703F00CF80C23036053
:102C18004FF0FF30F3E700BF00C0002000040000C1
:102C280038100020181400207047000000B583B049
:102C38000023009301930F480F4A02604722426025
:102C4800836042F20F73C3608023836102F012FA3B
:102C580050B90023009301936946064802F0D8FB57
:102C680028B903B05DF804FBFFF708F9F1E7FFF7AF
:102C780005F9F6E75C1100200010004000B583B0AC
:102C88000023009301930F480F4A026047224260D5
:102C9800836044F61F63C3608023836102F0EAF90E
:102CA80050B90023009301936946064802F0B0FB2F
:102CB80028B903B05DF804FBFFF7E0F8F1E7FFF788
:102CC800DDF8F6E7A41100200014004086B0036880
:102CD800234A934216D0B3F1804F1FD0214A934222
:102CE80028D0214A934230D0204A934214D1204B15
:102CF8009A6942F400529A619B6903F40053059360
:102D0800059B09E01A4B9A6942F400629A619B6933
:102D180003F400630193019B06B0704703F5043385
:102D2800DA6942F00102DA61DB6903F00103029318
:102D3800029BF1E70E4BDA6942F00202DA61DB69C5
:102D480003F002030393039BE6E7094BDA6942F0B9
:102D58000402DA61DB6903F004030493049BDBE7F4
:102D6800002C0140000400400008004000340140ED
:102D78000010024000B583B00368174A934205D09B
:102D8800164A934215D003B05DF804FB144BDA6978
:102D980042F01002DA61DB6903F010030093009B34
:102DA80000220121362000F0D5FE362000F00AFF6F
:102DB800E9E70B4BDA6942F02002DA61DB6903F0DC
:102DC80020030193019B00220221372000F0C2FE5C
:102DD800372000F0F7FED6E700100040001400404E
:102DE8000010024000B58BB00023069307930893A8
:102DF80009930368404A93420ED0B3F1804F20D024
:102E08003E4A934231D03E4A93424BD03D4A934288
:102E18005CD00BB05DF804FB3B4B9A6942F00402AE
:102E28009A619B6903F004030193019B4FF41063BB
:102E3800069302230793099306A9344800F0BEFFBE
:102E4800E7E703F504339A6942F004029A619B6943
:102E580003F004030293029B02230693079309934A
:102E680006A92A4800F0AAFFD3E7274B9A6942F03F
:102E780008029A619B6903F008030393039B3323B9
:102E8800069302230793099306A9214800F096FFA9
:102E9800204A536823F4406343F0E06343F400633B
:102EA8005360B6E7184B9A6942F008029A619B6929
:102EB80003F008030493049BC0230693022307939B
:102EC800099306A9124800F079FFA2E70E4B9A6908
:102ED80042F010029A619B6903F010030593059B69
:102EE8004FF44073069302230793099306A90A48EF
:102EF80000F064FF8DE700BF002C01400004004093
:102F08000008004000340140001002400008014061
:102F1800000C0140000001400010014010B592B0C3
:102F280000241094119409940A940B940C940D9411
:102F38000E940F942022214601A802F0D1FE2748C2
:102F4800274B0360446084604FF6FF73C3600461DD
:102F58004461846102F0BAF8002830D1002310934C
:102F6800119310A91D4802F053FA00282AD16023B2
:102F7800099300220A920B920C920D920E920F92D4
:102F880009A9164802F006F9F8B90C2209A913484C
:102F980002F000F9E0B9002301930293039304932C
:102FA80005934FF400520692089301A90B4802F0CA
:102FB8006DFA80B90948FFF715FF12B010BDFEF78A
:102FC8005DFFCBE7FEF75AFFD1E7FEF757FFDCE7D7
:102FD800FEF754FFDFE7FEF751FFEBE73C10002058
:102FE800002C014000B58BB000230893099301938E
:102FF80002930393049305930693079319484FF09C
:10300800804202600222426083604FF47A72C2609A
:103018000361836102F05AF8D0B900230893099339
:1030280008A9104802F0F4F9A8B960230193002315
:1030380002930393059304220DEB0201094802F061
:10304800A9F858B90748FFF7CDFE0BB05DF804FBA7
:10305800FEF714FFE1E7FEF711FFE6E7FEF70EFFC4
:10306800F0E700BF8410002000B58BB00023089360
:10307800099301930293039304930593069307938B
:103088002548264A0260436083604FF6FF72C2609B
:103098000361836102F01AF858BB0023089309936F
:1030A80008A91D4802F0B4F930BB6023019300223F
:1030B80002920392059201A9174802F06BF8F0B941
:1030C80004220DEB0201144802F064F8D0B908227A
:1030D80001A9114802F05EF8B8B90C2201A90E48FE
:1030E80002F058F8A0B90C48FFF77CFE0BB05DF869
:1030F80004FBFEF7C3FED0E7FEF7C0FED5E7FEF7F8
:10310800BDFEDDE7FEF7BAFEE1E7FEF7B7FEE4E74E
:10311800FEF7B4FEE7E700BFCC1000200004004033
:1031280000B58BB00023089309930193029303938E
:1031380004930593069307931D481E4A026047228D
:103148004260836044F61F62C2600361836101F0DC
:10315800BDFF08BB00230893099308A9144802F08F
:1031680057F9E0B96023019340F2DC53029300223F
:103178000392059201A90E4802F00CF890B90422B6
:103188000DEB02010A4802F005F870B90848FFF78C
:1031980029FE0BB05DF804FBFEF770FEDAE7FEF7D8
:1031A8006DFEDFE7FEF76AFEE9E7FEF767FEEDE78B
:1031B800141100200008004010B592B000241094AB
:1031C800119409940A940B940C940D940E940F94F2
:1031D8002022214601A802F083FD2948294B0360DB
:1031E80047234360846040F2E733C360046144616D
:1031F8008023836101F06AFF002831D100231093F6
:10320800119310A91E4802F003F900282BD160235E
:10321800099300230A930B930C930D930E930F932A
:10322800082209A9164801F0B5FFF8B90C2209A926
:10323800134801F0AFFFE0B9002301930293039311
:10324800049305934FF400520692089301A90C4881
:1032580002F01CF980B90A48FFF7C4FD12B010BD8E
:10326800FEF70CFECAE7FEF709FED0E7FEF706FEFA
:10327800DCE7FEF703FEDFE7FEF700FEEBE700BF43
:10328800EC11002000340140014B00221A707047F5
:103298003812002030B49DF80850C0F1000C0C4CD6
:1032A80084F801C0C1F1000C84F802C0E2702371F7
:1032B8005DB14FF0010C064C84F805C0054C207038
:1032C8006170A270E37030BC70474FF0000CF2E7F9
:1032D800040000203412002008B5074B1B7843B9BE
:1032E800054B01221A700B220449054802F07DFAA9
:1032F80008BD0220FCE700BF3812002004000020AF
:103308008412002010B54042044CA0714942E1717A
:1033180022726372FFF7E0FF10BD00BF04000020B7
:10332800034B834200D07047024B00221A70FAE721
:10333800841200203812002008B50023032B09DC72
:10334800084A32F8132012B20749C9568A4204D1F2
:103358000133F3E7012313B108BD0023FBE7FFF7AF
:10336800BBFFF9E74C0B00203412002008B50A48CF
:103378000A4B03604FF4E133436000238360C3606A
:1033880003610C2242618361C36102F098F900B9BC
:1033980008BDFEF773FDFBE714130020004C004046
:1033A80008B50A480A4B03604FF4E1334360002331
:1033B8008360C36003610C2242618361C36102F0D0
:1033C8007EF900B908BDFEF759FDFBE75C13002044
:1033D8000050004008B50A480A4B03604FF4E13337
:1033E800436000238360C36003610C2242618361F0
:1033F800C36102F064F900B908BDFEF73FFDFBE7C1
:103408003C1200200038014008B50A480A4B036006
:103418004FF4E133436000238360C36003610C22EF
:1034280042618361C36102F04AF900B908BDFEF741
:1034380025FDFBE7841200200044004008B50A4837
:103448000A4B03604FF4E133436000238360C36099
:1034580003610C2242618361C36102F030F900B953
:1034680008BDFEF70BFDFBE7CC120020004800402A
:1034780030B591B000230C930D930E930F9303680E
:10348800804A93420FD0804A93423ED07F4A93426B
:1034980074D07F4A934200F09B807E4A934200F0AA
:1034A800C78011B030BD7C4BDA6942F40022DA6182
:1034B800DA6902F400220192019A9A6942F0100234
:1034C8009A619B6903F010030293029B4FF4806397
:1034D8000C9302230D9303230F93704D0CA92846D8
:1034E80000F06CFC4FF400630C9300240D940E94D0
:1034F8000CA9284600F062FC22462146342000F040
:1035080029FB342000F05EFBCBE7634BDA6942F419
:103518008012DA61DA6902F480120392039A9A69D6
:1035280042F010029A619A6902F010020492049A19
:103538009A6942F020029A619B6903F0200305937F
:10354800059B4FF480530C9302230D9303230F9391
:103558000CA9524800F032FC04230C9300240D946B
:103568000E940CA94E4800F029FC2246214635202D
:1035780000F0F0FA352000F025FB92E7464B9A69F7
:1035880042F480429A619A6902F480420692069A4D
:103598009A6942F004029A619B6903F00403079355
:1035A800079B4FF400730C9302230D9303230F938F
:1035B8003C4C0CA9204600F001FC4FF480630C93AE
:1035C80000230D930E930CA9204600F0F7FB68E743
:1035D800314BDA6942F40032DA61DA6902F4003216
:1035E8000892089A9A6942F004029A619B6903F06A
:1035F80004030993099B04230C9302230D930323CB
:103608000F93284D0CA9284600F0D8FB08230C93EB
:1036180000240D940E940CA9284600F0CFFB2246F6
:103628002146262000F096FA262000F0CBFA38E74B
:10363800194BDA6942F48022DA61DA6902F48022ED
:103648000A920A9A9A6942F008029A619B6903F001
:1036580008030B930B9B4FF480630C9302230D9389
:1036680003230F93104C0CA9204600F0A7FB4FF43E
:1036780000630C9300230D930E930CA9204600F0D1
:103688009DFB0EE7004C0040005000400038014010
:103698000044004000480040001002400010014073
:1036A8000014014000080140000C014008B50A4A16
:1036B800536823F0E06343F00073536000224FF433
:1036C8004041064800F09AFC0548036800229A63C6
:1036D800042101F0DDFD08BD0000014000080140A3
:1036E8008410002010B510B101280ED010BD0E4C6A
:1036F80001224FF40041204600F080FC00224FF4E4
:103708008041204600F07AFCF0E7074C00224FF495
:103718000041204600F072FC01224FF4804120460F
:1037280000F06CFCE2E700BF0008014008B5431A4E
:10373800A3EB020C0844811A104413445BB242B252
:1037480049B24FFA8CF0FFF7DDFD08BD70B5454B67
:103758001C68454B1B68E41A02E0A4F50C44A03C25
:1037680044F250639C42F8DC02E004F50C44A034B7
:103778003E4B9C42F9DBE21726463D480368416808
:10378800E31841EBE4710360416042F21170834237
:1037980071F1000305DB364B42F210700021C3E9DA
:1037A8000001334B18685968324B98424FF0FF3389
:1037B80071EB030305DA2E4B2E484FF0FF31C3E9B6
:1037C80000012D4B1D68651B910041EA9671B300FD
:1037D800981942EB0103DB0043EA5073C000801BD9
:1037E80063EB02031B0143EA10730001801942EBEB
:1037F8000302D20042EA5072C0001D4B19685E688D
:103808004FEA860C4CEA917C8B005B1846EB0C0661
:10381800DB187641C01842EB0602642605FB06F663
:10382800851942EBE676154A4FF0FF3328463146B4
:10383800FDF7D4F90246124B9D424FF0FF3376EB69
:10384800030307DB0F4B9D4276F1000303DB6FF0A8
:103858007E0200E07F22084B1C6000210846FFF72B
:1038680065FF70BDB4130020500A0020B0B9FFFFF7
:10387800A8130020F0D8FFFFB01300206079FEFFE6
:1038880001B03CFF0050C30000B583B0A0EB010CB1
:10389800ACEB020E0844811A10446244009353B200
:1038A80042B249B24FFA8EF0FFF7F4FC03B05DF86C
:1038B80004FB000002E0A0F50C40A03844F250637D
:1038C8009842F8DC02E000F50C40A030014B984229
:1038D800F9DB7047B0B9FFFF38B504464FF07C51AB
:1038E800FDF72EF938B121462046FCF783FE214624
:1038F800FCF788FF38BD4FF040412046FCF782FFB7
:103908002146FCF77FFF05464FF081412046FCF732
:1039180079FF01462846FCF76DFE4FF07E51FCF713
:1039280067FEE7E708B5124B1B781BB1114B1B6804
:10393800834211D00F4B186079B10F4B1B680F4AA7
:103948001360C01AFFF7B6FF0D4B18600D4B00222D
:103958001A80074B01221A7008BD054B00221A7005
:10396800094B1A88074B1A80034B1860F4E700BF0D
:10397800BD130020B8130020B4130020C413002086
:10398800C0130020C813002010000020F8B51D4BFC
:103998001B78002B35D01C4B1C882046FCF7DAFE20
:1039A80005461A4B1E883046FCF7D4FE01462846C9
:1039B800FCF7DCFF05464FF07E51FDF7DFF808B154
:1039C8004FF07E552846FFF787FF0546104B1F68C6
:1039D8003846FCF7C3FE2946FCF714FFFDF7D8F874
:1039E8000C4B1B6818440C4A10600134A4B2064AF8
:1039F8001480A64205D8034A002111701F44064BC3
:103A08001F60F8BDBD130020C8130020100000205F
:103A1800C0130020C4130020B4130020014B1878F1
:103A2800704700BFBD130020FFF7FEF80B480C4994
:103A38000C4A002302E0D458C4500433C4188C4202
:103A4800F9D3094A094C002301E013600432A24269
:103A5800FBD302F0EDF8FEF745FA704700000020AE
:103A6800C8090020B0D50008C80900201814002093
:103A7800FEE7000010B504460E4B18784FF47A7331
:103A8800B3FBF0F30C4A1068B0FBF3F000F0A8F8B1
:103A980068B90F2C01D901200AE0002221464FF015
:103AA800FF3000F057F8054B1C60002000E00120B3
:103AB80010BD00BF120000200000002014000020EC
:103AC80008B5074A136843F010031360032000F099
:103AD8002FF80F20FFF7CEFFFEF79CFF002008BD50
:103AE80000200240034A1168034B1B780B44136003
:103AF800704700BFCC13002012000020014B18684B
:103B0800704700BFCC13002038B50446FFF7F6FF16
:103B18000546B4F1FF3F02D0044B1B781C44FFF765
:103B2800EDFF401BA042FAD338BD00BF12000020B1
:103B3800074AD36823F4E0631B041B0C000200F45B
:103B4800E060034343F0BF6343F40033D36070473E
:103B580000ED00E000B5194BDB68C3F30223C3F1A5
:103B6800070CBCF1040F28BF4FF0040C03F1040E3E
:103B7800BEF1060F18D9033B4FF0FF3E0EFA0CFCBE
:103B880021EA0C0199400EFA03F322EA03031943D0
:103B980000280BDB0901C9B200F1604000F5614063
:103BA80080F800135DF804FB0023E5E700F00F0040
:103BB8000901C9B2024B1954F4E700BF00ED00E057
:103BC80014ED00E0002807DB00F01F024009012384
:103BD8009340024A42F82030704700BF00E100E0FD
:103BE8000138B0F1807F0BD24FF0E0235861054ACD
:103BF800F02182F823100020986107221A6170478B
:103C08000120704700ED00E090F82130DBB2022B74
:103C180006D004238363002380F8203001207047F6
:103C28000268136823F00E0313600268136823F018
:103C380001031360036CC16B012202FA03F34B60AA
:103C480080F82120002380F82030184670470000B3
:103C580008B590F82130DBB2022B03D0042383632C
:103C6800012008BD0268136823F00E031360026880
:103C7800136823F00103136003684C4A93424ED93A
:103C8800783A934224D01432934230D0143293427B
:103C98002FD0143293422FD0143293422FD01432A3
:103CA80093422FD0143293422FD002F5627293427E
:103CB8002ED0143293422DD0143293422CD0143289
:103CC800934202D04FF4803203E04FF4805200E078
:103CD8000122374B5A60012380F82130002380F8F5
:103CE8002030436B002B5ED098470020B9E71022A4
:103CF800EFE74FF48072ECE74FF48052E9E74FF4B6
:103D08008032E6E74FF48012E3E74FF08072E0E795
:103D18000122DEE71022DCE74FF48072D9E7254A5A
:103D2800934224D01432934225D01432934224D0A3
:103D38001432934224D01432934224D01432934242
:103D480024D01432934224D002F56272934223D0D5
:103D58001432934222D01432934221D01432934227
:103D680002D04FF4803203E04FF4805200E0012289
:103D7800114B5A60AFE71022FAE74FF48072F7E769
:103D88004FF48052F4E74FF48032F1E74FF4801299
:103D9800EEE74FF08072EBE70122E9E71022E7E750
:103DA8004FF48072E4E700205BE700BF8000024028
:103DB80000040240080002400000024070B582B0D2
:103DC8000024A446B0E0874DAA4210D007D9864DFA
:103DD800AA420CD005F58035AA4208D013E0A5F513
:103DE8008015AA4203D005F57025AA4207D18A6832
:103DF800002A62D0012A5BD04361082403E0A5F5BC
:103E08008015AA42F3D0BEF1FF0F58D80646BEF17E
:103E1800FF0F56D84FEA8C0233680F25954023EAE6
:103E2800050304FA02F2134333604B6813F0805F12
:103E380078D06E4B9A6942F001029A619B6903F04F
:103E480001030193019B4FEA9C02951C684B53F8B0
:103E580025600CF003039D000F23AB4026EA030600
:103E6800644B984233D003F58063984200F0988001
:103E780003F58063984200F0958003F580639842CB
:103E880000F0928003F58063984200F08F8003F57C
:103E98008063984219D006231AE0CC68B3E7CC684F
:103EA8000434B0E7CC680834ADE7CC680C34AAE732
:103EB80003610824A7E70024A5E70424A3E7061D57
:103EC800A5E7ACF108029200A6E7052300E000236D
:103ED800AB4033430232464D45F822304B6813F469
:103EE800801F65D0444A936843EA0E0393604B6889
:103EF80013F4001F62D0404AD36843EA0E03D3602C
:103F08004B6813F4003F5FD03B4A536843EA0E0303
:103F180053604B6813F4803F5CD0374A136843EA18
:103F28000E0313600CF1010C0A6832FA0CF357D037
:103F3800012303FA0CF302EA030E33EA0202F1D179
:103F48004A68122A3FF63FAF122A3FF65CAF01A536
:103F580055F822F0F73D0008A33E0008AD3E0008E2
:103F6800BF3E00080F3E00080F3E00080F3E000845
:103F78000F3E00080F3E00080F3E00080F3E0008E5
:103F88000F3E00080F3E00080F3E00080F3E0008D5
:103F98000F3E00080F3E0008A73E0008B33E000889
:103FA800012395E7022393E7032391E704238FE78F
:103FB800114A936823EA0E03936098E70E4AD36880
:103FC80023EA0E03D3609BE70B4A536823EA0E03E8
:103FD80053609EE7084A136823EA0E031360A1E7BB
:103FE80002B070BD00002210000031100010024025
:103FF8000000014000080140000401400AB10161CD
:10400800704709040161704708B5054B5B690342B5
:1040180000D108BD024B5861FDF7D6FDF9E700BF96
:104028000004014003685A6912F4806F01D100202E
:1040380070476FF480625A6100230363202280F87E
:104048003D2080F83E30026C42F00402026480F8A1
:104058003C30012070472DE9F04106460C461746D2
:1040680098463BE0FFF74AFD069BC01A404502D838
:10407800B8F1000F32D1012D18D033689B6924EABA
:1040880003039BB2B3FA83F35B099F4226D1002353
:104098003363202286F83D2086F83E30326C42F0A9
:1040A8002002326486F83C30012027E033685B69DF
:1040B80024EA03039BB2B3FA83F35B09E5E73368A9
:1040C8005B6924EA030C1FFA8CFCBCFA8CFC4FEAEF
:1040D8005C1C674511D1B8F1FF3FC3D1C4F3074554
:1040E800012DECD033689B6924EA030C1FFA8CFC81
:1040F800BCFA8CFC4FEA5C1CEBE70020BDE8F081C1
:104108002DE9F84305460E469046994653E01A684D
:1041180042F400721A602B686FF480625A610023BF
:104128002B63202285F83D2085F83E302A6C42F02A
:1041380004022A6485F83C3001204AE0FFF7DEFCDF
:10414800A0EB0900404502D8B8F1000F33D1012F88
:1041580017D02B689B6926EA03039BB2003B18BF64
:10416800012343B300232B63202285F83D2085F8E3
:104178003E302A6C42F020022A6485F83C30012047
:1041880027E02B685B6926EA03039BB2003B18BF54
:104198000123E6E72B689C6926EA0404A4B2003CE4
:1041A80018BF0124A4B12B685A6912F4806FAED1EC
:1041B800B8F1FF3FC2D1C6F30747012FEAD12B68F8
:1041C8005C6926EA0404A4B2003C18BF0124E9E7AC
:1041D8000020BDE8F8830000F0B583B004460D4622
:1041E80016461F46C36A082B0DD0012B0BD013F5BA
:1041F800803F08D0036B122B0AD10268136843F47E
:104208008073136004E02268136843F480731360BA
:104218000097334600224FF001112046FFF71BFF9D
:1042280080B92369B3F5804F16D1236805F0FE05E0
:104238001D613B46324613492046FFF761FFF8B936
:1042480003B0F0BD23681B6813F4807F02D04FF4DD
:10425800007323640320F3E7EB11226803F00603DD
:1042680043F0F00313613B46324607492046FFF707
:1042780047FF18B92368EDB21D61DAE70120DFE7CF
:104288000120DDE7020001000800010070B50446C6
:104298000D46164623685B6913F0800F21D120462E
:1042A800FFF7C0FEF8B9B5F1FF3FF3D0FFF726FCE2
:1042B800801BA84201D8002DECD123685B6913F05C
:1042C800800FE7D100232363202284F83D2084F85F
:1042D8003E30226C42F02002226484F83C300120F7
:1042E80000E0002070BD0120FCE770B504460D46D3
:1042F800164623685B6913F0040F21D12046FFF7A7
:1043080091FEF8B9B5F1FF3FF3D0FFF7F7FB801B3B
:10431800A84201D8002DECD123685B6913F0040F83
:10432800E7D100232363202284F83D2084F83E301F
:10433800226C42F02002226484F83C30012000E024
:10434800002070BD0120FCE7002800F0CC8070B58B
:10435800044690F83D30002B77D0242384F83D3074
:104368002268136823F0010313602268136843F47A
:10437800004313602268136823F40043136000F0BD
:1043880081FC62685A4B9A4264D85A4B98428CBF57
:1043980000230123002B40F0A8805749A1FB0031DE
:1043A8008B0C25686A6822F03F0242EA91426A60F3
:1043B80021680A6A22F03F0266684D4DAE424FD826
:1043C800013313430B622168CA6922F44F4222F079
:1043D800FF026668464B9E424CD8431E7600B3FBEC
:1043E800F6F3013340F6FC70034278D0C3F30B03B5
:1043F8001343CB6121680B6823F0C003E269206A8C
:10440800024313430B6021688B6823F4034323F0B2
:10441800FF032269E068024313438B602168CB687D
:1044280023F0FF036269A06902431343CB6022684B
:10443800136843F00103136000202064202384F8EC
:104448003D30206384F83E0070BD80F83C30FDF7B5
:10445800A7F982E7294B98428CBF0023012399E7EB
:104468004FF4967505FB03F3254DA5FB03539B09F4
:104478000133A6E7A368BBB9451E06EB460CB5FB9E
:10448800FCF50135C5F30B05B5FA85F56D0945BB96
:10449800C3B9013806EB4603B0FBF3F30133C3F3AA
:1044A8000B0343F40043A3E7451E06EB860C0CEB15
:1044B8008C0CB5FBFCF50135C5F30B05B5FA85F594
:1044C8006D09E4E7013806EB860303EB8303B0FBD1
:1044D800F3F30133C3F30B0343F4404388E70423A6
:1044E80086E7012384E7012070470120ACE700BF7D
:1044F800A08601007F841E0083DE1B43FF083D0069
:10450800D34D62102DE9F04385B004460F4691461D
:1045180098460C9EFFF7F2FA054694F83D00C0B2A3
:10452800202804D00227384605B0BDE8F08300955E
:10453800192301224F492046FFF78DFD002840F03E
:10454800928094F83C30012B00F08F80012384F88E
:104558003C3023681A6812F0010F03D11A6842F040
:1045680001021A602268136823F400631360212390
:1045780084F83D30102384F83E3000232364C4F8C7
:104588002490A4F82A80638D23853B4BE3622B4655
:10459800324639462046FFF71FFE0746002866D1F7
:1045A8000023039323685A6903929B690393039B2F
:1045B80011E0236C042B01D00127B4E722681368AB
:1045C80043F400731360F7E72A4631462046FFF7A5
:1045D8008CFE00282ED1238D002B36D02A4631465A
:1045E8002046FFF753FE0028E3D1626A2368127859
:1045F8001A61606A431C6362618D89B2013989B2AC
:104608006185238D013B9BB223852268516911F096
:10461800040FD9D0002BD7D043781361636A0133D4
:104628006362638D9BB2013B9BB26385238D013B23
:104638002385C9E7236C042B01D0012773E722687F
:10464800136843F400731360F7E72268136843F4B0
:1046580000731360202384F83D30002384F83E3033
:1046680084F83C305FE702275DE702275BE7012714
:1046780059E700BF020010000000FFFF82B0084B9E
:104688001B68084AA2FB03235B0A00FB03F30193A0
:1046980000BF019B5A1E0192002BF9D102B070474E
:1046A80000000020D34D6210002800F0F18170B5A1
:1046B80082B00446036813F0010F2CD0994B5B6855
:1046C80003F00C03042B1DD0964B5B6803F00C031E
:1046D800082B12D06368B3F5803F41D0002B55D129
:1046E80003F1804303F504331A6822F480321A6018
:1046F8001A6822F480221A6037E08A4B5B6813F448
:10470800803FE7D0874B1B6813F4003F03D06368F2
:10471800002B00F0BF81236813F0020F75D0814B86
:104728005B6813F00C0F5FD07E4B5B6803F00C03E3
:10473800082B54D02369002B00F08A807A4B012281
:104748001A60FFF7DBF90546764B1B6813F0020F7A
:1047580075D1FFF7D3F9401B0228F5D903209EE154
:10476800704A136843F480331360636843B3FFF7F8
:10477800C5F905466B4B1B6813F4003FCBD1FFF717
:10478800BDF9401B6428F5D9032088E1B3F5A02FB3
:1047980009D0644B1A6822F480321A601A6822F42D
:1047A80080221A60E1E703F18043A3F53C331A68DD
:1047B80042F480221A601A6842F480321A60D4E700
:1047C800FFF79CF90546574B1B6813F4003FA2D02E
:1047D800FFF794F9401B6428F5D903205FE1514B9A
:1047E8005B6813F4803FA5D14E4B1B6813F0020F92
:1047F80003D02369012B40F04F814A4A136823F004
:10480800F803616943EAC1031360236813F0080FD2
:1048180033D0A369002B5CD0434B0122C3F880241A
:10482800FFF76CF905463F4B5B6A13F0020F21D185
:10483800FFF764F9401B0228F5D903202FE1394A14
:10484800136823F0F803616943EAC1031360DCE7E6
:10485800354B00221A60FFF751F90546314B1B68AA
:1048680013F0020FD1D0FFF749F9401B0228F5D900
:10487800032014E10120FFF701FF236813F0040F60
:1048880000F09680274BDB6913F0805F34D1254B0D
:10489800DA6942F08052DA61DB6903F080530193F0
:1048A800019B0125214B1B6813F4807F26D0E36808
:1048B800012B3DD0002B53D103F1804303F5043382
:1048C8001A6A22F001021A621A6A22F004021A62B3
:1048D80033E0154B0022C3F88024FFF70FF9054693
:1048E800104B5B6A13F0020FC7D0FFF707F9401BA4
:1048F8000228F5D90320D2E00025D3E70B4A136834
:1049080043F480731360FFF7F9F80646074B1B68FA
:1049180013F4807FCBD1FFF7F1F8801B6428F5D919
:104928000320BCE00010024000004242007000403A
:104938005F4A136A43F001031362E36833B3FFF776
:10494800DDF806465A4B1B6A13F0020F2FD1FFF70A
:10495800D5F8801B41F288339842F3D903209EE0B2
:10496800052B09D0524B1A6A22F001021A621A6A00
:1049780022F004021A62E0E74D4B1A6A42F0040280
:104988001A621A6A42F001021A62D6E7FFF7B6F80D
:104998000646474B1B6A13F0020F08D0FFF7AEF824
:1049A800801B41F288339842F3D9032077E0E5B9B8
:1049B800E369002B72D03E4A526802F00C02082AC2
:1049C80056D0022B17D03B4B00221A66FFF796F8F9
:1049D8000446374B1B6813F0007F47D0FFF78EF86B
:1049E800001B0228F5D9032059E0314AD36923F086
:1049F8008053D361DCE72F4B00221A66FFF77EF85D
:104A080005462B4B1B6813F0007F06D0FFF776F89E
:104A1800401B0228F5D9032041E0236AB3F5803F03
:104A28001AD023494B6823F47413226A606A02433C
:104A380013434B601F4B01221A66FFF75FF80446C9
:104A48001B4B1B6813F0007F0ED1FFF757F8001BB4
:104A58000228F5D9032022E0154A536823F40033CD
:104A6800A1680B435360DCE7002018E0002016E043
:104A7800012B16D00E4B5B6803F48031226A9142F9
:104A880011D103F47013626A93420ED1002006E03C
:104A980001207047012002E0012000E0002002B060
:104AA80070BD0120FBE70120F9E70120F7E700BF0F
:104AB80000100240000042420F4B5B6803F00C02FA
:104AC800082A01D00D487047C3F383420C49885C1B
:104AD80013F4803F0BD0084B5B68C3F34043094A8B
:104AE800D35C064A02FB00F0B0FBF3F07047064BBC
:104AF80003FB00F0704700BF0010024000127A006C
:104B08008CD100089CD1000800093D00002800F065
:104B1800A08070B50D460446524B1B6803F007038E
:104B28008B420BD24F4A136823F007030B431360E1
:104B3800136803F007038B4240F08D80236813F05D
:104B4800020F17D013F0040F04D0474A536843F4F8
:104B5800E0635360236813F0080F04D0424A536897
:104B680043F460535360404A536823F0F003A1684C
:104B78000B435360236813F0010F31D06368012B96
:104B880020D0022B25D0384A126812F0020F64D0C8
:104B980035494A6822F0030213434B60FEF7AEFF23
:104BA8000646314B5B6803F00C036268B3EB820F77
:104BB80016D0FEF7A3FF801B41F288339842F0D944
:104BC800032045E0284A126812F4003FE0D1012092
:104BD8003EE0254A126812F0007FD9D1012037E063
:104BE800204B1B6803F00703AB420AD91D4A136820
:104BF80023F007032B431360136803F00703AB424A
:104C08002DD1236813F0040F06D0174A536823F4F4
:104C1800E063E1680B435360236813F0080F07D083
:104C2800114A536823F46053216943EAC10353606E
:104C3800FFF742FF0C4B5B68C3F303130B4AD35CCB
:104C4800D8400B4B18600B4B1868FEF713FF002079
:104C580070BD012070470120FAE70120F8E7012024
:104C6800F6E700BF002002400010024074D100089F
:104C78000000002014000020014B1868704700BF96
:104C88000000002008B5FFF7F7FF044B5B68C3F38B
:104C98000223034AD35CD84008BD00BF001002407D
:104CA80084D1000808B5FFF7E7FF044B5B68C3F33E
:104CB800C223034AD35CD84008BD00BF001002409D
:104CC80084D1000830B4036A026A22F00102026249
:104CD8004268846924F073040D682C4323F0020CA5
:104CE8008B6843EA0C03104DA84203D005F5006514
:104CF800A84205D123F00803CD682B4323F0040311
:104D0800094DA84203D005F50065A84205D122F453
:104D180040724D692A438D692A43426084614A681A
:104D28004263036230BC7047002C014030B4036A10
:104D3800026A22F4807202624268C46924F0730C29
:104D48000C6844EA0C0523F400738C6843EA0423D6
:104D5800114CA04203D004F50064A04206D123F40C
:104D68000063CC6843EA042323F480630A4CA0421E
:104D780003D004F50064A04207D122F440524C69E4
:104D880042EA04128C6942EA04124260C5614A6828
:104D9800C263036230BC7047002C014030B4036A20
:104DA800026A22F4805202624468C26922F4E6422E
:104DB8000D6842EA052223F400538D6843EA05335F
:104DC800094DA84203D005F50065A84204D124F492
:104DD80080444D6944EA85144460C2614A680264AB
:104DE800036230BC704700BF002C014090F83D3092
:104DF800DBB2012B2FD1022380F83D300268D36843
:104E080043F00103D3600368154A934218D002F5B2
:104E18000062934214D0B3F1804F11D0A2F59832BA
:104E280093420DD002F58062934209D002F5806268
:104E3800934205D01A6842F001021A6000207047B8
:104E48009A6802F00702062A07D01A6842F001029F
:104E58001A6000207047012070470020704700BF8B
:104E6800002C01407047704770477047704770B515
:104E780004460368DE681D6915F0020F10D016F0AD
:104E8800020F0DD06FF002021A6101230377036845
:104E98009B6913F0030F5ED0FFF7E6FF002323772B
:104EA80015F0040F12D016F0040F0FD023686FF01E
:104EB80004021A610223237723689B6913F4407F55
:104EC8004FD02046FFF7D0FF0023237715F0080FB7
:104ED80012D016F0080F0FD023686FF008021A617D
:104EE800042323772368DB6913F0030F40D020469F
:104EF800FFF7BAFF0023237715F0100F12D016F032
:104F0800100F0FD023686FF010021A61082323775F
:104F18002368DB6913F4407F31D02046FFF7A4FFF4
:104F28000023237715F0010F02D016F0010F2DD1C1
:104F380015F0800F02D016F0800F2FD115F0400F1A
:104F480002D016F0400F31D115F0200F02D016F024
:104F5800200F33D170BDFFF786FF2046FFF785FF8E
:104F68009CE72046FFF77FFF2046FFF77EFFABE771
:104F78002046FFF778FF2046FFF777FFBAE720467D
:104F8800FFF771FF2046FFF770FFC9E723686FF04E
:104F980001021A612046FFF765FFC9E723686FF031
:104FA80080021A61204600F09BFAC7E723686FF079
:104FB80040021A612046FFF759FFC5E723686FF0E2
:104FC80020021A61204600F08AFAC3E70368284ADB
:104FD800904212D002F5006290420ED0B0F1804F9C
:104FE8000BD0A2F59832904207D002F58062904229
:104FF80003D002F58062904203D123F070034A681F
:1050080013431B4A904212D002F5006290420ED020
:10501800B0F1804F0BD0A2F59832904207D002F53C
:105028008062904203D002F58062904203D123F45B
:105038004073CA68134323F080034A69134303602B
:105048008B68C3620B688362094B984203D003F5EF
:105058000063984201D10B6903630123436103692B
:1050680013F0010F03D0036923F0010303617047B4
:10507800002C014040B310B5044690F83D30F3B120
:10508800022384F83D30214651F8040BFFF79EFFB8
:10509800012384F8463084F83E3084F83F3084F8A1
:1050A800403084F8413084F8423084F8433084F842
:1050B800443084F8453084F83D30002010BD80F835
:1050C8003C30FDF757FEDBE70120704740B310B5D1
:1050D800044690F83D30F3B1022384F83D30214670
:1050E80051F8040BFFF772FF012384F8463084F867
:1050F8003E3084F83F3084F8403084F8413084F8FA
:10510800423084F8433084F8443084F8453084F8D9
:105118003D30002010BD80F83C30FDF7D7FDDBE7BF
:105128000120704730B4036A026A22F0100202625A
:105138004468826922F4E6420D6842EA052223F0B7
:1051480020038D6843EA0513114DA84203D005F5E5
:105158000065A84206D123F08003CD6843EA051311
:1051680023F040030A4DA84203D005F50065A84284
:1051780007D124F440644D6944EA85048D6944EA02
:105188008504446082614A688263036230BC704768
:10519800002C014038B590F83C30012B66D004460D
:1051A8000D46012380F83C300C2A5AD8DFE802F07B
:1051B800075959591B5959593059595944000068C8
:1051C800FFF780FD2268936943F008039361226822
:1051D800936923F0040393612268936929690B4357
:1051E800936100203EE00068FFF79CFF2268936906
:1051F80043F4006393612268936923F480639361A5
:1052080022689369296943EA01239361002029E010
:105218000068FFF78BFD2268D36943F00803D36168
:105228002268D36923F00403D3612268D36929690A
:105238000B43D361002015E00068FFF7AFFD22683B
:10524800D36943F40063D3612268D36923F480638C
:10525800D3612268D369296943EA0123D361002015
:1052680000E00120002384F83C3038BD0220FCE730
:1052780001F01F01012303FA01FC036A23EA0C036E
:105288000362036A02FA01F10B43036270470000EC
:1052980010B50446084600293AD194F83E30DBB2EE
:1052A800013B18BF0123002B66D1002849D10223F6
:1052B80084F83E30012201462068FFF7D9FF2368B1
:1052C8002F4A934203D002F50062934203D15A6CED
:1052D80042F400425A642368294A934241D002F5B5
:1052E800006293423DD0B3F1804F3AD0A2F5983294
:1052F800934236D002F58062934232D002F5806242
:1053080093422ED01A6842F001021A60002032E05F
:10531800042908D008290DD094F84130DBB2013BAC
:1053280018BF0123BFE794F83F30DBB2013B18BF39
:105338000123B8E794F84030DBB2013B18BF0123E2
:10534800B1E7042805D0082807D0022384F84130A3
:10535800B0E7022384F83F30ACE7022384F84030FA
:10536800A8E79A6802F00702062A07D01A6842F0EE
:1053780001021A60002010BD0120FCE70020FAE7B6
:10538800002C014038B504460D4600220068FFF79E
:105398006FFF23681D4A934218D002F500629342BA
:1053A80014D02368196A41F21112114208D1196AFE
:1053B80040F24442114203D11A6822F001021A60F5
:1053C8009DB9012384F83E30002038BD196A41F2A6
:1053D80011121142E5D1196A40F244421142E0D15A
:1053E8005A6C22F400425A64DBE7042D05D0082DDC
:1053F80007D0012384F84130E6E7012384F83F30E1
:10540800E2E7012384F84030DEE700BF002C0140CA
:1054180090F83C30012B34D010B4012380F83C3094
:10542800022380F83D3003685A689C6822F0700CAB
:105438000A6842EA0C025A600368134A934212D07F
:1054480002F5006293420ED0B3F1804F0BD0A2F563
:105458009832934207D002F58062934203D002F556
:105468008062934204D124F080044A6814439C600B
:10547800012380F83D30002380F83C30184610BCEA
:1054880070470220704700BF002C014090F83C3064
:10549800012B22D0012380F83C30CB6823F44073E1
:1054A8008A68134323F480634A68134323F4006330
:1054B8000A68134323F480530A69134323F40053FF
:1054C8004A69134323F48043CA6913430268536447
:1054D800002380F83C301846704702207047704718
:1054E8007047026802F10C0353E8003F23F49073FD
:1054F8000C3242E800310029F3D1026802F11403AA
:1055080053E8003F23F00103143242E80031002938
:10551800F3D1036B012B05D0202380F84230002300
:1055280003637047026802F10C0353E8003F23F05D
:1055380010030C3242E800310029F3D1ECE790F86F
:105548004130DBB2212B01D0022070478368B3F5CC
:10555800805F17D0036A5A1C02621A7803685A607F
:10556800C38C9BB2013B9BB2C3844BB90268D3681E
:1055780023F08003D3600268D36843F04003D3600C
:10558800002070470369002BE4D1036A1B88026876
:10559800C3F308035360036A02330362E0E70000C1
:1055A80010B504460268136923F44053C1680B43DD
:1055B800136183680269134342691A430168CB681F
:1055C80023F4B05323F00C031343CB6002685369F0
:1055D80023F4407381690B4353610268134B9A4269
:1055E80020D0FFF74FFB024602EB820202EB820259
:1055F80063689B00B2FBF3F20D48A0FB0231490936
:10560800642303FB11231B013233A0FB03235B0933
:1056180003F0F00202EB011203F00F0321681344B8
:105628008B6010BDFFF73EFB0246DDE70038014006
:105638001F85EB512DE9F04383B005460E4617460A
:105648009946DDF828802C68246836EA04030CBFE4
:105658004FF0010C4FF0000CBC4528D1B8F1FF3FCA
:10566800F1D0FEF74BFAA0EB0900404523D8B8F17A
:10567800000F22D02B68DA6812F0040FE3D0802ED6
:10568800E1D0402EDFD01A6812F0080FDBD00024DA
:1056980001941A6801925B680193019B2846FFF701
:1056A80020FF08236B6485F84040012000E00020BB
:1056B80003B0BDE8F0830320FAE70320F8E760B3FE
:1056C80010B5044690F8413013B3242384F84130D0
:1056D8002268D36823F40053D3602046FFF760FFA5
:1056E8002268136923F4904313612268536923F0F5
:1056F8002A0353612268D36843F40053D36000201F
:105708006064202384F8413084F84230606310BD1F
:1057180080F84030FDF7ACFED7E7012070472DE94F
:10572800F04182B01E4690F84130DBB2202B56D1B2
:1057380004460D469046002955D00AB901204FE08D
:1057480000234364212380F84130FEF7D7F9074648
:10575800A4F82480A4F82680A368B3F5805F02D05B
:105768004FF0000814E023692BB34FF000080FE056
:10577800202384F84130032032E038F8023B2268C5
:10578800C3F308035360E28C92B2013A92B2E28406
:10579800E38C9BB293B100963B46002280212046C1
:1057A800FFF748FF0028E3D1002DE6D015F8012BBC
:1057B80023685A60E7E7A8460025E9E700963B46D4
:1057C800002240212046FFF735FF18B9202384F82E
:1057D800413005E0202384F84130032000E0022016
:1057E80002B0BDE8F0810120FAE790F84130DBB261
:1057F800202B10D189B192B101628284C284002326
:105808004364212280F841200168CA6842F080027E
:10581800CA6018467047022070470120704701206F
:10582800704708B50168CA6822F04002CA602022A1
:1058380080F84120FDF77AF9002008BD704708B5C7
:10584800406A0023C385C384FFF7F8FF08BD70478B
:1058580090F84230DBB2222B69D18368B3F5805FC0
:105868004FD0826AB3F5805F04D0002B56D103690C
:10587800002B53D103685B681370836A013383621A
:10588800C38D9BB2013B9BB2C385002B51D100B5A0
:1058980083B00268D36823F02003D3600268D3681A
:1058A80023F48073D3600268536923F001035361C2
:1058B800202380F8423000234363036B012B33D14C
:1058C80000230363026802F10C0353E8003F23F04E
:1058D80010030C3242E800310029F3D103681A683A
:1058E80012F0100F06D0002201921A6801925B682C
:1058F8000193019B818DFFF7AAFF002003B05DF89B
:1059080004FB0269002AACD1826A03685B68C3F3AE
:1059180008031380836A02338362B1E703685B6814
:1059280003F07F031370A8E7FDF704F9E5E7022009
:10593800704700207047000030B583B00446026805
:105948001368D068516913F00F0505D113F0200FC3
:1059580002D010F0200F19D12DB111F0010119D189
:1059680010F4907F16D1216B01297DD013F0800FA0
:1059780003D010F0800F40F0188113F0400F03D0CF
:1059880010F0400F40F0158103B030BD2046FFF7FE
:105998005FFFF9E713F0010F06D010F4807F03D002
:1059A800626C42F00102626413F0040F04D019B172
:1059B800626C42F00202626413F0020F04D019B163
:1059C800626C42F00402626413F0080F07D010F012
:1059D800200F00D119B1626C42F008026264626C57
:1059E800002AD1D013F0200F02D010F0200F29D1B7
:1059F80023685B6903F04003626C12F0080F00D162
:105A080063B32046FFF76DFD23685B6913F0400F11
:105A180020D0226802F1140353E8003F23F040032A
:105A2800143242E800310029F3D1E36B73B1634AC1
:105A38005A63E06BFEF70CF90028A5D0E06B436BC6
:105A48009847A1E72046FFF703FFD1E72046FFF775
:105A5800F5FE99E72046FFF7F1FE95E72046FFF7A8
:105A6800EDFE002363648FE713F0100F3FF47EAF61
:105A780010F0100F3FF47AAF0023019313680193DD
:105A880053680193019B536913F0400F51D0E26BA7
:105A980013685B689BB2002B3FF476AFA18D9942E7
:105AA8007FF672AFE3859369202B37D0226802F125
:105AB8000C0353E8003F23F480730C3242E80031B2
:105AC8000029F3D1226802F1140353E8003F23F0C0
