:020000040800F2
:1000000000C00020B1370008D1270008D32700081E
:10001000D5270008D7270008D927000800000000CE
:10002000000000000000000000000000DB270008C6
:10003000DD27000800000000DF270008E127000896
:10004000F9370008F9370008F9370008F9370008D0
:10005000F9370008F9370008F9370008F9370008C0
:10006000F9370008F937000821280008F937000897
:10007000F9370008F9370008F9370008F9370008A0
:10008000F9370008F9370008F9370008F937000890
:10009000F9370008F9370008F93700082B2800085D
:1000A000F9370008F9370008F9370008F937000870
:1000B000F9370008F9370008F9370008F937000860
:1000C000F9370008F9370008F9370008F937000850
:1000D000F9370008F937000841280008F937000807
:1000E000F9370008F9370008F9370008F937000830
:1000F000F9370008F9370008F9370008F937000820
:10010000F9370008F9370008F9370008F93700080F
:100110005128000861280008712800088528000877
:10012000F9370008F9370008F9370008F9370008EF
:1001300000000000000000000000000000000000BF
:1001400000000000000000000000000000000000AF
:10015000000000000000000000000000000000009F
:10016000000000000000000000000000000000008F
:10017000000000000000000000000000000000007F
:10018000000000000000000000000000000000006F
:10019000000000000000000000000000000000005F
:1001A000000000000000000000000000000000004F
:1001B000000000000000000000000000000000003F
:1001C000000000000000000000000000000000002F
:1001D000000000000000000000000000000000001F
:0401E0005FF8E0F1F3
:1001E80010B5054C237833B9044B13B10448AFF369
:1001F80000800123237010BDE806002000000000E5
:10020800C0A3000808B5034B1BB103490348AFF36B
:10021800008008BD00000000EC060020C0A3000814
:1002280081F0004102E000BF83F0004330B54FEA9F
:1002380041044FEA430594EA050F08BF90EA020F0C
:100248001FBF54EA000C55EA020C7FEA645C7FEA9F
:10025800655C00F0E2804FEA5454D4EB5555B8BFC2
:100268006D420CDD2C4480EA020281EA030382EA33
:10027800000083EA010180EA020281EA0303362DC5
:1002880088BF30BD11F0004F4FEA01314FF4801C98
:100298004CEA113102D0404261EB410113F0004FAA
:1002A8004FEA03334CEA133302D0524263EB430361
:1002B80094EA050F00F0A780A4F10104D5F1200EFF
:1002C8000DDB02FA0EFC22FA05F2801841F100015A
:1002D80003FA0EF2801843FA05F359410EE0A5F12E
:1002E80020050EF1200E012A03FA0EFC28BF4CF05F
:1002F800020C43FA05F3C01851EBE37101F0004515
:1003080007D54FF0000EDCF1000C7EEB00006EEB21
:100318000101B1F5801F1BD3B1F5001F0CD34908AB
:100328005FEA30004FEA3C0C04F101044FEA445202
:1003380012F5800F80F09A80BCF1004F08BF5FEA89
:10034800500C50F1000041EB045141EA050130BD69
:100358005FEA4C0C404141EB0101013C28BFB1F57B
:10036800801FE9D291F0000F04BF01460020B1FAC6
:1003780081F308BF2033A3F10B03B3F120020CDA99
:100388000C3208DD02F1140CC2F10C0201FA0CF077
:1003980021FA02F10CE002F11402D8BFC2F1200CDC
:1003A80001FA02F120FA0CFCDCBF41EA0C01904092
:1003B800E41AA2BF01EB0451294330BD6FEA0404DB
:1003C8001F3C1CDA0C340EDC04F11404C4F12002C6
:1003D80020FA04F001FA02F340EA030021FA04F3D8
:1003E80045EA030130BDC4F10C04C4F1200220FA2F
:1003F80002F001FA04F340EA0300294630BD21FA6D
:1004080004F0294630BD94F0000F83F4801306BF32
:1004180081F480110134013D4EE77FEA645C18BF26
:100428007FEA655C29D094EA050F08BF90EA020FBD
:1004380005D054EA000C04BF1946104630BD91EAB5
:10044800030F1EBF0021002030BD5FEA545C05D1B8
:100458004000494128BF41F0004130BD14F58004F7
:100468003CBF01F5801130BD01F0004545F0FE416B
:1004780041F470014FF0000030BD7FEA645C1ABFA0
:10048800194610467FEA655C1CBF0B46024650EAD7
:10049800013406BF52EA033591EA030F41F4002103
:1004A80030BD00BF90F0000F04BF0021704730B589
:1004B8004FF4806404F132044FF000054FF000015E
:1004C80050E700BF90F0000F04BF0021704730B51F
:1004D8004FF4806404F1320410F0004548BF4042F4
:1004E8004FF000013EE700BF42004FEAE2014FEA49
:1004F80031014FEA02701FBF12F07F4393F07F4F24
:1005080081F06051704732F07F4208BF704793F026
:100518007F4F04BF41F40021704730B54FF4607439
:1005280001F0004521F000411CE700BF50EA01023C
:1005380008BF704730B54FF000050AE050EA0102E5
:1005480008BF704730B511F0004502D5404261EB55
:1005580041014FF4806404F132045FEA915C3FF496
:10056800D8AE4FF003025FEADC0C18BF03325FEA33
:10057800DC0C18BF033202EBDC02C2F1200300FAE4
:1005880003FC20FA02F001FA03FE40EA0E0021FA09
:1005980002F11444BDE600BF4FEA410212F5001211
:1005A80015D211D56FF47873B3EB625212D94FEAB2
:1005B800C12343F0004343EA505311F0004F23FA9C
:1005C80002F018BF404270474FF00000704750EAF1
:1005D800013005D111F0004008BF6FF000407047AE
:1005E8004FF00000704700BF80F0004002E000BFFD
:1005F80081F0004142001FBF5FEA410392EA030F06
:100608007FEA226C7FEA236C6AD04FEA1262D2EB4F
:100618001363C1BFD218414048404140B8BF5B4254
:10062800192B88BF704710F0004F40F4000020F0ED
:100638007F4018BF404211F0004F41F4000121F003
:100648007F4118BF494292EA030F3FD0A2F101024D
:1006580041FA03FC10EB0C00C3F1200301FA03F18B
:1006680000F0004302D5494260EB4000B0F5000FAE
:1006780013D3B0F1807F06D340084FEA310102F16D
:100688000102FE2A51D2B1F1004F40EBC25008BF1F
:1006980020F0010040EA03007047490040EB0000E9
:1006A800013A28BFB0F5000FEDD2B0FA80FCACF1EA
:1006B800080CB2EB0C0200FA0CF0AABF00EBC25017
:1006C80052421843BCBFD0401843704792F0000F05
:1006D80081F4000106BF80F400000132013BB5E758
:1006E8004FEA41037FEA226C18BF7FEA236C21D0CE
:1006F80092EA030F04D092F0000F08BF0846704733
:1007080090EA010F1CBF0020704712F07F4F04D100
:10071800400028BF40F00040704712F100723CBF13
:1007280000F50000704700F0004343F0FE4040F43D
:10073800000070477FEA226216BF08467FEA2363FB
:100748000146420206BF5FEA412390EA010F40F4E6
:10075800800070474FF0000304E000BF10F0004332
:1007680048BF40425FEA000C08BF704743F0964319
:1007780001464FF000001CE050EA010208BF704734
:100788004FF000030AE000BF50EA010208BF7047BB
:1007980011F0004302D5404261EB41015FEA010CD0
:1007A80002BF84460146002043F0B64308BFA3F1C8
:1007B8008053A3F50003BCFA8CF2083AA3EBC253AA
:1007C80010DB01FA02FC634400FA02FCC2F12002C9
:1007D800BCF1004F20FA02F243EB020008BF20F000
:1007E8000100704702F1200201FA02FCC2F1200266
:1007F80050EA4C0021FA02F243EB020008BF20EA5B
:10080800DC7070474FF0FF0C1CEAD0521EBF1CEA88
:10081800D15392EA0C0F93EA0C0F6FD01A4480EA76
:10082800010C400218BF5FEA41211ED04FF000635F
:1008380043EA501043EA5111A0FB01310CF000408B
:10084800B1F5000F3EBF490041EAD3715B0040EAB1
:10085800010062F17F02FD2A1DD8B3F1004F40EB81
:10086800C25008BF20F00100704790F0000F0CF054
:10087800004C08BF49024CEA502040EA51207F3A18
:10088800C2BFD2F1FF0340EAC250704740F40000F3
:100898004FF00003013A5DDC12F1190FDCBF00F0E4
:1008A80000407047C2F10002410021FA02F1C2F192
:1008B800200200FA02FC5FEA310040F1000053EA2E
:1008C8004C0308BF20EADC70704792F0000F00F07C
:1008D800004C02BF400010F4000F013AF9D040EA82
:1008E8000C0093F0000F01F0004C02BF490011F416
:1008F800000F013BF9D041EA0C018FE70CEAD15314
:1009080092EA0C0F18BF93EA0C0F0AD030F0004C93
:1009180018BF31F0004CD8D180EA010000F0004047
:10092800704790F0000F17BF90F0004F084691F005
:10093800000F91F0004F14D092EA0C0F01D142023F
:100948000FD193EA0C0F03D14B0218BF084608D108
:1009580080EA010000F0004040F0FE4040F4000052
:10096800704740F0FE4040F4400070474FF0FF0CE5
:100978001CEAD0521EBF1CEAD15392EA0C0F93EA2C
:100988000C0F69D0A2EB030280EA010C49024FEA7E
:10099800402037D04FF0805343EA111143EA101337
:1009A8000CF000408B4238BF5B0042F17D024FF4EF
:1009B800000C8B4224BF5B1A40EA0C00B3EB510FCA
:1009C80024BFA3EB510340EA5C00B3EB910F24BFB3
:1009D800A3EB910340EA9C00B3EBD10F24BFA3EB38
:1009E800D10340EADC001B0118BF5FEA1C1CE0D100
:1009F800FD2A3FF650AF8B4240EBC25008BF20F0B3
:100A0800010070470CF0004C4CEA50207F32C2BF06
:100A1800D2F1FF0340EAC250704740F400004FF0A3
:100A28000003013A37E792F0000F00F0004C02BFD4
:100A3800400010F4000F013AF9D040EA0C0093F09E
:100A4800000F01F0004C02BF490011F4000F013BF8
:100A5800F9D041EA0C0195E70CEAD15392EA0C0F60
:100A680008D142027FF47DAF93EA0C0F7FF470AF98
:100A7800084676E793EA0C0F04D14B023FF44CAFDB
:100A880008466EE730F0004C18BF31F0004CCAD170
:100A980030F000427FF45CAF31F000437FF43CAFAC
:100AA8005FE700BF4FF0FF3C06E000BF4FF0010CCE
:100AB80002E000BF4FF0010C4DF804CD4FEA4002B0
:100AC8004FEA41037FEA226C18BF7FEA236C11D0FA
:100AD80001B052EA530C18BF90EA010F58BFB2EBAD
:100AE800030088BFC81738BF6FEAE17018BF40F02D
:100AF800010070477FEA226C02D15FEA402C05D1E1
:100B08007FEA236CE4D15FEA412CE1D05DF8040B65
:100B1800704700BF844608466146FFE70FB5FFF7F8
:100B2800C9FF002848BF10F1000F0FBD4DF808EDB0
:100B3800FFF7F4FF0CBF012000205DF808FB00BFA1
:100B48004DF808EDFFF7EAFF34BF012000205DF8FB
:100B580008FB00BF4DF808EDFFF7E0FF94BF012048
:100B680000205DF808FB00BF4DF808EDFFF7D2FF45
:100B780094BF012000205DF808FB00BF4DF808ED88
:100B8800FFF7C8FF34BF012000205DF808FB00BF55
:100B98004FEA4002B2F1FE4F0FD34FF09E03B3EB82
:100BA80012620DD94FEA002343F0004310F0004FC2
:100BB80023FA02F018BF404270474FF00000704718
:100BC80012F1610F01D1420205D110F0004008BFB7
:100BD8006FF0004070474FF0000070477BB972B962
:100BE8000029BEBF00204FF0004106E008BF0028E2
:100BF8001CBF6FF000414FF0FF3000F0BFB9ADF1FE
:100C0800080C6DE904CE002909DB002B1ADB00F083
:100C180035F8DDF804E0DDE9022304B0704740420E
:100C280061EB4101002B1BDB00F028F8DDF804E044
:100C3800DDE9022304B0404261EB4101524263EB1B
:100C480043037047524263EB430300F017F8DDF8A3
:100C580004E0DDE9022304B0404261EB4101704742
:100C6800524263EB430300F009F8DDF804E0DDE9E4
:100C7800022304B0524263EB430370472DE9F04767
:100C8800089D8E4604468846002B4AD18A4217465C
:100C980062D9B2FA82F64EB1C6F1200301FA06F81B
:100CA80020FA03F3B74043EA0808B4404FEA174E66
:100CB800B8FBFEF11FFA87FC0EFB118801FB0CF252
:100CC800230C43EA08439A4209D9FB1801F1FF3083
:100CD80080F0EB809A4240F2E88002393B449A1A4D
:100CE800B2FBFEF00EFB102200FB0CFCA3B243EAA1
:100CF80002439C4509D9FB1800F1FF3280F0D780E8
:100D08009C4540F2D4803B44023840EA014000212F
:100D1800A3EB0C031DB10022F340C5E90032BDE886
:100D2800F0878B4205D90DB1C5E9000100210846BD
:100D3800F5E7B3FA83F1002946D1734502D382421D
:100D480000F20881841A6EEB030201209046002D00
:100D5800E5D0C5E90048E2E7002A00F09180B2FA40
:100D680082F6002E40F0A5808A1A0121030C4FEA72
:100D7800174E80B2BCB2B2FBFEFC0EFB1C2243EA4B
:100D8800024304FB0CF29A4207D9FB180CF1FF3816
:100D980002D29A4200F2E380C4469B1AB3FBFEF2E9
:100DA8000EFB123302FB04F440EA03439C4207D9CA
:100DB800FB1802F1FF3002D29C4200F2CD800246BD
:100DC8001B1B42EA0C40A5E7C1F120068B4022FA22
:100DD80006F71F432EFA06FA4FEA1749BAFBF9F845
:100DE8000EFA01FE20FA06F309FB18AA1FFA87FC7F
:100DF80043EA0E0300FA01FE08FB0CF01C0C44EA5F
:100E08000A44A04202FA01F20AD93C1908F1FF3A51
:100E180080F09E80A04240F29B80A8F102083C44EA
:100E2800241A98B2B4FBF9F309FB134403FB0CFC36
:100E380040EA0444A44509D93C1903F1FF3080F085
:100E48008580A44540F28280023B3C4443EA084046
:100E5800A4EB0C04A0FB028C64454346E14664D332
:100E680061D05DB1BEEB030264EB090404FA06F637
:100E780022FA01F31E43CC40C5E9006400214EE785
:100E8800B1FBF2FC010C41EA0E4180B240EA01429A
:100E98003B46B1FBF7F138463C46B846BE462026ED
:100EA800A2EB080241EA0C4165E7014617E7104644
:100EB8002BE7C6F120012EFA01FCB7400EFA06FE18
:100EC80020FA01F141EA0E014FEA174EBCFBFEF889
:100ED800BCB20EFB18CC08FB04F90A0C42EA0C421F
:100EE800B04091454FEA104380B23ED9BA1808F194
:100EF800FF3C01D291451FD8A2EB0902B2FBFEF9D3
:100F080009FB04F80EFB192A8AB242EA0A42424552
:100F180029D2BA1809F1FF31C2D24245C0D2A9F18B
:100F280002013A44BCE7C6459BD2B8EB02036CEB1E
:100F3800070C0138E14694E7A7EB09094A44B2FBDC
:100F4800FEF9A8F1020C09FB04F8DBE703467DE78C
:100F5800D04665E70846FAE63B44023A30E7ACF18A
:100F6800020C3B4419E749469AE7A2EB0902B2FB97
:100F7800FEF9C44609FB04F8C4E700BF704700BF88
:100F8800034613F8012B002AFBD1181A01387047C1
:100F980070B54FF0FF0C4CF4E06C1CEA11541DBF07
:100FA8001CEA135594EA0C0F95EA0C0F00F0DEF8D2
:100FB8002C4481EA030621EA4C5123EA4C5350EAB7
:100FC800013518BF52EA033541F4801143F4801308
:100FD80038D0A0FB02CE4FF00005E1FB02E506F099
:100FE8000042E0FB03E54FF00006E1FB03569CF0EE
:100FF800000F18BF4EF0010EA4F1FF04B6F5007FF4
:1010080064F5407404D25FEA4E0E6D4146EB060665
:1010180042EAC62141EA55514FEAC52040EA5E50EE
:101028004FEACE2EB4F1FD0C88BFBCF5E06F1ED898
:10103800BEF1004F08BF5FEA500E50F1000041EBCF
:10104800045170BD06F0004646EA010140EA02007C
:1010580081EA0301B4EB5C04C2BFD4EB0C0541EA9E
:10106800045170BD41F480114FF0000E013C00F3B3
:10107800AB8014F1360FDEBF002001F0004170BDD7
:10108800C4F10004203C35DA0C341BDC04F11404F0
:10109800C4F1200500FA05F320FA04F001FA05F27C
:1010A80040EA020001F0004221F0004110EBD37049
:1010B80021FA04F642EB06015EEA430E08BF20EA75
:1010C800D37070BDC4F10C04C4F1200500FA04F318
:1010D80020FA05F001FA04F240EA020001F00041AA
:1010E80010EBD37041F100015EEA430E08BF20EA1D
:1010F800D37070BDC4F1200500FA05F24EEA020E65
:1011080020FA04F301FA05F243EA020321FA04F093
:1011180001F0004121FA04F220EA020000EBD3704A
:101128005EEA430E08BF20EAD37070BD94F0000F4A
:101138000FD101F00046400041EB010111F4801F7E
:1011480008BF013CF7D041EA060195F0000F18BF2F
:10115800704703F00046520043EB030313F4801F6B
:1011680008BF013DF7D043EA0603704794EA0C0F25
:101178000CEA135518BF95EA0C0F0CD050EA41063B
:1011880018BF52EA4306D1D181EA030101F00041B8
:101198004FF0000070BD50EA410606BF10461946E0
:1011A80052EA430619D094EA0C0F02D150EA0136EC
:1011B80013D195EA0C0F05D152EA03361CBF10462D
:1011C80019460AD181EA030101F0004141F0FE41CC
:1011D80041F470014FF0000070BD41F0FE4141F450
:1011E800780170BD70B54FF0FF0C4CF4E06C1CEA50
:1011F80011541DBF1CEA135594EA0C0F95EA0C0F05
:1012080000F0A7F8A4EB050481EA030E52EA0335BF
:101218004FEA013100F088804FEA03334FF08055E0
:1012280045EA131343EA12634FEA022245EA11150D
:1012380045EA10654FEA00260EF000419D4208BFBE
:10124800964244F1FD0404F5407402D25B084FEA6B
:101258003202B61A65EB03055B084FEA32024FF417
:1012680080104FF4002CB6EB020E75EB030E22BF74
:10127800B61A754640EA0C005B084FEA3202B6EB34
:10128800020E75EB030E22BFB61A754640EA5C00E3
:101298005B084FEA3202B6EB020E75EB030E22BF73
:1012A800B61A754640EA9C005B084FEA3202B6EB74
:1012B800020E75EB030E22BFB61A754640EADC0033
:1012C80055EA060E18D04FEA051545EA16754FEA95
:1012D80006164FEAC30343EA52734FEAC2025FEAB3
:1012E8001C1CC0D111F4801F0BD141EA00014FF042
:1012F80000004FF0004CB6E711F4801F04BF014313
:101308000020B4F1FD0C88BFBCF5E06F3FF6AFAE2E
:10131800B5EB030C04BFB6EB020C5FEA500C50F1BE
:10132800000041EB045170BD0EF0004E4EEA113141
:1013380014EB5C04C2BFD4EB0C0541EA045170BD48
:1013480041F480114FF0000E013C90E645EA060E8C
:101358008DE60CEA135594EA0C0F08BF95EA0C0FBA
:101368003FF43BAF94EA0C0F0AD150EA01347FF402
:1013780034AF95EA0C0F7FF425AF104619462CE7D9
:1013880095EA0C0F06D152EA03353FF4FDAE10463C
:10139800194622E750EA410618BF52EA43067FF48D
:1013A800C5AE50EA41047FF40DAF52EA43057FF41D
:1013B800EBAE12E74FF0FF3C06E000BF4FF0010C28
:1013C80002E000BF4FF0010C4DF804CD4FEA410C8C
:1013D8007FEA6C5C4FEA430C18BF7FEA6C5C1BD059
:1013E80001B050EA410C0CBF52EA430C91EA030FDA
:1013F80002BF90EA020F0020704710F1000F91EA37
:10140800030F58BF994208BF90422CBFD8176FEA04
:10141800E37040F0010070474FEA410C7FEA6C5CD2
:1014280002D150EA013C07D14FEA430C7FEA6C5CD9
:10143800D6D152EA033CD3D05DF8040B704700BF05
:101448008446104662468C461946634600E000BF53
:1014580001B5FFF7B7FF002848BF10F1000F01BD25
:101468004DF808EDFFF7F4FF0CBF012000205DF8F0
:1014780008FB00BF4DF808EDFFF7EAFF34BF012075
:1014880000205DF808FB00BF4DF808EDFFF7E0FF0E
:1014980094BF012000205DF808FB00BF4DF808ED5F
:1014A800FFF7CEFF94BF012000205DF808FB00BFC6
:1014B8004DF808EDFFF7C4FF34BF012000205DF8A8
:1014C80008FB00BF4FEA410C7FEA6C5C02D150EA8E
:1014D800013C0AD14FEA430C7FEA6C5C02D152EA24
:1014E800033C02D14FF0000070474FF001007047F5
:1014F80053B94AB9002908BF00281CBF4FF0FF3173
:101508004FF0FF30FFF73ABDADF1080C6DE904CE9E
:10151800FFF7B4FBDDF804E0DDE9022304B070470F
:1015280008B578B10A4BB3FBF0F30A480268591EB4
:10153800D162C1605B08D36301235361082103F0C2
:1015480073FD08BD0821034803F0E8FDF9E700BF73
:1015580040420F005C0D002008B50821014803F047
:10156800DDFD08BD5C0D002008B50821014803F029
:10157800D5FD08BD5C0D002010B50C46FFF7D0FF67
:10158800204602F081F9FFF7EFFF10BD01281BD8B4
:1015980070B50E4B53F820500D4B33F810600024F3
:1015A8000FE005EB8403997801EB810301EBC3039A
:1015B80001EB430189B235F82400FFF7DDFF013460
:1015C800A4B2B442EDD370BD704700BFDCA30008DD
:1015D800D8A300082DE9F04188B0002404940594AC
:1015E80006940794314B9A6942F020029A619A69ED
:1015F80002F020020092009A9A6942F004029A616D
:101608009A6902F004020192019A9A6942F008026A
:101618009A619A6902F008020292029A9A6942F063
:1016280010029A619B6903F010030393039BDFF890
:10163800808022460C21404602F0A8FB1D4D224620
:101648004FF44041284602F0A1FBF02304931A4BC3
:1016580005930126069604A9284602F07BFA0C2376
:101668000493059606940227079704A9404602F0BA
:1016780071FA4FF44043049305960694079704A91A
:10168800284602F067FA22460B210A2002F056F992
:101698000A2002F063F922460B21172002F04EF9C6
:1016A800172002F05BF908B0BDE8F0810010024095
:1016B800000C0140000801400000111008B50B485B
:1016C8000B4B03600B4B436000238360C3604FF4F4
:1016D8008042026143618361C361036202F0FCFCE2
:1016E80000B908BD00F092FAFBE700BF040700202C
:1016F80000540040801A060010B586B000230293FB
:101708000393049305930268154B9A4201D006B0DF
:1017180010BD144CA36943F00803A361A36903F047
:1017280008030093009B4FF4407302931223039322
:101738000323059302A90C4802F00CFA0B4A5368DC
:1017480043F0E06343F002035360E36943F400139A
:10175800E361E36903F400130193019BD7E700BF3A
:101768000054004000100240000C014000000140FD
:1017780000B5864690F800C0BCF10F0F2DD90121A5
:101788009EF801201309C3EB431003EB8003D80034
:1017980080B20CF00F03C3EB431C03EB8C0303EB89
:1017A800830300EB031080B29EF802C04FEA1C13BB
:1017B80003EB830E02F00F0303EB830303EB8303B6
:1017C8009B0003EB4E03184480B20CF00F0C6044EE
:1017D80080B201B140425DF804FB0021D0E700006F
:1017E80010B504460130FFF7C3FF002822DB174B72
:1017F8001860201DFFF7BCFF00281FDB144B186082
:10180800E01DFFF7B5FF00281CDB124B186004F140
:101818001300FFF7ADFF104B186004F11600FFF737
:10182800A7FF0E4B186004F11900FFF7A1FF0C4B3E
:10183800186010BD00F50C40A030D8E700F50C404A
:10184800A030DBE700F50C40A030DEE76C07002095
:101858006807002064070020600700205C0700205C
:101868005807002008B501220249034804F08BF804
:1018780008BD00BF910700207C10002008B50F4B61
:101888001A781AB90E4B1B78842B09D1531CDBB27A
:101898000A490B700A4908780A4988541C2B05D84C
:1018A80001220749084804F06EF808BD0846FFF70A
:1018B80097FF024B00221A70F2E700BF7007002062
:1018C80091070020740700207C10002008B54FF015
:1018D800FF3305220249034803F0EBFD08BD00BFB2
:1018E80074A400087C10002008B5002205210A20F5
:1018F80002F024F80A2002F031F80022052117200E
:1019080002F01CF8172002F029F808BD08B50023DA
:1019180009E000220649CA540649CA54064941F852
:1019280023200133DBB2032BF3D9FFF7DDFF08BD1A
:10193800A8070020A40700209407002003460328D6
:1019480007D8054A105C003818BF01200021D1547F
:1019580070470020704700BFA407002010B5044658
:1019680001F08CFF0023032B15D819460A4A32F8D8
:101978001320A24202D00133DBB2F4E7074A52F83F
:101988002330C31A092B06D942F821000123044A3F
:101998005354044A535410BD7CA4000894070020F3
:1019A800A8070020A40700200023114A1380114A29
:1019B800137001E00133DBB2072B0FD80E4AD25C5B
:1019C800002AF7D00D4AD25692B209490888024433
:1019D8000A8008490A7801320A70EBE7054B93F947
:1019E8000030062B02DD064B01221A70704700BF3B
:1019F800C0070020BE0700200C08002084A40008AF
:101A0800B0070020184BB3F90030184A92F90020AB
:101A180093FBF2F31BB2D900154802681A4402601E
:101A280042F21070824201DD114A1060104A1068BB
:101A3800104A904202DA0E4A0E4810600E4A1160AF
:101A4800B1F5004F02DB47F6FF7111600A4A1268D0
:101A580012F5004F02DA084A08491160084A138053
:101A6800054B1868704700BFC0070020BE0700205C
:101A7800B8070020F0D8FFFFB40700200080FFFF60
:101A8800BC07002010B50446FFF78EFFFFF7BAFF2A
:101A9800034B1A6810441860214601F003FE10BD7C
:101AA800AC070020014B1878704700BFB007002032
:101AB80010B5084B1A68084B1A600124074B1C70B4
:101AC800234600221146402001F09EFD044B1C7065
:101AD80010BD00BF64070020AC070020C20700202B
:101AE800D010002008B50020034B187001230246CF
:101AF800014601F089FD08BDC207002038B503780A
:101B0800242B22D14378442B1FD12C2104F029F90E
:101B18000024072C16DCA8B13A2104F022F9054666
:101B280080B1013003F042FFC3B2013B002BB8BFC4
:101B38005B42DBB2054A13552C21284604F011F903
:101B48000134E6E7024B01221A7038BD0C08002068
:101B58000908002010B582B00A4C01220A49204623
:101B680003F011FF094BEC4693E803008CE80300EF
:101B78004FF0FF3307226146204603F09AFC02B07B
:101B880010BD00BF34100020080800208CA40008F5
:101B980008B5114B1B78242B10D0104A12883F2A05
:101BA80004D8501C0D4908800D498B54232B09D0AB
:101BB800012209490B4803F0E6FE08BD074A002147
:101BC8001180EAE7054B1B88054A0021D154064BD2
:101BD80001221A70ECE700BF08080020C4070020A3
:101BE800C807002034100020C307002008B5054BA3
:101BF8001B7803B908BD034B00221A700248FFF78F
:101C08007DFFF7E7C3070020C807002072B6FEE78C
:101C180000B591B02822002106A804F09AF8002304
:101C280001930293039304930593012206924FF4C0
:101C3800803307930A9202220D920E934FF4E01319
:101C48000F9306A802F0F8FB80B90F230193022135
:101C58000291002303934FF480620492059301A834
:101C680002F01CFE20B911B05DF804FBFFF7CEFFAF
:101C7800FFF7CCFF08B501F0E3FDFFF7C9FFFFF759
:101C8800A9FCFFF71BFD01F00BF800F091FE00F036
:101C9800B7FE01F053F901F02BFA01F043FA01F015
:101CA8005BFA01F073FA01F08BFA01F0FBF801F02E
:101CB8009DF801F059F81F4802F064FF1E4802F031
:101CC80061FFC82001F0E0FD00F03CF901F09EF949
:101CD800FFF742FC00F02AFD00F032F8FFF716FE8D
:101CE800FFF7C0FDFFF736FF01F0A2FB012001F06E
:101CF800BBFB00F0DFFB00F0FFFC0DE00F4B012207
:101D08001A700120FFF71AFE60B90220FFF716FECD
:101D18000320FFF713FE40B90020FFF70FFE00284D
:101D2800EFD0EBE7FFF7D2FDEFE7044B01221A7083
:101D3800002008BDEC0D0020A40D0020D0100020CC
:101D480038B500240A4B1C700A4B1C702A252A46F9
:101D58002146094803F0FDFF2A462146074803F0BB
:101D6800F8FF01220649074803F00DFE38BD00BF01
:101D78007208002045080020740800204808002048
:101D880044080020A40F002038B5164B1A781AB959
:101D9800154B1B78232B10D1531CDBB211490B7048
:101DA8001149087811498854292B06D991F8293006
:101DB800212B08D00B4B00221A7001220A490C482B
:101DC80003F0E1FD38BD0B4C0D460FCD0FC40FCD10
:101DD8000FC495E8070003C42280074B01221A703C
:101DE800E8E700BF720800204408002074080020BB
:101DF800A40F002048080020450800200023254A99
:101E080005E032F8020B244921F813000133032BB3
:101E1800F7DD0020032831DC10B408E0033313E0B9
:101E28009B101E490B600432013003281ADC1C4940
:101E3800136841F820300B685B424C681B1B8C68A8
:101E48002344C9685B18E9D49B1016490B601449F0
:101E58000B684C681B1B8C682344C9685B1ADFD568
:101E68000333DDE7002305E052F8040B0E4941F87F
:101E780023000133032BF7DD10BC7047002305E076
:101E880052F8040B084941F823000133032BF7DD0E
:101E9800704700BF490800203C08002024080020A3
:101EA8002C080020280800201408002000B583B062
:101EB80002460B464FF0FF3100917821024802F0AC
:101EC800E9F903B05DF804FB0407002008B5034BEB
:101ED800587002211846FFF7E9FF08BD24090020C1
:101EE80008B54FF480620021014803F032FF08BDB5
:101EF8002809002038B5104B40221A70002418E039
:101F0800A4F15000C0B2FFF7E1FF0020FFF7DEFFA9
:101F18001020FFF7DBFF094D8022094901EBC411AE
:101F2800284603F09FFF8121681EFFF7BFFF013499
:101F3800E4B2072CE4D938BDA0080020A10800208D
:101F48002809002008B5AE20FFF7C0FF2020FFF7C2
:101F5800BDFF1020FFF7BAFFB020FFF7B7FFC8207A
:101F6800FFF7B4FF0020FFF7B1FF1020FFF7AEFF27
:101F78004020FFF7ABFF8120FFF7A8FFF020FFF715
:101F8800A5FFA120FFF7A2FFA620FFF79FFFA8202B
:101F9800FFF79CFF3F20FFF799FFA420FFF796FF6C
:101FA800D320FFF793FF0020FFF790FFD520FFF71E
:101FB8008DFFF020FFF78AFFD920FFF787FF222047
:101FC800FFF784FFDA20FFF781FF1220FFF77EFF7B
:101FD800DB20FFF77BFF2020FFF778FF8D20FFF73E
:101FE80075FF1420FFF772FFFFF77AFFFFF782FFF4
:101FF800AF20FFF76BFF08BD10F0800F1FD13F29FE
:102008001DD86AB9CA080E4B03EBC2131A5C01F05B
:1020180007014FF0010C0CFA01F10A431A547047FA
:10202800CB08074A02EBC31212F800C001F00701FF
:1020380001238B40DB435BB20CEA03031354704764
:102048002809002030B59DF8104007282FD811F036
:10205800800F2CD10CB1D243D2B29DF80C40013480
:10206800FF2505FA04F464B252B244EA020CC3F143
:10207800080E45FA0EF54CEA050C5FFA8CFC0C4D7F
:1020880085F800C00B4B03EBC010435C0CEA030C53
:1020980000F801C022EA04036FF0FF0242FA0EF2D0
:1020A8001340DBB22B704CEA030C00F801C030BDC2
:1020B8009F080020280900202DE9F04383B0064638
:1020C80090461C469DF82890CF0801F007052B4440
:1020D800082B1EDDAA40CDF80490072300932B4659
:1020E800D2B201463846FFF7ADFFC5F1080248FAFB
:1020F80002F22C44E4B2CDF80490093CE4B2009416
:102108000023D2B23146781CFFF79CFF03B0BDE82C
:10211800F083AA402C44E4B2CDF80490013CE4B228
:1021280000942B46D2B201463846FFF78BFFEDE705
:102138002DE9F04182B0064615469846CF0801F0D1
:102148000704A2400193072300932346D2B2014615
:102158003846FFF777FF14B902B0BDE8F081C4F143
:10216800080345FA03F2CDF80480013CE4B2009478
:102178000023D2B23146781CFFF764FFECE72DE963
:10218800F04F85B08046894692461E469DF8383005
:102198009DF83CB0DF0803F0070202920025039384
:1021A80012E006FB045209EBC40105EB08005B468C
:1021B8001AF80220C9B2C0B2FFF7BAFF0134E4B27C
:1021C800BC42EED30135EDB2B54201D20024F7E7A7
:1021D800039B029ABAB106FB07F700241D4610E0DC
:1021E8003A1925F00701494404EB0800CDF800B07E
:1021F800029B1AF80220C9B2C0B2FFF75DFF013492
:10220800E4B2B442ECD305B0BDE8F08F2DE9F04F4D
:1022180085B005460C4699469DF83870904224D002
:102228009046994234D0111A09B2181B002940DD92
:1022380001230193002840DD012302932DB224B22B
:102248000029B8BF49421FFA81FA09B20028B8BF6D
:1022580040421FFA80FB00B2814248DC0026CDF8DC
:102268000CB0DDF8088083464AE099420BD92E4A23
:1022780011701C46894606E03A4621462846FFF773
:10228800BBFE0134E4B2A145F6D205B0BDE8F08F3B
:1022980090420BD9244B18701546804606E03A4602
:1022A80021462846FFF7A8FE0135EDB2A845F6D22B
:1022B800EBE74FF0FF330193BCE74FF0FF33029396
:1022C800BCE74D442DB24545DFD03A46E1B2E8B20D
:1022D800FFF792FE5E44B3B236B2BAEB460FF0DCBB
:1022E800029A144424B2039A9B1A1EB2E9E7002604
:1022F800CDF80CA0DDF804908A46E4E7444424B203
:102308004C45C2D03A46E1B2E8B2FFF775FE5644F2
:10231800B3B236B2BBEB460FF0DC019A15442DB2CE
:10232800039A9B1A1EB2E9E79E08002070B582B096
:102338005D68203A1C7804F1070C4FEAEC0C5B78D6
:1023480003FB0CFC9DF81860019600940CFB0252EC
:10235800FFF715FF02B070BD2DE9F04182B00546C8
:102368000F4614461E469DF820800AE0CDF80080EE
:10237800334639462846FFF7D9FF70782844C5B256
:1023880001342278002AF1D102B0BDE8F081037847
:1023980090F90020002A0DDA03F0E002C02A0BD0E1
:1023A80003F0F002E02A09D003F0F803F02B07D07D
:1023B80000207047012070470220704703207047B3
:1023C800042070472DE9F04F87B00390049193469D
:1023D8001E469DF84030059333780733DB1096F896
:1023E800019003FB09F95FFA89F909F104095FFA19
:1023F80089F94FF0000A15E03378059A01920093A5
:1024080073782A1D0499039C2046FFF7B8FE737859
:102418002344DBB20393C2441FFA8AFA012300E083
:102428000023E3B10BEB0A071BF80A30002B3ED060
:102438003846FFF7ACFF8046002838D00024337AAE
:10244800A342EDD9756809FB04554246294638462A
:1024580003F06FFC0028CFD00134E4B2EFE7B8F105
:10246800010F11D0059B0093F36820220499039C67
:102478002046FFF75BFFF3685B782344DBB20393E6
:10248800D0441FFA88FACDE7059B0093F3681BF840
:102498000A200499039C2046FFF748FFF3685B78FD
:1024A8002344DBB20393C2441FFA8AFABAE707B09F
:1024B800BDE8F08F2DE9F04182B00120FFF766F802
:1024C8003221002000F040F9E121042000F03CF91D
:1024D80014E0714B01221A700120FFF72FFA00282F
:1024E80040F0D0800220FFF729FA002840F0CD8084
:1024F8000320FFF723FA002840F0CB80FFF7F0FC19
:10250800664D012600962B46654A00210420FFF7F8
:1025180059FF002400940E23802219462046FFF715
:1025280075FE604F00943B465F4A10212046FFF736
:1025380013FF00943B465D4A1C212046FFF70CFF21
:1025480000943B465A4A28212046FFF705FF00948D
:102558003B46584A34212046FFF7FEFE00942B469E
:10256800554A10211820FFF72DFF00942B46534A97
:102578001C211820FFF726FF00942B46504A2821DB
:102588001820FFF71FFF00962B464E4A34211820CB
:10259800FFF718FF00942B464B4A10214020FFF705
:1025A80011FF4A4B1B68DFF828814A4E4246282112
:1025B800304603F045FB00943B4632461021642028
:1025C800FFF7CAFE00942B46434A1C214020FFF720
:1025D800F9FE424B1868FEF7C1F84149FEF7C6F903
:1025E800FDF782FFCDE900013E4A2821304603F07D
:1025F80027FB00943B4632461C215820FFF7ACFECF
:1026080000942B46384A28214020FFF7DBFE374B41
:1026180093F9013042462821304603F011FB00941B
:102628003B46324628215820FFF796FE00942B4659
:102638002F4A34214020FFF7C5FE2E4A13785178DF
:10264800194493780B44D178194413790B44517980
:10265800194493790B44D2791344424628213046D1
:1026680003F0EEFA00943B46324634216420FFF72B
:1026780073FEFFF73FFC2046FFF760F900283FF4A0
:102688002BAF26E7FFF722F92CE70220FEF77EFFA3
:102698002EE702B0BDE8F081D010002020A5000888
:1026A80094A40008B8B10008B4A40008BCA40008A9
:1026B800C4A40008CCA40008D4A40008E0A400081E
:1026C8000CA50008ECA40008F4A4000828080020C1
:1026D800FCA40008280D002000A5000864070020BD
:1026E8000000C84208A5000810A50008540F0020E3
:1026F80018A500080C08002008B5012144F2506014
:1027080000F0D0FF01F04AF80028FBD100231A4658
:102718001946402000F078FFFFF7CAF9FFF7C2F921
:102728000028FBD0FFF7DEF9F8E7000010B5054CEC
:102738000021204602F078FC0421204602F074FCB7
:1027480010BD00BF340E0020B1F5877F01D94FF4CA
:1027580087714FF4FA6303FB01F10D4BA3FB0131C1
:10276800090A01F5FA7118B90A4B1B6859637047D1
:10277800042805D0082807D0064B1B681964704741
:10278800044B1B6899637047024B1B68D9637047F9
:1027980049D6B9F2340E002082B00A4B9A6942F049
:1027A80001029A619A6902F001020092009ADA69BC
:1027B80042F08052DA61DB6903F080530193019B98
:1027C80002B0704700100240FEE7FEE7FEE7FEE7B2
:1027D800FEE770477047704708B501F043F80C4AA8
:1027E800136801331360132B06DC0A4A136801339C
:1027F8001360132B06DC08BDFFF700FB044B002217
:102808001A60F2E7FFF7F2F9024B00221A60F2E7CA
:10281800540D0020500D002008B5102001F0BCFA1E
:1028280008BD08B5202001F0B7FA402001F0B4FA3D
:10283800802001F0B1FA08BD08B5024802F046FF51
:1028480008BD00BFA40F002008B5024802F03EFFF3
:1028580008BD00BF7C10002008B5024802F036FF12
:1028680008BD00BF3410002008B500F027FC02485E
:1028780002F0C9F908BD00BFEC0D002008B5094BEE
:102888001B7833B9084B1B783BB9084802F0BBF9F1
:1028980008BD0020FFF7F6F8F4E700F037FF00F076
:1028A80015FEF2E7C2070020D0100020A40D00207A
:1028B80008B500F0F7FB08BD08B50368094A93425C
:1028C80006D0094A934206D0084A934206D008BD6A
:1028D800FFF75AFAFBE7FFF75BF9F8E7FEF7CEFFD9
:1028E800F5E700BF0044004000500040004C0040A5
:1028F8000120704708B503F087FA162303604FF0EC
:10290800FF3008BD08B54FF0FF31FFF7F3FFFEE7D2
:1029180070B50C461646002506E0AFF30080214648
:1029280001F8010B01350C46B542F6DB304670BDA7
:1029380070B50C461646002504E014F8010BAFF3F9
:1029480000800135B542F8DB304670BD4FF0FF30EE
:1029580070474FF400534B600020704701207047C8
:102968000020704710B503460C4A0D490D48006811
:1029780040B10C4800680344521A934206D8094AE9
:10298800136010BD0748084C0460F2E703F03CFAF6
:102998000C2303604FF0FF30F3E700BF00C00020B6
:1029A80000040000580D0020F813002070470000B4
:1029B80000B583B00023009301930F480F4A0260CB
:1029C80047224260836042F20F73C36080238361B1
:1029D80002F01CFA50B90023009301936946064897
:1029E80002F0E2FB28B903B05DF804FBFFF70EF92B
:1029F800F1E7FFF70BF9F6E7EC0D002000100040B7
:102A080000B583B00023009301930F480F4A02607A
:102A180047224260836044F61F63C360802383615A
:102A280002F0F4F950B9002300930193694606486F
:102A380002F0BAFB28B903B05DF804FBFFF7E6F82B
:102A4800F1E7FFF7E3F8F6E7A40D002000140040D3
:102A580086B00368234A934216D0B3F1804F1FD043
:102A6800214A934228D0214A934230D0204A9342A7
:102A780014D1204B9A6942F400529A619B6903F47D
:102A880000530593059B09E01A4B9A6942F40062CA
:102A98009A619B6903F400630193019B06B0704738
:102AA80003F50433DA6942F00102DA61DB6903F005
:102AB80001030293029BF1E70E4BDA6942F002022E
:102AC800DA61DB6903F002030393039BE6E7094B32
:102AD800DA6942F00402DA61DB6903F00403049363
:102AE800049BDBE7002C0140000400400008004084
:102AF800003401400010024000B583B00368174A53
:102B0800934205D0164A934215D003B05DF804FBF2
:102B1800144BDA6942F01002DA61DB6903F0100342
:102B28000093009B00220121362000F007FF362089
:102B380000F014FFE9E70B4BDA6942F02002DA6192
:102B4800DB6903F020030193019B00220221372057
:102B580000F0F4FE372000F001FFD6E70010004037
:102B6800001400400010024000B58BB0002306930B
:102B78000793089309930368404A93420ED0B3F130
:102B8800804F20D03E4A934231D03E4A93424BD0A8
:102B98003D4A93425CD00BB05DF804FB3B4B9A690D
:102BA80042F004029A619B6903F004030193019BBC
:102BB8004FF41063069302230793099306A9344838
:102BC80000F0C8FFE7E703F504339A6942F004020E
:102BD8009A619B6903F004030293029B0223069304
:102BE8000793099306A92A4800F0B4FFD3E7274BB7
:102BF8009A6942F008029A619B6903F008030393FB
:102C0800039B3323069302230793099306A92148BC
:102C180000F0A0FF204A536823F4406343F0E063C8
:102C280043F400635360B6E7184B9A6942F0080210
:102C38009A619B6903F008030493049BC0230693DD
:102C480002230793099306A9124800F083FFA2E71D
:102C58000E4B9A6942F010029A619B6903F01003C7
:102C68000593059B4FF4407306930223079309933A
:102C780006A90A4800F06EFF8DE700BF002C01404E
:102C880000040040000800400034014000100240E9
:102C980000080140000C0140000001400010014004
:102CA80010B592B000241094119409940A940B94CE
:102CB8000C940D940E940F942022214601A803F041
:102CC80048F82748274B0360446084604FF6FF7339
:102CD800C36004614461846102F0C4F8002830D103
:102CE80000231093119310A91D4802F05DFA0028E3
:102CF8002AD16023099300220A920B920C920D921A
:102D08000E920F9209A9164802F010F9F8B90C2290
:102D180009A9134802F00AF9E0B9002301930293C4
:102D28000393049305934FF400520692089301A964
:102D38000B4802F077FA80B90948FFF715FF12B07F
:102D480010BDFEF763FFCBE7FEF760FFD1E7FEF7A4
:102D58005DFFDCE7FEF75AFFDFE7FEF757FFEBE71B
:102D68000C0F0020002C014000B58BB00023089305
:102D7800099301930293039304930593069307938E
:102D880019484FF0804202600222426083604FF48B
:102D98007A72C2600361836102F064F8D0B90023DB
:102DA8000893099308A9104802F0FEF9A8B960230E
:102DB8000193002302930393059304220DEB020170
:102DC800094802F0B3F858B90748FFF7CDFE0BB031
:102DD8005DF804FBFEF71AFFE1E7FEF717FFE6E7E9
:102DE800FEF714FFF0E700BFC40E002000B58BB05B
:102DF8000023089309930193029303930493059383
:102E0800069307932548264A0260436083604FF67D
:102E1800FF72C2600361836102F024F858BB00238B
:102E28000893099308A91D4802F0BEF930BB602336
:102E38000193002202920392059201A9174802F019
:102E480075F8F0B904220DEB0201144802F06EF88F
:102E5800D0B9082201A9114802F068F8B8B90C22C3
:102E680001A90E4802F062F8A0B90C48FFF77CFEF1
:102E78000BB05DF804FBFEF7C9FED0E7FEF7C6FE0F
:102E8800D5E7FEF7C3FEDDE7FEF7C0FEE1E7FEF794
:102E9800BDFEE4E7FEF7BAFEE7E700BF7C0E0020C0
:102EA8000004004000B58BB00023089309930193F8
:102EB8000293039304930593069307931D481E4AB0
:102EC800026047224260836044F61F62C260036169
:102ED800836101F0C7FF08BB00230893099308A981
:102EE800144802F061F9E0B96023019340F2DC5321
:102EF800029300220392059201A90E4802F016F8E7
:102F080090B904220DEB02010A4802F00FF870B9DB
:102F18000848FFF729FE0BB05DF804FBFEF776FEC4
:102F2800DAE7FEF773FEDFE7FEF770FEE9E7FEF784
:102F38006DFEEDE7340E00200008004010B592B099
:102F480000241094119409940A940B940C940D94F1
:102F58000E940F942022214601A802F0FAFE294877
:102F6800294B036047234360846040F2E733C36022
:102F7800046144618023836101F074FF002831D12A
:102F880000231093119310A91E4802F00DF9002890
:102F98002BD16023099300230A930B930C930D9371
:102FA8000E930F93082209A9164801F0BFFFF8B93C
:102FB8000C2209A9134801F0B9FFE0B900230193D5
:102FC80002930393049305934FF4005206920893D7
:102FD80001A90C4802F026F980B90A48FFF7C4FD98
:102FE80012B010BDFEF712FECAE7FEF70FFED0E7DB
:102FF800FEF70CFEDCE7FEF709FEDFE7FEF706FE4C
:10300800EBE700BF5C0D002000340140014B0022BB
:103018001A707047580F002030B49DF80850C0F15E
:10302800000C0C4C84F801C0C1F1000C84F802C0FB
:10303800E27023715DB14FF0010C064C84F805C0B5
:10304800054C20706170A270E37030BC70474FF07F
:10305800000CF2E704000020540F002008B5074BCD
:103068001B7843B9054B01221A700B220449054805
:1030780002F085FA08BD0220FCE700BF580F0020C7
:1030880004000020A40F002010B54042044CA07199
:103098004942E17122726372FFF7E0FF10BD00BF81
:1030A80004000020034B834200D07047024B0022EB
:1030B8001A70FAE7A40F0020580F002008B5002363
:1030C800032B09DC084A32F8132012B20749C95603
:1030D8008A4204D10133F3E7012313B108BD002369
:1030E800FBE7FFF7BBFFF9E73C080020540F00207F
:1030F80008B50A480A4B03604FF4E13343600023E4
:103108008360C36003610C2242618361C36102F082
:10311800A0F900B908BDFEF779FDFBE77C10002097
:10312800004C004008B50A480A4B03604FF4E133ED
:10313800436000238360C36003610C2242618361A2
:10314800C36102F086F900B908BDFEF75FFDFBE731
:10315800341000200050004008B50A480A4B0360AC
:103168004FF4E133436000238360C36003610C22A2
:1031780042618361C36102F06CF900B908BDFEF7D2
:1031880045FDFBE7EC0F00200038014008B50A4870
:103198000A4B03604FF4E133436000238360C3604C
:1031A80003610C2242618361C36102F052F900B9E4
:1031B80008BDFEF72BFDFBE7A40F002000440040EC
:1031C80008B50A480A4B03604FF4E1334360002313
:1031D8008360C36003610C2242618361C36102F0B2
:1031E80038F900B908BDFEF711FDFBE75C0F0020B8
:1031F8000048004030B591B000230C930D930E9316
:103208000F930368804A93420FD0804A93423ED07E
:103218007F4A934274D07F4A934200F09B807E4A53
:10322800934200F0C78011B030BD7C4BDA6942F49C
:103238000022DA61DA6902F400220192019A9A699D
:1032480042F010029A619B6903F010030293029BFB
:103258004FF480630C9302230D9303230F93704D57
:103268000CA9284600F076FC4FF400630C93002468
:103278000D940E940CA9284600F06CFC22462146B9
:10328800342000F05BFB342000F068FBCBE7634B95
:10329800DA6942F48012DA61DA6902F48012039280
:1032A800039A9A6942F010029A619A6902F0100230
:1032B8000492049A9A6942F020029A619B6903F089
:1032C80020030593059B4FF480530C9302230D9321
:1032D80003230F930CA9524800F03CFC04230C93E1
:1032E80000240D940E940CA94E4800F033FC22469D
:1032F8002146352000F022FB352000F02FFB92E715
:10330800464B9A6942F480429A619A6902F4804273
:103318000692069A9A6942F004029A619B6903F040
:1033280004030793079B4FF400730C9302230D9338
:1033380003230F933C4C0CA9204600F00BFC4FF4E0
:1033480080630C9300230D930E930CA9204600F084
:1033580001FC68E7314BDA6942F40032DA61DA6974
:1033680002F400320892089A9A6942F004029A61BB
:103378009B6903F004030993099B04230C9302231C
:103388000D9303230F93284D0CA9284600F0E2FB68
:1033980008230C9300240D940E940CA9284600F0E1
:1033A800D9FB22462146262000F0C8FA262000F044
:1033B800D5FA38E7194BDA6942F48022DA61DA691A
:1033C80002F480220A920A9A9A6942F008029A61E3
:1033D8009B6903F008030B930B9B4FF480630C93DA
:1033E80002230D9303230F93104C0CA9204600F0E1
:1033F800B1FB4FF400630C9300230D930E930CA9BB
:10340800204600F0A7FB0EE7004C004000500040AB
:1034180000380140004400400048004000100240CD
:10342800001001400014014000080140000C014058
:1034380008B50A4A536823F0E06343F00073536009
:1034480000224FF44041064800F0A0FC05480368FC
:1034580000229A63042101F0E7FD08BD0000014045
:1034680000080140C40E002010B578B101281AD117
:103478000D4C00224FF40041204600F087FC012249
:103488004FF48041204600F081FC0CE0064C0122FC
:103498004FF40041204600F079FC00224FF48041AF
:1034A800204600F073FC10BD0008014008B5431A1F
:1034B800A3EB020C0844811A104413445BB242B2D5
:1034C80049B24FFA8CF0FFF7DFFD08BD70B5454BE8
:1034D8001C68454B1B68E41A02E0A4F50C44A03CA8
:1034E80044F250639C42F8DC02E004F50C44A0343A
:1034F8003E4B9C42F9DBE21726463D48016843688B
:10350800611843EBE4730160436042F21170814239
:1035180073F1000305DB364B42F210700021C3E95A
:103528000001334B18685B68324988424FF0FF311D
:103538008B4105DA2E4B2F484FF0FF31C3E90001CC
:103548002D4B1D68651B910041EA9671B3009819CF
:1035580042EB0103DB0043EA5073C000801B63EBBE
:1035680002031B0143EA10730001801942EB0302B6
:10357800D20042EA5072C0001D4B1E6859684FEADB
:10358800810C4CEA967CB3009B1941EB0C01DB18CB
:103598004941C01842EB0102642305FB03F3C51837
:1035A80042EBE376154A4FF0FF3328463146FDF7E4
:1035B80015FB0246124B9D424FF0FF3376EB030397
:1035C80007DB104B9D4276F1000603DB6FF07E02AD
:1035D80000E07F22084B1C6000210846FFF766FFC9
:1035E80070BD00BFD410002064070020B0B9FFFFF1
:1035F800C8100020F0D8FFFFC41000206079FEFF3B
:1036080001B03CFF0050C30000B583B0A0EB010C33
:10361800ACEB020E0844811A1044944400934FFA0C
:103628008CF342B249B24FFA8EF0FFF7F5FC03B0C3
:103638005DF804FB02E0A0F50C40A03844F25063AA
:103648009842F8DC02E000F50C40A030014B9842AB
:10365800F9DB7047B0B9FFFF38B504464FF07C512D
:10366800FDF76EFA38B121462046FCF7C3FF214624
:10367800FDF7C8F838BD4FF040412046FDF7C2F8C5
:103688002146FDF7BFF805464FF081412046FDF77A
:10369800B9F801462846FCF7ADFF4FF07E51FCF71C
:1036A800A7FFE7E708B5124B1B781BB1114B1B6846
:1036B800834211D00F4B186079B10F4B1B680F4A2A
:1036C8001360C01AFFF7B6FF0D4B18600D4B0022B0
:1036D8001A80074B01221A7008BD054B00221A7088
:1036E800094B1A88074B1A80034B1860F4E700BF90
:1036F800DC100020D8100020D4100020E410002096
:10370800E0100020DE10002010000020F8B51D4B4E
:103718001B78002B35D01C4B1C882046FDF71AF867
:1037280005461A4B1E883046FDF714F80146284610
:10373800FDF71CF905464FF07E51FDF71FFA08B159
:103748004FF07E552846FFF787FF0546104B1F6848
:103758003846FDF703F82946FDF754F8FDF718FA3F
:103768000C4B1B6818440C4A10600134A4B2064A7A
:103778001480A64205D8034A002111701F44064B45
:103788001F60F8BDDC100020DE10002010000020B3
:10379800E0100020E4100020D4100020014B18781D
:1037A800704700BFDC100020FFF700F90B480C49F8
:1037B8000C4A002302E0D458C4500433C4188C4285
:1037C800F9D3094A094C002301E013600432A242EC
:1037D800FBD302F01FFBFEF74DFA704700000020F4
:1037E800E8060020FCB90008E8060020F8130020CD
:1037F800FEE7000010B504460E4B1A784FF47A73B2
:10380800B3FBF2F30C4A1068B0FBF3F000F0B4F825
:1038180068B90F2C01D901200AE0002221464FF097
:10382800FF3000F08BF8054B1C60002000E0012001
:1038380010BD00BF1200002000000020140000206E
:1038480008B5074A136843F010031360032000F01B
:1038580063F80F20FFF7CEFFFEF79EFF002008BD9C
:1038680000200240034A1168034B1B780B44136085
:10387800704700BFE810002012000020014B1868B4
:10388800704700BFE810002038B50446FFF7F6FF80
:103898000546B4F1FF3F02D0044B1B781C44FFF7E8
:1038A800EDFF401BA042FAD338BD00BF1200002034
:1038B800002808DB0901C9B200F1604000F5614049
:1038C80080F80013704700F00F000901C9B2014BDE
:1038D8001954704714ED00E000B500F00700C0F17E
:1038E800070CBCF1040F28BF4FF0040C031D062B76
:1038F8000FD9C31E4FF0FF3E0EFA0CF021EA00016B
:1039080099400EFA03FE22EA0E0241EA02005DF82F
:1039180004FB0023EEE70000074AD36823F4E063C2
:103928001B041B0C000200F4E060034343F0BF6378
:1039380043F40033D360704700ED00E010B504464F
:10394800054BD868C0F30220FFF7C6FF01462046A2
:10395800FFF7AEFF10BD00BF00ED00E0002807DB59
:1039680000F01F02400901239340024A42F8203028
:10397800704700BF00E100E00138B0F1807F0BD252
:103988004FF0E0235861054AF02182F82310002007
:10399800986107221A6170470120704700ED00E026
:1039A800034690F82120D2B2022A06D0042282636C
:1039B800002280F820200120704701680A6822F060
:1039C8000E020A6001680A6822F001020A60026CAD
:1039D800C06B012101FA02F2426083F82110002035
:1039E80083F820007047000008B590F82130DBB25A
:1039F800022B03D004238363012008BD02681368E7
:103A080023F00E0313600268136823F001031360A8
:103A180003684C4A93424ED9783A934224D01432E0
:103A2800934230D0143293422FD0143293422FD085
:103A3800143293422FD0143293422FD0143293422F
:103A48002FD002F5627293422ED0143293422DD0B9
:103A5800143293422CD01432934202D04FF4803265
:103A680003E04FF4805200E00122374B5A600123F3
:103A780080F82130002380F82030436B002B5ED083
:103A880098470020B9E71022EFE74FF48072ECE77F
:103A98004FF48052E9E74FF48032E6E74FF48012A2
:103AA800E3E74FF08072E0E70122DEE71022DCE76F
:103AB8004FF48072D9E7254A934224D014329342B6
:103AC80025D01432934224D01432934224D0143295
:103AD800934224D01432934224D01432934224D0F7
:103AE80002F56272934223D01432934222D01432E8
:103AF800934221D01432934202D04FF4803203E033
:103B08004FF4805200E00122114B5A60AFE71022B7
:103B1800FAE74FF48072F7E74FF48052F4E74FF476
:103B28008032F1E74FF48012EEE74FF08072EBE756
:103B38000122E9E71022E7E74FF48072E4E700206A
:103B48005BE700BF8000024000040240080002401A
:103B58000000024070B582B00024A446ABE0854D59
:103B6800AB4214D00CD8A5F58015AB420FD005F5A3
:103B78007025AB420BD0A5F58015AB4210D106E0FD
:103B88007D4DAB4203D005F58035AB4208D18B683B
:103B9800002B5AD0012B53D04261082400E0CC6896
:103BA800BEF1FF0F53D806464FEA8C0233680F2543
:103BB800954023EA050304FA02F2134333604B6885
:103BC80013F0805F75D06D4B9A6942F001029A61DB
:103BD8009B6903F001030193019B4FEA9C02951C2A
:103BE800674B53F825600CF00305AD000F23AB407D
:103BF80026EA0306634B984230D003F58063984267
:103C080000F0968003F58063984200F0938003F5F6
:103C18008063984200F0908003F58063984200F03A
:103C28008D8003F58063984216D0062317E0CC6890
:103C38000434B5E7CC680834B2E7CC680C34AFE795
:103C480002610824ACE70024AAE70424A8E7061DBB
:103C5800ACF108029200A9E7052300E00023AB407D
:103C680033430232464D45F822304B6813F4801F27
:103C780066D0454A936843EA0E0393604B6813F491
:103C8800001F63D0404AD36843EA0E03D3604B68F1
:103C980013F4003F60D03C4A536843EA0E03536074
:103CA8004B6813F4803F5DD0374A136843EA0E032C
:103CB80013600CF1010C0B6833FA0CF258D0012296
:103CC80002FA0CF203EA020E32EA0303F1D14B685E
:103CD800122B3FF644AF122B3FF662AF01A555F801
:103CE80023F000BF973B0008A73B00083D3C0008B5
:103CF8004F3C0008A93B0008A93B0008A93B000865
:103D0800A93B0008A93B0008A93B0008A93B0008FB
:103D1800A93B0008A93B0008A93B0008A93B0008EB
:103D2800A93B0008A93B0008373C0008433C0008B1
:103D3800012394E7022392E7032390E704238EE705
:103D4800114A936823EA0E03936097E70E4AD368F3
:103D580023EA0E03D3609AE70B4A536823EA0E035B
:103D680053609DE7084A136823EA0E031360A0E72F
:103D780002B070BD00002210000031100010024097
:103D88000000014000080140000401400AB101613F
:103D9800704709040161704708B5054B5B69034228
:103DA80000D108BD024B5861FDF7D8FDF9E700BF07
:103DB8000004014003685A6912F4806F01D10020A1
:103DC80070476FF480625A6100230363202280F8F1
:103DD8003D2080F83E30026C42F00402026480F814
:103DE8003C30012070472DE9F04106460C46174645
:103DF80098463BE0FFF742FD069BC01A404502D8B3
:103E0800B8F1000F32D1012D18D033689B6924EA2C
:103E180003039BB2B3FA83F35B099F4226D10023C5
:103E28003363202286F83D2086F83E30326C42F01B
:103E38002002326486F83C30012027E033685B6951
:103E480024EA03039BB2B3FA83F35B09E5E733681B
:103E58005B6924EA030C1FFA8CFCBCFA8CFC4FEA61
:103E68005C1C674511D1B8F1FF3FC3D1C4F30745C6
:103E7800012DECD033689B6924EA030C1FFA8CFCF3
:103E8800BCFA8CFC4FEA5C1CEBE70020BDE8F08133
:103E98002DE9F84305460E469046994653E01A68C0
:103EA80042F400721A602B686FF480625A61002332
:103EB8002B63202285F83D2085F83E302A6C42F09D
:103EC80004022A6485F83C3001204AE0FFF7D6FC5A
:103ED800A0EB0900404502D8B8F1000F33D1012FFB
:103EE80017D02B689B6926EA03039BB2003B18BFD7
:103EF800012343B300232B63202285F83D2085F856
:103F08003E302A6C42F020022A6485F83C300120B9
:103F180027E02B685B6926EA03039BB2003B18BFC6
:103F28000123E6E72B689C6926EA0404A4B2003C56
:103F380018BF0124A4B12B685A6912F4806FAED15E
:103F4800B8F1FF3FC2D1C6F30747012FEAD12B686A
:103F58005C6926EA0404A4B2003C18BF0124E9E71E
:103F68000020BDE8F8830000F0B583B004460D4694
:103F780016461F46C36A082B0DD0012B0BD013F52C
:103F8800803F08D0036B122B0AD10268136843F4F0
:103F98008073136004E02268136843F4807313602D
:103FA8000097334600224FF001112046FFF71BFF10
:103FB80080B92369B3F5804F16D1236805F0FE0553
:103FC8001D613B46324613492046FFF761FFF8B9A9
:103FD80003B0F0BD23681B6813F4807F02D04FF450
:103FE800007323640320F3E7EB11226803F0060350
:103FF80043F0F00313613B46324607492046FFF77A
:1040080047FF18B92368EDB21D61DAE70120DFE741
:104018000120DDE7020001000800010070B5044638
:104028000D46164623685B6913F0800F21D12046A0
:10403800FFF7C0FEF8B9B5F1FF3FF3D0FFF71EFC5C
:10404800801BA84201D8002DECD123685B6913F0CE
:10405800800FE7D100232363202284F83D2084F8D1
:104068003E30226C42F02002226484F83C30012069
:1040780000E0002070BD0120FCE770B504460D4645
:10408800164623685B6913F0040F21D12046FFF719
:1040980091FEF8B9B5F1FF3FF3D0FFF7EFFB801BB6
:1040A800A84201D8002DECD123685B6913F0040FF6
:1040B800E7D100232363202284F83D2084F83E3092
:1040C800226C42F02002226484F83C30012000E097
:1040D800002070BD0120FCE7002800F0CC8070B5FE
:1040E800044690F83D30002B77D0242384F83D30E7
:1040F8002268136823F0010313602268136843F4ED
:10410800004313602268136823F40043136000F02F
:1041180081FC62685A4B9A4264D85A4B98428CBFC9
:1041280000230123002B40F0A8805749A1FB003150
:104138008B0C25686A6822F03F0242EA91426A6065
:1041480021680A6A22F03F0266684D4DAE424FD898
:10415800013313430B622168CA6922F44F4222F0EB
:10416800FF026568464B9D424CD8431E6D00B3FB69
:10417800F5F3013340F6FC70034278D0C3F30B0328
:104188001A43CA6121680B6823F0C003E269206AF8
:10419800024313430B6021688B6823F4034323F025
:1041A800FF032269E068024313438B602168CB68F0
:1041B80023F0FF036269A06902431343CB602268BE
:1041C800136843F00103136000202064202384F85F
:1041D8003D30206384F83E0070BD80F83C30FDF728
:1041E8008BFA82E7294B98428CBF0023012399E779
:1041F8004FF4967505FB03F3254DA5FB03539B0967
:104208000133A6E7A668BEB9431E05EB450CB3FB10
:10421800FCF30133C3F30B03B3FA83F35B0943BB2A
:10422800C6B9431E05EB4505B3FBF5F30133C3F3EC
:104238000B0343F40043A3E7431E05EB850C0CEB8B
:104248008C0CB3FBFCF30133C3F30B03B3FA83F316
:104258005B09E4E7431E05EB850505EB8505B3FB24
:10426800F5F30133C3F30B0343F4404388E7042316
:1042780086E7012384E7012070470120ACE700BFEF
:10428800A08601007F841E0083DE1B43FF083D00DB
:10429800D34D62102DE9F04385B004460F46914690
:1042A80098460C9EFFF7EAFA054694F83D00C0B21E
:1042B800202804D00227384605B0BDE8F0830095D1
:1042C800192301224F492046FFF78DFD002840F0B1
:1042D800928094F83C30012B00F08F80012384F801
:1042E8003C3023681A6812F0010F03D11A6842F0B3
:1042F80001021A602268136823F400631360212303
:1043080084F83D30102384F83E3000232364C4F839
:104318002490A4F82A80638D23853B4BE3622B46C7
:10432800324639462046FFF71FFE0746002866D169
:104338000023039323685A6903929B690393039BA1
:1043480011E0236C042B01D00127B4E7226813681D
:1043580043F400731360F7E72A4631462046FFF717
:104368008CFE00282ED1238D002B36D02A463146CC
:104378002046FFF753FE0028E3D1626A23681278CB
:104388001A61606A431C6362618D89B2013989B21E
:104398006185238D013B9BB223852268516911F009
:1043A800040FD9D0002BD7D043781361636A013347
:1043B8006362638D9BB2013B9BB26385238D013B96
:1043C8002385C9E7236C042B01D0012773E72268F2
:1043D800136843F400731360F7E72268136843F423
:1043E80000731360202384F83D30002384F83E30A6
:1043F80084F83C305FE702275DE702275BE7012787
:1044080059E700BF020010000000FFFF82B0084B10
:104418001B68084AA2FB03235B0A00FB03F3019312
:1044280000BF019B5A1E0192002BF9D102B07047C0
:1044380000000020D34D6210002800F0F18170B513
:1044480082B00446036813F0010F2CD0994B5B68C7
:1044580003F00C03042B1DD0964B5B6803F00C0390
:10446800082B12D06368B3F5803F41D0002B55D19B
:1044780003F1804303F504331A6822F480321A608A
:104488001A6822F480221A6037E08A4B5B6813F4BA
:10449800803FE7D0874B1B6813F4003F03D0636865
:1044A800002B00F0BF81236813F0020F75D0814BF9
:1044B8005B6813F00C0F5FD07E4B5B6803F00C0356
:1044C800082B54D02369002B00F08A807A4B0122F4
:1044D8001A60FFF7D3F90546764B1B6813F0020FF5
:1044E80075D1FFF7CBF9401B0228F5D903209EE1CF
:1044F800704A136843F480331360636843B3FFF76B
:10450800BDF905466B4B1B6813F4003FCBD1FFF791
:10451800B5F9401B6428F5D9032088E1B3F5A02F2D
:1045280009D0644B1A6822F480321A601A6822F49F
:1045380080221A60E1E703F18043A3F53C331A684F
:1045480042F480221A601A6842F480321A60D4E772
:10455800FFF794F90546574B1B6813F4003FA2D0A8
:10456800FFF78CF9401B6428F5D903205FE1514B14
:104578005B6813F4803FA5D14E4B1B6813F0020F04
:1045880003D02369012B40F04F814A4A136823F076
:10459800F803616943EAC1031360236813F0080F45
:1045A80033D0A369002B5CD0434B0122C3F880248D
:1045B800FFF764F905463F4B5B6A13F0020F21D100
:1045C800FFF75CF9401B0228F5D903202FE1394A8F
:1045D800136823F0F803616943EAC1031360DCE759
:1045E800354B00221A60FFF749F90546314B1B6825
:1045F80013F0020FD1D0FFF741F9401B0228F5D97B
:10460800032014E10120FFF701FF236813F0040FD2
:1046180000F09680274BDB6913F0805F34D1254B7F
:10462800DA6942F08052DA61DB6903F08053019362
:10463800019B0125214B1B6813F4807F26D0E3687A
:10464800012B3DD0002B53D103F1804303F50433F4
:104658001A6A22F001021A621A6A22F004021A6225
:1046680033E0154B0022C3F88024FFF707F905460D
:10467800104B5B6A13F0020FC7D0FFF7FFF8401B1F
:104688000228F5D90320D2E00025D3E70B4A1368A6
:1046980043F480731360FFF7F1F80646074B1B6875
:1046A80013F4807FCBD1FFF7E9F8801B6428F5D994
:1046B8000320BCE0001002400000424200700040AD
:1046C8005F4A136A43F001031362E36833B3FFF7E9
:1046D800D5F806465A4B1B6A13F0020F2FD1FFF785
:1046E800CDF8801B41F288339842F3D903209EE02D
:1046F800052B09D0524B1A6A22F001021A621A6A73
:1047080022F004021A62E0E74D4B1A6A42F00402F2
:104718001A621A6A42F001021A62D6E7FFF7AEF887
:104728000646474B1B6A13F0020F08D0FFF7A6F89E
:10473800801B41F288339842F3D9032077E0E5B92A
:10474800E369002B72D03E4A526802F00C02082A34
:1047580056D0022B17D03B4B00221A66FFF78EF873
:104768000446374B1B6813F0007F47D0FFF786F8E5
:10477800001B0228F5D9032059E0314AD36923F0F8
:104788008053D361DCE72F4B00221A66FFF776F8D7
:1047980005462B4B1B6813F0007F06D0FFF76EF819
:1047A800401B0228F5D9032041E0236AB3F5803F76
:1047B8001AD023494B6823F47413226A606A0243AF
:1047C80013434B601F4B01221A66FFF757F8044644
:1047D8001B4B1B6813F0007F0ED1FFF74FF8001B2F
:1047E8000228F5D9032022E0154A536823F4003340
:1047F800A1680B435360DCE7002018E0002016E0B6
:10480800012B16D00E4B5B6803F48031226A91426B
:1048180011D103F47013626A93420ED1002006E0AE
:1048280001207047012002E0012000E0002002B0D2
:1048380070BD0120FBE70120F9E70120F7E700BF81
:1048480000100240000042420F4B5B6803F00C026C
:10485800082A01D00D487047C3F383420C49885C8D
:1048680013F4803F0BD0084B5B68C3F34043094AFD
:10487800D35C064A02FB00F0B0FBF3F07047064B2E
:1048880003FB00F0704700BF0010024000127A00DE
:1048980050B600084CB6000800093D00002800F09A
:1048A800A08070B50D460446524B1B6803F0070301
:1048B8008B420BD24F4A136823F007030B43136054
:1048C800136803F007038B4240F08D80236813F0D0
:1048D800020F17D013F0040F04D0474A536843F46B
:1048E800E0635360236813F0080F04D0424A53680A
:1048F80043F460535360404A536823F0F003A168BF
:104908000B435360236813F0010F31D06368012B08
:1049180020D0022B25D0384A126812F0020F64D03A
:1049280035494A6822F0030213434B60FEF7A6FF9D
:104938000646314B5B6803F00C036268B3EB820FE9
:1049480016D0FEF79BFF801B41F288339842F0D9BE
:10495800032045E0284A126812F4003FE0D1012004
:104968003EE0254A126812F0007FD9D1012037E0D5
:10497800204B1B6803F00703AB420AD91D4A136892
:1049880023F007032B431360136803F00703AB42BC
:104998002DD1236813F0040F06D0174A536823F467
:1049A800E063E1680B435360236813F0080F07D0F6
:1049B800114A536823F46053216943EAC1035360E1
:1049C800FFF742FF0C4B5B68C3F303130B4AD35C3E
:1049D800D8400B4B18600B4B1868FEF70BFF0020F4
:1049E80070BD012070470120FAE70120F8E7012097
:1049F800F6E700BF00200240001002403CB6000865
:104A08000000002014000020014B1868704700BF08
:104A18000000002008B5FFF7F7FF044B5B68C3F3FD
:104A28000223034AD35CD84008BD00BF00100240EF
:104A380034B6000808B5FFF7E7FF044B5B68C3F31B
:104A4800C223034AD35CD84008BD00BF001002400F
:104A580034B6000830B4036A026A22F00102026226
:104A68004268846924F0730C0C6844EA0C0423F04F
:104A7800020C8B6843EA0C03114DA84203D005F5DC
:104A88000065A84205D123F00803CD682B4323F025
:104A980004030B4DA84203D005F50065A84207D1D1
:104AA80022F440724D6945EA020C8A6942EA0C0216
:104AB800426084614A684263036230BC704700BF49
:104AC800002C014030B4036A026A22F48072026248
:104AD8004268C46924F0730C0C6844EA0C0523F49A
:104AE80000738C6843EA0423114CA04203D004F5F8
:104AF8000064A04206D123F40063CC6843EA04238F
:104B080023F480630A4CA04203D004F50064A04259
:104B180007D122F440524C6942EA04128C6942EAF5
:104B280004124260C5614A68C263036230BC7047C0
:104B3800002C014030B4036A026A22F480520262F7
:104B48004468C26922F4E6420D6842EA052223F469
:104B580000538D6843EA0533094DA84203D005F593
:104B68000065A84204D124F480444D6944EA8514C0
:104B78004460C2614A680264036230BC704700BF87
:104B8800002C014090F83D30DBB2012B2FD10223DD
:104B980080F83D300268D36843F00103D3600368AE
:104BA800154A934218D002F50062934214D0B3F12B
:104BB800804F11D0A2F5983293420DD002F5806251
:104BC800934209D002F58062934205D01A6842F0F8
:104BD80001021A60002070479A6802F00702062A4C
:104BE80007D01A6842F001021A60002070470120BD
:104BF80070470020704700BF002C01407047704785
:104C080070477047704770B504460368DE681D69D1
:104C180015F0020F10D016F0020F0DD06FF002023F
:104C28001A610123037703689B6913F0030F5ED0B1
:104C3800FFF7E6FF0023237715F0040F12D016F0D4
:104C4800040F0FD023686FF004021A610223237740
:104C580023689B6913F4407F4FD02046FFF7D0FFAD
:104C68000023237715F0080F12D016F0080F0FD085
:104C780023686FF008021A61042323772368DB692D
:104C880013F0030F40D02046FFF7BAFF0023237725
:104C980015F0100F12D016F0100F0FD023686FF018
:104CA80010021A61082323772368DB6913F4407F15
:104CB80031D02046FFF7A4FF0023237715F0010F1A
:104CC80002D016F0010F2DD115F0800F02D016F08A
:104CD800800F2FD115F0400F02D016F0400F31D1C0
:104CE80015F0200F02D016F0200F33D170BDFFF75A
:104CF80086FF2046FFF785FF9CE72046FFF77FFFEA
:104D08002046FFF77EFFABE72046FFF778FF2046F7
:104D1800FFF777FFBAE72046FFF771FF2046FFF756
:104D280070FFC9E723686FF001021A612046FFF798
:104D380065FFC9E723686FF080021A61204600F01A
:104D48009BFAC7E723686FF040021A612046FFF715
:104D580059FFC5E723686FF020021A61204600F06A
:104D68008AFAC3E70368284A904212D002F5006223
:104D780090420ED0B0F1804F0BD0A2F598329042FD
:104D880007D002F58062904203D002F5806290421B
:104D980003D123F070034A6813431B4A904212D090
:104DA80002F5006290420ED0B0F1804F0BD0A2F510
:104DB8009832904207D002F58062904203D002F503
:104DC8008062904203D123F44073CA68134323F0EE
:104DD80080034A69134303608B68C3620B6883626C
:104DE800094B984203D003F50063984201D10B693F
:104DF800036301234361036913F0010F03D00369BF
:104E080023F0010303617047002C014040B310B543
:104E1800044690F83D30F3B1022384F83D30214632
:104E280051F8040BFFF79EFF012384F8463084F8FD
:104E38003E3084F83F3084F8403084F8413084F8BC
:104E4800423084F8433084F8443084F8453084F89C
:104E58003D30002010BD80F83C30FDF74DFEDBE70B
:104E68000120704740B310B5044690F83D30F3B1C7
:104E7800022384F83D30214651F8040BFFF772FFF6
:104E8800012384F8463084F83E3084F83F3084F8B3
:104E9800403084F8413084F8423084F8433084F854
:104EA800443084F8453084F83D30002010BD80F847
:104EB8003C30FDF7CDFDDBE70120704730B4036AD5
:104EC800026A22F0100202624468826922F4E64211
:104ED8000D6842EA052223F020038D6843EA051392
:104EE800114DA84203D005F50065A84206D123F06C
:104EF8008003CD6843EA051323F040030A4DA84216
:104F080003D005F50065A84207D124F440644D6933
:104F180044EA85048D6944EA8504446082614A68EC
:104F28008263036230BC7047002C014038B590F8AA
:104F38003C30012B66D004460D46012380F83C30F6
:104F48000C2A5AD8DFE802F0075959591B59595900
:104F58003059595944000068FFF77CFD226893696D
:104F680043F0080393612268936923F00403936173
:104F78002268936929690B43936100203EE0006829
:104F8800FFF79CFF2268936943F4006393612268EA
:104F9800936923F48063936122689369296943EADA
:104FA80001239361002029E00068FFF78BFD226848
:104FB800D36943F00803D3612268D36923F004035B
:104FC800D3612268D36929690B43D361002015E0B6
:104FD8000068FFF7AFFD2268D36943F40063D3612B
:104FE8002268D36923F48063D3612268D36929696D
:104FF80043EA0123D361002000E00120002384F864
:105008003C3038BD0220FCE701F01F014FF0010CD5
:105018000CFA01FC036A23EA0C030362036A8A4060
:10502800134303627047000010B504460846002980
:105038003AD194F83E30DBB2013B18BF0123002B74
:1050480066D1002849D1022384F83E300122014666
:105058002068FFF7D9FF23682F4A934203D002F54F
:105068000062934203D15A6C42F400425A642368A6
:10507800294A934241D002F5006293423DD0B3F1F0
:10508800804F3AD0A2F59832934236D002F580622A
:10509800934232D002F5806293422ED01A6842F0D1
:1050A80001021A60002032E0042908D008290DD036
:1050B80094F84130DBB2013B18BF0123BFE794F8F5
:1050C8003F30DBB2013B18BF0123B8E794F840300A
:1050D800DBB2013B18BF0123B1E7042805D008283B
:1050E80007D0022384F84130B0E7022384F83F3028
:1050F800ACE7022384F84030A8E79A6802F0070278
:10510800062A07D01A6842F001021A60002010BD72
:105118000120FCE70020FAE7002C014038B50446DE
:105128000D4600220068FFF76FFF23681D4A93426F
:1051380018D002F50062934214D02368196A41F22C
:105148001112114208D1196A40F24442114203D1A6
:105158001A6822F001021A609DB9012384F83E30D2
:10516800002038BD196A41F211121142E5D1196ABD
:1051780040F244421142E0D15A6C22F400425A648F
:10518800DBE7042D05D0082D07D0012384F8413032
:10519800E6E7012384F83F30E2E7012384F8403052
:1051A800DEE700BF002C014090F83C20012A34D0F3
:1051B80010B40346012280F83C20022280F83D20EA
:1051C80002685068946820F0700C086840EA0C0087
:1051D80050601A681248824212D000F5006082427C
:1051E8000ED0B2F1804F0BD0A0F59830824207D094
:1051F80000F58060824203D000F58060824204D1CD
:1052080024F08004496821439160012283F83D20FD
:10521800002083F83C0010BC70470220704700BF94
:10522800002C0140024690F83C30012B21D001238C
:1052380080F83C30CB6823F440738868034323F438
:1052480080634868034323F400630868034323F436
:1052580080530869034323F400534869034323F444
:105268008043C9690B4311684B64002082F83C00F5
:1052780070470220704770477047026802F10C03BC
:1052880053E8003F23F490730C3242E800310029C0
:10529800F3D1026802F1140353E8003F23F001033D
:1052A800143242E800310029F3D1036B012B05D0F9
:1052B800202380F84230002303637047026802F11C
:1052C8000C0353E8003F23F010030C3242E800318E
:1052D8000029F3D1ECE790F84130DBB2212B01D063
:1052E800022070478368B3F5805F17D0036A5A1CA1
:1052F80002621A7803685A60C38C9BB2013B9BB266
:10530800C3844BB90268D36823F08003D360026872
:10531800D36843F04003D360002070470369002B33
:10532800E4D1036A1B880268C3F308035360036A65
:1053380002330362E0E7000010B50446026813690F
:1053480023F44053C1680B43136183680269134314
:1053580042691A430168CB6823F4B05323F00C0365
:105368001343CB600268536923F4407381690B438C
:1053780053610268134B9A4220D0FFF74BFB024659
:1053880002EB820202EB820263689B00B2FBF3F23B
:105398000D48A0FB02314909642303FB11231B01BB
:1053A8003233A0FB03035B0903F0F00202EB0112A6
:1053B80003F00F03216813448B6010BDFFF73AFB1D
:1053C8000246DDE7003801401F85EB512DE9F04327
:1053D80083B005460E4617469946DDF828802B68A7
:1053E8001C6836EA04040CBF01240024BC4228D1FE
:1053F800B8F1FF3FF3D0FEF741FAA0EB09004045B2
:1054080023D8B8F1000F22D02B68DA6812F0040F05
:10541800E5D0802EE3D0402EE1D01A6812F0080FB4
:10542800DDD0002401941A6801925B680193019B06
:105438002846FFF722FF08236B6485F840400120C7
:1054480000E0002003B0BDE8F0830320FAE7032062
:10545800F8E760B310B5044690F8413013B324233D
:1054680084F841302268D36823F40053D36020467F
:10547800FFF762FF2268136923F4904313612268DF
:10548800536923F02A0353612268D36843F4005315
:10549800D36000206064202384F8413084F84230CF
:1054A800606310BD80F84030FDF7A4FED7E7012007
:1054B80070472DE9F04182B01E4690F84130DBB2CA
:1054C800202B56D104460D469046002955D00AB9DE
:1054D80001204FE000234364212380F84130FEF788
:1054E800CDF90746A4F82480A4F82680A368B3F56C
:1054F800805F02D04FF0000814E023692BB34FF00F
:1055080000080FE0202384F84130032032E038F807
:10551800023B2268C3F308035360E28C92B2013A5B
:1055280092B2E284E38C9BB293B100963B46002290
:1055380080212046FFF74AFF0028E3D1002DE6D05E
:1055480015F8012B23685A60E7E7A8460025E9E724
:1055580000963B46002240212046FFF737FF18B946
:10556800202384F8413005E0202384F841300320CB
:1055780000E0022002B0BDE8F0810120FAE790F8CF
:105588004130DBB2202B10D189B192B10162828403
:10559800C28400234364212280F841200168CA683C
:1055A80042F08002CA601846704702207047012006
:1055B80070470120704708B50168CA6822F04002A8
:1055C800CA60202280F84120FDF772F9002008BD4A
:1055D800704708B5406A0023C385C384FFF7F8FF06
:1055E80008BD704790F84230DBB2222B69D183683E
:1055F800B3F5805F4FD0826AB3F5805F04D0002B8B
:1056080056D10369002B53D103685B681370836A12
:1056180001338362C38D9BB2013B9BB2C385002BD0
:1056280051D100B583B00268D36823F02003D3605A
:105638000268D36823F48073D3600268536923F047
:1056480001035361202380F8423000234363036B36
:10565800012B33D100230363026802F10C0353E8E2
:10566800003F23F010030C3242E800310029F3D147
:1056780003681A6812F0100F06D0002201921A6807
:1056880001925B680193019B818DFFF7AAFF0020BF
:1056980003B05DF804FB0269002AACD1826A036892
:1056A8005B68C3F308031380836A02338362B1E73C
:1056B80003685B6803F07F031370A8E7FDF7FCF845
:1056C800E5E70220704700207047000010B582B05F
:1056D800044602681368D068516913F00F0F09D1A6
:1056E80013F0200F0CD010F0200F09D02046FFF740
:1056F80079FF16E011F0010115D110F4907F12D155
:10570800216B012979D013F0800F03D010F0800F9E
:1057180040F0138113F0400F03D010F0400F40F019
:10572800108102B010BD13F0010F06D010F4807F75
:1057380003D0626C42F00102626413F0040F04D0DB
:1057480019B1626C42F00202626413F0020F04D0D5
:1057580019B1626C42F00402626413F0080F07D0BA
:1057680010F0200F00D119B1626C42F00802626497
:10577800626C002AD5D013F0200F02D010F0200F51
:1057880029D123685B6903F04003626C12F0080FAB
:1057980000D163B32046FFF770FD23685B6913F0FF
:1057A800400F20D0226802F1140353E8003F23F091
:1057B8004003143242E800310029F3D1E36B73B19E
:1057C800624A5A63E06BFEF70FF90028A9D0E06B34
:1057D800436B9847A5E72046FFF704FFD1E720462B
:1057E800FFF7F6FE9DE72046FFF7F2FE99E7204611
:1057F800FFF7EEFE0023636493E713F0100F82D0E7
:1058080010F0100F3FF47FAF00230193136801934A
:1058180053680193019B536913F0400F51D0E26B19
:1058280013685B689BB2002B3FF47BAFA18D994254
:105838007FF677AFE3859369202B37D0226802F192
:105848000C0353E8003F23F480730C3242E8003124
:105858000029F3D1226802F1140353E8003F23F032
:105868000103143242E800310029F3D1226802F121
:10587800140353E8003F23F04003143242E8003198
:105888000029F3D1202384F84230002323632268BF
:1058980002F10C0353E8003F23F010030C3242E8F6
:1058A80000310029F3D1E06BFEF77AF80223636335
:1058B800A18DE38D9BB2C91A89B22046FFF791FEEC
:1058C8002FE7A18DE38D9BB2C91A89B2E38D9BB2F4
:1058D800002B3FF426AF00293FF423AF226802F1E2
:1058E8000C0353E8003F23F490730C3242E8003075
:1058F8000028F3D1226802F1140353E8003F23F093
:105908000103143242E800300028F3D1202384F840
:10591800423000232363226802F10C0353E8003F5E
:1059280023F010030C3242E800300028F3D10223A0
:1059380063632046FFF755FEF3E62046FFF7CBFCEE
:10594800EFE62046FFF737FEEBE600BFDB55000821
:1059580081628285C28500234364222380F8423015
:10596800036923B10268D36843F48073D360026883
:10597800536943F0010353610268D36843F020037D
:10598800D3600020704708B590F84230DBB2202B76
:1059980008D149B10AB9012008BD00230363FFF704
:1059A800D7FFF9E70220F7E70120F5E70A220021EF
:1059B80000F07AB8242B2DE9F0478646904601D8A6
:1059C800012B06D100F020FA162303600020BDE861
:1059D800F0870D4633482A4615F8014B065D16F048
:1059E8000806F8D12D2C10D101262C78951C33F0FF
:1059F800100215D1302C0DD12A7802F0DF02582A76
:105A080008D16C78023510230AE02B2C04BF2C78BF
:105A1800951CECE7002BF6D1302C14BF0A23082381
:105A2800002206F1004C0CF1FF3CBCFBF3F91046D8
:105A380003FB19CAA4F13007092F0FD83C46A3422B
:105A48001BDD571C07D0814514D301D1A24511DBBA
:105A5800012200FB034015F8014BEBE7A4F14107D5
:105A6800192F01D8373CEAE7A4F16107192F04D8A8
:105A7800573CE4E74FF0FF32EDE7531C08D12223EF
:105A88006046CEF80030B8F1000FA0D0691E06E0DD
:105A980006B14042B8F1000F99D0002AF6D1C8F8F3
:105AA800001094E761B6000813460A46014602480A
:105AB8000068FFF77FBF00BF24000020002310B557
:105AC8000446C0E90033C0E904338360818143663A
