:020000040800F2
:1000000000C000201D470008E9330008EB3300085A
:10001000ED330008EF330008F13300080000000062
:10002000000000000000000000000000F3330008A2
:10003000F533000800000000F7330008F93300082A
:1000400065470008654700086547000865470008E0
:1000500065470008654700086547000865470008D0
:1000600065470008654700083934000865470008FF
:1000700065470008654700086547000865470008B0
:1000800065470008654700086547000865470008A0
:1000900065470008654700086547000843340008C5
:1000A0006547000865470008654700086547000880
:1000B0006547000865470008654700086547000870
:1000C0006547000865470008654700086547000860
:1000D000654700086547000859340008693400087E
:1000E0006547000865470008654700086547000840
:1000F0006547000865470008654700086547000830
:10010000654700086547000879340008654700081E
:100110008D3400089D340008AD340008C134000857
:1001200065470008654700086547000865470008FF
:1001300000000000000000000000000000000000BF
:1001400000000000000000000000000000000000AF
:10015000000000000000000000000000000000009F
:10016000000000000000000000000000000000008F
:10017000000000000000000000000000000000007F
:10018000000000000000000000000000000000006F
:10019000000000000000000000000000000000005F
:1001A000000000000000000000000000000000004F
:1001B000000000000000000000000000000000003F
:1001C000000000000000000000000000000000002F
:1001D000000000000000000000000000000000001F
:0401E0005FF8E0F1F3
:1001E80010B5054C237833B9044B13B10448AFF369
:1001F80000800123237010BD180A002000000000B1
:10020800C4DB000808B5034B1BB103490348AFF32F
:10021800008008BD000000001C0A0020C4DB0008A4
:1002280081F0004102E000BF83F0004330B54FEA9F
:1002380041044FEA430594EA050F08BF90EA020F0C
:100248001FBF54EA000C55EA020C7FEA645C7FEA9F
:10025800655C00F0E2804FEA5454D4EB5555B8BFC2
:100268006D420CDD2C4480EA020281EA030382EA33
:10027800000083EA010180EA020281EA0303362DC5
:1002880088BF30BD11F0004F4FEA01314FF4801C98
:100298004CEA113102D0404261EB410113F0004FAA
:1002A8004FEA03334CEA133302D0524263EB430361
:1002B80094EA050F00F0A780A4F10104D5F1200EFF
:1002C8000DDB02FA0EFC22FA05F2801841F100015A
:1002D80003FA0EF2801843FA05F359410EE0A5F12E
:1002E80020050EF1200E012A03FA0EFC28BF4CF05F
:1002F800020C43FA05F3C01851EBE37101F0004515
:1003080007D54FF0000EDCF1000C7EEB00006EEB21
:100318000101B1F5801F1BD3B1F5001F0CD34908AB
:100328005FEA30004FEA3C0C04F101044FEA445202
:1003380012F5800F80F09A80BCF1004F08BF5FEA89
:10034800500C50F1000041EB045141EA050130BD69
:100358005FEA4C0C404141EB0101013C28BFB1F57B
:10036800801FE9D291F0000F04BF01460020B1FAC6
:1003780081F308BF2033A3F10B03B3F120020CDA99
:100388000C3208DD02F1140CC2F10C0201FA0CF077
:1003980021FA02F10CE002F11402D8BFC2F1200CDC
:1003A80001FA02F120FA0CFCDCBF41EA0C01904092
:1003B800E41AA2BF01EB0451294330BD6FEA0404DB
:1003C8001F3C1CDA0C340EDC04F11404C4F12002C6
:1003D80020FA04F001FA02F340EA030021FA04F3D8
:1003E80045EA030130BDC4F10C04C4F1200220FA2F
:1003F80002F001FA04F340EA0300294630BD21FA6D
:1004080004F0294630BD94F0000F83F4801306BF32
:1004180081F480110134013D4EE77FEA645C18BF26
:100428007FEA655C29D094EA050F08BF90EA020FBD
:1004380005D054EA000C04BF1946104630BD91EAB5
:10044800030F1EBF0021002030BD5FEA545C05D1B8
:100458004000494128BF41F0004130BD14F58004F7
:100468003CBF01F5801130BD01F0004545F0FE416B
:1004780041F470014FF0000030BD7FEA645C1ABFA0
:10048800194610467FEA655C1CBF0B46024650EAD7
:10049800013406BF52EA033591EA030F41F4002103
:1004A80030BD00BF90F0000F04BF0021704730B589
:1004B8004FF4806404F132044FF000054FF000015E
:1004C80050E700BF90F0000F04BF0021704730B51F
:1004D8004FF4806404F1320410F0004548BF4042F4
:1004E8004FF000013EE700BF42004FEAE2014FEA49
:1004F80031014FEA02701FBF12F07F4393F07F4F24
:1005080081F06051704732F07F4208BF704793F026
:100518007F4F04BF41F40021704730B54FF4607439
:1005280001F0004521F000411CE700BF50EA01023C
:1005380008BF704730B54FF000050AE050EA0102E5
:1005480008BF704730B511F0004502D5404261EB55
:1005580041014FF4806404F132045FEA915C3FF496
:10056800D8AE4FF003025FEADC0C18BF03325FEA33
:10057800DC0C18BF033202EBDC02C2F1200300FAE4
:1005880003FC20FA02F001FA03FE40EA0E0021FA09
:1005980002F11444BDE600BF4FEA410212F5001211
:1005A80015D211D56FF47873B3EB625212D94FEAB2
:1005B800C12343F0004343EA505311F0004F23FA9C
:1005C80002F018BF404270474FF00000704750EAF1
:1005D800013005D111F0004008BF6FF000407047AE
:1005E8004FF00000704700BF80F0004002E000BFFD
:1005F80081F0004142001FBF5FEA410392EA030F06
:100608007FEA226C7FEA236C6AD04FEA1262D2EB4F
:100618001363C1BFD218414048404140B8BF5B4254
:10062800192B88BF704710F0004F40F4000020F0ED
:100638007F4018BF404211F0004F41F4000121F003
:100648007F4118BF494292EA030F3FD0A2F101024D
:1006580041FA03FC10EB0C00C3F1200301FA03F18B
:1006680000F0004302D5494260EB4000B0F5000FAE
:1006780013D3B0F1807F06D340084FEA310102F16D
:100688000102FE2A51D2B1F1004F40EBC25008BF1F
:1006980020F0010040EA03007047490040EB0000E9
:1006A800013A28BFB0F5000FEDD2B0FA80FCACF1EA
:1006B800080CB2EB0C0200FA0CF0AABF00EBC25017
:1006C80052421843BCBFD0401843704792F0000F05
:1006D80081F4000106BF80F400000132013BB5E758
:1006E8004FEA41037FEA226C18BF7FEA236C21D0CE
:1006F80092EA030F04D092F0000F08BF0846704733
:1007080090EA010F1CBF0020704712F07F4F04D100
:10071800400028BF40F00040704712F100723CBF13
:1007280000F50000704700F0004343F0FE4040F43D
:10073800000070477FEA226216BF08467FEA2363FB
:100748000146420206BF5FEA412390EA010F40F4E6
:10075800800070474FF0000304E000BF10F0004332
:1007680048BF40425FEA000C08BF704743F0964319
:1007780001464FF000001CE050EA010208BF704734
:100788004FF000030AE000BF50EA010208BF7047BB
:1007980011F0004302D5404261EB41015FEA010CD0
:1007A80002BF84460146002043F0B64308BFA3F1C8
:1007B8008053A3F50003BCFA8CF2083AA3EBC253AA
:1007C80010DB01FA02FC634400FA02FCC2F12002C9
:1007D800BCF1004F20FA02F243EB020008BF20F000
:1007E8000100704702F1200201FA02FCC2F1200266
:1007F80050EA4C0021FA02F243EB020008BF20EA5B
:10080800DC7070474FF0FF0C1CEAD0521EBF1CEA88
:10081800D15392EA0C0F93EA0C0F6FD01A4480EA76
:10082800010C400218BF5FEA41211ED04FF000635F
:1008380043EA501043EA5111A0FB01310CF000408B
:10084800B1F5000F3EBF490041EAD3715B0040EAB1
:10085800010062F17F02FD2A1DD8B3F1004F40EB81
:10086800C25008BF20F00100704790F0000F0CF054
:10087800004C08BF49024CEA502040EA51207F3A18
:10088800C2BFD2F1FF0340EAC250704740F40000F3
:100898004FF00003013A5DDC12F1190FDCBF00F0E4
:1008A80000407047C2F10002410021FA02F1C2F192
:1008B800200200FA02FC5FEA310040F1000053EA2E
:1008C8004C0308BF20EADC70704792F0000F00F07C
:1008D800004C02BF400010F4000F013AF9D040EA82
:1008E8000C0093F0000F01F0004C02BF490011F416
:1008F800000F013BF9D041EA0C018FE70CEAD15314
:1009080092EA0C0F18BF93EA0C0F0AD030F0004C93
:1009180018BF31F0004CD8D180EA010000F0004047
:10092800704790F0000F17BF90F0004F084691F005
:10093800000F91F0004F14D092EA0C0F01D142023F
:100948000FD193EA0C0F03D14B0218BF084608D108
:1009580080EA010000F0004040F0FE4040F4000052
:10096800704740F0FE4040F4400070474FF0FF0CE5
:100978001CEAD0521EBF1CEAD15392EA0C0F93EA2C
:100988000C0F69D0A2EB030280EA010C49024FEA7E
:10099800402037D04FF0805343EA111143EA101337
:1009A8000CF000408B4238BF5B0042F17D024FF4EF
:1009B800000C8B4224BF5B1A40EA0C00B3EB510FCA
:1009C80024BFA3EB510340EA5C00B3EB910F24BFB3
:1009D800A3EB910340EA9C00B3EBD10F24BFA3EB38
:1009E800D10340EADC001B0118BF5FEA1C1CE0D100
:1009F800FD2A3FF650AF8B4240EBC25008BF20F0B3
:100A0800010070470CF0004C4CEA50207F32C2BF06
:100A1800D2F1FF0340EAC250704740F400004FF0A3
:100A28000003013A37E792F0000F00F0004C02BFD4
:100A3800400010F4000F013AF9D040EA0C0093F09E
:100A4800000F01F0004C02BF490011F4000F013BF8
:100A5800F9D041EA0C0195E70CEAD15392EA0C0F60
:100A680008D142027FF47DAF93EA0C0F7FF470AF98
:100A7800084676E793EA0C0F04D14B023FF44CAFDB
:100A880008466EE730F0004C18BF31F0004CCAD170
:100A980030F000427FF45CAF31F000437FF43CAFAC
:100AA8005FE700BF4FF0FF3C06E000BF4FF0010CCE
:100AB80002E000BF4FF0010C4DF804CD4FEA4002B0
:100AC8004FEA41037FEA226C18BF7FEA236C11D0FA
:100AD80001B052EA530C18BF90EA010F58BFB2EBAD
:100AE800030088BFC81738BF6FEAE17018BF40F02D
:100AF800010070477FEA226C02D15FEA402C05D1E1
:100B08007FEA236CE4D15FEA412CE1D05DF8040B65
:100B1800704700BF844608466146FFE70FB5FFF7F8
:100B2800C9FF002848BF10F1000F0FBD4DF808EDB0
:100B3800FFF7F4FF0CBF012000205DF808FB00BFA1
:100B48004DF808EDFFF7EAFF34BF012000205DF8FB
:100B580008FB00BF4DF808EDFFF7E0FF94BF012048
:100B680000205DF808FB00BF4DF808EDFFF7D2FF45
:100B780094BF012000205DF808FB00BF4DF808ED88
:100B8800FFF7C8FF34BF012000205DF808FB00BF55
:100B98004FEA4002B2F1FE4F0FD34FF09E03B3EB82
:100BA80012620DD94FEA002343F0004310F0004FC2
:100BB80023FA02F018BF404270474FF00000704718
:100BC80012F1610F01D1420205D110F0004008BFB7
:100BD8006FF0004070474FF0000070477BB972B962
:100BE8000029BEBF00204FF0004106E008BF0028E2
:100BF8001CBF6FF000414FF0FF3000F0A9B9ADF114
:100C0800080C6DE904CE002909DB002B1ADB00F083
:100C180035F8DDF804E0DDE9022304B0704740420E
:100C280061EB4101002B1BDB00F028F8DDF804E044
:100C3800DDE9022304B0404261EB4101524263EB1B
:100C480043037047524263EB430300F017F8DDF8A3
:100C580004E0DDE9022304B0404261EB4101704742
:100C6800524263EB430300F009F8DDF804E0DDE9E4
:100C7800022304B0524263EB430370472DE9F04767
:100C8800089E0D4604468846002B4DD18A4294465C
:100C980068D9B2FA82F252B101FA02F3C2F1200124
:100CA80020FA01F10CFA02FC41EA030894404FEAE9
:100CB8001C41B8FBF1F71FFA8CFE01FB178807FBF4
:100CC8000EF0230C43EA084398420AD91CEB0303AD
:100CD80007F1FF3580F01E81984240F21B81023FE8
:100CE80063441B1AB3FBF1F001FB103300FB0EFE4B
:100CF800A4B244EA0344A6450AD91CEB040400F153
:100D0800FF3380F00981A64540F206816444023829
:100D18000021A4EB0E0440EA07401EB10023D44092
:100D2800C6E90043BDE8F0878B4208D9002E00F0E1
:100D3800EE800021C6E900050846BDE8F087B3FA51
:100D480083F100294AD1AB4202D3824200F2FC80EF
:100D5800841A65EB030301209846002EE2D0C6E909
:100D68000048DFE702B9FFDEB2FA82F2002A40F05B
:100D78009180A1EB0C0001214FEA1C471FFA8CFE61
:100D8800B0FBF7F307FB1300250C45EA00450EFB03
:100D980003F0A84208D91CEB050503F1FF3802D27D
:100DA800A84200F2CE8043462D1AB5FBF7F007FBA8
:100DB80010550EFB00FEA4B244EA0544A64508D926
:100DC8001CEB040400F1FF3502D2A64500F2B68000
:100DD8002846A4EB0E0440EA03409EE7C1F1200731
:100DE8008B4022FA07FC4CEA030C25FA07FA4FEA73
:100DF8001C49BAFBF9F820FA07F309FB18AA8D4039
:100E08001FFA8CFE1D4300FA01F308FB0EF02C0CB0
:100E180044EA0A44A04202FA01F20BD91CEB04048A
:100E280008F1FF3A80F08880A04240F28580A8F15E
:100E380002086444241AB4FBF9F009FB104400FBCF
:100E48000EFEADB245EA0444A64508D91CEB0404DD
:100E580000F1FF356CD2A6456AD90238644440EAED
:100E68000840A0FB0295A4EB0E04AC42C846AE466F
:100E780056D353D0002E69D0B3EB080264EB0E04AE
:100E880022FA01F304FA07F71F43CC40C6E90074BD
:100E9800002147E70CFA02FCC2F1200125FA01F310
:100EA8004FEA1C4720FA01F195400D43B3FBF7F1D7
:100EB80007FB11331FFA8CFE280C40EA034001FBA4
:100EC8000EF3834204FA02F408D91CEB000001F186
:100ED800FF382FD283422DD902396044C01AB0FBA3
:100EE800F7F307FB1300ADB245EA004503FB0EF02C
:100EF800A84208D91CEB050503F1FF3816D2A84211
:100F080014D9023B6544281A43EA014138E73146BF
:100F1800304607E72F46E4E61846F9E64B45A9D2DE
:100F2800B9EB020865EB0C0E0138A3E74346EAE784
:100F3800284694E74146D1E7D0467BE76444023827
:100F480047E7023B65442FE7084606E73146E9E6EE
:100F5800704700BF844641EA000313F0030349D1F8
:100F6800403A23D30B6803604B6843608B68836007
:100F7800CB68C3600B6903614B6943618B6983610B
:100F8800CB69C3610B6A03624B6A43628B6A8362F3
:100F9800CB6AC3620B6B03634B6B43638B6B8363DB
:100FA800CB6BC36340304031403ADBD230320BD395
:100FB8000B6803604B6843608B688360CB68C360D1
:100FC80010301031103AF3D20C3205D351F8043BEB
:100FD80040F8043B043AF9D2043208D0D2071CBFC7
:100FE80011F8013B00F8013B01D30B8803806046F0
:100FF800704700BF082A13D38B07B1D010F0030342
:10100800AED0C3F10403D21ADB071CBF11F8013BB1
:1010180000F8013BA4D331F8023B20F8023B9FE7DC
:10102800043AD9D3013A11F8013B00F8013BF9D24F
:101038000B7803704B7843708B78837060467047E9
:1010480070B54FF0FF0C4CF4E06C1CEA11541DBF56
:101058001CEA135594EA0C0F95EA0C0F00F0DEF821
:101068002C4481EA030621EA4C5123EA4C5350EA06
:10107800013518BF52EA033541F4801143F4801357
:1010880038D0A0FB02CE4FF00005E1FB02E506F0E8
:101098000042E0FB03E54FF00006E1FB03569CF03D
:1010A800000F18BF4EF0010EA4F1FF04B6F5007F43
:1010B80064F5407404D25FEA4E0E6D4146EB0606B5
:1010C80042EAC62141EA55514FEAC52040EA5E503E
:1010D8004FEACE2EB4F1FD0C88BFBCF5E06F1ED8E8
:1010E800BEF1004F08BF5FEA500E50F1000041EB1F
:1010F800045170BD06F0004646EA010140EA0200CC
:1011080081EA0301B4EB5C04C2BFD4EB0C0541EAED
:10111800045170BD41F480114FF0000E013C00F302
:10112800AB8014F1360FDEBF002001F0004170BD26
:10113800C4F10004203C35DA0C341BDC04F114043F
:10114800C4F1200500FA05F320FA04F001FA05F2CB
:1011580040EA020001F0004221F0004110EBD37098
:1011680021FA04F642EB06015EEA430E08BF20EAC4
:10117800D37070BDC4F10C04C4F1200500FA04F367
:1011880020FA05F001FA04F240EA020001F00041F9
:1011980010EBD37041F100015EEA430E08BF20EA6C
:1011A800D37070BDC4F1200500FA05F24EEA020EB4
:1011B80020FA04F301FA05F243EA020321FA04F0E3
:1011C80001F0004121FA04F220EA020000EBD3709A
:1011D8005EEA430E08BF20EAD37070BD94F0000F9A
:1011E8000FD101F00046400041EB010111F4801FCE
:1011F80008BF013CF7D041EA060195F0000F18BF7F
:10120800704703F00046520043EB030313F4801FBA
:1012180008BF013DF7D043EA0603704794EA0C0F74
:101228000CEA135518BF95EA0C0F0CD050EA41068A
:1012380018BF52EA4306D1D181EA030101F0004107
:101248004FF0000070BD50EA410606BF104619462F
:1012580052EA430619D094EA0C0F02D150EA01363B
:1012680013D195EA0C0F05D152EA03361CBF10467C
:1012780019460AD181EA030101F0004141F0FE411B
:1012880041F470014FF0000070BD41F0FE4141F49F
:10129800780170BD70B54FF0FF0C4CF4E06C1CEA9F
:1012A80011541DBF1CEA135594EA0C0F95EA0C0F54
:1012B80000F0A7F8A4EB050481EA030E52EA03350F
:1012C8004FEA013100F088804FEA03334FF0805530
:1012D80045EA131343EA12634FEA022245EA11155D
:1012E80045EA10654FEA00260EF000419D4208BF0E
:1012F800964244F1FD0404F5407402D25B084FEABB
:101308003202B61A65EB03055B084FEA32024FF466
:1013180080104FF4002CB6EB020E75EB030E22BFC3
:10132800B61A754640EA0C005B084FEA3202B6EB83
:10133800020E75EB030E22BFB61A754640EA5C0032
:101348005B084FEA3202B6EB020E75EB030E22BFC2
:10135800B61A754640EA9C005B084FEA3202B6EBC3
:10136800020E75EB030E22BFB61A754640EADC0082
:1013780055EA060E18D04FEA051545EA16754FEAE4
:1013880006164FEAC30343EA52734FEAC2025FEA02
:101398001C1CC0D111F4801F0BD141EA00014FF091
:1013A80000004FF0004CB6E711F4801F04BF014362
:1013B8000020B4F1FD0C88BFBCF5E06F3FF6AFAE7E
:1013C800B5EB030C04BFB6EB020C5FEA500C50F10E
:1013D800000041EB045170BD0EF0004E4EEA113191
:1013E80014EB5C04C2BFD4EB0C0541EA045170BD98
:1013F80041F480114FF0000E013C90E645EA060EDC
:101408008DE60CEA135594EA0C0F08BF95EA0C0F09
:101418003FF43BAF94EA0C0F0AD150EA01347FF451
:1014280034AF95EA0C0F7FF425AF104619462CE728
:1014380095EA0C0F06D152EA03353FF4FDAE10468B
:10144800194622E750EA410618BF52EA43067FF4DC
:10145800C5AE50EA41047FF40DAF52EA43057FF46C
:10146800EBAE12E74FF0FF3C06E000BF4FF0010C77
:1014780002E000BF4FF0010C4DF804CD4FEA410CDB
:101488007FEA6C5C4FEA430C18BF7FEA6C5C1BD0A8
:1014980001B050EA410C0CBF52EA430C91EA030F29
:1014A80002BF90EA020F0020704710F1000F91EA86
:1014B800030F58BF994208BF90422CBFD8176FEA54
:1014C800E37040F0010070474FEA410C7FEA6C5C22
:1014D80002D150EA013C07D14FEA430C7FEA6C5C29
:1014E800D6D152EA033CD3D05DF8040B704700BF55
:1014F8008446104662468C461946634600E000BFA3
:1015080001B5FFF7B7FF002848BF10F1000F01BD74
:101518004DF808EDFFF7F4FF0CBF012000205DF83F
:1015280008FB00BF4DF808EDFFF7EAFF34BF0120C4
:1015380000205DF808FB00BF4DF808EDFFF7E0FF5D
:1015480094BF012000205DF808FB00BF4DF808EDAE
:10155800FFF7CEFF94BF012000205DF808FB00BF15
:101568004DF808EDFFF7C4FF34BF012000205DF8F7
:1015780008FB00BF4FEA410C7FEA6C5C02D150EADD
:10158800013C0AD14FEA430C7FEA6C5C02D152EA73
:10159800033C02D14FF0000070474FF00100704744
:1015A80053B94AB9002908BF00281CBF4FF0FF31C2
:1015B8004FF0FF30FFF7CCBCADF1080C6DE904CE5D
:1015C800FFF75CFBDDF804E0DDE9022304B07047B7
:1015D80008B50821014804F003FE08BD8C1200205C
:1015E80008B50821014804F0FBFD08BD8C12002055
:1015F80010B50C46A0B10D4BB3FBF0F30C480268D4
:10160800591ED162C1605B08D3630123536108216D
:1016180004F06CFD204603F0EDF8FFF7E1FF10BD84
:101628000821034804F0DCFDF4E700BF40420F0046
:101638008C12002001281BD870B50E4B53F820508F
:101648000D4B33F8106000240FE005EB8403997804
:1016580001EB810301EBC30301EB430189B235F8C8
:101668002400FFF7C5FF0134A4B2B442EDD370BD26
:10167800704700BFE4DB0008E0DB00082DE9F0411B
:1016880088B000240494059406940794314B9A6911
:1016980042F020029A619A6902F020020092009AB0
:1016A8009A6942F004029A619A6902F0040201926E
:1016B800019A9A6942F008029A619A6902F008024E
:1016C8000292029A9A6942F010029A619B6903F0A9
:1016D80010030393039BDFF8808022460C214046C9
:1016E80003F002FB1D4D22464FF40041284603F04B
:1016F800FBFAF02304931A4B05930126069604A9D6
:10170800284603F0D1F90C23049305960694022782
:10171800079704A9404603F0C7F94FF40043049320
:1017280005960694079704A9284603F0BDF92246B2
:101738000B210A2003F084F80A2003F0B9F82246A6
:101748000B21172003F07CF8172003F0B1F808B03C
:10175800BDE8F08100100240000C01400008014083
:101768000000111008B50B480B4B03600B4B43608E
:1017780000238360C3604FF4804202614361836148
:10178800C361036203F056FC00B908BD00F088FB92
:10179800FBE700BF380A002000540040801A06000A
:1017A80010B586B00023029303930493059302684F
:1017B800154B9A4201D006B010BD144CA36943F0F2
:1017C8000803A361A36903F008030093009B4FF487
:1017D80040730293122303930323059302A90C4831
:1017E80003F062F90B4A536843F0E06343F00203E5
:1017F8005360E36943F40013E361E36903F40013FE
:101808000193019BD7E700BF00540040001002403D
:10181800000C01400000014010B500F1010E90F8E5
:1018280001C01CF0F00100D001219EF8012013092D
:10183800C3EB431403EB8403DB009BB20CF00F0CE7
:10184800CCEB4C140CEB840C0CEB8C0C03EB0C1356
:101858009BB29EF802C04FEA1C1E0EEB8E0E02F0E1
:101868000F0202EB820202EB8202920002EB4E02AE
:1018780013449BB20CF00F0C63449BB201B15B4262
:10188800002BC0F211818E4A136000F1040E90F80B
:1018980004C01CF0F00100D001219EF801201309BA
:1018A800C3EB431403EB8403DB009BB20CF00F0C77
:1018B800CCEB4C140CEB840C0CEB8C0C03EB0C13E6
:1018C8009BB29EF802C04FEA1C1E0EEB8E0E02F071
:1018D8000F0202EB820202EB8202920002EB4E023E
:1018E80013449BB20CF00F0C63449BB201B15B42F2
:1018F800002BC0F2DD80734A136000F1070E90F8E8
:1019080007C01CF0F00100D001219EF80120130946
:10191800C3EB431403EB8403DB009BB20CF00F0C06
:10192800CCEB4C140CEB840C0CEB8C0C03EB0C1375
:101938009BB29EF802C04FEA1C1E0EEB8E0E02F000
:101948000F0202EB820202EB8202920002EB4E02CD
:1019580013449BB20CF00F0C63449BB201B15B4281
:10196800002BC0F2A980584A136000F1130E90F8BA
:1019780013C01CF0F00100D001219EF801201309CA
:10198800C3EB431403EB8403DB009BB20CF00F0C96
:10199800CCEB4C140CEB840C0CEB8C0C03EB0C1305
:1019A8009BB29EF802C04FEA1C1E0EEB8E0E02F090
:1019B8000F0202EB820202EB8202920002EB4E025D
:1019C80013449BB20CF00F0C63449BB201B15B4211
:1019D8003E4A136000F1160E90F816C01CF0F00194
:1019E80000D001219EF801201309C3EB431403EB37
:1019F8008403DB009BB20CF00F0CCCEB4C140CEB0B
:101A0800840C0CEB8C0C03EB0C139BB29EF802C0FD
:101A18004FEA1C1E0EEB8E0E02F00F0202EB820242
:101A280002EB8202920002EB4E0213449BB20CF0CE
:101A38000F0C63449BB201B15B42254A136000F16D
:101A4800190C407E10F0F00100D001219CF8012013
:101A58001309C3EB431E03EB8E03DB009BB200F0BC
:101A68000F00C0EB401E00EB8E0000EB800003EB84
:101A780000139BB29CF802004FEA101C0CEB8C0C74
:101A880002F00F0202EB820202EB8202920002EBEA
:101A98004C0213449BB200F00F0003449BB201B107
:101AA8005B420C4A136010BD03F50C43A033EAE611
:101AB80003F50C43A0331EE703F50C43A03352E7AC
:101AC800A00A00209C0A0020A40A0020900A0020F6
:101AD800940A0020980A002008B501220249034808
:101AE80004F0B7FF08BD00BF8C0A0020B413002023
:101AF80008B50F4B1A781AB90E4B1B78842B09D1ED
:101B0800531CDBB20A490B700A4908780A49885401
:101B18001C2B05D801220749084804F09AFF08BD84
:101B28000846FFF779FE024B00221A70F2E700BF61
:101B3800C50A00208C0A0020A80A0020B41300203F
:101B480008B54FF0FF3305220249034804F015FD9C
:101B580008BD00BF7CDC0008B413002008B50023D2
:101B680009E000220D49CA540D49CA540D4941F8EB
:101B780023200133DBB2032BF3D9002205210A20ED
:101B880002F05EFE0A2002F093FE002205211720D3
:101B980002F056FE172002F08BFE08BDDC0A00207A
:101BA800C80A0020CC0A00200346032807D8054AA3
:101BB800105C003818BF01200021D1547047002064
:101BC800704700BFC80A002010B5044602F00CFE9A
:101BD8000023032B16D819460B4A32F81320A242C9
:101BE80002D00133DBB2F4E7084B53F82130C31AB3
:101BF800092B07D9054B43F821000123044A535404
:101C0800044A535410BD00BF84DC0008CC0A0020ED
:101C1800DC0A0020C80A00200023114A1380114A58
:101C2800137001E00133DBB2072B0FD80E4AD25CE8
:101C3800002AF7D00D4AD25692B2094908880244C0
:101C48000A8008490A7801320A70EBE7054B93F9D4
:101C58000030062B02DD064B01221A70704700BFC8
:101C6800F20A0020F10A0020FC0A00208CDC00089F
:101C7800F00A0020184BB3F90030184A92F90020F6
:101C880093FBF2F31BB2D900154802681A440260AC
:101C980042F21070824201DD114A1060104A106849
:101CA800104A904202DA0E4A0E4810600E4A11603D
:101CB800B1F5004F02DB47F6FF7111600A4A12685E
:101CC80012F5004F02DA084A08491160084A1380E1
:101CD800054B1868704700BFF20A0020F10A00207F
:101CE800E40A0020F0D8FFFFEC0A00200080FFFF84
:101CF800E80A002010B50446FFF78EFFFFF7BAFF89
:101D0800034B1A6810441860214602F081FC10BD8C
:101D1800F40A0020014B1878704700BFF00A002031
:101D2800014B00221A707047F00A002010B5084BCA
:101D38001A68084B1A600124074B1C7023460022BE
:101D48001146402002F016FC044B1C7010BD00BF69
:101D5800A40A0020F40A0020E00A002074140020DD
:101D680010B50024094B1C70012322462146204649
:101D780002F000FC4FF4967002F03CFD2346224628
:101D88002146204602F0F6FB10BD00BFE00A002005
:101D980038B50378242B22D14378442B1FD12C212A
:101DA80004F060FF0024072C16DCA8B13A2104F0E7
:101DB80059FF054680B1013004F05EFEC3B2013B15
:101DC800002BB8BF5B42DBB2054A13552C212846CD
:101DD80004F048FF0134E6E7024B01221A7038BDCF
:101DE800FC0A0020040B002010B582B00A4C012226
:101DF8000A49204604F02DFE094BEC4693E80300FF
:101E08008CE803004FF0FF3307226146204604F0B8
:101E1800B4FB02B010BD00BFFC130020F90A00207B
:101E280094DC000808B5114B1B78242B10D0104AFD
:101E380012883F2A04D8501C0D4908800D498B543C
:101E4800232B09D0012209490B4804F002FE08BDE2
:101E5800074A00211180EAE7054B1B88054A002143
:101E6800D154064B01221A70ECE700BFF90A002092
:101E7800480B0020080B0020FC130020F80A002063
:101E880008B5054B1B7803B908BD034B00221A702F
:101E98000248FFF77DFFF7E7F80A0020080B00204B
:101EA80072B6FEE700B591B02822002106A804F01A
:101EB80045FE0023019302930393049305930122A3
:101EC80006924FF4803307930A9202220D920E93E2
:101ED8004FF4E0130F9306A803F05CFA80B90F23C0
:101EE800019302210291002303934FF4806204922C
:101EF800059301A803F080FC20B911B05DF804FB3C
:101F0800FFF7CEFFFFF7CCFF08B502F04FFCFFF755
:101F1800C9FFFFF7B3FBFFF725FC01F037FD01F020
:101F2800A5FB01F0CBFB01F083FE01F05BFF01F0A4
:101F380073FF01F08BFF01F0A3FF01F0BBFF01F07D
:101F480027FE01F0C9FD01F085FD01F057FB00F007
:101F58004DFC3C21002001F0F9F9E121042001F0B9
:101F6800F5F900F075FC00F09FFD00F0F1FD00F0C0
:101F780005FE00F0ADFF01F03BF8FEE738B50024A0
:101F88000A4B1C700A4B1C702A252A462146094810
:101F980004F0D4FD2A462146074804F0CFFD01226B
:101FA8000649074804F055FD38BD00BFD20B002094
:101FB800760B0020A80B00204C0B0020770B00208C
:101FC8002413002038B5164B1A781AB9154B1B780C
:101FD800232B10D1531CDBB211490B70114908781F
:101FE80011498854292B06D991F82930212B08D07A
:101FF8000B4B00221A7001220A490C4804F029FDF3
:1020080038BD0B4C0D460FCD0FC40FCD0FC495E84E
:10201800070003C42280074B01221A70E8E700BFBB
:10202800D20B0020770B0020A80B002024130020DF
:102038004C0B0020760B00200023254A05E032F8DF
:10204800020B244921F813000133032BF7DD00208C
:10205800032831DC10B408E0033313E09B101E4959
:102068000B600432013003281ADC1C49136841F85C
:1020780020304B685B420C681B1B8C682344C96882
:102088005B18E9D49B1016490B6014490B684C681F
:102098001B1B8C682344C9685B1ADFD50333DDE753
:1020A800002305E052F8040B0E4941F823000133E0
:1020B800032BF7DD10BC7047002305E052F8040B32
:1020C800084941F823000133032BF7DD704700BFAF
:1020D8004D0B0020A00B00209C0B0020780B00204B
:1020E800980B0020880B0020274B1B7803B97047FA
:1020F8002DE9F041254B1868FEF730FB2449FEF71F
:1021080081FB0646234BD3F800800AF025FE0446DF
:102118004046FEF723FB2146FEF774FB07461E4B9D
:102128001868FEF71BFB054630460AF04DFE0646CA
:1021380001462846FEF766FB01463846FEF75AFA7E
:102148000746C8F10000FEF709FB3146FEF75AFBC7
:10215800064629462046FEF755FB01463046FEF75F
:1021680049FA05463846FEF713FD04462846FEF7A9
:102178000FFD0146094B1B78094A1268204602F0F8
:10218800F9F9BDE8F08100BFD30B0020A40A0020B4
:10219800D202373908000020D40B002000000020AC
:1021A8000400002010B4074C20600748016007496C
:1021B8000A60074A13709DF80420064B1A7010BC79
:1021C800704700BF08000020D40B00200400002046
:1021D80000000020D30B002000B583B002460B4658
:1021E8004FF0FF3100917821024803F001F803B065
:1021F8005DF804FB380A002008B5034B587002212B
:102208001846FFF7E9FF08BD5C10002008B54FF439
:1022180080620021014804F091FC08BDD80B002021
:1022280038B5104B40221A70002418E0A4F1500071
:10223800C0B2FFF7E1FF0020FFF7DEFF1020FFF735
:10224800DBFF084D8022084901EBC411681CFEF72A
:1022580081FE81212846FFF7BFFF0134E4B2072C35
:10226800E4D938BDD80F0020D80B002008B5AE201F
:10227800FFF7C2FF2020FFF7BFFF1020FFF7BCFFCA
:10228800B020FFF7B9FFC820FFF7B6FF0020FFF71F
:10229800B3FF1020FFF7B0FF4020FFF7ADFF81200C
:1022A800FFF7AAFFF020FFF7A7FFA120FFF7A4FF81
:1022B800A620FFF7A1FFA820FFF79EFF3F20FFF70A
:1022C8009BFFA420FFF798FFD320FFF795FF00207E
:1022D800FFF792FFD520FFF78FFFF020FFF78CFF65
:1022E800D920FFF789FF2220FFF786FFDA20FFF7C2
:1022F80083FF1220FFF780FFDB20FFF77DFF202000
:10230800FFF77AFF8D20FFF777FF1420FFF774FFA0
:10231800FFF77CFFFFF784FFAF20FFF76DFF08BDD5
:1023280010F0800F1CD13F291AD862B94FEAD10C9E
:1023380001F0070101228A400A4B03EBCC13195C18
:102348001143195470474FEAD10C01F007010122DB
:102358008A40044B03EBCC13195C21EA020119549F
:10236800704700BFD80B002030B59DF810400728F3
:102378002AD811F0800F27D10CB1D243D2B29DF8E0
:102388000CE00EF1010EFF2404FA0EFE4FFA8EFE49
:102398004FFA82FC4EEA0C02C3F1080344FA03F335
:1023A8005CB242EA0403DBB2084D2B70084A02EB28
:1023B800C010425C134043542CEA0E0222EA040285
:1023C800D2B22A701343435430BD00BF5F100020BF
:1023D800D80B00202DE9F04383B0064690461C46F2
:1023E8009DF82890CF0801F007052B44082B1EDD27
:1023F800AA40CDF80490072300932B46D2B2014699
:102408003846FFF7B1FFC5F1080248FA02F22C443A
:10241800E4B2CDF80490093CE4B200940023D2B2AF
:102428003146781CFFF7A0FF03B0BDE8F083AA404F
:102438002C44E4B2CDF80490013CE4B200942B465D
:10244800D2B201463846FFF78FFFEDE72DE9F0419C
:1024580082B0064615469846CF0801F00704A24008
:102468000193072300932346D2B201463846FFF76B
:102478007BFF14B902B0BDE8F081C4F1080245FA47
:1024880002F2CDF80480013CE4B200940023D2B2F9
:102498003146781CFFF768FFECE72DE9F04F85B06F
:1024A8008046894692461E469DF8383003939DF82B
:1024B8003CB0DF0803F007030293002512E006FB97
:1024C800045209EBC40105EB08005B461AF8022028
:1024D800C9B2C0B2FFF7BAFF0134E4B2BC42EED3CE
:1024E8000135EDB2B54201D20024F7E7029BBBB13A
:1024F80006FB07F70024039D10E03A1925F00701B1
:10250800494404EB0800CDF800B0029B1AF80220F9
:10251800C9B2C0B2FFF75EFF0134E4B2B442ECD3F3
:1025280005B0BDE8F08F00002DE9F04F85B00546F5
:102538000C461E469DF83870904231D0904699421C
:1025480041D0A2EB00090FFA89F9A3EB010AB9F10E
:10255800000F49DD01230193BAF1000F48DD012383
:1025680002932DB224B2B9F1000FB8BFC9F1000926
:102578001FFA89F303930FFA89F9BAF1000FB8BF6C
:10258800CAF1000A1FFA8AFB0FFA8AFAD14549DC18
:102598004FF000089946CDF80CB0DDF808B047E0D8
:1025A80099420BD92E4B197034460E4606E03A462E
:1025B80021462846FFF7B4FE0134E4B2A642F6D21B
:1025C80005B0BDE8F08F90420BD9254B1870154621
:1025D800804606E03A4621462846FFF7A1FE013527
:1025E800EDB2A845F6D2EBE74FF0FF330193B3E71E
:1025F8004FF0FF330293B4E755442DB24545DFD081
:102608003A46E1B2E8B2FFF78BFE5E44B3B236B2A7
:10261800B9EB460FF0DC029A144424B2039A9B1AD1
:102628001EB2E9E70026DDF804A0E7E75C4424B21F
:10263800B442C5D03A46E1B2E8B2FFF771FEC844E9
:102648001FFA88F30FFA88F8BAEB480FEEDC019A04
:1026580015442DB2039A9B1A0FFA83F8E6E700BFD8
:102668005E10002070B582B05D68203A1C7804F1D5
:10267800070C4FEAEC0C5B7803FB0CFC9DF8186028
:10268800019600940CFB0252FFF707FF02B070BDE1
:102698002DE9F04182B005460F4614461E469DF8C6
:1026A80020800AE0CDF80080334639462846FFF7F7
:1026B800D9FF70782844C5B201342278002AF1D1B4
:1026C80002B0BDE8F081037890F90020002A0DDA05
:1026D80003F0E002C02A0BD003F0F002E02A09D090
:1026E80003F0F803F02B07D0002070470120704753
:1026F8000220704703207047042070472DE9F04FEF
:1027080087B00390049193461E469DF84030059388
:1027180033780733DB1096F8019003FB09F95FFA69
:1027280089F909F104095FFA89F94FF0000A15E0FF
:10273800059B01933378009373782A1D0499039CB1
:102748002046FFF7AAFE73782344DBB20393C24402
:102758001FFA8AFA012300E00023E3B10BEB0A0712
:102768001BF80A30002B3ED03846FFF7ACFF8046F6
:10277800002838D00024337AA342EDD9756809FBC4
:10278800045542462946384604F0A4F90028CFD01B
:102798000134E4B2EFE7B8F1010F11D0059B0093C3
:1027A800F36820220499039C2046FFF75BFFF36837
:1027B8005B782344DBB20393C2441FFA8AFACDE75D
:1027C800059B0093F3681BF80A200499039C204694
:1027D800FFF748FFF3685B782344DBB20393C244F6
:1027E8001FFA8AFABAE707B0BDE8F08F08B51548AE
:1027F80003F0A0F9144803F09DF9144803F09AF97E
:10280800C82001F0F7FFFFF731FD01F079FAFEF774
:10281800DFFE00F08DFDFFF7B1FBFFF79FF9FFF733
:102828005BF9FFF7E1FA01F00FFD01F093FD0120DC
:1028380001F0C2FD002001F0E3FD0120FEF7FAFEE1
:1028480008BD00BFFC11002044120020B411002074
:102858002DE9F04182B03221002000F077FDE1211E
:10286800042000F073FD11E00120FFF79DF9002816
:1028780040F0DA800220FFF797F9002840F0D7806F
:102888000320FFF791F9002840F0D580FFF7BEFC40
:102898006D4D012600962B466C4A00210420FFF757
:1028A8002DFF002400940E23802219462046FFF7AE
:1028B8003BFE674F00943B46664A10212046FFF7CF
:1028C800E7FE00943B46644A1C212046FFF7E0FEE1
:1028D80000943B46614A28212046FFF7D9FE009420
:1028E8003B465F4A34212046FFF7D2FE00942B4630
:1028F8005C4A10211820FFF701FF00942B465A4A22
:102908001C211820FFF7FAFE00942B46574A28216D
:102918001820FFF7F3FE00962B46554A342118205D
:10292800FFF7ECFE00942B46524A10214020FFF797
:10293800E5FEDFF84481514E514B1B684246282181
:10294800304604F04DF900943B463246102164208D
:10295800FFF79EFE00942B464A4A1C214020FFF7B1
:10296800CDFE494B1868FDF7F9FE4849FDF7FEFF13
:10297800FDF7BAFDCDE90001454A2821304604F0AB
:102988002FF900943B4632461C215820FFF780FE61
:1029980000942B463F4A28214020FFF7AFFE3E4BCC
:1029A80093F9013042462821304604F019F9009481
:1029B8003B46324628215820FFF76AFE00942B46F2
:1029C800364A34214020FFF799FE354A117853786A
:1029D800194493780B44D1780B44117919445379ED
:1029E800194493790B44D27913444246282130463E
:1029F80004F0F6F800943B46324634216420FFF791
:102A080047FEFFF70DFC2046FFF7CEF800283FF4FD
:102A18002BAF1B4A136801331360072B7FF424AFD5
:102A2800134601221A601FE7FFF78AF822E70220FF
:102A3800FEF700FE24E71B4B01221A70C82001F0A4
:102A4800D9FE02B0BDE8F08110E70008B0ED00083B
:102A58009CDC0008D0ED0008D8ED0008E0ED000887
:102A6800E8ED0008F0ED0008FCED000800F20008B1
:102A780008EE000810EE000818EE000860100020AC
:102A88000C0000201CEE0008A40A00200000C84228
:102A980024EE00082CEE0008D412002034EE0008C2
:102AA800FC0A00207414002030B583B0012144F2E0
:102AB800506001F0ADFD3221002000F047FC82217A
:102AC800042000F043FC00240BE0012500950023BE
:102AD8001A4619466042FFF765FB284601F08AFE50
:102AE8002C443F2CF1DD01F00FFE0028FBD100241F
:102AF80000940123224621462046FFF753FB234634
:102B080022462146402001F035FDFFF70FF90F4B13
:102B18001B68B3F57A6FFADB3221002000F016FC4F
:102B28004FF48771042000F011FC084B1A6842F634
:102B3800DF639A42F9DDFFF7F3F8FFF7EBF80028B7
:102B4800FBD0FFF70DF903B030BD00BF980B002094
:102B580008B53221002000F0F9FBE121042000F043
:102B6800F5FB012142F2283001F052FD4FF4FA70D2
:102B780001F040FE0020FEF75DFD08BD10B582B0F3
:102B8800D24B1B68013B052B4AD8DFE813F006003F
:102B98004B008F00D30017015B010121002001F0D9
:102BA80037FD002408E00123009300231A46194644
:102BB8006042FFF7F7FA01343F2CF4DD40F6C41009
:102BC80001F018FE002400942346224621462046A0
:102BD800FFF7E8FA0123224621466FF03F0001F093
:102BE800C9FC4FF4966001F005FE012322462146F8
:102BF800204601F0BFFC4FF4FA7001F0FBFD012301
:102C080022466FF06301204601F0B4FC4FF4966051
:102C180001F0F0FD012322462146204601F0AAFCDE
:102C280002B010BD0121002001F0F2FC002408E0F0
:102C38000123009300231A4619466042FFF7B2FAAF
:102C480001343F2CF4DD40F6C41001F0D3FD00241C
:102C580000942346224621462046FFF7A3FA012383
:102C6800224621466FF03F0001F084FC4FF4966045
:102C780001F0C0FD012322462146204601F07AFCDE
:102C88004FF4FA7001F0B6FD012322466FF063019C
:102C9800204601F06FFC40F6485001F0ABFD0123DF
:102CA80022462146204601F065FCB9E701210020B3
:102CB80001F0AEFC002408E00123009300231A462B
:102CC80019466042FFF76EFA01343F2CF4DD40F6F6
:102CD800C41001F08FFD00240094234622462146AB
:102CE8002046FFF75FFA0123224621466FF03F0096
:102CF80001F040FC4FF4966001F07CFD0123224670
:102D08002146204601F036FC4FF4FA7001F072FDBE
:102D1800012322466FF06301204601F02BFC41F2AB
:102D2800707001F067FD012322462146204601F01C
:102D380021FC75E7012144F2506001F069FC002490
:102D480008E00123009300231A4619466042FFF762
:102D580029FA01343F2CF4DD40F6C41001F04AFD95
:102D6800002400942346224621462046FFF71AFAFB
:102D78000123224621466FF03F0001F0FBFB4FF490
:102D88002F7001F037FD012322462146204601F02D
:102D9800F1FB4FF4FA7001F02DFD01232246642166
:102DA800204601F0E7FB4FF4966001F023FD012374
:102DB80022462146204601F0DDFB31E7012144F29D
:102DC800506001F025FC002408E001230093002353
:102DD8001A4619466042FFF7E5F901343F2CF4DD45
:102DE80040F6C41001F006FD002400942346224654
:102DF80021462046FFF7D6F90123224621466FF0E7
:102E08003F0001F0B7FB4FF42F7001F0F3FC0123F2
:102E180022462146204601F0ADFB4FF4FA7001F03E
:102E2800E9FC012322466421204601F0A3FB40F679
:102E3800485001F0DFFC012322462146204601F0DC
:102E480099FBEDE6012144F2506001F0E1FB00241A
:102E580008E00123009300231A4619466042FFF751
:102E6800A1F901343F2CF4DD40F6C41001F0C2FC96
:102E7800002400942346224621462046FFF792F973
:102E88000123224621466FF03F0001F073FB4FF407
:102E98002F7001F0AFFC012322462146204601F0A5
:102EA80069FB4FF4FA7001F0A5FC01232246642166
:102EB800204601F05FFB41F2707001F09BFC01239A
:102EC80022462146204601F055FBA9E60C000020C9
:102ED8002DE9F04383B00024032601965025009580
:102EE80040F2311322462146374801F06FF9019626
:102EF8000095D22322462146344801F079F901F0A1
:102F080089F9FFF783F9DFF8C890002500954B464B
:102F1800304A28214020FFF7F1FB2F4EDFF8BC8014
:102F28002F4C338842462821204603F059FE2D4F66
:102F380000953B46224628215820FFF7A9FB00951B
:102F48004B46294A34214020FFF7D8FB274B1B88E2
:102F580042462821204603F043FE00953B46224680
:102F680034216420FFF794FBFFF75AF93388A3F55F
:102F780096739BB20A2BC2D81C4B1B88CD3B9BB2C5
:102F88000A2BBCD801232A4629466FF01D0001F000
:102F9800F1FA4FF4E16001F02DFC01232A4629469D
:102FA800284601F0E7FA4FF47A7001F029FA022076
:102FB800FEF740FB41F2883001F01CFC284601F086
:102FC8001FFA03B0BDE8F0839A9999BECDCC4C3E68
:102FD80010E700082CEE00085A14002018EE00082C
:102FE800601000209CDC000834EE00085C1400200F
:102FF80030B583B00123002211461E2001F0BAFA31
:103008004FF4E16001F0F6FB01230022114610465F
:1030180001F0B0FA322001F0EDFBC44B1B68013B14
:10302800052B44D8DFE813F0060045008300C100F3
:1030380001014101012300226421104601F09AFA9E
:103048004FF4966001F0D6FB01230022114610468A
:1030580001F090FA4FF4FA7001F0CCFB0123002242
:103068001146402001F086FA4FF4966001F0C2FB49
:10307800012146F6781001F0CBFA012500950023CE
:103088001A4619464020FFF78DF840F6B83001F08F
:10309800B1FB002400942346224621462046FFF730
:1030A80081F82B4622462146204601F063FA03B0F8
:1030B80030BD012300226421104601F05BFA40F67E
:1030C800485001F097FB012300221146104601F0F9
:1030D80051FA4FF4FA7001F08DFB012300221146DA
:1030E800402001F047FA4FF4966001F083FB01217C
:1030F80046F6781001F08CFA0125009500231A464F
:1031080019464020FFF74EF840F6B83001F072FB40
:10311800002400942346224621462046FFF742F821
:103128002B4622462146204601F024FABFE7012318
:1031380000226421104601F01DFA41F27C5001F092
:1031480059FB012300221146104601F013FA4FF4EF
:10315800FA7001F04FFB012300221146402001F0D4
:1031680009FA4FF4966001F045FB012146F6781004
:1031780001F04EFA0125009500231A461946402011
:10318800FFF710F840F6B83001F034FB0024009443
:103198002346224621462046FFF704F82B462246BE
:1031A8002146204601F0E6F981E7012300226FF06D
:1031B8006301104601F0DEF94FF4966001F01AFB46
:1031C800012300221146104601F0D4F94FF4FA7099
:1031D80001F010FB0123002211466FF03F0001F0BF
:1031E800C9F94FF42F7001F005FB012146F678105C
:1031F80001F00EFA0125009500231A4619464020D1
:10320800FEF7D0FF40F6C41001F0F4FA0024009451
:103218002346224621462046FEF7C4FF2B46224677
:103228002146204601F0A6F941E7012300226FF06C
:103238006301104601F09EF940F61C4001F0DAFAED
:10324800012300221146104601F094F94FF4FA7058
:1032580001F0D0FA0123002211466FF03F0001F07F
:1032680089F94FF42F7001F0C5FA012146F678105C
:1032780001F0CEF90125009500231A461946402091
:10328800FEF790FF40F6C41001F0B4FA0024009451
:103298002346224621462046FEF784FF2B46224637
:1032A8002146204601F066F901E7012300226FF06C
:1032B8006301104601F05EF941F27C5001F09AFA80
:1032C800012300221146104601F054F94FF4FA7018
:1032D80001F090FA0123002211466FF03F0001F03F
:1032E80049F94FF42F7001F085FA012146F678105C
:1032F80001F08EF90125009500231A461946402051
:10330800FEF750FF40F6C41001F074FA0024009450
:103318002346224621462046FEF744FF2B462246F6
:103328002146204601F026F9C1E600BF0C00002026
:1033380010B5054C0021204602F0D8FE0421204695
:1033480002F0D4FE10BD00BF6C110020B1F5877FDC
:1033580001D94FF487714FF4FA6303FB01F10D4B68
:10336800A3FB0131090A01F5FA7118B90A4B1B6868
:1033780059637047042805D0082807D0064B1B68F6
:1033880019647047044B1B6899637047024B1B68AC
:10339800D963704749D6B9F26C11002082B00E4B40
:1033A8009A6942F001029A619A6902F00102009258
:1033B800009ADA6942F08052DA61DB6903F08053DF
:1033C8000193019B054A536823F0E06343F00073BF
:1033D800536002B0704700BF001002400000014077
:1033E800FEE7FEE7FEE7FEE7FEE770477047704737
:1033F80008B501F0EDF90C4A136801331360132B7B
:1034080006DC0A4A136801331360132B06DC08BD77
:10341800FEF712FE044B00221A60F2E7FEF730FDB9
:10342800024B00221A60F2E7881000208C1000205E
:1034380008B5102001F05EFC08BD08B5202001F099
:1034480059FC402001F056FC802001F053FC08BDD7
:1034580008B5024803F09EF908BD00BF24130020F8
:1034680008B5024803F096F908BD00BF6C130020A8
:1034780008B5FEF739FE024802F09DFB08BD00BF03
:10348800B411002008B5024803F084F908BD00BF54
:10349800B413002008B5024803F07CF908BD00BF4A
:1034A800FC13002008B500F083FC024802F083FBFF
:1034B80008BD00BFFC11002008B5094B1B7833B9C3
:1034C800084B1B783BB9084802F075FB08BD002083
:1034D800FEF710FCF4E701F0CFF800F0ADFFF2E7DB
:1034E800E00A0020741400204412002008B500F0FF
:1034F80053FC08BD08B503680C4A934209D00C4A2E
:10350800934209D00B4A934209D00B4A934209D0FF
:1035180008BDFEF757FDFBE7FEF784FCF8E7FEF76A
:10352800E7FAF5E700F0D8FEF2E700BF00440040F4
:1035380000500040004C0040004800400120704707
:1035480008B503F09DFA162303604FF0FF3008BD5D
:1035580008B54FF0FF31FFF7F3FFFEE770B50C46F3
:103568001646002506E0AFF30080214601F8010B5E
:1035780001350C46B542F6DB304670BD70B50C46D9
:103588001646002504E014F8010BAFF3008001355E
:10359800B542F8DB304670BD4FF0FF3070474FF44E
:1035A80000534B600020704701207047002070478F
:1035B80010B503460C4A0D490D48006840B10C4847
:1035C80000680344521A934206D8094A136010BD92
:1035D8000748084C0460F2E703F052FA0C23036032
:1035E8004FF0FF30F3E700BF00C0002000040000E8
:1035F80090100020D01400207047000000B587B05C
:1036080000230293039304930593009301931548B1
:10361800154A026040F2CF224260836040F2F31202
:10362800C2600361836102F0C9FB90B94FF4805313
:10363800029302A90B4802F0CBFC68B9002300935F
:1036480001936946074802F011FE40B907B05DF8DA
:1036580004FBFEF725FCE9E7FEF722FCEEE7FEF7A0
:103668001FFCF3E7B4110020000C004000B583B044
:103678000023009301930F480F4A026047224260DB
:10368800836042F20F73C3608023836102F096FB6C
:1036980050B90023009301936946064802F0E6FDFD
:1036A80028B903B05DF804FBFEF7FAFBF1E7FEF773
:1036B800F7FBF6E7FC1100200010004000B583B0CE
:1036C8000023009301930F480F4A0260472242608B
:1036D800836044F61F63C3608023836102F06EFB3E
:1036E80050B90023009301936946064802F0BEFDD5
:1036F80028B903B05DF804FBFEF7D2FBF1E7FEF74B
:10370800CFFBF6E7441200200014004086B003689F
:10371800234A934216D0B3F1804F1FD0214A9342D7
:1037280028D0214A934230D0204A934214D1204BCA
:103738009A6942F400529A619B6903F40053059315
:10374800059B09E01A4B9A6942F400629A619B69E9
:1037580003F400630193019B06B0704703F504333B
:10376800DA6942F00102DA61DB6903F001030293CE
:10377800029BF1E70E4BDA6942F00202DA61DB697B
:1037880003F002030393039BE6E7094BDA6942F06F
:103798000402DA61DB6903F004030493049BDBE7AA
:1037A800002C0140000400400008004000340140A3
:1037B8000010024000B585B00368224A934208D041
:1037C800214A934218D0214A934228D005B05DF887
:1037D80004FB1F4BDA6942F00802DA61DB6903F087
:1037E80008030193019B00220121322001F028F8EF
:1037F800322001F05DF8E9E7154BDA6942F0100272
:10380800DA61DB6903F010030293029B00220121B5
:10381800362001F015F8362001F04AF8D6E70C4BAF
:10382800DA6942F02002DA61DB6903F020030393CE
:10383800039B00220221372001F002F8372001F013
:1038480037F8C3E7000C00400010004000140040A7
:103858000010024000B58BB000230693079308932D
:1038680009930368404A93420ED0B3F1804F20D0A9
:103878003E4A934231D03E4A93424BD03D4A93420E
:103888005CD00BB05DF804FB3B4B9A6942F0040234
:103898009A619B6903F004030193019B4FF4106341
:1038A800069302230793099306A9344801F0FCF80C
:1038B800E7E703F504339A6942F004029A619B69C9
:1038C80003F004030293029B0223069307930993D0
:1038D80006A92A4801F0E8F8D3E7274B9A6942F08D
:1038E80008029A619B6903F008030393039B33233F
:1038F800069302230793099306A9214801F0D4F8F7
:10390800204A536823F4406343F0E06343F40063C0
:103918005360B6E7184B9A6942F008029A619B69AE
:1039280003F008030493049BC02306930223079320
:10393800099306A9124801F0B7F8A2E70E4B9A6955
:1039480042F010029A619B6903F010030593059BEE
:103958004FF44073069302230793099306A90A4874
:1039680001F0A2F88DE700BF002C014000040040E0
:1039780000080040003401400010024000080140E7
:10398800000C0140000001400010014010B592B049
:1039980000241094119409940A940B940C940D9497
:1039A8000E940F942022214601A803F0C7F8274857
:1039B800274B0360446084604FF6FF73C360046163
:1039C8004461846102F026FA002830D10023109364
:1039D800119310A91D4802F049FC00282AD1602340
:1039E800099300220A920B920C920D920E920F925A
:1039F80009A9164802F072FAF8B90C2209A9134865
:103A080002F06CFAE0B90023019302930393049344
:103A180005934FF400520692089301A90B4802F04F
:103A280063FC80B90948FFF715FF12B010BDFEF717
:103A380037FACBE7FEF734FAD1E7FEF731FADCE7DD
:103A4800FEF72EFADFE7FEF72BFAEBE794100020DB
:103A5800002C014000B58BB0002308930993019313
:103A680002930393049305930693079319484FF021
:103A7800804202600222426083604FF47A72C26020
:103A88000361836102F0C6F9D0B900230893099352
:103A980008A9104802F0EAFBA8B9602301930023A3
:103AA80002930393059304220DEB0201094802F0E7
:103AB80015FA58B90748FFF7CDFE0BB05DF804FBBF
:103AC800FEF7EEF9E1E7FEF7EBF9E6E7FEF7E8F9CE
:103AD800F0E700BFDC10002000B58BB0002308938E
:103AE8000993019302930393049305930693079311
:103AF8002548264A0260436083604FF6FF72C26021
:103B08000361836102F086F958BB00230893099387
:103B180008A91D4802F0AAFB30BB602301930022CC
:103B280002920392059201A9174802F0D7F9F0B959
:103B380004220DEB0201144802F0D0F9D0B9082292
:103B480001A9114802F0CAF9B8B90C2201A90E4816
:103B580002F0C4F9A0B90C48FFF77CFE0BB05DF881
:103B680004FBFEF79DF9D0E7FEF79AF9D5E7FEF7D3
:103B780097F9DDE7FEF794F9E1E7FEF791F9E4E755
:103B8800FEF78EF9E7E700BF24110020000400408B
:103B980000B58BB000230893099301930293039314
:103BA80004930593069307931F48204A026047220F
:103BB8004260836044F61F62C2600361836102F061
:103BC80029F920BB00230893099308A9164802F095
:103BD8004DFBF8B96023019340F26633029300224B
:103BE8000392059201A9104802F078F9A8B940F6A5
:103BF8007703029304220DEB02010B4802F06EF9E1
:103C080070B90948FFF726FE0BB05DF804FBFEF714
:103C180047F9D7E7FEF744F9DCE7FEF741F9E6E7AD
:103C2800FEF73EF9EDE700BF6C11002000080040E8
:103C380010B592B000241094119409940A940B942E
:103C48000C940D940E940F942022214601A802F0A2
:103C580075FF2948294B036047234360846040F27D
:103C6800E733C360046144618023836102F0D2F8C2
:103C7800002831D100231093119310A91E4802F097
:103C8800F5FA00282BD16023099300230A930B939C
:103C98000C930D930E930F93082209A9164802F06E
:103CA8001DF9F8B90C2209A9134802F017F9E0B96F
:103CB8000023019302930393049305934FF4005256
:103CC8000692089301A90C4802F00EFB80B90A4835
:103CD800FFF7C0FD12B010BDFEF7E2F8CAE7FEF725
:103CE800DFF8D0E7FEF7DCF8DCE7FEF7D9F8DFE726
:103CF800FEF7D6F8EBE700BF8C1200200034014035
:103D0800014B00221A707047D812002030B49DF879
:103D18000850C0F1000C0C4C84F801C0C1F1000C33
:103D280084F802C0E27023715DB14FF0010C064CBB
:103D380084F805C0054C20706170A270E37030BC37
:103D480070474FF0000CF2E714000020D412002056
:103D580008B5074B1B7843B9054B01221A700B2293
:103D68000449054802F06FFC08BD0220FCE700BFCB
:103D7800D8120020140000202413002010B540425F
:103D8800044CA0714942E17122726372FFF7E0FFAF
:103D980010BD00BF14000020034B834200D07047C1
:103DA800024B00221A70FAE724130020D8120020D0
:103DB80008B50023032B09DC084A32F8132012B295
:103DC8000749C9568A4204D10133F3E7012313B1E5
:103DD80008BD0023FBE7FFF7BBFFF9E7A00B0020B6
:103DE800D412002008B50A480A4B03604FF4E133A7
:103DF800436000238360C36003610C2242618361D6
:103E0800C36102F08AFB00B908BDFEF749F8FBE779
:103E1800B4130020004C004008B50A480A4B036060
:103E28004FF4E133436000238360C36003610C22D5
:103E380042618361C36102F070FB00B908BDFEF7FF
:103E48002FF8FBE7FC1300200050004008B50A4893
:103E58000A4B03604FF4E133436000238360C3607F
:103E680003610C2242618361C36102F056FB00B911
:103E780008BDFEF715F8FBE7DC120020003801400A
:103E880008B50A480A4B03604FF4E1334360002346
:103E98008360C36003610C2242618361C36102F0E5
:103EA8003CFB00B908BDFDF7FBFFFBE7241300202E
:103EB8000044004008B50A480A4B03604FF4E13358
:103EC800436000238360C36003610C224261836105
:103ED800C36102F022FB00B908BDFDF7E1FFFBE773
:103EE8006C1300200048004030B591B000230C93BB
:103EF8000D930E930F930368844A93420FD0844A1C
:103F080093423ED0834A934274D0834A934200F04E
:103F18009B80824A934200F0C78011B030BD804B2D
:103F2800DA6942F40022DA61DA6902F400220192C5
:103F3800019A9A6942F010029A619B6903F0100392
:103F48000293029B4FF480630C9302230D93032387
:103F58000F93744D0CA9284600F0A6FD4FF400639A
:103F68000C9300240D940E940CA9284600F09CFD97
:103F780022462146342000F063FC342000F098FCEF
:103F8800CBE7674BDA6942F48012DA61DA6902F446
:103F980080120392039A9A6942F010029A619A6910
:103FA80002F010020492049A9A6942F020029A617F
:103FB8009B6903F020030593059B4FF480530C93F2
:103FC80002230D9303230F930CA9564800F06CFDB0
:103FD80004230C9300240D940E940CA9524800F06D
:103FE80063FD22462146352000F02AFC352000F0EA
:103FF8005FFC92E74A4B9A6942F480429A619A6957
:1040080002F480420692069A9A6942F004029A6182
:104018009B6903F004030793079B4FF400730C9309
:1040280002230D9303230F93404C0CA9204600F064
:104038003BFD4FF480630C9300230D930E930CA962
:10404800204600F031FD68E7354BDA6942F400326A
:10405800DA61DA6902F400320892089A9A6942F041
:1040680004029A619B6903F004030993099B0423E2
:104078000C9302230D9303230F932C4D0CA9284670
:1040880000F012FD08230C9300240D940E940CA943
:10409800284600F009FD22462146262000F0D0FBE4
:1040A800262000F005FC38E71D4BDA6942F480222F
:1040B800DA61DA6902F480220A920A9A9A6942F06D
:1040C80008029A619B6903F008030B930B9B4FF45A
:1040D80080630C9302230D9303230F93144D0CA9B3
:1040E800284600F0E1FC4FF400630C9300240D9483
:1040F8000E940CA9284600F0D7FC2246012127205F
:1041080000F09EFB272000F0D3FB06E7004C0040A0
:104118000050004000380140004400400048004082
:104128000010024000100140001401400008014046
:10413800000C01402DE9F041C368CD1A85EAE5720B
:10414800A2EBE57243699A423EDB04462846FCF737
:1041580005FB8046A169FCF74DFA0646A061E769B0
:10416800EF1BE56121684046FCF74CFB054661689A
:104178003046FCF747FB01462846FCF73BFA054664
:10418800A6683846FCF7EAFA3146FCF73BFB0146DD
:104198002846FCF72FFA054626693046FCF7DEFA72
:1041A80004462946FCF7CCFC00B92C467042FCF7C3
:1041B800D5FA05462146FCF7E1FC00B92546284614
:1041C800FCF7E6FCBDE8F0810020FBE710B4074CE3
:1041D80020606160A260E360019B2361029B6361D0
:1041E8000023A3610023E36110BC70472000002076
:1041F80010B4074C20606160A260E360019B2361FA
:10420800029B63610023A3610023E36110BC704734
:104218004000002010B5084B19880848FFF78AFFAE
:104228000446074B19880748FFF784FF00231A46FE
:10423800214600F09FF910BD5A14002020000020EC
:104248005C1400204000002008B501220249034800
:1042580002F0FFFB08BD00BF581400206C130020BB
:10426800184B1B7853B1174B00221A70164B1B784A
:10427800212B03D1144B1B7B232B00D0704700B597
:1042880085B01249104AB2F80100D37808808B70C3
:104298000023CB7002938DF80C3000938DF8043016
:1042A800536802939368009302A802F0E5FB084B59
:1042B8001880684602F0E0FB064B188005B05DF8F0
:1042C80004FB00BF521400204414002054140020A2
:1042D8005A1400205C14002008B5184A13680133EA
:1042E8001360174B1B78212B14D0164A11784A1EDD
:1042F800D2B20B2A15D84A1CD2B212480270124800
:1043080043540D2A0DD1037B232B10D00D4B0022D3
:104318001A7006E00B4A00211170012111700A4A37
:10432800137001220649094802F093FB08BD084BA7
:1043380001221A70FFF794FFE8E700BF340A002053
:104348005814002051140020441400206C1300203D
:104358005214002000B583B0134A536823F0E06379
:1043680043F000735360114B996941F00101996161
:104378009B6903F001030193019B536823F0E063F9
:1043880043F00073536000224FF44041084800F0A6
:10439800ABFC0848036800229A63042101F0A6FEDA
:1043A80003B05DF804FB00BF0000014000100240AC
:1043B80000080140DC10002010B510B101280ED013
:1043C80010BD0E4C01224FF40041204600F08CFC39
:1043D80000224FF48041204600F086FCF0E7074CAD
:1043E80000224FF40041204600F07EFC01224FF4E9
:1043F8008041204600F078FCE2E700BF0008014059
:10440800B0F57A7F01D94FF47A70024B1B68986334
:10441800704700BFDC10002008B5431AA3EB020C5C
:104428000844811A104413445BB242B249B24FFAAD
:104438008CF0FFF7A3FC08BD70B5454B1C68454BD5
:104448001B68E41A02E0A4F50C44A03C44F2506353
:104458009C42F8DC02E004F50C44A0343E4B9C423C
:10446800F9DBE21726463D4803684168E31841EB4B
:10447800E4710360416042F21170834271F10003FC
:1044880005DB364B42F210700021C3E90001334BC3
:1044980018685968324B98424FF0FF3371EB0303A9
:1044A80005DA2E4B2E484FF0FF31C3E900012D4BA2
:1044B8001D68651B910041EA9671B300981942EB9B
:1044C8000103DB0043EA5073C000801B63EB020367
:1044D8001B0143EA10730001801942EB0302D2006A
:1044E80042EA5072C0001D4B19685E684FEA860C9C
:1044F8004CEA917C8B005B1846EB0C06DB18764186
:10450800C01842EB0602642605FB06F6851942EB45
:10451800E676154A4FF0FF3328463146FCF75EFB36
:104528000246124B9D424FF0FF3376EB030307DB45
:104538000F4B9D4276F1000303DB6FF07E0200E033
:104548007F22084B1C6000210846FFF765FF70BDFD
:104558006C140020A40A0020B0B9FFFF60140020EA
:10456800F0D8FFFF681400206079FEFF01B03CFF1F
:104578000050C30000B583B0A0EB010CACEB020EF9
:104588000844811A10446244009353B242B249B2BB
:104598004FFA8EF0FFF7BAFB03B05DF804FB00009A
:1045A80002E0A0F50C40A03844F250639842F8DCD1
:1045B80002E000F50C40A030014B9842F9DB70474F
:1045C800B0B9FFFF38B504464FF07C51FCF7B8FA94
:1045D80038B121462046FCF70DF82146FCF712F9C0
:1045E80038BD4FF040412046FCF70CF92146FCF756
:1045F80009F905464FF081412046FCF703F90146C9
:104608002846FBF7F7FF4FF07E51FBF7F1FFE7E78E
:1046180008B5124B1B781BB1114B1B68834211D094
:104628000F4B186079B10F4B1B680F4A1360C01A03
:10463800FFF7B6FF0D4B18600D4B00221A80074B91
:1046480001221A7008BD054B00221A70094B1A88FE
:10465800074B1A80034B1860F4E700BF751400205D
:10466800701400206C1400207C14002078140020A2
:104678008014002060000020F8B51D4B1B78002B2B
:1046880035D01C4B1C882046FCF764F805461A4BAD
:104698001E883046FCF75EF801462846FCF766F9A6
:1046A80005464FF07E51FCF769FA08B14FF07E5588
:1046B8002846FFF787FF0546104B1F683846FCF76A
:1046C8004DF82946FCF79EF8FCF762FA0C4B1B687C
:1046D80018440C4A10600134A4B2064A1480A64259
:1046E80005D8034A002111701F44064B1F60F8BD0E
:1046F8007514002080140020600000207814002029
:104708007C1400206C140020014B1878704700BFFF
:1047180075140020FEF770FF0B480C490C4A002363
:1047280002E0D458C4500433C4188C42F9D3094A5F
:10473800094C002301E013600432A242FBD302F0CB
:10474800A5F9FDF7E1FB704700000020180A0020DA
:1047580048F60008180A0020D0140020FEE70000E0
:1047680010B504460E4B18784FF47A73B3FBF0F388
:104778000C4A1068B0FBF3F000F0A8F868B90F2CE9
:1047880001D901200AE0002221464FF0FF3000F055
:1047980057F8054B1C60002000E0012010BD00BF49
:1047A80062000020100000206400002008B5074ABD
:1047B800136843F010031360032000F02FF80F2054
:1047C800FFF7CEFFFEF7EAFD002008BD00200240FB
:1047D800034A1168034B1B780B441360704700BFF2
:1047E8008414002062000020014B1868704700BF45
:1047F8008414002038B50446FFF7F6FF0546B4F1E7
:10480800FF3F02D0044B1B781C44FFF7EDFF401B11
:10481800A042FAD338BD00BF62000020074AD3681F
:1048280023F4E0631B041B0C000200F4E060034364
:1048380043F0BF6343F40033D360704700ED00E0FA
:1048480000B5194BDB68C3F30223C3F1070CBCF1B5
:10485800040F28BF4FF0040C03F1040EBEF1060F3D
:1048680018D9033B4FF0FF3E0EFA0CFC21EA0C016D
:1048780099400EFA03F322EA0303194300280BDBDD
:104888000901C9B200F1604000F5614080F80013E9
:104898005DF804FB0023E5E700F00F000901C9B249
:1048A800024B1954F4E700BF00ED00E014ED00E0FE
:1048B800002807DB00F01F02400901239340024A49
:1048C80042F82030704700BF00E100E00138B0F145
:1048D800807F0BD24FF0E0235861054AF02182F81F
:1048E80023100020986107221A6170470120704741
:1048F80000ED00E090F82130DBB2022B06D0042353
:104908008363002380F82030012070470268136811
:1049180023F00E0313600268136823F00103136089
:10492800036CC16B012202FA03F34B6080F821206B
:10493800002380F8203018467047000008B590F82A
:104948002130DBB2022B03D004238363012008BD8E
:104958000268136823F00E0313600268136823F0DB
:104968000103136003684C4A93424ED9783A934244
:1049780024D01432934230D0143293422FD01432C0
:1049880093422FD0143293422FD0143293422FD017
:10499800143293422FD002F5627293422ED0143211
:1049A80093422DD0143293422CD01432934202D029
:1049B8004FF4803203E04FF4805200E00122374B7D
:1049C8005A60012380F82130002380F82030436B9F
:1049D800002B5ED098470020B9E71022EFE74FF48C
:1049E8008072ECE74FF48052E9E74FF48032E6E753
:1049F8004FF48012E3E74FF08072E0E70122DEE730
:104A08001022DCE74FF48072D9E7254A934224D07C
:104A18001432934225D01432934224D01432934254
:104A280024D01432934224D01432934224D0143226
:104A3800934224D002F56272934223D014329342F7
:104A480022D01432934221D01432934202D04FF430
:104A5800803203E04FF4805200E00122114B5A608B
:104A6800AFE71022FAE74FF48072F7E74FF480526D
:104A7800F4E74FF48032F1E74FF48012EEE74FF09D
:104A88008072EBE70122E9E71022E7E74FF4807232
:104A9800E4E700205BE700BF80000240000402401A
:104AA800080002400000024070B582B00024A4460D
:104AB800B0E0874DAA4210D007D9864DAA420CD043
:104AC80005F58035AA4208D013E0A5F58015AA425D
:104AD80003D005F57025AA4207D18A68002A62D05A
:104AE800012A5BD04361082403E0A5F58015AA429A
:104AF800F3D0BEF1FF0F58D80646BEF1FF0F56D8C7
:104B08004FEA8C0233680F25954023EA050304FA1F
:104B180002F2134333604B6813F0805F78D06E4B1A
:104B28009A6942F001029A619B6903F001030193BB
:104B3800019B4FEA9C02951C684B53F825600CF0CA
:104B480003039D000F23AB4026EA0306644B9842FB
:104B580033D003F58063984200F0988003F58063B2
:104B6800984200F0958003F58063984200F09280A7
:104B780003F58063984200F08F8003F580639842C4
:104B880019D006231AE0CC68B3E7CC680434B0E740
:104B9800CC680834ADE7CC680C34AAE70361082474
:104BA800A7E70024A5E70424A3E7061DA5E7ACF1C1
:104BB80008029200A6E7052300E00023AB40334338
:104BC8000232464D45F822304B6813F4801F65D0F9
:104BD800444A936843EA0E0393604B6813F4001F3A
:104BE80062D0404AD36843EA0E03D3604B6813F49B
:104BF800003F5FD03B4A536843EA0E0353604B685B
:104C080013F4803F5CD0374A136843EA0E031360FD
:104C18000CF1010C0A6832FA0CF357D0012303FA9D
:104C28000CF302EA030E33EA0202F1D14A68122AAF
:104C38003FF63FAF122A3FF65CAF01A555F822F0C8
:104C4800E34A00088F4B0008994B0008AB4B00085B
:104C5800FB4A0008FB4A0008FB4A0008FB4A000818
:104C6800FB4A0008FB4A0008FB4A0008FB4A000808
:104C7800FB4A0008FB4A0008FB4A0008FB4A0008F8
:104C8800FB4A0008934B00089F4B0008012395E757
:104C9800022393E7032391E704238FE7114A9368DC
:104CA80023EA0E03936098E70E4AD36823EA0E03BB
:104CB800D3609BE70B4A536823EA0E0353609EE7D1
:104CC800084A136823EA0E031360A1E702B070BD17
:104CD80000002210000031100010024000000140C6
:104CE80000080140000401400AB10161704709044D
:104CF8000161704708B5054B5B69034200D108BDE7
:104D0800024B5861FCF760FFF9E700BF000401405F
:104D180003685A6912F4806F01D1002070476FF45C
:104D280080625A6100230363202280F83D2080F8C6
:104D38003E30026C42F00402026480F83C300120EC
:104D480070472DE9F04106460C46174698463BE069
:104D5800FFF74AFD069BC01A404502D8B8F1000F7C
:104D680032D1012D18D033689B6924EA03039BB222
:104D7800B3FA83F35B099F4226D1002333632022D1
:104D880086F83D2086F83E30326C42F020023264CC
:104D980086F83C30012027E033685B6924EA030386
:104DA8009BB2B3FA83F35B09E5E733685B6924EAEE
:104DB800030C1FFA8CFCBCFA8CFC4FEA5C1C6745A0
:104DC80011D1B8F1FF3FC3D1C4F30745012DECD091
:104DD80033689B6924EA030C1FFA8CFCBCFA8CFC30
:104DE8004FEA5C1CEBE70020BDE8F0812DE9F843B1
:104DF80005460E469046994653E01A6842F40072FA
:104E08001A602B686FF480625A6100232B6320229A
:104E180085F83D2085F83E302A6C42F004022A6469
:104E280085F83C3001204AE0FFF7DEFCA0EB0900E2
:104E3800404502D8B8F1000F33D1012F17D02B68A5
:104E48009B6926EA03039BB2003B18BF012343B3C7
:104E580000232B63202285F83D2085F83E302A6CFC
:104E680042F020022A6485F83C30012027E02B68B4
:104E78005B6926EA03039BB2003B18BF0123E6E700
:104E88002B689C6926EA0404A4B2003C18BF0124DC
:104E9800A4B12B685A6912F4806FAED1B8F1FF3F04
:104EA800C2D1C6F30747012FEAD12B685C6926EA0D
:104EB8000404A4B2003C18BF0124E9E70020BDE8BF
:104EC800F8830000F0B583B004460D4616461F4629
:104ED800C36A082B0DD0012B0BD013F5803F08D0E7
:104EE800036B122B0AD10268136843F480731360B2
:104EF80004E02268136843F4807313600097334614
:104F080000224FF001112046FFF71BFF80B92369EB
:104F1800B3F5804F16D1236805F0FE051D613B46A9
:104F2800324613492046FFF761FFF8B903B0F0BDD8
:104F380023681B6813F4807F02D04FF40073236446
:104F48000320F3E7EB11226803F0060343F0F003B4
:104F580013613B46324607492046FFF747FF18B919
:104F68002368EDB21D61DAE70120DFE70120DDE704
:104F7800020001000800010070B504460D461646FF
:104F880023685B6913F0800F21D12046FFF7C0FE2C
:104F9800F8B9B5F1FF3FF3D0FFF726FC801BA84214
:104FA80001D8002DECD123685B6913F0800FE7D19D
:104FB80000232363202284F83D2084F83E30226CAD
:104FC80042F02002226484F83C30012000E00020F6
:104FD80070BD0120FCE770B504460D4616462368EF
:104FE8005B6913F0040F21D12046FFF791FEF8B951
:104FF800B5F1FF3FF3D0FFF7F7FB801BA84201D8BC
:10500800002DECD123685B6913F0040FE7D100236E
:105018002363202284F83D2084F83E30226C42F03D
:105028002002226484F83C30012000E0002070BD9A
:105038000120FCE7002800F0CC8070B5044690F809
:105048003D30002B77D0242384F83D302268136844
:1050580023F0010313602268136843F400431360CC
:105068002268136823F40043136000F081FC62682F
:105078005A4B9A4264D85A4B98428CBF002301235A
:10508800002B40F0A8805749A1FB00318B0C256804
:105098006A6822F03F0242EA91426A6021680A6A1D
:1050A80022F03F0266684D4DAE424FD8013313439C
:1050B8000B622168CA6922F44F4222F0FF02666837
:1050C800464B9E424CD8431E7600B3FBF6F30133A1
:1050D80040F6FC70034278D0C3F30B031343CB6153
:1050E80021680B6823F0C003E269206A0243134376
:1050F8000B6021688B6823F4034323F0FF032269C4
:10510800E068024313438B602168CB6823F0FF03F8
:105118006269A06902431343CB602268136843F0B5
:105128000103136000202064202384F83D302063AD
:1051380084F83E0070BD80F83C30FCF731FB82E714
:10514800294B98428CBF0023012399E74FF49675A9
:1051580005FB03F3254DA5FB03539B090133A6E784
:10516800A368BBB9451E06EB460CB5FBFCF501353B
:10517800C5F30B05B5FA85F56D0945BBC3B901380B
:1051880006EB4603B0FBF3F30133C3F30B0343F41D
:105198000043A3E7451E06EB860C0CEB8C0CB5FB15
:1051A800FCF50135C5F30B05B5FA85F56D09E4E79E
:1051B800013806EB860303EB8303B0FBF3F30133FB
:1051C800C3F30B0343F4404388E7042386E7012332
:1051D80084E7012070470120ACE700BFA0860100EA
:1051E8007F841E0083DE1B43FF083D00D34D621001
:1051F8002DE9F04385B004460F46914698460C9E2B
:10520800FFF7F2FA054694F83D00C0B2202804D012
:105218000227384605B0BDE8F0830095192301221E
:105228004F492046FFF78DFD002840F0928094F802
:105238003C30012B00F08F80012384F83C30236838
:105248001A6812F0010F03D11A6842F001021A60BD
:105258002268136823F400631360212384F83D3027
:10526800102384F83E3000232364C4F82490A4F863
:105278002A80638D23853B4BE3622B4632463946B1
:105288002046FFF71FFE0746002866D10023039338
:1052980023685A6903929B690393039B11E0236C6B
:1052A800042B01D00127B4E72268136843F4007384
:1052B8001360F7E72A4631462046FFF78CFE0028A0
:1052C8002ED1238D002B36D02A4631462046FFF7B3
:1052D80053FE0028E3D1626A236812781A61606A73
:1052E800431C6362618D89B2013989B26185238D5E
:1052F800013B9BB223852268516911F0040FD9D074
:10530800002BD7D043781361636A01336362638DDE
:105318009BB2013B9BB26385238D013B2385C9E783
:10532800236C042B01D0012773E72268136843F428
:1053380000731360F7E72268136843F4007313607F
:10534800202384F83D30002384F83E3084F83C3034
:105358005FE702275DE702275BE7012759E700BF00
:10536800020010000000FFFF82B0084B1B68084ACB
:10537800A2FB03235B0A00FB03F3019300BF019B1D
:105388005A1E0192002BF9D102B07047100000207C
:10539800D34D6210002800F0F18170B582B0044648
:1053A800036813F0010F2CD0994B5B6803F00C03D2
:1053B800042B1DD0964B5B6803F00C03082B12D00E
:1053C8006368B3F5803F41D0002B55D103F180438A
:1053D80003F504331A6822F480321A601A6822F43A
:1053E80080221A6037E08A4B5B6813F4803FE7D06D
:1053F800874B1B6813F4003F03D06368002B00F051
:10540800BF81236813F0020F75D0814B5B6813F0DE
:105418000C0F5FD07E4B5B6803F00C03082B54D055
:105428002369002B00F08A807A4B01221A60FFF76B
:10543800DBF90546764B1B6813F0020F75D1FFF7B1
:10544800D3F9401B0228F5D903209EE1704A13685E
:1054580043F480331360636843B3FFF7C5F9054627
:105468006B4B1B6813F4003FCBD1FFF7BDF9401B12
:105478006428F5D9032088E1B3F5A02F09D0644B3F
:105488001A6822F480321A601A6822F480221A609C
:10549800E1E703F18043A3F53C331A6842F4802224
:1054A8001A601A6842F480321A60D4E7FFF79CF950
:1054B8000546574B1B6813F4003FA2D0FFF794F939
:1054C800401B6428F5D903205FE1514B5B6813F456
:1054D800803FA5D14E4B1B6813F0020F03D0236900
:1054E800012B40F04F814A4A136823F0F8036169A1
:1054F80043EAC1031360236813F0080F33D0A3698C
:10550800002B5CD0434B0122C3F88024FFF76CF9D1
:1055180005463F4B5B6A13F0020F21D1FFF764F990
:10552800401B0228F5D903202FE1394A136823F0DC
:10553800F803616943EAC1031360DCE7354B0022D5
:105548001A60FFF751F90546314B1B6813F0020F3B
:10555800D1D0FFF749F9401B0228F5D9032014E1FF
:105568000120FFF701FF236813F0040F00F0968075
:10557800274BDB6913F0805F34D1254BDA6942F0A1
:105588008052DA61DB6903F080530193019B0125A6
:10559800214B1B6813F4807F26D0E368012B3DD094
:1055A800002B53D103F1804303F504331A6A22F028
:1055B80001021A621A6A22F004021A6233E0154BD9
:1055C8000022C3F88024FFF70FF90546104B5B6AE9
:1055D80013F0020FC7D0FFF707F9401B0228F5D9CF
:1055E8000320D2E00025D3E70B4A136843F4807305
:1055F8001360FFF7F9F80646074B1B6813F4807F22
:10560800CBD1FFF7F1F8801B6428F5D90320BCE063
:105618000010024000004242007000405F4A136AD6
:1056280043F001031362E36833B3FFF7DDF806467E
:105638005A4B1B6A13F0020F2FD1FFF7D5F8801BC6
:1056480041F288339842F3D903209EE0052B09D014
:10565800524B1A6A22F001021A621A6A22F00402F4
:105668001A62E0E74D4B1A6A42F004021A621A6A9B
:1056780042F001021A62D6E7FFF7B6F80646474B32
:105688001B6A13F0020F08D0FFF7AEF8801B41F237
:1056980088339842F3D9032077E0E5B9E369002B12
:1056A80072D03E4A526802F00C02082A56D0022BE9
:1056B80017D03B4B00221A66FFF796F80446374B83
:1056C8001B6813F0007F47D0FFF78EF8001B0228F5
:1056D800F5D9032059E0314AD36923F08053D361C7
:1056E800DCE72F4B00221A66FFF77EF805462B4BA6
:1056F8001B6813F0007F06D0FFF776F8401B0228DE
:10570800F5D9032041E0236AB3F5803F1AD0234935
:105718004B6823F47413226A606A024313434B6094
:105728001F4B01221A66FFF75FF804461B4B1B68E4
:1057380013F0007F0ED1FFF757F8001B0228F5D9A8
:10574800032022E0154A536823F40033A1680B4371
:105758005360DCE7002018E0002016E0012B16D08B
:105768000E4B5B6803F48031226A914211D103F435
:105778007013626A93420ED1002006E00120704740
:10578800012002E0012000E0002002B070BD0120ED
:10579800FBE70120F9E70120F7E700BF001002400E
:1057A800000042420F4B5B6803F00C02082A01D04C
:1057B8000D487047C3F383420C49885C13F4803F5B
:1057C8000BD0084B5B68C3F34043094AD35C064AD5
:1057D80002FB00F0B0FBF3F07047064B03FB00F050
:1057E800704700BF0010024000127A0054EE000813
:1057F80064EE000800093D00002800F0A08070B5A4
:105808000D460446524B1B6803F007038B420BD22C
:105818004F4A136823F007030B431360136803F020
:1058280007038B4240F08D80236813F0020F17D0D6
:1058380013F0040F04D0474A536843F4E0635360FD
:10584800236813F0080F04D0424A536843F46053A6
:105858005360404A536823F0F003A1680B43536038
:10586800236813F0010F31D06368012B20D0022B7D
:1058780025D0384A126812F0020F64D035494A68B8
:1058880022F0030213434B60FEF7AEFF0646314B8E
:105898005B6803F00C036268B3EB820F16D0FEF767
:1058A800A3FF801B41F288339842F0D9032045E0DA
:1058B800284A126812F4003FE0D101203EE0254A50
:1058C800126812F0007FD9D1012037E0204B1B6805
:1058D80003F00703AB420AD91D4A136823F00703F4
:1058E8002B431360136803F00703AB422DD12368E1
:1058F80013F0040F06D0174A536823F4E063E168F5
:105908000B435360236813F0080F07D0114A5368FC
:1059180023F46053216943EAC1035360FFF742FF50
:105928000C4B5B68C3F303130B4AD35CD8400B4B97
:1059380018600B4B1868FEF713FF002070BD01209C
:1059480070470120FAE70120F8E70120F6E700BFD9
:1059580000200240001002403CEE00081000002029
:1059680064000020014B1868704700BF1000002039
:1059780008B5FFF7F7FF044B5B68C3F30223034A3C
:10598800D35CD84008BD00BF001002404CEE0008B0
:1059980008B5FFF7E7FF044B5B68C3F3C223034A6C
:1059A800D35CD84008BD00BF001002404CEE000890
:1059B80030B4036A026A22F0010202624268846912
:1059C80024F073040D682C4323F0020C8B6843EA1F
:1059D8000C03104DA84203D005F50065A84205D177
:1059E80023F00803CD682B4323F00403094DA84294
:1059F80003D005F50065A84205D122F440724D692F
:105A08002A438D692A43426084614A68426303627B
:105A180030BC7047002C014030B4036A026A22F49B
:105A2800807202624268C46924F0730C0C6844EA0C
:105A38000C0523F400738C6843EA0423114CA0423C
:105A480003D004F50064A04206D123F40063CC68B7
:105A580043EA042323F480630A4CA04203D004F5EC
:105A68000064A04207D122F440524C6942EA041271
:105A78008C6942EA04124260C5614A68C2630362E3
:105A880030BC7047002C014030B4036A026A22F42B
:105A9800805202624468C26922F4E6420D6842EA12
:105AA800052223F400538D6843EA0533094DA842C3
:105AB80003D005F50065A84204D124F480444D695B
:105AC80044EA85144460C2614A680264036230BCD7
